{
  "_format": "hh-sol-artifact-1",
  "contractName": "LyraMarketsRegistry",
  "sourceName": "contracts/periphery/LyraMarketsRegistry.sol",
  "abi": [
    {
      "anonymous": false,
      "inputs": [
        {
          "indexed": false,
          "internalType": "address",
          "name": "optionMarket",
          "type": "address"
        },
        {
          "indexed": false,
          "internalType": "address",
          "name": "liquidityPool",
          "type": "address"
        },
        {
          "indexed": false,
          "internalType": "address",
          "name": "liquidityCertificate",
          "type": "address"
        },
        {
          "indexed": false,
          "internalType": "address",
          "name": "optionGreekCache",
          "type": "address"
        },
        {
          "indexed": false,
          "internalType": "address",
          "name": "optionMarketPricer",
          "type": "address"
        },
        {
          "indexed": false,
          "internalType": "address",
          "name": "poolHedger",
          "type": "address"
        },
        {
          "indexed": false,
          "internalType": "address",
          "name": "shortCollateral",
          "type": "address"
        },
        {
          "indexed": false,
          "internalType": "address",
          "name": "quoteAsset",
          "type": "address"
        },
        {
          "indexed": false,
          "internalType": "address",
          "name": "baseAsset",
          "type": "address"
        },
        {
          "indexed": false,
          "internalType": "address",
          "name": "optionToken",
          "type": "address"
        }
      ],
      "name": "MarketAdded",
      "type": "event"
    },
    {
      "anonymous": false,
      "inputs": [
        {
          "indexed": false,
          "internalType": "address",
          "name": "optionMarket",
          "type": "address"
        }
      ],
      "name": "MarketRemoved",
      "type": "event"
    },
    {
      "anonymous": false,
      "inputs": [
        {
          "indexed": true,
          "internalType": "address",
          "name": "previousOwner",
          "type": "address"
        },
        {
          "indexed": true,
          "internalType": "address",
          "name": "newOwner",
          "type": "address"
        }
      ],
      "name": "OwnershipTransferred",
      "type": "event"
    },
    {
      "inputs": [
        {
          "internalType": "address",
          "name": "optionMarket",
          "type": "address"
        },
        {
          "internalType": "address",
          "name": "liquidityPool",
          "type": "address"
        },
        {
          "internalType": "address",
          "name": "liquidityCertificate",
          "type": "address"
        },
        {
          "internalType": "address",
          "name": "optionGreekCache",
          "type": "address"
        },
        {
          "internalType": "address",
          "name": "optionMarketPricer",
          "type": "address"
        },
        {
          "internalType": "address",
          "name": "poolHedger",
          "type": "address"
        },
        {
          "internalType": "address",
          "name": "shortCollateral",
          "type": "address"
        },
        {
          "internalType": "address",
          "name": "quoteAsset",
          "type": "address"
        },
        {
          "internalType": "address",
          "name": "baseAsset",
          "type": "address"
        },
        {
          "internalType": "address",
          "name": "optionToken",
          "type": "address"
        }
      ],
      "name": "addMarket",
      "outputs": [],
      "stateMutability": "nonpayable",
      "type": "function"
    },
    {
      "inputs": [],
      "name": "getOptionMarkets",
      "outputs": [
        {
          "internalType": "address[]",
          "name": "",
          "type": "address[]"
        }
      ],
      "stateMutability": "view",
      "type": "function"
    },
    {
      "inputs": [
        {
          "internalType": "address[]",
          "name": "optionMarketList",
          "type": "address[]"
        }
      ],
      "name": "getOptionMarketsAddresses",
      "outputs": [
        {
          "components": [
            {
              "internalType": "address",
              "name": "liquidityPool",
              "type": "address"
            },
            {
              "internalType": "address",
              "name": "liquidityCertificate",
              "type": "address"
            },
            {
              "internalType": "address",
              "name": "optionGreekCache",
              "type": "address"
            },
            {
              "internalType": "address",
              "name": "optionMarketPricer",
              "type": "address"
            },
            {
              "internalType": "address",
              "name": "poolHedger",
              "type": "address"
            },
            {
              "internalType": "address",
              "name": "shortCollateral",
              "type": "address"
            },
            {
              "internalType": "address",
              "name": "quoteAsset",
              "type": "address"
            },
            {
              "internalType": "address",
              "name": "baseAsset",
              "type": "address"
            },
            {
              "internalType": "address",
              "name": "optionToken",
              "type": "address"
            }
          ],
          "internalType": "struct LyraMarketsRegistry.MarketAddresses[]",
          "name": "",
          "type": "tuple[]"
        }
      ],
      "stateMutability": "view",
      "type": "function"
    },
    {
      "inputs": [
        {
          "internalType": "address",
          "name": "",
          "type": "address"
        }
      ],
      "name": "optionMarketsAddresses",
      "outputs": [
        {
          "internalType": "address",
          "name": "liquidityPool",
          "type": "address"
        },
        {
          "internalType": "address",
          "name": "liquidityCertificate",
          "type": "address"
        },
        {
          "internalType": "address",
          "name": "optionGreekCache",
          "type": "address"
        },
        {
          "internalType": "address",
          "name": "optionMarketPricer",
          "type": "address"
        },
        {
          "internalType": "address",
          "name": "poolHedger",
          "type": "address"
        },
        {
          "internalType": "address",
          "name": "shortCollateral",
          "type": "address"
        },
        {
          "internalType": "address",
          "name": "quoteAsset",
          "type": "address"
        },
        {
          "internalType": "address",
          "name": "baseAsset",
          "type": "address"
        },
        {
          "internalType": "address",
          "name": "optionToken",
          "type": "address"
        }
      ],
      "stateMutability": "view",
      "type": "function"
    },
    {
      "inputs": [],
      "name": "owner",
      "outputs": [
        {
          "internalType": "address",
          "name": "",
          "type": "address"
        }
      ],
      "stateMutability": "view",
      "type": "function"
    },
    {
      "inputs": [
        {
          "internalType": "address",
          "name": "optionMarket",
          "type": "address"
        }
      ],
      "name": "removeMarket",
      "outputs": [],
      "stateMutability": "nonpayable",
      "type": "function"
    },
    {
      "inputs": [],
      "name": "renounceOwnership",
      "outputs": [],
      "stateMutability": "nonpayable",
      "type": "function"
    },
    {
      "inputs": [
        {
          "internalType": "address",
          "name": "newOwner",
          "type": "address"
        }
      ],
      "name": "transferOwnership",
      "outputs": [],
      "stateMutability": "nonpayable",
      "type": "function"
    }
  ],
  "bytecode": "0x608060405234801561001057600080fd5b5060006100216100c460201b60201c565b9050806000806101000a81548173ffffffffffffffffffffffffffffffffffffffff021916908373ffffffffffffffffffffffffffffffffffffffff1602179055508073ffffffffffffffffffffffffffffffffffffffff16600073ffffffffffffffffffffffffffffffffffffffff167f8be0079c531659141344cd1fd0a4f28419497f9722a3daafe3b4186f6b6457e060405160405180910390a3506100cc565b600033905090565b611e17806100db6000396000f3fe608060405234801561001057600080fd5b50600436106100885760003560e01c80638da5cb5b1161005b5780638da5cb5b14610101578063db9132361461011f578063eefa7a7d1461013b578063f2fde38b1461017357610088565b80630dc3c51d1461008d578063175e49b7146100a95780636d3812e0146100c7578063715018a6146100f7575b600080fd5b6100a760048036038101906100a291906117a3565b61018f565b005b6100b16106ae565b6040516100be9190611c49565b60405180910390f35b6100e160048036038101906100dc919061187e565b610787565b6040516100ee9190611c6b565b60405180910390f35b6100ff610b90565b005b610109610cfd565b6040516101169190611b05565b60405180910390f35b6101396004803603810190610134919061177a565b610d26565b005b6101556004803603810190610150919061177a565b611003565b60405161016a99989796959493929190611b20565b60405180910390f35b61018d6004803603810190610188919061177a565b611171565b005b610197611363565b73ffffffffffffffffffffffffffffffffffffffff166101b5610cfd565b73ffffffffffffffffffffffffffffffffffffffff161461023e576040517f08c379a00000000000000000000000000000000000000000000000000000000081526004018080602001828103825260208152602001807f4f776e61626c653a2063616c6c6572206973206e6f7420746865206f776e657281525060200191505060405180910390fd5b6102528a600161136b90919063ffffffff16565b610291576040517f08c379a000000000000000000000000000000000000000000000000000000000815260040161028890611cad565b60405180910390fd5b6040518061012001604052808a73ffffffffffffffffffffffffffffffffffffffff1681526020018973ffffffffffffffffffffffffffffffffffffffff1681526020018873ffffffffffffffffffffffffffffffffffffffff1681526020018773ffffffffffffffffffffffffffffffffffffffff1681526020018673ffffffffffffffffffffffffffffffffffffffff1681526020018573ffffffffffffffffffffffffffffffffffffffff1681526020018473ffffffffffffffffffffffffffffffffffffffff1681526020018373ffffffffffffffffffffffffffffffffffffffff1681526020018273ffffffffffffffffffffffffffffffffffffffff16815250600360008c73ffffffffffffffffffffffffffffffffffffffff1673ffffffffffffffffffffffffffffffffffffffff16815260200190815260200160002060008201518160000160006101000a81548173ffffffffffffffffffffffffffffffffffffffff021916908373ffffffffffffffffffffffffffffffffffffffff16021790555060208201518160010160006101000a81548173ffffffffffffffffffffffffffffffffffffffff021916908373ffffffffffffffffffffffffffffffffffffffff16021790555060408201518160020160006101000a81548173ffffffffffffffffffffffffffffffffffffffff021916908373ffffffffffffffffffffffffffffffffffffffff16021790555060608201518160030160006101000a81548173ffffffffffffffffffffffffffffffffffffffff021916908373ffffffffffffffffffffffffffffffffffffffff16021790555060808201518160040160006101000a81548173ffffffffffffffffffffffffffffffffffffffff021916908373ffffffffffffffffffffffffffffffffffffffff16021790555060a08201518160050160006101000a81548173ffffffffffffffffffffffffffffffffffffffff021916908373ffffffffffffffffffffffffffffffffffffffff16021790555060c08201518160060160006101000a81548173ffffffffffffffffffffffffffffffffffffffff021916908373ffffffffffffffffffffffffffffffffffffffff16021790555060e08201518160070160006101000a81548173ffffffffffffffffffffffffffffffffffffffff021916908373ffffffffffffffffffffffffffffffffffffffff1602179055506101008201518160080160006101000a81548173ffffffffffffffffffffffffffffffffffffffff021916908373ffffffffffffffffffffffffffffffffffffffff1602179055509050507f87cdff899174e1c37536e16be70499cda0bf4c23c74a96d24202ca53f167a90c8a8a8a8a8a8a8a8a8a8a60405161069a9a99989796959493929190611bad565b60405180910390a150505050505050505050565b606060006106bc600161139b565b67ffffffffffffffff811180156106d257600080fd5b506040519080825280602002602001820160405280156107015781602001602082028036833780820191505090505b50905060005b610711600161139b565b81101561077f5761072c8160016113b090919063ffffffff16565b82828151811061073857fe5b602002602001019073ffffffffffffffffffffffffffffffffffffffff16908173ffffffffffffffffffffffffffffffffffffffff16815250508080600101915050610707565b508091505090565b606060008383905067ffffffffffffffff811180156107a557600080fd5b506040519080825280602002602001820160405280156107df57816020015b6107cc611609565b8152602001906001900390816107c45790505b50905060005b84849050811015610b85576003600086868481811061080057fe5b9050602002016020810190610815919061177a565b73ffffffffffffffffffffffffffffffffffffffff1673ffffffffffffffffffffffffffffffffffffffff168152602001908152602001600020604051806101200160405290816000820160009054906101000a900473ffffffffffffffffffffffffffffffffffffffff1673ffffffffffffffffffffffffffffffffffffffff1673ffffffffffffffffffffffffffffffffffffffff1681526020016001820160009054906101000a900473ffffffffffffffffffffffffffffffffffffffff1673ffffffffffffffffffffffffffffffffffffffff1673ffffffffffffffffffffffffffffffffffffffff1681526020016002820160009054906101000a900473ffffffffffffffffffffffffffffffffffffffff1673ffffffffffffffffffffffffffffffffffffffff1673ffffffffffffffffffffffffffffffffffffffff1681526020016003820160009054906101000a900473ffffffffffffffffffffffffffffffffffffffff1673ffffffffffffffffffffffffffffffffffffffff1673ffffffffffffffffffffffffffffffffffffffff1681526020016004820160009054906101000a900473ffffffffffffffffffffffffffffffffffffffff1673ffffffffffffffffffffffffffffffffffffffff1673ffffffffffffffffffffffffffffffffffffffff1681526020016005820160009054906101000a900473ffffffffffffffffffffffffffffffffffffffff1673ffffffffffffffffffffffffffffffffffffffff1673ffffffffffffffffffffffffffffffffffffffff1681526020016006820160009054906101000a900473ffffffffffffffffffffffffffffffffffffffff1673ffffffffffffffffffffffffffffffffffffffff1673ffffffffffffffffffffffffffffffffffffffff1681526020016007820160009054906101000a900473ffffffffffffffffffffffffffffffffffffffff1673ffffffffffffffffffffffffffffffffffffffff1673ffffffffffffffffffffffffffffffffffffffff1681526020016008820160009054906101000a900473ffffffffffffffffffffffffffffffffffffffff1673ffffffffffffffffffffffffffffffffffffffff1673ffffffffffffffffffffffffffffffffffffffff1681525050828281518110610b6d57fe5b602002602001018190525080806001019150506107e5565b508091505092915050565b610b98611363565b73ffffffffffffffffffffffffffffffffffffffff16610bb6610cfd565b73ffffffffffffffffffffffffffffffffffffffff1614610c3f576040517f08c379a00000000000000000000000000000000000000000000000000000000081526004018080602001828103825260208152602001807f4f776e61626c653a2063616c6c6572206973206e6f7420746865206f776e657281525060200191505060405180910390fd5b600073ffffffffffffffffffffffffffffffffffffffff1660008054906101000a900473ffffffffffffffffffffffffffffffffffffffff1673ffffffffffffffffffffffffffffffffffffffff167f8be0079c531659141344cd1fd0a4f28419497f9722a3daafe3b4186f6b6457e060405160405180910390a360008060006101000a81548173ffffffffffffffffffffffffffffffffffffffff021916908373ffffffffffffffffffffffffffffffffffffffff160217905550565b60008060009054906101000a900473ffffffffffffffffffffffffffffffffffffffff16905090565b610d2e611363565b73ffffffffffffffffffffffffffffffffffffffff16610d4c610cfd565b73ffffffffffffffffffffffffffffffffffffffff1614610dd5576040517f08c379a00000000000000000000000000000000000000000000000000000000081526004018080602001828103825260208152602001807f4f776e61626c653a2063616c6c6572206973206e6f7420746865206f776e657281525060200191505060405180910390fd5b610de98160016113ca90919063ffffffff16565b610e28576040517f08c379a0000000000000000000000000000000000000000000000000000000008152600401610e1f90611c8d565b60405180910390fd5b600360008273ffffffffffffffffffffffffffffffffffffffff1673ffffffffffffffffffffffffffffffffffffffff168152602001908152602001600020600080820160006101000a81549073ffffffffffffffffffffffffffffffffffffffff02191690556001820160006101000a81549073ffffffffffffffffffffffffffffffffffffffff02191690556002820160006101000a81549073ffffffffffffffffffffffffffffffffffffffff02191690556003820160006101000a81549073ffffffffffffffffffffffffffffffffffffffff02191690556004820160006101000a81549073ffffffffffffffffffffffffffffffffffffffff02191690556005820160006101000a81549073ffffffffffffffffffffffffffffffffffffffff02191690556006820160006101000a81549073ffffffffffffffffffffffffffffffffffffffff02191690556007820160006101000a81549073ffffffffffffffffffffffffffffffffffffffff02191690556008820160006101000a81549073ffffffffffffffffffffffffffffffffffffffff021916905550507f59d7b1e52008dc342c9421dadfc773114b914a65682a4e4b53cf60a970df0d7781604051610ff89190611b05565b60405180910390a150565b60036020528060005260406000206000915090508060000160009054906101000a900473ffffffffffffffffffffffffffffffffffffffff16908060010160009054906101000a900473ffffffffffffffffffffffffffffffffffffffff16908060020160009054906101000a900473ffffffffffffffffffffffffffffffffffffffff16908060030160009054906101000a900473ffffffffffffffffffffffffffffffffffffffff16908060040160009054906101000a900473ffffffffffffffffffffffffffffffffffffffff16908060050160009054906101000a900473ffffffffffffffffffffffffffffffffffffffff16908060060160009054906101000a900473ffffffffffffffffffffffffffffffffffffffff16908060070160009054906101000a900473ffffffffffffffffffffffffffffffffffffffff16908060080160009054906101000a900473ffffffffffffffffffffffffffffffffffffffff16905089565b611179611363565b73ffffffffffffffffffffffffffffffffffffffff16611197610cfd565b73ffffffffffffffffffffffffffffffffffffffff1614611220576040517f08c379a00000000000000000000000000000000000000000000000000000000081526004018080602001828103825260208152602001807f4f776e61626c653a2063616c6c6572206973206e6f7420746865206f776e657281525060200191505060405180910390fd5b600073ffffffffffffffffffffffffffffffffffffffff168173ffffffffffffffffffffffffffffffffffffffff1614156112a6576040517f08c379a0000000000000000000000000000000000000000000000000000000008152600401808060200182810382526026815260200180611dbc6026913960400191505060405180910390fd5b8073ffffffffffffffffffffffffffffffffffffffff1660008054906101000a900473ffffffffffffffffffffffffffffffffffffffff1673ffffffffffffffffffffffffffffffffffffffff167f8be0079c531659141344cd1fd0a4f28419497f9722a3daafe3b4186f6b6457e060405160405180910390a3806000806101000a81548173ffffffffffffffffffffffffffffffffffffffff021916908373ffffffffffffffffffffffffffffffffffffffff16021790555050565b600033905090565b6000611393836000018373ffffffffffffffffffffffffffffffffffffffff1660001b6113fa565b905092915050565b60006113a98260000161146a565b9050919050565b60006113bf836000018361147b565b60001c905092915050565b60006113f2836000018373ffffffffffffffffffffffffffffffffffffffff1660001b6114fe565b905092915050565b600061140683836115e6565b61145f578260000182908060018154018082558091505060019003906000526020600020016000909190919091505582600001805490508360010160008481526020019081526020016000208190555060019050611464565b600090505b92915050565b600081600001805490509050919050565b6000818360000180549050116114dc576040517f08c379a0000000000000000000000000000000000000000000000000000000008152600401808060200182810382526022815260200180611d9a6022913960400191505060405180910390fd5b8260000182815481106114eb57fe5b9060005260206000200154905092915050565b600080836001016000848152602001908152602001600020549050600081146115da576000600182039050600060018660000180549050039050600086600001828154811061154957fe5b906000526020600020015490508087600001848154811061156657fe5b906000526020600020018190555060018301876001016000838152602001908152602001600020819055508660000180548061159e57fe5b600190038181906000526020600020016000905590558660010160008781526020019081526020016000206000905560019450505050506115e0565b60009150505b92915050565b600080836001016000848152602001908152602001600020541415905092915050565b604051806101200160405280600073ffffffffffffffffffffffffffffffffffffffff168152602001600073ffffffffffffffffffffffffffffffffffffffff168152602001600073ffffffffffffffffffffffffffffffffffffffff168152602001600073ffffffffffffffffffffffffffffffffffffffff168152602001600073ffffffffffffffffffffffffffffffffffffffff168152602001600073ffffffffffffffffffffffffffffffffffffffff168152602001600073ffffffffffffffffffffffffffffffffffffffff168152602001600073ffffffffffffffffffffffffffffffffffffffff168152602001600073ffffffffffffffffffffffffffffffffffffffff1681525090565b60008135905061172a81611d82565b92915050565b60008083601f84011261174257600080fd5b8235905067ffffffffffffffff81111561175b57600080fd5b60208301915083602082028301111561177357600080fd5b9250929050565b60006020828403121561178c57600080fd5b600061179a8482850161171b565b91505092915050565b6000806000806000806000806000806101408b8d0312156117c357600080fd5b60006117d18d828e0161171b565b9a505060206117e28d828e0161171b565b99505060406117f38d828e0161171b565b98505060606118048d828e0161171b565b97505060806118158d828e0161171b565b96505060a06118268d828e0161171b565b95505060c06118378d828e0161171b565b94505060e06118488d828e0161171b565b93505061010061185a8d828e0161171b565b92505061012061186c8d828e0161171b565b9150509295989b9194979a5092959850565b6000806020838503121561189157600080fd5b600083013567ffffffffffffffff8111156118ab57600080fd5b6118b785828601611730565b92509250509250929050565b60006118cf83836118f4565b60208301905092915050565b60006118e78383611a4e565b6101208301905092915050565b6118fd81611d50565b82525050565b61190c81611d50565b82525050565b600061191d82611ced565b6119278185611d1d565b935061193283611ccd565b8060005b8381101561196357815161194a88826118c3565b975061195583611d03565b925050600181019050611936565b5085935050505092915050565b600061197b82611cf8565b6119858185611d2e565b935061199083611cdd565b8060005b838110156119c15781516119a888826118db565b97506119b383611d10565b925050600181019050611994565b5085935050505092915050565b60006119db601283611d3f565b91507f6d61726b6574206e6f742070726573656e7400000000000000000000000000006000830152602082019050919050565b6000611a1b601683611d3f565b91507f6d61726b657420616c72656164792070726573656e74000000000000000000006000830152602082019050919050565b61012082016000820151611a6560008501826118f4565b506020820151611a7860208501826118f4565b506040820151611a8b60408501826118f4565b506060820151611a9e60608501826118f4565b506080820151611ab160808501826118f4565b5060a0820151611ac460a08501826118f4565b5060c0820151611ad760c08501826118f4565b5060e0820151611aea60e08501826118f4565b50610100820151611aff6101008501826118f4565b50505050565b6000602082019050611b1a6000830184611903565b92915050565b600061012082019050611b36600083018c611903565b611b43602083018b611903565b611b50604083018a611903565b611b5d6060830189611903565b611b6a6080830188611903565b611b7760a0830187611903565b611b8460c0830186611903565b611b9160e0830185611903565b611b9f610100830184611903565b9a9950505050505050505050565b600061014082019050611bc3600083018d611903565b611bd0602083018c611903565b611bdd604083018b611903565b611bea606083018a611903565b611bf76080830189611903565b611c0460a0830188611903565b611c1160c0830187611903565b611c1e60e0830186611903565b611c2c610100830185611903565b611c3a610120830184611903565b9b9a5050505050505050505050565b60006020820190508181036000830152611c638184611912565b905092915050565b60006020820190508181036000830152611c858184611970565b905092915050565b60006020820190508181036000830152611ca6816119ce565b9050919050565b60006020820190508181036000830152611cc681611a0e565b9050919050565b6000819050602082019050919050565b6000819050602082019050919050565b600081519050919050565b600081519050919050565b6000602082019050919050565b6000602082019050919050565b600082825260208201905092915050565b600082825260208201905092915050565b600082825260208201905092915050565b6000611d5b82611d62565b9050919050565b600073ffffffffffffffffffffffffffffffffffffffff82169050919050565b611d8b81611d50565b8114611d9657600080fd5b5056fe456e756d657261626c655365743a20696e646578206f7574206f6620626f756e64734f776e61626c653a206e6577206f776e657220697320746865207a65726f2061646472657373a2646970667358221220d83047cc73fccdfe58313445a35aa025485699fd3b3e6471d7408024dd9e37ac64736f6c63430007060033",
  "linkReferences": {},
  "deployedLinkReferences": {}
}