{
  "_format": "hh-sol-artifact-1",
  "contractName": "OptionMarketViewer",
  "sourceName": "contracts/periphery/OptionMarketViewer.sol",
  "abi": [
    {
      "inputs": [],
      "stateMutability": "nonpayable",
      "type": "constructor"
    },
    {
      "inputs": [
        {
          "components": [
            {
              "internalType": "uint256",
              "name": "id",
              "type": "uint256"
            },
            {
              "internalType": "uint256",
              "name": "strike",
              "type": "uint256"
            },
            {
              "internalType": "uint256",
              "name": "skew",
              "type": "uint256"
            },
            {
              "internalType": "uint256",
              "name": "longCall",
              "type": "uint256"
            },
            {
              "internalType": "uint256",
              "name": "shortCall",
              "type": "uint256"
            },
            {
              "internalType": "uint256",
              "name": "longPut",
              "type": "uint256"
            },
            {
              "internalType": "uint256",
              "name": "shortPut",
              "type": "uint256"
            },
            {
              "internalType": "uint256",
              "name": "boardId",
              "type": "uint256"
            }
          ],
          "internalType": "struct IOptionMarket.OptionListing",
          "name": "listing",
          "type": "tuple"
        },
        {
          "components": [
            {
              "internalType": "uint256",
              "name": "id",
              "type": "uint256"
            },
            {
              "internalType": "uint256",
              "name": "expiry",
              "type": "uint256"
            },
            {
              "internalType": "uint256",
              "name": "iv",
              "type": "uint256"
            },
            {
              "internalType": "bool",
              "name": "frozen",
              "type": "bool"
            },
            {
              "internalType": "uint256[]",
              "name": "listingIds",
              "type": "uint256[]"
            }
          ],
          "internalType": "struct IOptionMarket.OptionBoard",
          "name": "board",
          "type": "tuple"
        },
        {
          "components": [
            {
              "internalType": "bool",
              "name": "isBuy",
              "type": "bool"
            },
            {
              "internalType": "uint256",
              "name": "amount",
              "type": "uint256"
            },
            {
              "internalType": "uint256",
              "name": "vol",
              "type": "uint256"
            },
            {
              "internalType": "uint256",
              "name": "expiry",
              "type": "uint256"
            },
            {
              "components": [
                {
                  "internalType": "uint256",
                  "name": "freeCollatLiquidity",
                  "type": "uint256"
                },
                {
                  "internalType": "uint256",
                  "name": "usedCollatLiquidity",
                  "type": "uint256"
                },
                {
                  "internalType": "uint256",
                  "name": "freeDeltaLiquidity",
                  "type": "uint256"
                },
                {
                  "internalType": "uint256",
                  "name": "usedDeltaLiquidity",
                  "type": "uint256"
                }
              ],
              "internalType": "struct ILiquidityPool.Liquidity",
              "name": "liquidity",
              "type": "tuple"
            }
          ],
          "internalType": "struct IOptionMarket.Trade",
          "name": "trade",
          "type": "tuple"
        },
        {
          "components": [
            {
              "internalType": "uint256",
              "name": "optionPriceFeeCoefficient",
              "type": "uint256"
            },
            {
              "internalType": "uint256",
              "name": "spotPriceFeeCoefficient",
              "type": "uint256"
            },
            {
              "internalType": "uint256",
              "name": "vegaFeeCoefficient",
              "type": "uint256"
            },
            {
              "internalType": "uint256",
              "name": "vegaNormFactor",
              "type": "uint256"
            },
            {
              "internalType": "uint256",
              "name": "standardSize",
              "type": "uint256"
            },
            {
              "internalType": "uint256",
              "name": "skewAdjustmentFactor",
              "type": "uint256"
            },
            {
              "internalType": "int256",
              "name": "rateAndCarry",
              "type": "int256"
            },
            {
              "internalType": "int256",
              "name": "minDelta",
              "type": "int256"
            },
            {
              "internalType": "uint256",
              "name": "volatilityCutoff",
              "type": "uint256"
            },
            {
              "internalType": "uint256",
              "name": "spotPrice",
              "type": "uint256"
            }
          ],
          "internalType": "struct ILyraGlobals.PricingGlobals",
          "name": "pricingGlobals",
          "type": "tuple"
        },
        {
          "internalType": "bool",
          "name": "isCall",
          "type": "bool"
        }
      ],
      "name": "_getPremiumForTrade",
      "outputs": [
        {
          "internalType": "uint256",
          "name": "",
          "type": "uint256"
        },
        {
          "internalType": "uint256",
          "name": "",
          "type": "uint256"
        }
      ],
      "stateMutability": "view",
      "type": "function"
    },
    {
      "inputs": [],
      "name": "blackScholes",
      "outputs": [
        {
          "internalType": "contract IBlackScholes",
          "name": "",
          "type": "address"
        }
      ],
      "stateMutability": "view",
      "type": "function"
    },
    {
      "inputs": [
        {
          "internalType": "uint256",
          "name": "boardId",
          "type": "uint256"
        }
      ],
      "name": "getBoard",
      "outputs": [
        {
          "components": [
            {
              "internalType": "uint256",
              "name": "id",
              "type": "uint256"
            },
            {
              "internalType": "uint256",
              "name": "expiry",
              "type": "uint256"
            },
            {
              "internalType": "uint256",
              "name": "iv",
              "type": "uint256"
            },
            {
              "internalType": "bool",
              "name": "frozen",
              "type": "bool"
            },
            {
              "internalType": "uint256[]",
              "name": "listingIds",
              "type": "uint256[]"
            }
          ],
          "internalType": "struct IOptionMarket.OptionBoard",
          "name": "",
          "type": "tuple"
        }
      ],
      "stateMutability": "view",
      "type": "function"
    },
    {
      "inputs": [
        {
          "internalType": "uint256",
          "name": "listingId",
          "type": "uint256"
        }
      ],
      "name": "getListing",
      "outputs": [
        {
          "components": [
            {
              "internalType": "uint256",
              "name": "id",
              "type": "uint256"
            },
            {
              "internalType": "uint256",
              "name": "strike",
              "type": "uint256"
            },
            {
              "internalType": "uint256",
              "name": "skew",
              "type": "uint256"
            },
            {
              "internalType": "uint256",
              "name": "longCall",
              "type": "uint256"
            },
            {
              "internalType": "uint256",
              "name": "shortCall",
              "type": "uint256"
            },
            {
              "internalType": "uint256",
              "name": "longPut",
              "type": "uint256"
            },
            {
              "internalType": "uint256",
              "name": "shortPut",
              "type": "uint256"
            },
            {
              "internalType": "uint256",
              "name": "boardId",
              "type": "uint256"
            }
          ],
          "internalType": "struct IOptionMarket.OptionListing",
          "name": "",
          "type": "tuple"
        }
      ],
      "stateMutability": "view",
      "type": "function"
    },
    {
      "inputs": [
        {
          "internalType": "uint256",
          "name": "listingId",
          "type": "uint256"
        }
      ],
      "name": "getListingView",
      "outputs": [
        {
          "components": [
            {
              "internalType": "uint256",
              "name": "listingId",
              "type": "uint256"
            },
            {
              "internalType": "uint256",
              "name": "boardId",
              "type": "uint256"
            },
            {
              "internalType": "uint256",
              "name": "strike",
              "type": "uint256"
            },
            {
              "internalType": "uint256",
              "name": "expiry",
              "type": "uint256"
            },
            {
              "internalType": "uint256",
              "name": "iv",
              "type": "uint256"
            },
            {
              "internalType": "uint256",
              "name": "skew",
              "type": "uint256"
            },
            {
              "internalType": "uint256",
              "name": "callPrice",
              "type": "uint256"
            },
            {
              "internalType": "uint256",
              "name": "putPrice",
              "type": "uint256"
            },
            {
              "internalType": "int256",
              "name": "callDelta",
              "type": "int256"
            },
            {
              "internalType": "int256",
              "name": "putDelta",
              "type": "int256"
            },
            {
              "internalType": "uint256",
              "name": "longCall",
              "type": "uint256"
            },
            {
              "internalType": "uint256",
              "name": "shortCall",
              "type": "uint256"
            },
            {
              "internalType": "uint256",
              "name": "longPut",
              "type": "uint256"
            },
            {
              "internalType": "uint256",
              "name": "shortPut",
              "type": "uint256"
            }
          ],
          "internalType": "struct OptionMarketViewer.ListingView",
          "name": "listingView",
          "type": "tuple"
        }
      ],
      "stateMutability": "view",
      "type": "function"
    },
    {
      "inputs": [
        {
          "internalType": "uint256",
          "name": "listingId",
          "type": "uint256"
        },
        {
          "internalType": "address",
          "name": "user",
          "type": "address"
        }
      ],
      "name": "getListingViewAndBalance",
      "outputs": [
        {
          "components": [
            {
              "internalType": "uint256",
              "name": "listingId",
              "type": "uint256"
            },
            {
              "internalType": "uint256",
              "name": "boardId",
              "type": "uint256"
            },
            {
              "internalType": "uint256",
              "name": "strike",
              "type": "uint256"
            },
            {
              "internalType": "uint256",
              "name": "expiry",
              "type": "uint256"
            },
            {
              "internalType": "uint256",
              "name": "iv",
              "type": "uint256"
            },
            {
              "internalType": "uint256",
              "name": "skew",
              "type": "uint256"
            },
            {
              "internalType": "uint256",
              "name": "callPrice",
              "type": "uint256"
            },
            {
              "internalType": "uint256",
              "name": "putPrice",
              "type": "uint256"
            },
            {
              "internalType": "int256",
              "name": "callDelta",
              "type": "int256"
            },
            {
              "internalType": "int256",
              "name": "putDelta",
              "type": "int256"
            },
            {
              "internalType": "uint256",
              "name": "longCall",
              "type": "uint256"
            },
            {
              "internalType": "uint256",
              "name": "shortCall",
              "type": "uint256"
            },
            {
              "internalType": "uint256",
              "name": "longPut",
              "type": "uint256"
            },
            {
              "internalType": "uint256",
              "name": "shortPut",
              "type": "uint256"
            }
          ],
          "internalType": "struct OptionMarketViewer.ListingView",
          "name": "listingView",
          "type": "tuple"
        },
        {
          "internalType": "uint256",
          "name": "longCallAmt",
          "type": "uint256"
        },
        {
          "internalType": "uint256",
          "name": "longPutAmt",
          "type": "uint256"
        },
        {
          "internalType": "uint256",
          "name": "shortCallAmt",
          "type": "uint256"
        },
        {
          "internalType": "uint256",
          "name": "shortPutAmt",
          "type": "uint256"
        }
      ],
      "stateMutability": "view",
      "type": "function"
    },
    {
      "inputs": [
        {
          "internalType": "uint256",
          "name": "boardId",
          "type": "uint256"
        }
      ],
      "name": "getListingsForBoard",
      "outputs": [
        {
          "components": [
            {
              "internalType": "uint256",
              "name": "listingId",
              "type": "uint256"
            },
            {
              "internalType": "uint256",
              "name": "boardId",
              "type": "uint256"
            },
            {
              "internalType": "uint256",
              "name": "strike",
              "type": "uint256"
            },
            {
              "internalType": "uint256",
              "name": "expiry",
              "type": "uint256"
            },
            {
              "internalType": "uint256",
              "name": "iv",
              "type": "uint256"
            },
            {
              "internalType": "uint256",
              "name": "skew",
              "type": "uint256"
            },
            {
              "internalType": "uint256",
              "name": "callPrice",
              "type": "uint256"
            },
            {
              "internalType": "uint256",
              "name": "putPrice",
              "type": "uint256"
            },
            {
              "internalType": "int256",
              "name": "callDelta",
              "type": "int256"
            },
            {
              "internalType": "int256",
              "name": "putDelta",
              "type": "int256"
            },
            {
              "internalType": "uint256",
              "name": "longCall",
              "type": "uint256"
            },
            {
              "internalType": "uint256",
              "name": "shortCall",
              "type": "uint256"
            },
            {
              "internalType": "uint256",
              "name": "longPut",
              "type": "uint256"
            },
            {
              "internalType": "uint256",
              "name": "shortPut",
              "type": "uint256"
            }
          ],
          "internalType": "struct OptionMarketViewer.ListingView[]",
          "name": "boardListings",
          "type": "tuple[]"
        }
      ],
      "stateMutability": "view",
      "type": "function"
    },
    {
      "inputs": [],
      "name": "getLiveBoards",
      "outputs": [
        {
          "components": [
            {
              "internalType": "uint256",
              "name": "boardId",
              "type": "uint256"
            },
            {
              "internalType": "uint256",
              "name": "expiry",
              "type": "uint256"
            }
          ],
          "internalType": "struct OptionMarketViewer.BoardView[]",
          "name": "boards",
          "type": "tuple[]"
        }
      ],
      "stateMutability": "view",
      "type": "function"
    },
    {
      "inputs": [
        {
          "internalType": "uint256",
          "name": "_listingId",
          "type": "uint256"
        },
        {
          "internalType": "enum IOptionMarket.TradeType",
          "name": "tradeType",
          "type": "uint8"
        },
        {
          "internalType": "uint256",
          "name": "amount",
          "type": "uint256"
        }
      ],
      "name": "getPremiumForClose",
      "outputs": [
        {
          "internalType": "uint256",
          "name": "premium",
          "type": "uint256"
        },
        {
          "internalType": "uint256",
          "name": "newIv",
          "type": "uint256"
        }
      ],
      "stateMutability": "view",
      "type": "function"
    },
    {
      "inputs": [
        {
          "internalType": "uint256",
          "name": "_listingId",
          "type": "uint256"
        },
        {
          "internalType": "enum IOptionMarket.TradeType",
          "name": "tradeType",
          "type": "uint8"
        },
        {
          "internalType": "uint256",
          "name": "amount",
          "type": "uint256"
        }
      ],
      "name": "getPremiumForOpen",
      "outputs": [
        {
          "internalType": "uint256",
          "name": "premium",
          "type": "uint256"
        },
        {
          "internalType": "uint256",
          "name": "newIv",
          "type": "uint256"
        }
      ],
      "stateMutability": "view",
      "type": "function"
    },
    {
      "inputs": [
        {
          "internalType": "uint256",
          "name": "_listingId",
          "type": "uint256"
        },
        {
          "internalType": "enum IOptionMarket.TradeType",
          "name": "tradeType",
          "type": "uint8"
        },
        {
          "internalType": "bool",
          "name": "isBuy",
          "type": "bool"
        },
        {
          "internalType": "uint256",
          "name": "amount",
          "type": "uint256"
        }
      ],
      "name": "getPremiumForTrade",
      "outputs": [
        {
          "internalType": "uint256",
          "name": "premium",
          "type": "uint256"
        },
        {
          "internalType": "uint256",
          "name": "newIv",
          "type": "uint256"
        }
      ],
      "stateMutability": "view",
      "type": "function"
    },
    {
      "inputs": [],
      "name": "globals",
      "outputs": [
        {
          "internalType": "contract ILyraGlobals",
          "name": "",
          "type": "address"
        }
      ],
      "stateMutability": "view",
      "type": "function"
    },
    {
      "inputs": [],
      "name": "greekCache",
      "outputs": [
        {
          "internalType": "contract IOptionGreekCache",
          "name": "",
          "type": "address"
        }
      ],
      "stateMutability": "view",
      "type": "function"
    },
    {
      "inputs": [
        {
          "internalType": "contract ILyraGlobals",
          "name": "_globals",
          "type": "address"
        },
        {
          "internalType": "contract IOptionMarket",
          "name": "_optionMarket",
          "type": "address"
        },
        {
          "internalType": "contract IOptionMarketPricer",
          "name": "_optionMarketPricer",
          "type": "address"
        },
        {
          "internalType": "contract IOptionGreekCache",
          "name": "_greekCache",
          "type": "address"
        },
        {
          "internalType": "contract IOptionToken",
          "name": "_optionToken",
          "type": "address"
        },
        {
          "internalType": "contract ILiquidityPool",
          "name": "_liquidityPool",
          "type": "address"
        },
        {
          "internalType": "contract IBlackScholes",
          "name": "_blackScholes",
          "type": "address"
        }
      ],
      "name": "init",
      "outputs": [],
      "stateMutability": "nonpayable",
      "type": "function"
    },
    {
      "inputs": [],
      "name": "liquidityPool",
      "outputs": [
        {
          "internalType": "contract ILiquidityPool",
          "name": "",
          "type": "address"
        }
      ],
      "stateMutability": "view",
      "type": "function"
    },
    {
      "inputs": [],
      "name": "optionMarket",
      "outputs": [
        {
          "internalType": "contract IOptionMarket",
          "name": "",
          "type": "address"
        }
      ],
      "stateMutability": "view",
      "type": "function"
    },
    {
      "inputs": [],
      "name": "optionMarketPricer",
      "outputs": [
        {
          "internalType": "contract IOptionMarketPricer",
          "name": "",
          "type": "address"
        }
      ],
      "stateMutability": "view",
      "type": "function"
    },
    {
      "inputs": [],
      "name": "optionToken",
      "outputs": [
        {
          "internalType": "contract IOptionToken",
          "name": "",
          "type": "address"
        }
      ],
      "stateMutability": "view",
      "type": "function"
    }
  ],
  "bytecode": "0x60806040526000600660146101000a81548160ff02191690831515021790555034801561002b57600080fd5b506140388061003b6000396000f3fe608060405234801561001057600080fd5b50600436106101165760003560e01c80635dd8c74d116100a2578063a5a249d011610071578063a5a249d014610338578063bb4a9f8814610356578063c312452514610374578063f0d4d59214610392578063f43acb68146103ae57610116565b80635dd8c74d14610297578063665a11ca146102c85780637e7088eb146102e65780638dd915d11461030457610116565b806338b74054116100e957806338b74054146101c95780633904b0c8146101e75780633c195aa71461021857806345e09e5414610236578063467e24c11461026657610116565b8063107a274a1461011b57806319ca692a1461014b578063236c70d11461017b5780632bab754b146101ab575b600080fd5b61013560048036038101906101309190612c2f565b6103df565b60405161014291906139be565b60405180910390f35b61016560048036038101906101609190612c2f565b6104f8565b6040516101729190613829565b60405180910390f35b61019560048036038101906101909190612c2f565b610812565b6040516101a29190613928565b60405180910390f35b6101b3610a97565b6040516101c091906138ed565b60405180910390f35b6101d1610abd565b6040516101de919061389c565b60405180910390f35b61020160048036038101906101fc9190612d20565b610ae3565b60405161020f929190613aa1565b60405180910390f35b610220610b3d565b60405161022d919061384b565b60405180910390f35b610250600480360381019061024b9190612c2f565b610b63565b60405161025d919061399c565b60405180910390f35b610280600480360381019061027b9190612cbd565b610d0b565b60405161028e929190613aa1565b60405180910390f35b6102b160048036038101906102ac9190612b48565b61102e565b6040516102bf929190613aa1565b60405180910390f35b6102d0611257565b6040516102dd9190613866565b60405180910390f35b6102ee61127d565b6040516102fb9190613807565b60405180910390f35b61031e60048036038101906103199190612c81565b6113f0565b60405161032f959493929190613944565b60405180910390f35b610340611702565b60405161034d91906138b7565b60405180910390f35b61035e611728565b60405161036b91906138d2565b60405180910390f35b61037c61174e565b6040516103899190613881565b60405180910390f35b6103ac60048036038101906103a791906129a6565b611772565b005b6103c860048036038101906103c39190612d20565b6119ac565b6040516103d6929190613aa1565b60405180910390f35b6103e7611ec9565b600080600080600080600080600160009054906101000a900473ffffffffffffffffffffffffffffffffffffffff1673ffffffffffffffffffffffffffffffffffffffff16633289cf8f8b6040518263ffffffff1660e01b815260040161044e9190613a5d565b6101006040518083038186803b15801561046757600080fd5b505afa15801561047b573d6000803e3d6000fd5b505050506040513d601f19601f8201168201806040525081019061049f9190612efe565b975097509750975097509750975097506040518061010001604052808981526020018881526020018781526020018681526020018581526020018481526020018381526020018281525098505050505050505050919050565b6060600061050583610b63565b905060008060009054906101000a900473ffffffffffffffffffffffffffffffffffffffff1673ffffffffffffffffffffffffffffffffffffffff1663aeade032600160009054906101000a900473ffffffffffffffffffffffffffffffffffffffff166040518263ffffffff1660e01b8152600401610585919061379a565b604080518083038186803b15801561059c57600080fd5b505afa1580156105b0573d6000803e3d6000fd5b505050506040513d601f19601f820116820180604052508101906105d49190612af6565b905081608001515167ffffffffffffffff811180156105f257600080fd5b5060405190808252806020026020018201604052801561062c57816020015b610619611f0e565b8152602001906001900390816106115790505b50925060005b82608001515181101561080a5760006106618460800151838151811061065457fe5b60200260200101516103df565b9050600061068082604001518660400151611a0790919063ffffffff16565b90506000600660009054906101000a900473ffffffffffffffffffffffffffffffffffffffff1673ffffffffffffffffffffffffffffffffffffffff1663ab65e8b96106cf8860200151611a34565b84886020015187602001518a600001516040518663ffffffff1660e01b81526004016106ff959493929190613aca565b60a06040518083038186803b15801561071757600080fd5b505afa15801561072b573d6000803e3d6000fd5b505050506040513d601f19601f8201168201806040525081019061074f9190612bdc565b9050604051806101c0016040528084600001518152602001898152602001846020015181526020018760200151815260200187604001518152602001846040015181526020018260000151815260200182602001518152602001826040015181526020018260600151815260200184606001518152602001846080015181526020018460a0015181526020018460c001518152508785815181106107ef57fe5b60200260200101819052505050508080600101915050610632565b505050919050565b61081a611f0e565b6000610825836103df565b905060006108368260e00151610b63565b905060008060009054906101000a900473ffffffffffffffffffffffffffffffffffffffff1673ffffffffffffffffffffffffffffffffffffffff1663aeade032600160009054906101000a900473ffffffffffffffffffffffffffffffffffffffff166040518263ffffffff1660e01b81526004016108b6919061379a565b604080518083038186803b1580156108cd57600080fd5b505afa1580156108e1573d6000803e3d6000fd5b505050506040513d601f19601f820116820180604052508101906109059190612af6565b9050600061092484604001518460400151611a0790919063ffffffff16565b90506000600660009054906101000a900473ffffffffffffffffffffffffffffffffffffffff1673ffffffffffffffffffffffffffffffffffffffff1663ab65e8b96109738660200151611a34565b848660200151896020015188600001516040518663ffffffff1660e01b81526004016109a3959493929190613aca565b60a06040518083038186803b1580156109bb57600080fd5b505afa1580156109cf573d6000803e3d6000fd5b505050506040513d601f19601f820116820180604052508101906109f39190612bdc565b9050604051806101c00160405280866000015181526020018660e001518152602001866020015181526020018560200151815260200185604001518152602001866040015181526020018260000151815260200182602001518152602001826040015181526020018260600151815260200186606001518152602001866080015181526020018660a0015181526020018660c0015181525095505050505050919050565b600460009054906101000a900473ffffffffffffffffffffffffffffffffffffffff1681565b600360009054906101000a900473ffffffffffffffffffffffffffffffffffffffff1681565b6000806000806003811115610af457fe5b856003811115610b0057fe5b1480610b22575060026003811115610b1457fe5b856003811115610b2057fe5b145b9050610b3086868387610d0b565b9250925050935093915050565b600660009054906101000a900473ffffffffffffffffffffffffffffffffffffffff1681565b610b6b611f7d565b6000806000600160009054906101000a900473ffffffffffffffffffffffffffffffffffffffff1673ffffffffffffffffffffffffffffffffffffffff166335359675866040518263ffffffff1660e01b8152600401610bcb9190613a5d565b60806040518083038186803b158015610be357600080fd5b505afa158015610bf7573d6000803e3d6000fd5b505050506040513d601f19601f82011682018060405250810190610c1b9190612dab565b509250925092506000600160009054906101000a900473ffffffffffffffffffffffffffffffffffffffff1673ffffffffffffffffffffffffffffffffffffffff1663c39eeefb876040518263ffffffff1660e01b8152600401610c7f9190613a5d565b60006040518083038186803b158015610c9757600080fd5b505afa158015610cab573d6000803e3d6000fd5b505050506040513d6000823e3d601f19601f82011682018060405250810190610cd49190612965565b90506040518060a0016040528085815260200184815260200183815260200160001515815260200182815250945050505050919050565b60008060008060009054906101000a900473ffffffffffffffffffffffffffffffffffffffff1673ffffffffffffffffffffffffffffffffffffffff166368841b0f600160009054906101000a900473ffffffffffffffffffffffffffffffffffffffff166040518263ffffffff1660e01b8152600401610d8c919061379a565b6101406040518083038186803b158015610da557600080fd5b505afa158015610db9573d6000803e3d6000fd5b505050506040513d601f19601f82011682018060405250810190610ddd9190612c05565b905060008060009054906101000a900473ffffffffffffffffffffffffffffffffffffffff1673ffffffffffffffffffffffffffffffffffffffff166305b7f2f6600160009054906101000a900473ffffffffffffffffffffffffffffffffffffffff1660026040518363ffffffff1660e01b8152600401610e609291906137b5565b60e06040518083038186803b158015610e7857600080fd5b505afa158015610e8c573d6000803e3d6000fd5b505050506040513d601f19601f82011682018060405250810190610eb09190612acd565b90506000610ebd896103df565b90506000610ece8260e00151610b63565b905060006040518060a001604052808a15158152602001898152602001610f0685604001518560400151611a0790919063ffffffff16565b815260200183602001518152602001600560009054906101000a900473ffffffffffffffffffffffffffffffffffffffff1673ffffffffffffffffffffffffffffffffffffffff16633f2f757d88610120015188608001516040518363ffffffff1660e01b8152600401610f7b929190613a78565b60806040518083038186803b158015610f9357600080fd5b505afa158015610fa7573d6000803e3d6000fd5b505050506040513d601f19601f82011682018060405250810190610fcb9190612b1f565b81525090506000806003811115610fde57fe5b8b6003811115610fea57fe5b148061100c575060016003811115610ffe57fe5b8b600381111561100a57fe5b145b905061101b848484898561102e565b9750975050505050505094509492505050565b600080600080600260009054906101000a900473ffffffffffffffffffffffffffffffffffffffff1673ffffffffffffffffffffffffffffffffffffffff1663c29f78ff8a89898c604001516040518563ffffffff1660e01b815260040161109994939291906139da565b604080518083038186803b1580156110b057600080fd5b505afa1580156110c4573d6000803e3d6000fd5b505050506040513d601f19601f820116820180604052508101906110e89190612d6f565b915091506110ff8183611a0790919063ffffffff16565b876040018181525050600085611116576000611133565b876000015161112c578760200151600003611132565b87602001515b5b8a608001518b606001510301905060008661116957886000015161115e578860200151600003611164565b88602001515b61116c565b60005b8b60c001518c60a0015103019050600061118e898b8e6000015186868d611a52565b9050600260009054906101000a900473ffffffffffffffffffffffffffffffffffffffff1673ffffffffffffffffffffffffffffffffffffffff1663ce11df418b838c6040518463ffffffff1660e01b81526004016111ef93929190613a23565b60206040518083038186803b15801561120757600080fd5b505afa15801561121b573d6000803e3d6000fd5b505050506040513d601f19601f8201168201806040525081019061123f9190612c58565b8a604001519650965050505050509550959350505050565b600560009054906101000a900473ffffffffffffffffffffffffffffffffffffffff1681565b60606000600160009054906101000a900473ffffffffffffffffffffffffffffffffffffffff1673ffffffffffffffffffffffffffffffffffffffff16637e7088eb6040518163ffffffff1660e01b815260040160006040518083038186803b1580156112e957600080fd5b505afa1580156112fd573d6000803e3d6000fd5b505050506040513d6000823e3d601f19601f820116820180604052508101906113269190612965565b9050805167ffffffffffffffff8111801561134057600080fd5b5060405190808252806020026020018201604052801561137a57816020015b611367611fae565b81526020019060019003908161135f5790505b50915060005b81518110156113eb5760006113a783838151811061139a57fe5b6020026020010151610b63565b905060405180604001604052808260000151815260200182602001518152508483815181106113d257fe5b6020026020010181905250508080600101915050611380565b505090565b6113f8611f0e565b60008060008061140787610812565b9450600460009054906101000a900473ffffffffffffffffffffffffffffffffffffffff1673ffffffffffffffffffffffffffffffffffffffff1662fdd58e876000600381111561145457fe5b8a016040518363ffffffff1660e01b81526004016114739291906137de565b60206040518083038186803b15801561148b57600080fd5b505afa15801561149f573d6000803e3d6000fd5b505050506040513d601f19601f820116820180604052508101906114c39190612c58565b9350600460009054906101000a900473ffffffffffffffffffffffffffffffffffffffff1673ffffffffffffffffffffffffffffffffffffffff1662fdd58e876002600381111561151057fe5b8a016040518363ffffffff1660e01b815260040161152f9291906137de565b60206040518083038186803b15801561154757600080fd5b505afa15801561155b573d6000803e3d6000fd5b505050506040513d601f19601f8201168201806040525081019061157f9190612c58565b9250600460009054906101000a900473ffffffffffffffffffffffffffffffffffffffff1673ffffffffffffffffffffffffffffffffffffffff1662fdd58e87600160038111156115cc57fe5b8a016040518363ffffffff1660e01b81526004016115eb9291906137de565b60206040518083038186803b15801561160357600080fd5b505afa158015611617573d6000803e3d6000fd5b505050506040513d601f19601f8201168201806040525081019061163b9190612c58565b9150600460009054906101000a900473ffffffffffffffffffffffffffffffffffffffff1673ffffffffffffffffffffffffffffffffffffffff1662fdd58e8760038081111561168757fe5b8a016040518363ffffffff1660e01b81526004016116a69291906137de565b60206040518083038186803b1580156116be57600080fd5b505afa1580156116d2573d6000803e3d6000fd5b505050506040513d601f19601f820116820180604052508101906116f69190612c58565b90509295509295909350565b600260009054906101000a900473ffffffffffffffffffffffffffffffffffffffff1681565b600160009054906101000a900473ffffffffffffffffffffffffffffffffffffffff1681565b60008054906101000a900473ffffffffffffffffffffffffffffffffffffffff1681565b600660149054906101000a900460ff16156117c2576040517f08c379a00000000000000000000000000000000000000000000000000000000081526004016117b990613908565b60405180910390fd5b866000806101000a81548173ffffffffffffffffffffffffffffffffffffffff021916908373ffffffffffffffffffffffffffffffffffffffff16021790555085600160006101000a81548173ffffffffffffffffffffffffffffffffffffffff021916908373ffffffffffffffffffffffffffffffffffffffff16021790555084600260006101000a81548173ffffffffffffffffffffffffffffffffffffffff021916908373ffffffffffffffffffffffffffffffffffffffff16021790555083600360006101000a81548173ffffffffffffffffffffffffffffffffffffffff021916908373ffffffffffffffffffffffffffffffffffffffff16021790555082600460006101000a81548173ffffffffffffffffffffffffffffffffffffffff021916908373ffffffffffffffffffffffffffffffffffffffff16021790555081600560006101000a81548173ffffffffffffffffffffffffffffffffffffffff021916908373ffffffffffffffffffffffffffffffffffffffff16021790555080600660006101000a81548173ffffffffffffffffffffffffffffffffffffffff021916908373ffffffffffffffffffffffffffffffffffffffff1602179055506001600660146101000a81548160ff02191690831515021790555050505050505050565b60008060008060038111156119bd57fe5b8560038111156119c957fe5b14806119eb5750600260038111156119dd57fe5b8560038111156119e957fe5b145b1590506119fa86868387610d0b565b9250925050935093915050565b6000601260ff16600a0a611a248385611c1590919063ffffffff16565b81611a2b57fe5b04905092915050565b600042821115611a48574282039050611a4d565b600090505b919050565b611a5a611fc8565b6000611a6586611c9b565b90506000611a71611dd4565b90506000600660009054906101000a900473ffffffffffffffffffffffffffffffffffffffff1673ffffffffffffffffffffffffffffffffffffffff1663ab65e8b9611ac08b60600151611a34565b8b604001518d610120015187602001518f60c001516040518663ffffffff1660e01b8152600401611af5959493929190613aca565b60a06040518083038186803b158015611b0d57600080fd5b505afa158015611b21573d6000803e3d6000fd5b505050506040513d601f19601f82011682018060405250810190611b459190612bdc565b9050600082602001516000039050670de0b6b3a764000084610100015188038560e001518a03018560c001510281611b7957fe5b05836020018181510191508181525050878460e001818152505086846101000181815250506000670de0b6b3a76400008560c001518460800151038661010001518760e00151010281611bc857fe5b05905086611bda578260200151611be0565b82600001515b866000018181525050808460200151016000038660400181815250508186602001818152505050505050509695505050505050565b600080831415611c285760009050611c95565b6000828402905082848281611c3957fe5b0414611c90576040517f08c379a0000000000000000000000000000000000000000000000000000000008152600401808060200182810382526021815260200180613fe26021913960400191505060405180910390fd5b809150505b92915050565b611ca3611ff0565b6000806000806000806000806000806000600360009054906101000a900473ffffffffffffffffffffffffffffffffffffffff1673ffffffffffffffffffffffffffffffffffffffff166388b96de38e6040518263ffffffff1660e01b8152600401611d0f9190613a5d565b6101606040518083038186803b158015611d2857600080fd5b505afa158015611d3c573d6000803e3d6000fd5b505050506040513d601f19601f82011682018060405250810190611d609190612e0e565b9a509a509a509a509a509a509a509a509a509a509a506040518061016001604052808c81526020018b81526020018a8152602001898152602001888152602001878152602001868152602001858152602001848152602001838152602001828152509b505050505050505050505050919050565b611ddc61204a565b600080600080600080600360009054906101000a900473ffffffffffffffffffffffffffffffffffffffff1673ffffffffffffffffffffffffffffffffffffffff16639678ca396040518163ffffffff1660e01b815260040160c06040518083038186803b158015611e4d57600080fd5b505afa158015611e61573d6000803e3d6000fd5b505050506040513d601f19601f82011682018060405250810190611e859190612a44565b9550955095509550955095506040518060c0016040528087815260200186815260200185815260200184815260200183815260200182815250965050505050505090565b60405180610100016040528060008152602001600081526020016000815260200160008152602001600081526020016000815260200160008152602001600081525090565b604051806101c0016040528060008152602001600081526020016000815260200160008152602001600081526020016000815260200160008152602001600081526020016000815260200160008152602001600081526020016000815260200160008152602001600081525090565b6040518060a00160405280600081526020016000815260200160008152602001600015158152602001606081525090565b604051806040016040528060008152602001600081525090565b6040518060800160405280600081526020016000815260200160008152602001600081525090565b60405180610160016040528060008152602001600081526020016000815260200160008152602001600081526020016000815260200160008152602001600081526020016000815260200160008152602001600081525090565b6040518060c001604052806000815260200160008152602001600081526020016000815260200160008152602001600081525090565b600061209361208e84613b4e565b613b1d565b905080838252602082019050828560208602820111156120b257600080fd5b60005b858110156120e257816120c8888261293b565b8452602084019350602083019250506001810190506120b5565b5050509392505050565b60006120ff6120fa84613b4e565b613b1d565b9050808382526020820190508285602086028201111561211e57600080fd5b60005b8581101561214e57816121348882612950565b845260208401935060208301925050600181019050612121565b5050509392505050565b60008135905061216781613e8f565b92915050565b600082601f83011261217e57600080fd5b813561218e848260208601612080565b91505092915050565b600082601f8301126121a857600080fd5b81516121b88482602086016120ec565b91505092915050565b6000813590506121d081613ea6565b92915050565b6000815190506121e581613ea6565b92915050565b6000815190506121fa81613ebd565b92915050565b60008135905061220f81613ed4565b92915050565b60008151905061222481613eeb565b92915050565b60008135905061223981613f02565b92915050565b60008135905061224e81613f19565b92915050565b60008135905061226381613f30565b92915050565b60008135905061227881613f47565b92915050565b60008135905061228d81613f5e565b92915050565b6000813590506122a281613f75565b92915050565b6000815190506122b781613f8c565b92915050565b6000813590506122cc81613fa3565b92915050565b6000813590506122e181613fb3565b92915050565b6000815190506122f681613fb3565b92915050565b600060e0828403121561230e57600080fd5b61231860e0613b1d565b9050600061232884828501612950565b600083015250602061233c848285016121eb565b6020830152506040612350848285016121eb565b6040830152506060612364848285016122a8565b606083015250608061237884828501612215565b60808301525060a061238c84828501612950565b60a08301525060c06123a084828501612950565b60c08301525092915050565b6000604082840312156123be57600080fd5b6123c86040613b1d565b905060006123d8848285016122e7565b60008301525060206123ec84828501612950565b60208301525092915050565b60006080828403121561240a57600080fd5b6124146080613b1d565b905060006124248482850161293b565b60008301525060206124388482850161293b565b602083015250604061244c8482850161293b565b60408301525060606124608482850161293b565b60608301525092915050565b60006080828403121561247e57600080fd5b6124886080613b1d565b9050600061249884828501612950565b60008301525060206124ac84828501612950565b60208301525060406124c084828501612950565b60408301525060606124d484828501612950565b60608301525092915050565b600060a082840312156124f257600080fd5b6124fc60a0613b1d565b9050600061250c8482850161293b565b60008301525060206125208482850161293b565b60208301525060406125348482850161293b565b6040830152506060612548848285016121c1565b606083015250608082013567ffffffffffffffff81111561256857600080fd5b6125748482850161216d565b60808301525092915050565b6000610100828403121561259357600080fd5b61259e610100613b1d565b905060006125ae8482850161293b565b60008301525060206125c28482850161293b565b60208301525060406125d68482850161293b565b60408301525060606125ea8482850161293b565b60608301525060806125fe8482850161293b565b60808301525060a06126128482850161293b565b60a08301525060c06126268482850161293b565b60c08301525060e061263a8482850161293b565b60e08301525092915050565b600060a0828403121561265857600080fd5b61266260a0613b1d565b9050600061267284828501612950565b600083015250602061268684828501612950565b602083015250604061269a848285016122e7565b60408301525060606126ae848285016122e7565b60608301525060806126c284828501612950565b60808301525092915050565b600061014082840312156126e157600080fd5b6126ec610140613b1d565b905060006126fc8482850161293b565b60008301525060206127108482850161293b565b60208301525060406127248482850161293b565b60408301525060606127388482850161293b565b606083015250608061274c8482850161293b565b60808301525060a06127608482850161293b565b60a08301525060c0612774848285016122d2565b60c08301525060e0612788848285016122d2565b60e08301525061010061279d8482850161293b565b610100830152506101206127b38482850161293b565b6101208301525092915050565b600061014082840312156127d357600080fd5b6127de610140613b1d565b905060006127ee84828501612950565b600083015250602061280284828501612950565b602083015250604061281684828501612950565b604083015250606061282a84828501612950565b606083015250608061283e84828501612950565b60808301525060a061285284828501612950565b60a08301525060c0612866848285016122e7565b60c08301525060e061287a848285016122e7565b60e08301525061010061288f84828501612950565b610100830152506101206128a584828501612950565b6101208301525092915050565b600061010082840312156128c557600080fd5b6128cf60a0613b1d565b905060006128df848285016121c1565b60008301525060206128f38482850161293b565b60208301525060406129078482850161293b565b604083015250606061291b8482850161293b565b606083015250608061292f848285016123f8565b60808301525092915050565b60008135905061294a81613fca565b92915050565b60008151905061295f81613fca565b92915050565b60006020828403121561297757600080fd5b600082015167ffffffffffffffff81111561299157600080fd5b61299d84828501612197565b91505092915050565b600080600080600080600060e0888a0312156129c157600080fd5b60006129cf8a828b0161223f565b97505060206129e08a828b0161227e565b96505060406129f18a828b01612269565b9550506060612a028a828b01612254565b9450506080612a138a828b01612293565b93505060a0612a248a828b0161222a565b92505060c0612a358a828b01612200565b91505092959891949750929550565b60008060008060008060c08789031215612a5d57600080fd5b6000612a6b89828a016122e7565b9650506020612a7c89828a016122e7565b9550506040612a8d89828a01612950565b9450506060612a9e89828a01612950565b9350506080612aaf89828a01612950565b92505060a0612ac089828a01612950565b9150509295509295509295565b600060e08284031215612adf57600080fd5b6000612aed848285016122fc565b91505092915050565b600060408284031215612b0857600080fd5b6000612b16848285016123ac565b91505092915050565b600060808284031215612b3157600080fd5b6000612b3f8482850161246c565b91505092915050565b60008060008060006103808688031215612b6157600080fd5b6000612b6f88828901612580565b95505061010086013567ffffffffffffffff811115612b8d57600080fd5b612b99888289016124e0565b945050610120612bab888289016128b2565b935050610220612bbd888289016126ce565b925050610360612bcf888289016121c1565b9150509295509295909350565b600060a08284031215612bee57600080fd5b6000612bfc84828501612646565b91505092915050565b60006101408284031215612c1857600080fd5b6000612c26848285016127c0565b91505092915050565b600060208284031215612c4157600080fd5b6000612c4f8482850161293b565b91505092915050565b600060208284031215612c6a57600080fd5b6000612c7884828501612950565b91505092915050565b60008060408385031215612c9457600080fd5b6000612ca28582860161293b565b9250506020612cb385828601612158565b9150509250929050565b60008060008060808587031215612cd357600080fd5b6000612ce18782880161293b565b9450506020612cf2878288016122bd565b9350506040612d03878288016121c1565b9250506060612d148782880161293b565b91505092959194509250565b600080600060608486031215612d3557600080fd5b6000612d438682870161293b565b9350506020612d54868287016122bd565b9250506040612d658682870161293b565b9150509250925092565b60008060408385031215612d8257600080fd5b6000612d9085828601612950565b9250506020612da185828601612950565b9150509250929050565b60008060008060808587031215612dc157600080fd5b6000612dcf87828801612950565b9450506020612de087828801612950565b9350506040612df187828801612950565b9250506060612e02878288016121d6565b91505092959194509250565b60008060008060008060008060008060006101608c8e031215612e3057600080fd5b6000612e3e8e828f01612950565b9b50506020612e4f8e828f01612950565b9a50506040612e608e828f01612950565b9950506060612e718e828f01612950565b9850506080612e828e828f016122e7565b97505060a0612e938e828f016122e7565b96505060c0612ea48e828f01612950565b95505060e0612eb58e828f016122e7565b945050610100612ec78e828f016122e7565b935050610120612ed98e828f01612950565b925050610140612eeb8e828f01612950565b9150509295989b509295989b9093969950565b600080600080600080600080610100898b031215612f1b57600080fd5b6000612f298b828c01612950565b9850506020612f3a8b828c01612950565b9750506040612f4b8b828c01612950565b9650506060612f5c8b828c01612950565b9550506080612f6d8b828c01612950565b94505060a0612f7e8b828c01612950565b93505060c0612f8f8b828c01612950565b92505060e0612fa08b828c01612950565b9150509295985092959890939650565b6000612fbc8383613216565b60408301905092915050565b6000612fd4838361329a565b6101c08301905092915050565b6000612fed838361377c565b60208301905092915050565b61300281613c36565b82525050565b600061301382613baa565b61301d8185613bf2565b935061302883613b7a565b8060005b838110156130595781516130408882612fb0565b975061304b83613bcb565b92505060018101905061302c565b5085935050505092915050565b600061307182613bb5565b61307b8185613c03565b935061308683613b8a565b8060005b838110156130b757815161309e8882612fc8565b97506130a983613bd8565b92505060018101905061308a565b5085935050505092915050565b60006130cf82613bc0565b6130d98185613c14565b93506130e483613b9a565b8060005b838110156131155781516130fc8882612fe1565b975061310783613be5565b9250506001810190506130e8565b5085935050505092915050565b61312b81613c48565b82525050565b61313a81613d47565b82525050565b61314981613d6b565b82525050565b61315881613d8f565b82525050565b61316781613db3565b82525050565b61317681613dd7565b82525050565b61318581613dfb565b82525050565b61319481613e1f565b82525050565b6131a381613e43565b82525050565b6131b281613e67565b82525050565b6131c181613d13565b82525050565b6131d081613d13565b82525050565b60006131e3601c83613c25565b91507f436f6e747261637420616c726561647920696e697469616c697a6564000000006000830152602082019050919050565b60408201600082015161322c600085018261377c565b50602082015161323f602085018261377c565b50505050565b60808201600082015161325b600085018261377c565b50602082015161326e602085018261377c565b506040820151613281604085018261377c565b506060820151613294606085018261377c565b50505050565b6101c0820160008201516132b1600085018261377c565b5060208201516132c4602085018261377c565b5060408201516132d7604085018261377c565b5060608201516132ea606085018261377c565b5060808201516132fd608085018261377c565b5060a082015161331060a085018261377c565b5060c082015161332360c085018261377c565b5060e082015161333660e085018261377c565b5061010082015161334b6101008501826131b8565b506101208201516133606101208501826131b8565b5061014082015161337561014085018261377c565b5061016082015161338a61016085018261377c565b5061018082015161339f61018085018261377c565b506101a08201516133b46101a085018261377c565b50505050565b6101c0820160008201516133d1600085018261377c565b5060208201516133e4602085018261377c565b5060408201516133f7604085018261377c565b50606082015161340a606085018261377c565b50608082015161341d608085018261377c565b5060a082015161343060a085018261377c565b5060c082015161344360c085018261377c565b5060e082015161345660e085018261377c565b5061010082015161346b6101008501826131b8565b506101208201516134806101208501826131b8565b5061014082015161349561014085018261377c565b506101608201516134aa61016085018261377c565b506101808201516134bf61018085018261377c565b506101a08201516134d46101a085018261377c565b50505050565b600060a0830160008301516134f2600086018261377c565b506020830151613505602086018261377c565b506040830151613518604086018261377c565b50606083015161352b6060860182613122565b506080830151848203608086015261354382826130c4565b9150508091505092915050565b61010082016000820151613567600085018261377c565b50602082015161357a602085018261377c565b50604082015161358d604085018261377c565b5060608201516135a0606085018261377c565b5060808201516135b3608085018261377c565b5060a08201516135c660a085018261377c565b5060c08201516135d960c085018261377c565b5060e08201516135ec60e085018261377c565b50505050565b61014082016000820151613609600085018261377c565b50602082015161361c602085018261377c565b50604082015161362f604085018261377c565b506060820151613642606085018261377c565b506080820151613655608085018261377c565b5060a082015161366860a085018261377c565b5060c082015161367b60c08501826131b8565b5060e082015161368e60e08501826131b8565b506101008201516136a361010085018261377c565b506101208201516136b861012085018261377c565b50505050565b6080820160008201516136d4600085018261377c565b5060208201516136e760208501826131b8565b5060408201516136fa60408501826131b8565b50606082015161370d60608501826131b8565b50505050565b6101008201600082015161372a6000850182613122565b50602082015161373d602085018261377c565b506040820151613750604085018261377c565b506060820151613763606085018261377c565b5060808201516137766080850182613245565b50505050565b61378581613d3d565b82525050565b61379481613d3d565b82525050565b60006020820190506137af6000830184612ff9565b92915050565b60006040820190506137ca6000830185612ff9565b6137d760208301846131a9565b9392505050565b60006040820190506137f36000830185612ff9565b613800602083018461378b565b9392505050565b600060208201905081810360008301526138218184613008565b905092915050565b600060208201905081810360008301526138438184613066565b905092915050565b60006020820190506138606000830184613131565b92915050565b600060208201905061387b600083018461314f565b92915050565b6000602082019050613896600083018461315e565b92915050565b60006020820190506138b1600083018461316d565b92915050565b60006020820190506138cc600083018461317c565b92915050565b60006020820190506138e7600083018461318b565b92915050565b6000602082019050613902600083018461319a565b92915050565b60006020820190508181036000830152613921816131d6565b9050919050565b60006101c08201905061393e60008301846133ba565b92915050565b60006102408201905061395a60008301886133ba565b6139686101c083018761378b565b6139766101e083018661378b565b61398461020083018561378b565b61399261022083018461378b565b9695505050505050565b600060208201905081810360008301526139b681846134da565b905092915050565b6000610100820190506139d46000830184613550565b92915050565b6000610360820190506139f06000830187613550565b6139fe610100830186613713565b613a0c6102008301856135f2565b613a1a61034083018461378b565b95945050505050565b60006102c082019050613a396000830186613713565b613a476101008301856136be565b613a556101808301846135f2565b949350505050565b6000602082019050613a72600083018461378b565b92915050565b6000604082019050613a8d600083018561378b565b613a9a6020830184613140565b9392505050565b6000604082019050613ab6600083018561378b565b613ac3602083018461378b565b9392505050565b600060a082019050613adf600083018861378b565b613aec602083018761378b565b613af9604083018661378b565b613b06606083018561378b565b613b1360808301846131c7565b9695505050505050565b6000604051905081810181811067ffffffffffffffff82111715613b4457613b43613e79565b5b8060405250919050565b600067ffffffffffffffff821115613b6957613b68613e79565b5b602082029050602081019050919050565b6000819050602082019050919050565b6000819050602082019050919050565b6000819050602082019050919050565b600081519050919050565b600081519050919050565b600081519050919050565b6000602082019050919050565b6000602082019050919050565b6000602082019050919050565b600082825260208201905092915050565b600082825260208201905092915050565b600082825260208201905092915050565b600082825260208201905092915050565b6000613c4182613d1d565b9050919050565b60008115159050919050565b6000819050919050565b6000613c6982613c36565b9050919050565b6000613c7b82613c36565b9050919050565b6000613c8d82613c36565b9050919050565b6000613c9f82613c36565b9050919050565b6000613cb182613c36565b9050919050565b6000613cc382613c36565b9050919050565b6000613cd582613c36565b9050919050565b6000613ce782613c36565b9050919050565b6000613cf982613c36565b9050919050565b6000819050613d0e82613e7b565b919050565b6000819050919050565b600073ffffffffffffffffffffffffffffffffffffffff82169050919050565b6000819050919050565b6000613d5282613d59565b9050919050565b6000613d6482613d1d565b9050919050565b6000613d7682613d7d565b9050919050565b6000613d8882613d1d565b9050919050565b6000613d9a82613da1565b9050919050565b6000613dac82613d1d565b9050919050565b6000613dbe82613dc5565b9050919050565b6000613dd082613d1d565b9050919050565b6000613de282613de9565b9050919050565b6000613df482613d1d565b9050919050565b6000613e0682613e0d565b9050919050565b6000613e1882613d1d565b9050919050565b6000613e2a82613e31565b9050919050565b6000613e3c82613d1d565b9050919050565b6000613e4e82613e55565b9050919050565b6000613e6082613d1d565b9050919050565b6000613e7282613d00565b9050919050565bfe5b60038110613e8c57613e8b613e79565b5b50565b613e9881613c36565b8114613ea357600080fd5b50565b613eaf81613c48565b8114613eba57600080fd5b50565b613ec681613c54565b8114613ed157600080fd5b50565b613edd81613c5e565b8114613ee857600080fd5b50565b613ef481613c70565b8114613eff57600080fd5b50565b613f0b81613c82565b8114613f1657600080fd5b50565b613f2281613c94565b8114613f2d57600080fd5b50565b613f3981613ca6565b8114613f4457600080fd5b50565b613f5081613cb8565b8114613f5b57600080fd5b50565b613f6781613cca565b8114613f7257600080fd5b50565b613f7e81613cdc565b8114613f8957600080fd5b50565b613f9581613cee565b8114613fa057600080fd5b50565b60048110613fb057600080fd5b50565b613fbc81613d13565b8114613fc757600080fd5b50565b613fd381613d3d565b8114613fde57600080fd5b5056fe536166654d6174683a206d756c7469706c69636174696f6e206f766572666c6f77a2646970667358221220164948f49ba829e16edd148b9ea5cf50704f61a7f8bb5902c154fa23cbcbb66e64736f6c63430007060033",
  "linkReferences": {},
  "deployedLinkReferences": {}
}