{
  "_format": "hh-sol-artifact-1",
  "contractName": "BlackScholes",
  "sourceName": "contracts/BlackScholes.sol",
  "abi": [
    {
      "inputs": [
        {
          "internalType": "int256",
          "name": "x",
          "type": "int256"
        }
      ],
      "name": "abs",
      "outputs": [
        {
          "internalType": "uint256",
          "name": "",
          "type": "uint256"
        }
      ],
      "stateMutability": "pure",
      "type": "function"
    },
    {
      "inputs": [
        {
          "internalType": "uint256",
          "name": "x",
          "type": "uint256"
        }
      ],
      "name": "exp",
      "outputs": [
        {
          "internalType": "uint256",
          "name": "",
          "type": "uint256"
        }
      ],
      "stateMutability": "pure",
      "type": "function"
    },
    {
      "inputs": [
        {
          "internalType": "int256",
          "name": "x",
          "type": "int256"
        }
      ],
      "name": "exp",
      "outputs": [
        {
          "internalType": "uint256",
          "name": "",
          "type": "uint256"
        }
      ],
      "stateMutability": "pure",
      "type": "function"
    },
    {
      "inputs": [
        {
          "internalType": "uint256",
          "name": "timeToExpirySec",
          "type": "uint256"
        },
        {
          "internalType": "uint256",
          "name": "volatilityDecimal",
          "type": "uint256"
        },
        {
          "internalType": "uint256",
          "name": "spotDecimal",
          "type": "uint256"
        },
        {
          "internalType": "uint256",
          "name": "strikeDecimal",
          "type": "uint256"
        },
        {
          "internalType": "int256",
          "name": "rateDecimal",
          "type": "int256"
        }
      ],
      "name": "optionPrices",
      "outputs": [
        {
          "internalType": "uint256",
          "name": "call",
          "type": "uint256"
        },
        {
          "internalType": "uint256",
          "name": "put",
          "type": "uint256"
        }
      ],
      "stateMutability": "pure",
      "type": "function"
    },
    {
      "inputs": [
        {
          "internalType": "uint256",
          "name": "timeToExpirySec",
          "type": "uint256"
        },
        {
          "internalType": "uint256",
          "name": "volatilityDecimal",
          "type": "uint256"
        },
        {
          "internalType": "uint256",
          "name": "spotDecimal",
          "type": "uint256"
        },
        {
          "internalType": "uint256",
          "name": "strikeDecimal",
          "type": "uint256"
        },
        {
          "internalType": "int256",
          "name": "rateDecimal",
          "type": "int256"
        }
      ],
      "name": "pricesDeltaStdVega",
      "outputs": [
        {
          "components": [
            {
              "internalType": "uint256",
              "name": "callPrice",
              "type": "uint256"
            },
            {
              "internalType": "uint256",
              "name": "putPrice",
              "type": "uint256"
            },
            {
              "internalType": "int256",
              "name": "callDelta",
              "type": "int256"
            },
            {
              "internalType": "int256",
              "name": "putDelta",
              "type": "int256"
            },
            {
              "internalType": "uint256",
              "name": "stdVega",
              "type": "uint256"
            }
          ],
          "internalType": "struct IBlackScholes.PricesDeltaStdVega",
          "name": "",
          "type": "tuple"
        }
      ],
      "stateMutability": "pure",
      "type": "function"
    },
    {
      "inputs": [
        {
          "internalType": "uint256",
          "name": "x",
          "type": "uint256"
        }
      ],
      "name": "sqrt",
      "outputs": [
        {
          "internalType": "uint256",
          "name": "y",
          "type": "uint256"
        }
      ],
      "stateMutability": "pure",
      "type": "function"
    }
  ],
  "bytecode": "0x608060405234801561001057600080fd5b5061184a806100206000396000f3fe608060405234801561001057600080fd5b50600436106100625760003560e01c80631b5ac4b514610067578063677342ce14610097578063938e8ba8146100c7578063ab65e8b9146100f8578063b581fbe314610128578063e46751e314610158575b600080fd5b610081600480360381019061007c91906114d0565b610188565b60405161008e91906116cf565b60405180910390f35b6100b160048036038101906100ac91906114f9565b6101a3565b6040516100be91906116cf565b60405180910390f35b6100e160048036038101906100dc9190611522565b6101f8565b6040516100ef9291906116ea565b60405180910390f35b610112600480360381019061010d9190611522565b610287565b60405161011f91906116b4565b60405180910390f35b610142600480360381019061013d91906114f9565b610374565b60405161014f91906116cf565b60405180910390f35b610172600480360381019061016d91906114d0565b610504565b60405161017f91906116cf565b60405180910390f35b6000808212610197578161019c565b816000035b9050919050565b60008060026101bc60018561058f90919063ffffffff16565b816101c357fe5b0490508291505b818110156101f2578091506002818285816101e157fe5b0401816101ea57fe5b0490506101ca565b50919050565b600080600061020688610617565b9050600061021387610637565b9050600061022087610637565b9050600061022d8761065d565b90506000806102478661023f8e610637565b878787610683565b915091506102598686868686866107d4565b809850819950505061026a886108b6565b610273886108b6565b975097505050505050509550959350505050565b61028f611477565b600061029a87610617565b905060006102a786610637565b90506000806102d1846102b98b610637565b856102c38b610637565b6102cc8b61065d565b610683565b915091506000806102f686866102e68c610637565b6102ef8c61065d565b88886107d4565b91509150600061030785878f610905565b9050600080610315876109d1565b915091506040518060a0016040528061032d876108b6565b815260200161033b866108b6565b8152602001610349846109f5565b8152602001610357836109f5565b815260200184815250995050505050505050505095945050505050565b600080821415610392576b033b2e3c9fd0803ce800000090506104ff565b6b033b2e3c9fd0803ce80000006064028211156103e4576040517f08c379a00000000000000000000000000000000000000000000000000000000081526004016103db90611694565b60405180910390fd5b60006b033b2e3c9fd0803ce800000061041a6104156b023d5b9ff36551802aa5d6fa86610a4490919063ffffffff16565b610a60565b8161042157fe5b04905060008160020a9050600061045f6104506b023d5b9ff36551802aa5d6fa85610a8190919063ffffffff16565b86610b0790919063ffffffff16565b905060006b033b2e3c9fd0803ce80000009050600080601090505b60008160ff1611156104e3576104c36b033b2e3c9fd0803ce80000006104b58360ff1687816104a557fe5b0486610b8a90919063ffffffff16565b61058f90919063ffffffff16565b9250818314156104d2576104e3565b82915080806001900391505061047a565b506104f78285610a8190919063ffffffff16565b955050505050505b919050565b60008160001361051e5761051782610374565b905061058a565b6b033b2e3c9fd0803ce80000007fffffffffffffffffffffffffffffffffffffffffffffffffffffffffffffffc10282121561055d576000905061058a565b61058761056c83600003610374565b6b033b2e3c9fd0803ce8000000610a4490919063ffffffff16565b90505b919050565b60008082840190508381101561060d576040517f08c379a000000000000000000000000000000000000000000000000000000000815260040180806020018281038252601b8152602001807f536166654d6174683a206164646974696f6e206f766572666c6f77000000000081525060200191505060405180910390fd5b8091505092915050565b60006106306301e1338083610a4490919063ffffffff16565b9050919050565b60006106566012601b0360ff16600a0a83610a8190919063ffffffff16565b9050919050565b600061067c6012601b0360ff16600a0a83610ba690919063ffffffff16565b9050919050565b6000806301e133806b033b2e3c9fd0803ce80000008161069f57fe5b0487106106ac57866106c7565b6301e133806b033b2e3c9fd0803ce8000000816106c557fe5b045b96506127106b033b2e3c9fd0803ce8000000816106e057fe5b0486106106ed5785610706565b6127106b033b2e3c9fd0803ce80000008161070457fe5b045b9550600061072561071689610cd0565b88610b8a90919063ffffffff16565b9050600061074461073f8789610a4490919063ffffffff16565b610d00565b905060006107898a61077b8860026107658e8f610b8a90919063ffffffff16565b8161076c57fe5b04610da990919063ffffffff16565b610e3790919063ffffffff16565b90506107b0836107a28385610da990919063ffffffff16565b610e5390919063ffffffff16565b94506107c58386610e6f90919063ffffffff16565b93505050509550959350505050565b60008060006108096107fa6107f28b89610e3790919063ffffffff16565b600003610504565b88610b8a90919063ffffffff16565b9050600061082861081987610efd565b8a610b8a90919063ffffffff16565b9050600061084761083887610efd565b84610b8a90919063ffffffff16565b90508181111561085857600061086c565b61086b8183610b0790919063ffffffff16565b5b9450610881838661058f90919063ffffffff16565b9350838a11156108925760006108a6565b6108a58a85610b0790919063ffffffff16565b5b9350505050965096945050505050565b600080600a6012601b0360ff16600a0a816108cd57fe5b0483816108d657fe5b0490506005600a82816108e557fe5b06106108f257600a810190505b600a81816108fc57fe5b04915050919050565b60008061091183610617565b905062093a8083106109235782610928565b62093a805b925060006201518061094f6b033b2e3c9fd0803ce800000086610a8190919063ffffffff16565b8161095657fe5b04905060006b033b2e3c9fd0803ce8000000601e029050600061099d606461098f61098a8686610a4490919063ffffffff16565b610cd0565b6110c390919063ffffffff16565b90506109c46109bf826109b1878b8d61114c565b610b8a90919063ffffffff16565b6108b6565b9450505050509392505050565b6000806109dd83610efd565b91506b033b2e3c9fd0803ce800000082039050915091565b600080600a6012601b0360ff16600a0a81610a0c57fe5b058381610a1557fe5b0590506005600a8281610a2457fe5b0712610a3157600a810190505b600a8181610a3b57fe5b05915050919050565b6000610a588383601b60ff16600a0a61118c565b905092915050565b60006b033b2e3c9fd0803ce80000008281610a7757fe5b0682039050919050565b600080831415610a945760009050610b01565b6000828402905082848281610aa557fe5b0414610afc576040517f08c379a00000000000000000000000000000000000000000000000000000000081526004018080602001828103825260218152602001806117a96021913960400191505060405180910390fd5b809150505b92915050565b600082821115610b7f576040517f08c379a000000000000000000000000000000000000000000000000000000000815260040180806020018281038252601e8152602001807f536166654d6174683a207375627472616374696f6e206f766572666c6f77000081525060200191505060405180910390fd5b818303905092915050565b6000610b9e8383601b60ff16600a0a6111e7565b905092915050565b600080831415610bb95760009050610cca565b7fffffffffffffffffffffffffffffffffffffffffffffffffffffffffffffffff83148015610c0757507f800000000000000000000000000000000000000000000000000000000000000082145b15610c5d576040517f08c379a00000000000000000000000000000000000000000000000000000000081526004018080602001828103825260278152602001806117ca6027913960400191505060405180910390fd5b6000828402905082848281610c6e57fe5b0514610cc5576040517f08c379a00000000000000000000000000000000000000000000000000000000081526004018080602001828103825260278152602001806117ca6027913960400191505060405180910390fd5b809150505b92915050565b6000610cf9610cf46b033b2e3c9fd0803ce800000084610a8190919063ffffffff16565b6101a3565b9050919050565b600080600080600090505b6008811015610d9e576000610d1f84610504565b9050610d7d610d6e610d3a8389610da990919063ffffffff16565b610d606002610d52868c610e6f90919063ffffffff16565b610ba690919063ffffffff16565b610e5390919063ffffffff16565b85610da990919063ffffffff16565b925083831415610d8d5750610d9e565b829350508080600101915050610d0b565b508192505050919050565b600080828401905060008312158015610dc25750838112155b80610dd85750600083128015610dd757508381125b5b610e2d576040517f08c379a00000000000000000000000000000000000000000000000000000000081526004018080602001828103825260218152602001806117676021913960400191505060405180910390fd5b8091505092915050565b6000610e4b8383601b60ff16600a0a611240565b905092915050565b6000610e678383601b60ff16600a0a611299565b905092915050565b600080828403905060008312158015610e885750838113155b80610e9e5750600083128015610e9d57508381135b5b610ef3576040517f08c379a00000000000000000000000000000000000000000000000000000000081526004018080602001828103825260248152602001806117f16024913960400191505060405180910390fd5b8091505092915050565b6000600a7fffffffffffffffffffffffffffffffffffffffffffffffffffffffffffffffd36b033b2e3c9fd0803ce80000000281610f3757fe5b05821215610f4857600090506110be565b600a6b033b2e3c9fd0803ce800000002821315610f73576b033b2e3c9fd0803ce800000090506110be565b60006b033b2e3c9fd0803ce8000000610f8b84610188565b6223549b0281610f9757fe5b04629896800190506000610fbe60028581610fae57fe5b0585610e3790919063ffffffff16565b90506000610fcb82610374565b6b033b2e3c9fd0803ce8000000623cdfaf0281610fe457fe5b049050600083629896808562989680876298968089629896808b6578fcdaec22008161100c57fe5b057ffffffffffffffffffffffffffffffffffffffffffffffffffffffffffeea193001028161103757fe5b0563010fd4fc01028161104657fe5b057fffffffffffffffffffffffffffffffffffffffffffffffffffffffffffc997ba01028161107157fe5b056230bbd7018402028161108157fe5b05905060008613156110995780655af3107a40000390505b655af3107a4000816b033b2e3c9fd0803ce800000002816110b657fe5b049450505050505b919050565b600080821161113a576040517f08c379a000000000000000000000000000000000000000000000000000000000815260040180806020018281038252601a8152602001807f536166654d6174683a206469766973696f6e206279207a65726f00000000000081525060200191505060405180910390fd5b81838161114357fe5b04905092915050565b600061118361116c8461115e856112f4565b610b8a90919063ffffffff16565b61117586610cd0565b610b8a90919063ffffffff16565b90509392505050565b6000806111b7846111a9600a860288610a8190919063ffffffff16565b6110c390919063ffffffff16565b90506005600a82816111c557fe5b06106111d257600a810190505b600a81816111dc57fe5b049150509392505050565b600080600a83816111f457fe5b046112088587610a8190919063ffffffff16565b8161120f57fe5b0490506005600a828161121e57fe5b061061122b57600a810190505b600a818161123557fe5b049150509392505050565b600080600a838161124d57fe5b056112618587610ba690919063ffffffff16565b8161126857fe5b0590506005600a828161127757fe5b071261128457600a810190505b600a818161128e57fe5b059150509392505050565b6000806112c4846112b6600a860288610ba690919063ffffffff16565b61134390919063ffffffff16565b90506005600a82816112d257fe5b07126112df57600a810190505b600a81816112e957fe5b059150509392505050565b600061133c6b08196f2f0c65a776731daf2561132e6113266002868161131657fe5b0586610e3790919063ffffffff16565b600003610504565b610a4490919063ffffffff16565b9050919050565b6000808214156113bb576040517f08c379a00000000000000000000000000000000000000000000000000000000081526004018080602001828103825260208152602001807f5369676e6564536166654d6174683a206469766973696f6e206279207a65726f81525060200191505060405180910390fd5b7fffffffffffffffffffffffffffffffffffffffffffffffffffffffffffffffff8214801561140957507f800000000000000000000000000000000000000000000000000000000000000083145b1561145f576040517f08c379a00000000000000000000000000000000000000000000000000000000081526004018080602001828103825260218152602001806117886021913960400191505060405180910390fd5b600082848161146a57fe5b0590508091505092915050565b6040518060a0016040528060008152602001600081526020016000815260200160008152602001600081525090565b6000813590506114b581611738565b92915050565b6000813590506114ca8161174f565b92915050565b6000602082840312156114e257600080fd5b60006114f0848285016114a6565b91505092915050565b60006020828403121561150b57600080fd5b6000611519848285016114bb565b91505092915050565b600080600080600060a0868803121561153a57600080fd5b6000611548888289016114bb565b9550506020611559888289016114bb565b945050604061156a888289016114bb565b935050606061157b888289016114bb565b925050608061158c888289016114a6565b9150509295509295909350565b6115a281611724565b82525050565b60006115b5602883611713565b91507f63616e6e6f742068616e646c65206578706f6e656e747320677265617465722060008301527f7468616e203130300000000000000000000000000000000000000000000000006020830152604082019050919050565b60a0820160008201516116246000850182611676565b5060208201516116376020850182611676565b50604082015161164a6040850182611599565b50606082015161165d6060850182611599565b5060808201516116706080850182611676565b50505050565b61167f8161172e565b82525050565b61168e8161172e565b82525050565b600060208201905081810360008301526116ad816115a8565b9050919050565b600060a0820190506116c9600083018461160e565b92915050565b60006020820190506116e46000830184611685565b92915050565b60006040820190506116ff6000830185611685565b61170c6020830184611685565b9392505050565b600082825260208201905092915050565b6000819050919050565b6000819050919050565b61174181611724565b811461174c57600080fd5b50565b6117588161172e565b811461176357600080fd5b5056fe5369676e6564536166654d6174683a206164646974696f6e206f766572666c6f775369676e6564536166654d6174683a206469766973696f6e206f766572666c6f77536166654d6174683a206d756c7469706c69636174696f6e206f766572666c6f775369676e6564536166654d6174683a206d756c7469706c69636174696f6e206f766572666c6f775369676e6564536166654d6174683a207375627472616374696f6e206f766572666c6f77a2646970667358221220be1bf533948b7c13a26ad279c76321b0225b6b19cb4386931fcf0edbe297010664736f6c63430007060033",
  "linkReferences": {},
  "deployedLinkReferences": {}
}