{
  "_format": "hh-sol-artifact-1",
  "contractName": "LiquidityCertificate",
  "sourceName": "contracts/LiquidityCertificate.sol",
  "abi": [
    {
      "inputs": [
        {
          "internalType": "string",
          "name": "_name",
          "type": "string"
        },
        {
          "internalType": "string",
          "name": "_symbol",
          "type": "string"
        }
      ],
      "stateMutability": "nonpayable",
      "type": "constructor"
    },
    {
      "anonymous": false,
      "inputs": [
        {
          "indexed": true,
          "internalType": "address",
          "name": "owner",
          "type": "address"
        },
        {
          "indexed": true,
          "internalType": "address",
          "name": "approved",
          "type": "address"
        },
        {
          "indexed": true,
          "internalType": "uint256",
          "name": "tokenId",
          "type": "uint256"
        }
      ],
      "name": "Approval",
      "type": "event"
    },
    {
      "anonymous": false,
      "inputs": [
        {
          "indexed": true,
          "internalType": "address",
          "name": "owner",
          "type": "address"
        },
        {
          "indexed": true,
          "internalType": "address",
          "name": "operator",
          "type": "address"
        },
        {
          "indexed": false,
          "internalType": "bool",
          "name": "approved",
          "type": "bool"
        }
      ],
      "name": "ApprovalForAll",
      "type": "event"
    },
    {
      "anonymous": false,
      "inputs": [
        {
          "indexed": true,
          "internalType": "uint256",
          "name": "certificateId",
          "type": "uint256"
        },
        {
          "indexed": false,
          "internalType": "uint256",
          "name": "liquidity",
          "type": "uint256"
        },
        {
          "indexed": false,
          "internalType": "uint256",
          "name": "enteredAt",
          "type": "uint256"
        },
        {
          "indexed": false,
          "internalType": "uint256",
          "name": "burnableAt",
          "type": "uint256"
        }
      ],
      "name": "CertificateDataModified",
      "type": "event"
    },
    {
      "anonymous": false,
      "inputs": [
        {
          "indexed": true,
          "internalType": "uint256",
          "name": "certificateId",
          "type": "uint256"
        },
        {
          "indexed": true,
          "internalType": "uint256",
          "name": "newCertificateId",
          "type": "uint256"
        }
      ],
      "name": "CertificateSplit",
      "type": "event"
    },
    {
      "anonymous": false,
      "inputs": [
        {
          "indexed": true,
          "internalType": "address",
          "name": "from",
          "type": "address"
        },
        {
          "indexed": true,
          "internalType": "address",
          "name": "to",
          "type": "address"
        },
        {
          "indexed": true,
          "internalType": "uint256",
          "name": "tokenId",
          "type": "uint256"
        }
      ],
      "name": "Transfer",
      "type": "event"
    },
    {
      "inputs": [],
      "name": "MIN_LIQUIDITY",
      "outputs": [
        {
          "internalType": "uint256",
          "name": "",
          "type": "uint256"
        }
      ],
      "stateMutability": "view",
      "type": "function"
    },
    {
      "inputs": [
        {
          "internalType": "address",
          "name": "to",
          "type": "address"
        },
        {
          "internalType": "uint256",
          "name": "tokenId",
          "type": "uint256"
        }
      ],
      "name": "approve",
      "outputs": [],
      "stateMutability": "nonpayable",
      "type": "function"
    },
    {
      "inputs": [
        {
          "internalType": "address",
          "name": "owner",
          "type": "address"
        }
      ],
      "name": "balanceOf",
      "outputs": [
        {
          "internalType": "uint256",
          "name": "",
          "type": "uint256"
        }
      ],
      "stateMutability": "view",
      "type": "function"
    },
    {
      "inputs": [],
      "name": "baseURI",
      "outputs": [
        {
          "internalType": "string",
          "name": "",
          "type": "string"
        }
      ],
      "stateMutability": "view",
      "type": "function"
    },
    {
      "inputs": [
        {
          "internalType": "address",
          "name": "spender",
          "type": "address"
        },
        {
          "internalType": "uint256",
          "name": "certificateId",
          "type": "uint256"
        }
      ],
      "name": "burn",
      "outputs": [],
      "stateMutability": "nonpayable",
      "type": "function"
    },
    {
      "inputs": [
        {
          "internalType": "uint256",
          "name": "certificateId",
          "type": "uint256"
        }
      ],
      "name": "burnableAt",
      "outputs": [
        {
          "internalType": "uint256",
          "name": "",
          "type": "uint256"
        }
      ],
      "stateMutability": "view",
      "type": "function"
    },
    {
      "inputs": [
        {
          "internalType": "uint256",
          "name": "certificateId",
          "type": "uint256"
        }
      ],
      "name": "certificateData",
      "outputs": [
        {
          "components": [
            {
              "internalType": "uint256",
              "name": "liquidity",
              "type": "uint256"
            },
            {
              "internalType": "uint256",
              "name": "enteredAt",
              "type": "uint256"
            },
            {
              "internalType": "uint256",
              "name": "burnableAt",
              "type": "uint256"
            }
          ],
          "internalType": "struct ILiquidityCertificate.CertificateData",
          "name": "",
          "type": "tuple"
        }
      ],
      "stateMutability": "view",
      "type": "function"
    },
    {
      "inputs": [
        {
          "internalType": "address",
          "name": "owner",
          "type": "address"
        }
      ],
      "name": "certificates",
      "outputs": [
        {
          "internalType": "uint256[]",
          "name": "",
          "type": "uint256[]"
        }
      ],
      "stateMutability": "view",
      "type": "function"
    },
    {
      "inputs": [
        {
          "internalType": "uint256",
          "name": "certificateId",
          "type": "uint256"
        }
      ],
      "name": "enteredAt",
      "outputs": [
        {
          "internalType": "uint256",
          "name": "",
          "type": "uint256"
        }
      ],
      "stateMutability": "view",
      "type": "function"
    },
    {
      "inputs": [
        {
          "internalType": "uint256",
          "name": "tokenId",
          "type": "uint256"
        }
      ],
      "name": "getApproved",
      "outputs": [
        {
          "internalType": "address",
          "name": "",
          "type": "address"
        }
      ],
      "stateMutability": "view",
      "type": "function"
    },
    {
      "inputs": [
        {
          "internalType": "address",
          "name": "_liquidityPool",
          "type": "address"
        }
      ],
      "name": "init",
      "outputs": [],
      "stateMutability": "nonpayable",
      "type": "function"
    },
    {
      "inputs": [
        {
          "internalType": "address",
          "name": "owner",
          "type": "address"
        },
        {
          "internalType": "address",
          "name": "operator",
          "type": "address"
        }
      ],
      "name": "isApprovedForAll",
      "outputs": [
        {
          "internalType": "bool",
          "name": "",
          "type": "bool"
        }
      ],
      "stateMutability": "view",
      "type": "function"
    },
    {
      "inputs": [
        {
          "internalType": "uint256",
          "name": "certificateId",
          "type": "uint256"
        }
      ],
      "name": "liquidity",
      "outputs": [
        {
          "internalType": "uint256",
          "name": "",
          "type": "uint256"
        }
      ],
      "stateMutability": "view",
      "type": "function"
    },
    {
      "inputs": [],
      "name": "liquidityPool",
      "outputs": [
        {
          "internalType": "address",
          "name": "",
          "type": "address"
        }
      ],
      "stateMutability": "view",
      "type": "function"
    },
    {
      "inputs": [
        {
          "internalType": "address",
          "name": "owner",
          "type": "address"
        },
        {
          "internalType": "uint256",
          "name": "liquidityAmount",
          "type": "uint256"
        },
        {
          "internalType": "uint256",
          "name": "expiryAtCreation",
          "type": "uint256"
        }
      ],
      "name": "mint",
      "outputs": [
        {
          "internalType": "uint256",
          "name": "",
          "type": "uint256"
        }
      ],
      "stateMutability": "nonpayable",
      "type": "function"
    },
    {
      "inputs": [],
      "name": "name",
      "outputs": [
        {
          "internalType": "string",
          "name": "",
          "type": "string"
        }
      ],
      "stateMutability": "view",
      "type": "function"
    },
    {
      "inputs": [
        {
          "internalType": "uint256",
          "name": "tokenId",
          "type": "uint256"
        }
      ],
      "name": "ownerOf",
      "outputs": [
        {
          "internalType": "address",
          "name": "",
          "type": "address"
        }
      ],
      "stateMutability": "view",
      "type": "function"
    },
    {
      "inputs": [
        {
          "internalType": "address",
          "name": "from",
          "type": "address"
        },
        {
          "internalType": "address",
          "name": "to",
          "type": "address"
        },
        {
          "internalType": "uint256",
          "name": "tokenId",
          "type": "uint256"
        }
      ],
      "name": "safeTransferFrom",
      "outputs": [],
      "stateMutability": "nonpayable",
      "type": "function"
    },
    {
      "inputs": [
        {
          "internalType": "address",
          "name": "from",
          "type": "address"
        },
        {
          "internalType": "address",
          "name": "to",
          "type": "address"
        },
        {
          "internalType": "uint256",
          "name": "tokenId",
          "type": "uint256"
        },
        {
          "internalType": "bytes",
          "name": "_data",
          "type": "bytes"
        }
      ],
      "name": "safeTransferFrom",
      "outputs": [],
      "stateMutability": "nonpayable",
      "type": "function"
    },
    {
      "inputs": [
        {
          "internalType": "address",
          "name": "operator",
          "type": "address"
        },
        {
          "internalType": "bool",
          "name": "approved",
          "type": "bool"
        }
      ],
      "name": "setApprovalForAll",
      "outputs": [],
      "stateMutability": "nonpayable",
      "type": "function"
    },
    {
      "inputs": [
        {
          "internalType": "address",
          "name": "spender",
          "type": "address"
        },
        {
          "internalType": "uint256",
          "name": "certificateId",
          "type": "uint256"
        },
        {
          "internalType": "uint256",
          "name": "timestamp",
          "type": "uint256"
        }
      ],
      "name": "setBurnableAt",
      "outputs": [],
      "stateMutability": "nonpayable",
      "type": "function"
    },
    {
      "inputs": [
        {
          "internalType": "uint256",
          "name": "certificateId",
          "type": "uint256"
        },
        {
          "internalType": "uint256",
          "name": "percentageSplit",
          "type": "uint256"
        }
      ],
      "name": "split",
      "outputs": [
        {
          "internalType": "uint256",
          "name": "",
          "type": "uint256"
        }
      ],
      "stateMutability": "nonpayable",
      "type": "function"
    },
    {
      "inputs": [
        {
          "internalType": "bytes4",
          "name": "interfaceId",
          "type": "bytes4"
        }
      ],
      "name": "supportsInterface",
      "outputs": [
        {
          "internalType": "bool",
          "name": "",
          "type": "bool"
        }
      ],
      "stateMutability": "view",
      "type": "function"
    },
    {
      "inputs": [],
      "name": "symbol",
      "outputs": [
        {
          "internalType": "string",
          "name": "",
          "type": "string"
        }
      ],
      "stateMutability": "view",
      "type": "function"
    },
    {
      "inputs": [
        {
          "internalType": "uint256",
          "name": "index",
          "type": "uint256"
        }
      ],
      "name": "tokenByIndex",
      "outputs": [
        {
          "internalType": "uint256",
          "name": "",
          "type": "uint256"
        }
      ],
      "stateMutability": "view",
      "type": "function"
    },
    {
      "inputs": [
        {
          "internalType": "address",
          "name": "owner",
          "type": "address"
        },
        {
          "internalType": "uint256",
          "name": "index",
          "type": "uint256"
        }
      ],
      "name": "tokenOfOwnerByIndex",
      "outputs": [
        {
          "internalType": "uint256",
          "name": "",
          "type": "uint256"
        }
      ],
      "stateMutability": "view",
      "type": "function"
    },
    {
      "inputs": [
        {
          "internalType": "uint256",
          "name": "tokenId",
          "type": "uint256"
        }
      ],
      "name": "tokenURI",
      "outputs": [
        {
          "internalType": "string",
          "name": "",
          "type": "string"
        }
      ],
      "stateMutability": "view",
      "type": "function"
    },
    {
      "inputs": [],
      "name": "totalSupply",
      "outputs": [
        {
          "internalType": "uint256",
          "name": "",
          "type": "uint256"
        }
      ],
      "stateMutability": "view",
      "type": "function"
    },
    {
      "inputs": [
        {
          "internalType": "address",
          "name": "from",
          "type": "address"
        },
        {
          "internalType": "address",
          "name": "to",
          "type": "address"
        },
        {
          "internalType": "uint256",
          "name": "tokenId",
          "type": "uint256"
        }
      ],
      "name": "transferFrom",
      "outputs": [],
      "stateMutability": "nonpayable",
      "type": "function"
    }
  ],
  "bytecode": "0x60806040526000600c60146101000a81548160ff0219169083151502179055503480156200002c57600080fd5b50604051620045e5380380620045e5833981810160405281019062000052919062000321565b81816200006c6301ffc9a760e01b620000f060201b60201c565b816006908051906020019062000084929190620001f9565b5080600790805190602001906200009d929190620001f9565b50620000b66380ac58cd60e01b620000f060201b60201c565b620000ce635b5e139f60e01b620000f060201b60201c565b620000e663780e9d6360e01b620000f060201b60201c565b5050505062000433565b63ffffffff60e01b817bffffffffffffffffffffffffffffffffffffffffffffffffffffffff191614156200018d576040517f08c379a000000000000000000000000000000000000000000000000000000000815260040180806020018281038252601c8152602001807f4552433136353a20696e76616c696420696e746572666163652069640000000081525060200191505060405180910390fd5b6001600080837bffffffffffffffffffffffffffffffffffffffffffffffffffffffff19167bffffffffffffffffffffffffffffffffffffffffffffffffffffffff1916815260200190815260200160002060006101000a81548160ff02191690831515021790555050565b828054600181600116156101000203166002900490600052602060002090601f0160209004810192826200023157600085556200027d565b82601f106200024c57805160ff19168380011785556200027d565b828001600101855582156200027d579182015b828111156200027c5782518255916020019190600101906200025f565b5b5090506200028c919062000290565b5090565b5b80821115620002ab57600081600090555060010162000291565b5090565b6000620002c6620002c084620003c8565b62000394565b905082815260208101848484011115620002df57600080fd5b620002ec848285620003fb565b509392505050565b600082601f8301126200030657600080fd5b815162000318848260208601620002af565b91505092915050565b600080604083850312156200033557600080fd5b600083015167ffffffffffffffff8111156200035057600080fd5b6200035e85828601620002f4565b925050602083015167ffffffffffffffff8111156200037c57600080fd5b6200038a85828601620002f4565b9150509250929050565b6000604051905081810181811067ffffffffffffffff82111715620003be57620003bd62000431565b5b8060405250919050565b600067ffffffffffffffff821115620003e657620003e562000431565b5b601f19601f8301169050602081019050919050565b60005b838110156200041b578082015181840152602081019050620003fe565b838111156200042b576000848401525b50505050565bfe5b6141a280620004436000396000f3fe608060405234801561001057600080fd5b50600436106101ce5760003560e01c80636352211e116101045780639432aecd116100a2578063b88d4fde11610071578063b88d4fde1461058b578063c87b56dd146105a7578063c8f1c3af146105d7578063e985e9c514610607576101ce565b80639432aecd1461050557806395d89b41146105355780639dc29fac14610553578063a22cb4651461056f576101ce565b806370a08231116100de57806370a08231146104595780637bb9cc1d146104895780638024818a146104b95780638fbf3f4b146104e9576101ce565b80636352211e146103ed578063665a11ca1461041d5780636c0360eb1461043b576101ce565b806319ab453c116101715780632f745c591161014b5780632f745c591461034157806342842e0e146103715780634b19becc1461038d5780634f6ccce7146103bd576101ce565b806319ab453c146102eb57806321b77d631461030757806323b872dd14610325576101ce565b8063081812fc116101ad578063081812fc14610251578063095ea7b314610281578063156e29f61461029d57806318160ddd146102cd576101ce565b806216e526146101d357806301ffc9a71461020357806306fdde0314610233575b600080fd5b6101ed60048036038101906101e8919061332f565b610637565b6040516101fa9190613ad4565b60405180910390f35b61021d60048036038101906102189190613525565b6106d6565b60405161022a9190613af6565b60405180910390f35b61023b61073d565b6040516102489190613b11565b60405180910390f35b61026b6004803603810190610266919061354e565b6107df565b6040516102789190613ab9565b60405180910390f35b61029b6004803603810190610296919061349a565b61087a565b005b6102b760048036038101906102b291906134d6565b6109be565b6040516102c49190613cae565b60405180910390f35b6102d5610b52565b6040516102e29190613cae565b60405180910390f35b6103056004803603810190610300919061332f565b610b63565b005b61030f610c82565b60405161031c9190613cae565b60405180910390f35b61033f600480360381019061033a9190613394565b610c8e565b005b61035b6004803603810190610356919061349a565b610d04565b6040516103689190613cae565b60405180910390f35b61038b60048036038101906103869190613394565b610d5f565b005b6103a760048036038101906103a29190613577565b610d7f565b6040516103b49190613cae565b60405180910390f35b6103d760048036038101906103d2919061354e565b611069565b6040516103e49190613cae565b60405180910390f35b6104076004803603810190610402919061354e565b61108c565b6040516104149190613ab9565b60405180910390f35b6104256110c3565b6040516104329190613ab9565b60405180910390f35b6104436110e9565b6040516104509190613b11565b60405180910390f35b610473600480360381019061046e919061332f565b61118b565b6040516104809190613cae565b60405180910390f35b6104a3600480360381019061049e919061354e565b611260565b6040516104b09190613cae565b60405180910390f35b6104d360048036038101906104ce919061354e565b611280565b6040516104e09190613c93565b60405180910390f35b61050360048036038101906104fe91906134d6565b611325565b005b61051f600480360381019061051a919061354e565b611486565b60405161052c9190613cae565b60405180910390f35b61053d6114a6565b60405161054a9190613b11565b60405180910390f35b61056d6004803603810190610568919061349a565b611548565b005b6105896004803603810190610584919061345e565b61165c565b005b6105a560048036038101906105a091906133e3565b611812565b005b6105c160048036038101906105bc919061354e565b61188a565b6040516105ce9190613b11565b60405180910390f35b6105f160048036038101906105ec919061354e565b611b5b565b6040516105fe9190613cae565b60405180910390f35b610621600480360381019061061c9190613358565b611b7b565b60405161062e9190613af6565b60405180910390f35b606060006106448361118b565b905060008167ffffffffffffffff8111801561065f57600080fd5b5060405190808252806020026020018201604052801561068e5781602001602082028036833780820191505090505b50905060005b828110156106cb576106a68582610d04565b8282815181106106b257fe5b6020026020010181815250508080600101915050610694565b508092505050919050565b6000806000837bffffffffffffffffffffffffffffffffffffffffffffffffffffffff19167bffffffffffffffffffffffffffffffffffffffffffffffffffffffff1916815260200190815260200160002060009054906101000a900460ff169050919050565b606060068054600181600116156101000203166002900480601f0160208091040260200160405190810160405280929190818152602001828054600181600116156101000203166002900480156107d55780601f106107aa576101008083540402835291602001916107d5565b820191906000526020600020905b8154815290600101906020018083116107b857829003601f168201915b5050505050905090565b60006107ea82611c0f565b61083f576040517f08c379a000000000000000000000000000000000000000000000000000000000815260040180806020018281038252602c815260200180614097602c913960400191505060405180910390fd5b6004600083815260200190815260200160002060009054906101000a900473ffffffffffffffffffffffffffffffffffffffff169050919050565b60006108858261108c565b90508073ffffffffffffffffffffffffffffffffffffffff168373ffffffffffffffffffffffffffffffffffffffff16141561090c576040517f08c379a000000000000000000000000000000000000000000000000000000000815260040180806020018281038252602181526020018061411b6021913960400191505060405180910390fd5b8073ffffffffffffffffffffffffffffffffffffffff1661092b611c2c565b73ffffffffffffffffffffffffffffffffffffffff16148061095a575061095981610954611c2c565b611b7b565b5b6109af576040517f08c379a0000000000000000000000000000000000000000000000000000000008152600401808060200182810382526038815260200180613fc96038913960400191505060405180910390fd5b6109b98383611c34565b505050565b60003373ffffffffffffffffffffffffffffffffffffffff16600c60009054906101000a900473ffffffffffffffffffffffffffffffffffffffff1673ffffffffffffffffffffffffffffffffffffffff1614610a50576040517f08c379a0000000000000000000000000000000000000000000000000000000008152600401610a4790613c13565b60405180910390fd5b670de0b6b3a7640000831015610a9b576040517f08c379a0000000000000000000000000000000000000000000000000000000008152600401610a9290613c53565b60405180910390fd5b6000600a600081548092919060010191905055905060405180606001604052808581526020018481526020016000815250600b6000838152602001908152602001600020600082015181600001556020820151816001015560408201518160020155905050610b0a8582611ced565b807f29421017d5e75b7e925fec18302f4a068a32d9762fb94015f01f5118963a5a8f85856000604051610b3f93929190613cc9565b60405180910390a2809150509392505050565b6000610b5e6002611ee1565b905090565b600c60149054906101000a900460ff1615610bb3576040517f08c379a0000000000000000000000000000000000000000000000000000000008152600401610baa90613b73565b60405180910390fd5b600073ffffffffffffffffffffffffffffffffffffffff168173ffffffffffffffffffffffffffffffffffffffff161415610c23576040517f08c379a0000000000000000000000000000000000000000000000000000000008152600401610c1a90613b93565b60405180910390fd5b80600c60006101000a81548173ffffffffffffffffffffffffffffffffffffffff021916908373ffffffffffffffffffffffffffffffffffffffff1602179055506001600c60146101000a81548160ff02191690831515021790555050565b670de0b6b3a764000081565b610c9f610c99611c2c565b82611ef6565b610cf4576040517f08c379a000000000000000000000000000000000000000000000000000000000815260040180806020018281038252603181526020018061413c6031913960400191505060405180910390fd5b610cff838383611fea565b505050565b6000610d5782600160008673ffffffffffffffffffffffffffffffffffffffff1673ffffffffffffffffffffffffffffffffffffffff16815260200190815260200160002061222d90919063ffffffff16565b905092915050565b610d7a83838360405180602001604052806000815250611812565b505050565b6000601260ff16600a0a8210610dca576040517f08c379a0000000000000000000000000000000000000000000000000000000008152600401610dc190613bd3565b60405180910390fd5b3373ffffffffffffffffffffffffffffffffffffffff16610dea8461108c565b73ffffffffffffffffffffffffffffffffffffffff1614610e40576040517f08c379a0000000000000000000000000000000000000000000000000000000008152600401610e3790613b33565b60405180910390fd5b6000600b6000858152602001908152602001600020604051806060016040529081600082015481526020016001820154815260200160028201548152505090506000610e9984836000015161224790919063ffffffff16565b90506000610eb482846000015161227490919063ffffffff16565b9050670de0b6b3a76400008210158015610ed65750670de0b6b3a76400008110155b610f15576040517f08c379a0000000000000000000000000000000000000000000000000000000008152600401610f0c90613c33565b60405180910390fd5b80600b6000888152602001908152602001600020600001819055506000600a60008154809291906001019190505590506040518060600160405280848152602001856020015181526020018560400151815250600b6000838152602001908152602001600020600082015181600001556020820151816001015560408201518160020155905050610fa63382611ced565b80877f77c5fb1c6b902cdfb59c553fff93c99e6cedaeff21ba37eabb1672642f3f636460405160405180910390a3867f29421017d5e75b7e925fec18302f4a068a32d9762fb94015f01f5118963a5a8f838660200151876040015160405161101093929190613d00565b60405180910390a2807f29421017d5e75b7e925fec18302f4a068a32d9762fb94015f01f5118963a5a8f848660200151876040015160405161105493929190613d00565b60405180910390a28094505050505092915050565b6000806110808360026122f790919063ffffffff16565b50905080915050919050565b60006110bc8260405180606001604052806029815260200161402b6029913960026123239092919063ffffffff16565b9050919050565b600c60009054906101000a900473ffffffffffffffffffffffffffffffffffffffff1681565b606060098054600181600116156101000203166002900480601f0160208091040260200160405190810160405280929190818152602001828054600181600116156101000203166002900480156111815780601f1061115657610100808354040283529160200191611181565b820191906000526020600020905b81548152906001019060200180831161116457829003601f168201915b5050505050905090565b60008073ffffffffffffffffffffffffffffffffffffffff168273ffffffffffffffffffffffffffffffffffffffff161415611212576040517f08c379a000000000000000000000000000000000000000000000000000000000815260040180806020018281038252602a815260200180614001602a913960400191505060405180910390fd5b611259600160008473ffffffffffffffffffffffffffffffffffffffff1673ffffffffffffffffffffffffffffffffffffffff168152602001908152602001600020612342565b9050919050565b6000600b6000838152602001908152602001600020600101549050919050565b6112886131ed565b6000600b60008481526020019081526020016000206000015414156112e2576040517f08c379a00000000000000000000000000000000000000000000000000000000081526004016112d990613c73565b60405180910390fd5b600b600083815260200190815260200160002060405180606001604052908160008201548152602001600182015481526020016002820154815250509050919050565b3373ffffffffffffffffffffffffffffffffffffffff16600c60009054906101000a900473ffffffffffffffffffffffffffffffffffffffff1673ffffffffffffffffffffffffffffffffffffffff16146113b5576040517f08c379a00000000000000000000000000000000000000000000000000000000081526004016113ac90613c13565b60405180910390fd5b6113bf8383611ef6565b6113fe576040517f08c379a00000000000000000000000000000000000000000000000000000000081526004016113f590613b53565b60405180910390fd5b80600b600084815260200190815260200160002060020181905550817f29421017d5e75b7e925fec18302f4a068a32d9762fb94015f01f5118963a5a8f600b600085815260200190815260200160002060000154600b6000868152602001908152602001600020600101548460405161147993929190613d00565b60405180910390a2505050565b6000600b6000838152602001908152602001600020600201549050919050565b606060078054600181600116156101000203166002900480601f01602080910402602001604051908101604052809291908181526020018280546001816001161561010002031660029004801561153e5780601f106115135761010080835404028352916020019161153e565b820191906000526020600020905b81548152906001019060200180831161152157829003601f168201915b5050505050905090565b3373ffffffffffffffffffffffffffffffffffffffff16600c60009054906101000a900473ffffffffffffffffffffffffffffffffffffffff1673ffffffffffffffffffffffffffffffffffffffff16146115d8576040517f08c379a00000000000000000000000000000000000000000000000000000000081526004016115cf90613c13565b60405180910390fd5b6115e28282611ef6565b611621576040517f08c379a000000000000000000000000000000000000000000000000000000000815260040161161890613bb3565b60405180910390fd5b600b600082815260200190815260200160002060008082016000905560018201600090556002820160009055505061165881612357565b5050565b611664611c2c565b73ffffffffffffffffffffffffffffffffffffffff168273ffffffffffffffffffffffffffffffffffffffff161415611705576040517f08c379a00000000000000000000000000000000000000000000000000000000081526004018080602001828103825260198152602001807f4552433732313a20617070726f766520746f2063616c6c65720000000000000081525060200191505060405180910390fd5b8060056000611712611c2c565b73ffffffffffffffffffffffffffffffffffffffff1673ffffffffffffffffffffffffffffffffffffffff16815260200190815260200160002060008473ffffffffffffffffffffffffffffffffffffffff1673ffffffffffffffffffffffffffffffffffffffff16815260200190815260200160002060006101000a81548160ff0219169083151502179055508173ffffffffffffffffffffffffffffffffffffffff166117bf611c2c565b73ffffffffffffffffffffffffffffffffffffffff167f17307eab39ab6107e8899845ad3d59bd9653f200f220920489ca2b5937696c318360405180821515815260200191505060405180910390a35050565b61182361181d611c2c565b83611ef6565b611878576040517f08c379a000000000000000000000000000000000000000000000000000000000815260040180806020018281038252603181526020018061413c6031913960400191505060405180910390fd5b61188484848484612491565b50505050565b606061189582611c0f565b6118ea576040517f08c379a000000000000000000000000000000000000000000000000000000000815260040180806020018281038252602f8152602001806140ec602f913960400191505060405180910390fd5b6000600860008481526020019081526020016000208054600181600116156101000203166002900480601f0160208091040260200160405190810160405280929190818152602001828054600181600116156101000203166002900480156119935780601f1061196857610100808354040283529160200191611993565b820191906000526020600020905b81548152906001019060200180831161197657829003601f168201915b5050505050905060006119a46110e9565b90506000815114156119ba578192505050611b56565b600082511115611a8b5780826040516020018083805190602001908083835b602083106119fc57805182526020820191506020810190506020830392506119d9565b6001836020036101000a03801982511681845116808217855250505050505090500182805190602001908083835b60208310611a4d5780518252602082019150602081019050602083039250611a2a565b6001836020036101000a0380198251168184511680821785525050505050509050019250505060405160208183030381529060405292505050611b56565b80611a9585612503565b6040516020018083805190602001908083835b60208310611acb5780518252602082019150602081019050602083039250611aa8565b6001836020036101000a03801982511681845116808217855250505050505090500182805190602001908083835b60208310611b1c5780518252602082019150602081019050602083039250611af9565b6001836020036101000a03801982511681845116808217855250505050505090500192505050604051602081830303815290604052925050505b919050565b6000600b6000838152602001908152602001600020600001549050919050565b6000600560008473ffffffffffffffffffffffffffffffffffffffff1673ffffffffffffffffffffffffffffffffffffffff16815260200190815260200160002060008373ffffffffffffffffffffffffffffffffffffffff1673ffffffffffffffffffffffffffffffffffffffff16815260200190815260200160002060009054906101000a900460ff16905092915050565b6000611c2582600261264a90919063ffffffff16565b9050919050565b600033905090565b816004600083815260200190815260200160002060006101000a81548173ffffffffffffffffffffffffffffffffffffffff021916908373ffffffffffffffffffffffffffffffffffffffff160217905550808273ffffffffffffffffffffffffffffffffffffffff16611ca78361108c565b73ffffffffffffffffffffffffffffffffffffffff167f8c5be1e5ebec7d5bd14f71427d1e84f3dd0314c0f7b2291e5b200ac8c7c3b92560405160405180910390a45050565b600073ffffffffffffffffffffffffffffffffffffffff168273ffffffffffffffffffffffffffffffffffffffff161415611d90576040517f08c379a00000000000000000000000000000000000000000000000000000000081526004018080602001828103825260208152602001807f4552433732313a206d696e7420746f20746865207a65726f206164647265737381525060200191505060405180910390fd5b611d9981611c0f565b15611e0c576040517f08c379a000000000000000000000000000000000000000000000000000000000815260040180806020018281038252601c8152602001807f4552433732313a20746f6b656e20616c7265616479206d696e7465640000000081525060200191505060405180910390fd5b611e1860008383612664565b611e6981600160008573ffffffffffffffffffffffffffffffffffffffff1673ffffffffffffffffffffffffffffffffffffffff1681526020019081526020016000206126c290919063ffffffff16565b50611e80818360026126dc9092919063ffffffff16565b50808273ffffffffffffffffffffffffffffffffffffffff16600073ffffffffffffffffffffffffffffffffffffffff167fddf252ad1be2c89b69c2b068fc378daa952ba7f163c4a11628f55a4df523b3ef60405160405180910390a45050565b6000611eef82600001612711565b9050919050565b6000611f0182611c0f565b611f56576040517f08c379a000000000000000000000000000000000000000000000000000000000815260040180806020018281038252602c815260200180613f9d602c913960400191505060405180910390fd5b6000611f618361108c565b90508073ffffffffffffffffffffffffffffffffffffffff168473ffffffffffffffffffffffffffffffffffffffff161480611fd057508373ffffffffffffffffffffffffffffffffffffffff16611fb8846107df565b73ffffffffffffffffffffffffffffffffffffffff16145b80611fe15750611fe08185611b7b565b5b91505092915050565b8273ffffffffffffffffffffffffffffffffffffffff1661200a8261108c565b73ffffffffffffffffffffffffffffffffffffffff1614612076576040517f08c379a00000000000000000000000000000000000000000000000000000000081526004018080602001828103825260298152602001806140c36029913960400191505060405180910390fd5b600073ffffffffffffffffffffffffffffffffffffffff168273ffffffffffffffffffffffffffffffffffffffff1614156120fc576040517f08c379a0000000000000000000000000000000000000000000000000000000008152600401808060200182810382526024815260200180613f796024913960400191505060405180910390fd5b612107838383612664565b612112600082611c34565b61216381600160008673ffffffffffffffffffffffffffffffffffffffff1673ffffffffffffffffffffffffffffffffffffffff16815260200190815260200160002061272290919063ffffffff16565b506121b581600160008573ffffffffffffffffffffffffffffffffffffffff1673ffffffffffffffffffffffffffffffffffffffff1681526020019081526020016000206126c290919063ffffffff16565b506121cc818360026126dc9092919063ffffffff16565b50808273ffffffffffffffffffffffffffffffffffffffff168473ffffffffffffffffffffffffffffffffffffffff167fddf252ad1be2c89b69c2b068fc378daa952ba7f163c4a11628f55a4df523b3ef60405160405180910390a4505050565b600061223c836000018361273c565b60001c905092915050565b6000601260ff16600a0a61226483856127bf90919063ffffffff16565b8161226b57fe5b04905092915050565b6000828211156122ec576040517f08c379a000000000000000000000000000000000000000000000000000000000815260040180806020018281038252601e8152602001807f536166654d6174683a207375627472616374696f6e206f766572666c6f77000081525060200191505060405180910390fd5b818303905092915050565b60008060008061230a8660000186612845565b915091508160001c8160001c9350935050509250929050565b6000612336846000018460001b846128de565b60001c90509392505050565b6000612350826000016129d4565b9050919050565b60006123628261108c565b905061237081600084612664565b61237b600083611c34565b600060086000848152602001908152602001600020805460018160011615610100020316600290049050146123ca576008600083815260200190815260200160002060006123c9919061320e565b5b61241b82600160008473ffffffffffffffffffffffffffffffffffffffff1673ffffffffffffffffffffffffffffffffffffffff16815260200190815260200160002061272290919063ffffffff16565b506124308260026129e590919063ffffffff16565b5081600073ffffffffffffffffffffffffffffffffffffffff168273ffffffffffffffffffffffffffffffffffffffff167fddf252ad1be2c89b69c2b068fc378daa952ba7f163c4a11628f55a4df523b3ef60405160405180910390a45050565b61249c848484611fea565b6124a8848484846129ff565b6124fd576040517f08c379a0000000000000000000000000000000000000000000000000000000008152600401808060200182810382526032815260200180613f476032913960400191505060405180910390fd5b50505050565b6060600082141561254b576040518060400160405280600181526020017f30000000000000000000000000000000000000000000000000000000000000008152509050612645565b600082905060005b60008214612575578080600101915050600a828161256d57fe5b049150612553565b60008167ffffffffffffffff8111801561258e57600080fd5b506040519080825280601f01601f1916602001820160405280156125c15781602001600182028036833780820191505090505b50905060006001830390508593505b6000841461263d57600a84816125e257fe5b0660300160f81b828280600190039350815181106125fc57fe5b60200101907effffffffffffffffffffffffffffffffffffffffffffffffffffffffffffff1916908160001a905350600a848161263557fe5b0493506125d0565b819450505050505b919050565b600061265c836000018360001b612c18565b905092915050565b6000600b600083815260200190815260200160002060020154146126bd576040517f08c379a00000000000000000000000000000000000000000000000000000000081526004016126b490613bf3565b60405180910390fd5b505050565b60006126d4836000018360001b612c3b565b905092915050565b6000612708846000018460001b8473ffffffffffffffffffffffffffffffffffffffff1660001b612cab565b90509392505050565b600081600001805490509050919050565b6000612734836000018360001b612d87565b905092915050565b60008183600001805490501161279d576040517f08c379a0000000000000000000000000000000000000000000000000000000008152600401808060200182810382526022815260200180613f256022913960400191505060405180910390fd5b8260000182815481106127ac57fe5b9060005260206000200154905092915050565b6000808314156127d2576000905061283f565b60008284029050828482816127e357fe5b041461283a576040517f08c379a00000000000000000000000000000000000000000000000000000000081526004018080602001828103825260218152602001806140766021913960400191505060405180910390fd5b809150505b92915050565b600080828460000180549050116128a7576040517f08c379a00000000000000000000000000000000000000000000000000000000081526004018080602001828103825260228152602001806140546022913960400191505060405180910390fd5b60008460000184815481106128b857fe5b906000526020600020906002020190508060000154816001015492509250509250929050565b600080846001016000858152602001908152602001600020549050600081141583906129a5576040517f08c379a00000000000000000000000000000000000000000000000000000000081526004018080602001828103825283818151815260200191508051906020019080838360005b8381101561296a57808201518184015260208101905061294f565b50505050905090810190601f1680156129975780820380516001836020036101000a031916815260200191505b509250505060405180910390fd5b508460000160018203815481106129b857fe5b9060005260206000209060020201600101549150509392505050565b600081600001805490509050919050565b60006129f7836000018360001b612e6f565b905092915050565b6000612a208473ffffffffffffffffffffffffffffffffffffffff16612f88565b612a2d5760019050612c10565b6000612b9763150b7a0260e01b612a42611c2c565b888787604051602401808573ffffffffffffffffffffffffffffffffffffffff1681526020018473ffffffffffffffffffffffffffffffffffffffff16815260200183815260200180602001828103825283818151815260200191508051906020019080838360005b83811015612ac6578082015181840152602081019050612aab565b50505050905090810190601f168015612af35780820380516001836020036101000a031916815260200191505b5095505050505050604051602081830303815290604052907bffffffffffffffffffffffffffffffffffffffffffffffffffffffff19166020820180517bffffffffffffffffffffffffffffffffffffffffffffffffffffffff8381831617835250505050604051806060016040528060328152602001613f47603291398773ffffffffffffffffffffffffffffffffffffffff16612f9b9092919063ffffffff16565b90506000818060200190516020811015612bb057600080fd5b8101908080519060200190929190505050905063150b7a0260e01b7bffffffffffffffffffffffffffffffffffffffffffffffffffffffff1916817bffffffffffffffffffffffffffffffffffffffffffffffffffffffff191614925050505b949350505050565b600080836001016000848152602001908152602001600020541415905092915050565b6000612c478383612fb1565b612ca0578260000182908060018154018082558091505060019003906000526020600020016000909190919091505582600001805490508360010160008481526020019081526020016000208190555060019050612ca5565b600090505b92915050565b6000808460010160008581526020019081526020016000205490506000811415612d5257846000016040518060400160405280868152602001858152509080600181540180825580915050600190039060005260206000209060020201600090919091909150600082015181600001556020820151816001015550508460000180549050856001016000868152602001908152602001600020819055506001915050612d80565b82856000016001830381548110612d6557fe5b90600052602060002090600202016001018190555060009150505b9392505050565b60008083600101600084815260200190815260200160002054905060008114612e635760006001820390506000600186600001805490500390506000866000018281548110612dd257fe5b9060005260206000200154905080876000018481548110612def57fe5b9060005260206000200181905550600183018760010160008381526020019081526020016000208190555086600001805480612e2757fe5b60019003818190600052602060002001600090559055866001016000878152602001908152602001600020600090556001945050505050612e69565b60009150505b92915050565b60008083600101600084815260200190815260200160002054905060008114612f7c5760006001820390506000600186600001805490500390506000866000018281548110612eba57fe5b9060005260206000209060020201905080876000018481548110612eda57fe5b9060005260206000209060020201600082015481600001556001820154816001015590505060018301876001016000836000015481526020019081526020016000208190555086600001805480612f2d57fe5b6001900381819060005260206000209060020201600080820160009055600182016000905550509055866001016000878152602001908152602001600020600090556001945050505050612f82565b60009150505b92915050565b600080823b905060008111915050919050565b6060612fa8848484612fd4565b90509392505050565b600080836001016000848152602001908152602001600020541415905092915050565b6060612fdf84612f88565b613051576040517f08c379a000000000000000000000000000000000000000000000000000000000815260040180806020018281038252601d8152602001807f416464726573733a2063616c6c20746f206e6f6e2d636f6e747261637400000081525060200191505060405180910390fd5b6000808573ffffffffffffffffffffffffffffffffffffffff16856040518082805190602001908083835b6020831061309f578051825260208201915060208101905060208303925061307c565b6001836020036101000a0380198251168184511680821785525050505050509050019150506000604051808303816000865af19150503d8060008114613101576040519150601f19603f3d011682016040523d82523d6000602084013e613106565b606091505b5091509150613116828286613121565b925050509392505050565b60608315613131578290506131e6565b6000835111156131445782518084602001fd5b816040517f08c379a00000000000000000000000000000000000000000000000000000000081526004018080602001828103825283818151815260200191508051906020019080838360005b838110156131ab578082015181840152602081019050613190565b50505050905090810190601f1680156131d85780820380516001836020036101000a031916815260200191505b509250505060405180910390fd5b9392505050565b60405180606001604052806000815260200160008152602001600081525090565b50805460018160011615610100020316600290046000825580601f106132345750613253565b601f0160209004906000526020600020908101906132529190613256565b5b50565b5b8082111561326f576000816000905550600101613257565b5090565b600061328661328184613d68565b613d37565b90508281526020810184848401111561329e57600080fd5b6132a9848285613e73565b509392505050565b6000813590506132c081613ec8565b92915050565b6000813590506132d581613edf565b92915050565b6000813590506132ea81613ef6565b92915050565b600082601f83011261330157600080fd5b8135613311848260208601613273565b91505092915050565b60008135905061332981613f0d565b92915050565b60006020828403121561334157600080fd5b600061334f848285016132b1565b91505092915050565b6000806040838503121561336b57600080fd5b6000613379858286016132b1565b925050602061338a858286016132b1565b9150509250929050565b6000806000606084860312156133a957600080fd5b60006133b7868287016132b1565b93505060206133c8868287016132b1565b92505060406133d98682870161331a565b9150509250925092565b600080600080608085870312156133f957600080fd5b6000613407878288016132b1565b9450506020613418878288016132b1565b93505060406134298782880161331a565b925050606085013567ffffffffffffffff81111561344657600080fd5b613452878288016132f0565b91505092959194509250565b6000806040838503121561347157600080fd5b600061347f858286016132b1565b9250506020613490858286016132c6565b9150509250929050565b600080604083850312156134ad57600080fd5b60006134bb858286016132b1565b92505060206134cc8582860161331a565b9150509250929050565b6000806000606084860312156134eb57600080fd5b60006134f9868287016132b1565b935050602061350a8682870161331a565b925050604061351b8682870161331a565b9150509250925092565b60006020828403121561353757600080fd5b6000613545848285016132db565b91505092915050565b60006020828403121561356057600080fd5b600061356e8482850161331a565b91505092915050565b6000806040838503121561358a57600080fd5b60006135988582860161331a565b92505060206135a98582860161331a565b9150509250929050565b60006135bf8383613a9b565b60208301905092915050565b6135d481613ded565b82525050565b60006135e582613da8565b6135ef8185613dcb565b93506135fa83613d98565b8060005b8381101561362b57815161361288826135b3565b975061361d83613dbe565b9250506001810190506135fe565b5085935050505092915050565b61364181613dff565b82525050565b61365081613e61565b82525050565b600061366182613db3565b61366b8185613ddc565b935061367b818560208601613e82565b61368481613eb7565b840191505092915050565b600061369c602a83613ddc565b91507f6f6e6c7920746865206f776e65722063616e2073706c6974207468656972206360008301527f65727469666963617465000000000000000000000000000000000000000000006020830152604082019050919050565b6000613702602783613ddc565b91507f636572746966696361746520646f6573206e6f74206578697374206f72206e6f60008301527f74206f776e6572000000000000000000000000000000000000000000000000006020830152604082019050919050565b6000613768601383613ddc565b91507f616c726561647920696e697469616c697a6564000000000000000000000000006000830152602082019050919050565b60006137a8602183613ddc565b91507f6c6971756964697479506f6f6c2063616e6e6f7420626520302061646472657360008301527f73000000000000000000000000000000000000000000000000000000000000006020830152604082019050919050565b600061380e603783613ddc565b91507f617474656d7074656420746f206275726e206e6f6e6578697374656e7420636560008301527f7274696669636174652c206f72206e6f74206f776e65720000000000000000006020830152604082019050919050565b6000613874601c83613ddc565b91507f73706c6974206d757374206265206c657373207468616e2031303025000000006000830152602082019050919050565b60006138b4603583613ddc565b91507f63616e6e6f74207472616e73666572206365727469666963617465732074686160008301527f742068617665207369676e616c6c6564206578697400000000000000000000006020830152604082019050919050565b600061391a601283613ddc565b91507f6f6e6c79204c6971756964697479506f6f6c00000000000000000000000000006000830152602082019050919050565b600061395a603183613ddc565b91507f6c69717569646974792076616c7565206f6620626f746820636572746966696360008301527f61746573206d757374206265203e3d20310000000000000000000000000000006020830152604082019050919050565b60006139c0602b83613ddc565b91507f6c69717569646974792076616c7565206f66206365727469666963617465206d60008301527f757374206265203e3d20310000000000000000000000000000000000000000006020830152604082019050919050565b6000613a26601a83613ddc565b91507f636572746966696361746520646f6573206e6f742065786973740000000000006000830152602082019050919050565b606082016000820151613a6f6000850182613a9b565b506020820151613a826020850182613a9b565b506040820151613a956040850182613a9b565b50505050565b613aa481613e57565b82525050565b613ab381613e57565b82525050565b6000602082019050613ace60008301846135cb565b92915050565b60006020820190508181036000830152613aee81846135da565b905092915050565b6000602082019050613b0b6000830184613638565b92915050565b60006020820190508181036000830152613b2b8184613656565b905092915050565b60006020820190508181036000830152613b4c8161368f565b9050919050565b60006020820190508181036000830152613b6c816136f5565b9050919050565b60006020820190508181036000830152613b8c8161375b565b9050919050565b60006020820190508181036000830152613bac8161379b565b9050919050565b60006020820190508181036000830152613bcc81613801565b9050919050565b60006020820190508181036000830152613bec81613867565b9050919050565b60006020820190508181036000830152613c0c816138a7565b9050919050565b60006020820190508181036000830152613c2c8161390d565b9050919050565b60006020820190508181036000830152613c4c8161394d565b9050919050565b60006020820190508181036000830152613c6c816139b3565b9050919050565b60006020820190508181036000830152613c8c81613a19565b9050919050565b6000606082019050613ca86000830184613a59565b92915050565b6000602082019050613cc36000830184613aaa565b92915050565b6000606082019050613cde6000830186613aaa565b613ceb6020830185613aaa565b613cf86040830184613647565b949350505050565b6000606082019050613d156000830186613aaa565b613d226020830185613aaa565b613d2f6040830184613aaa565b949350505050565b6000604051905081810181811067ffffffffffffffff82111715613d5e57613d5d613eb5565b5b8060405250919050565b600067ffffffffffffffff821115613d8357613d82613eb5565b5b601f19601f8301169050602081019050919050565b6000819050602082019050919050565b600081519050919050565b600081519050919050565b6000602082019050919050565b600082825260208201905092915050565b600082825260208201905092915050565b6000613df882613e37565b9050919050565b60008115159050919050565b60007fffffffff0000000000000000000000000000000000000000000000000000000082169050919050565b600073ffffffffffffffffffffffffffffffffffffffff82169050919050565b6000819050919050565b6000613e6c82613e57565b9050919050565b82818337600083830152505050565b60005b83811015613ea0578082015181840152602081019050613e85565b83811115613eaf576000848401525b50505050565bfe5b6000601f19601f8301169050919050565b613ed181613ded565b8114613edc57600080fd5b50565b613ee881613dff565b8114613ef357600080fd5b50565b613eff81613e0b565b8114613f0a57600080fd5b50565b613f1681613e57565b8114613f2157600080fd5b5056fe456e756d657261626c655365743a20696e646578206f7574206f6620626f756e64734552433732313a207472616e7366657220746f206e6f6e20455243373231526563656976657220696d706c656d656e7465724552433732313a207472616e7366657220746f20746865207a65726f20616464726573734552433732313a206f70657261746f7220717565727920666f72206e6f6e6578697374656e7420746f6b656e4552433732313a20617070726f76652063616c6c6572206973206e6f74206f776e6572206e6f7220617070726f76656420666f7220616c6c4552433732313a2062616c616e636520717565727920666f7220746865207a65726f20616464726573734552433732313a206f776e657220717565727920666f72206e6f6e6578697374656e7420746f6b656e456e756d657261626c654d61703a20696e646578206f7574206f6620626f756e6473536166654d6174683a206d756c7469706c69636174696f6e206f766572666c6f774552433732313a20617070726f76656420717565727920666f72206e6f6e6578697374656e7420746f6b656e4552433732313a207472616e73666572206f6620746f6b656e2074686174206973206e6f74206f776e4552433732314d657461646174613a2055524920717565727920666f72206e6f6e6578697374656e7420746f6b656e4552433732313a20617070726f76616c20746f2063757272656e74206f776e65724552433732313a207472616e736665722063616c6c6572206973206e6f74206f776e6572206e6f7220617070726f766564a2646970667358221220a7691e9b7e85d3c7af917735066af032d9df39ae382c04203f7ceb4f409592e864736f6c63430007060033",
  "linkReferences": {},
  "deployedLinkReferences": {}
}