{
  "_format": "hh-sol-artifact-1",
  "contractName": "LiquidityPool",
  "sourceName": "contracts/LiquidityPool.sol",
  "abi": [
    {
      "inputs": [],
      "stateMutability": "nonpayable",
      "type": "constructor"
    },
    {
      "anonymous": false,
      "inputs": [
        {
          "indexed": false,
          "internalType": "uint256",
          "name": "baseFreed",
          "type": "uint256"
        },
        {
          "indexed": false,
          "internalType": "uint256",
          "name": "lockedCollateralBase",
          "type": "uint256"
        }
      ],
      "name": "BaseFreed",
      "type": "event"
    },
    {
      "anonymous": false,
      "inputs": [
        {
          "indexed": false,
          "internalType": "uint256",
          "name": "baseLocked",
          "type": "uint256"
        },
        {
          "indexed": false,
          "internalType": "uint256",
          "name": "lockedCollateralBase",
          "type": "uint256"
        }
      ],
      "name": "BaseLocked",
      "type": "event"
    },
    {
      "anonymous": false,
      "inputs": [
        {
          "indexed": true,
          "internalType": "address",
          "name": "caller",
          "type": "address"
        },
        {
          "indexed": false,
          "internalType": "uint256",
          "name": "quoteSpent",
          "type": "uint256"
        },
        {
          "indexed": false,
          "internalType": "uint256",
          "name": "amountPurchased",
          "type": "uint256"
        }
      ],
      "name": "BasePurchased",
      "type": "event"
    },
    {
      "anonymous": false,
      "inputs": [
        {
          "indexed": true,
          "internalType": "address",
          "name": "caller",
          "type": "address"
        },
        {
          "indexed": false,
          "internalType": "uint256",
          "name": "amountSold",
          "type": "uint256"
        },
        {
          "indexed": false,
          "internalType": "uint256",
          "name": "quoteReceived",
          "type": "uint256"
        }
      ],
      "name": "BaseSold",
      "type": "event"
    },
    {
      "anonymous": false,
      "inputs": [
        {
          "indexed": false,
          "internalType": "uint256",
          "name": "totalAmountToLiquidate",
          "type": "uint256"
        },
        {
          "indexed": false,
          "internalType": "uint256",
          "name": "baseFreed",
          "type": "uint256"
        },
        {
          "indexed": false,
          "internalType": "uint256",
          "name": "quoteReceived",
          "type": "uint256"
        },
        {
          "indexed": false,
          "internalType": "uint256",
          "name": "lockedCollateralBase",
          "type": "uint256"
        }
      ],
      "name": "CollateralLiquidated",
      "type": "event"
    },
    {
      "anonymous": false,
      "inputs": [
        {
          "indexed": true,
          "internalType": "address",
          "name": "recipient",
          "type": "address"
        },
        {
          "indexed": false,
          "internalType": "uint256",
          "name": "amount",
          "type": "uint256"
        }
      ],
      "name": "CollateralQuoteTransferred",
      "type": "event"
    },
    {
      "anonymous": false,
      "inputs": [
        {
          "indexed": false,
          "internalType": "uint256",
          "name": "amount",
          "type": "uint256"
        }
      ],
      "name": "DeltaQuoteTransferredToPoolHedger",
      "type": "event"
    },
    {
      "anonymous": false,
      "inputs": [
        {
          "indexed": true,
          "internalType": "address",
          "name": "beneficiary",
          "type": "address"
        },
        {
          "indexed": true,
          "internalType": "uint256",
          "name": "certificateId",
          "type": "uint256"
        },
        {
          "indexed": false,
          "internalType": "uint256",
          "name": "amount",
          "type": "uint256"
        }
      ],
      "name": "Deposit",
      "type": "event"
    },
    {
      "anonymous": false,
      "inputs": [
        {
          "indexed": false,
          "internalType": "uint256",
          "name": "quoteFreed",
          "type": "uint256"
        },
        {
          "indexed": false,
          "internalType": "uint256",
          "name": "lockedCollateralQuote",
          "type": "uint256"
        }
      ],
      "name": "QuoteFreed",
      "type": "event"
    },
    {
      "anonymous": false,
      "inputs": [
        {
          "indexed": false,
          "internalType": "uint256",
          "name": "quoteLocked",
          "type": "uint256"
        },
        {
          "indexed": false,
          "internalType": "uint256",
          "name": "lockedCollateralQuote",
          "type": "uint256"
        }
      ],
      "name": "QuoteLocked",
      "type": "event"
    },
    {
      "anonymous": false,
      "inputs": [
        {
          "indexed": false,
          "internalType": "uint256",
          "name": "amountQuoteReserved",
          "type": "uint256"
        },
        {
          "indexed": false,
          "internalType": "uint256",
          "name": "totalQuoteAmountReserved",
          "type": "uint256"
        }
      ],
      "name": "QuoteReserved",
      "type": "event"
    },
    {
      "anonymous": false,
      "inputs": [
        {
          "indexed": true,
          "internalType": "address",
          "name": "user",
          "type": "address"
        },
        {
          "indexed": false,
          "internalType": "uint256",
          "name": "amount",
          "type": "uint256"
        },
        {
          "indexed": false,
          "internalType": "uint256",
          "name": "totalQuoteAmountReserved",
          "type": "uint256"
        }
      ],
      "name": "ReservedQuoteSent",
      "type": "event"
    },
    {
      "anonymous": false,
      "inputs": [
        {
          "indexed": true,
          "internalType": "uint256",
          "name": "maxExpiryTimestamp",
          "type": "uint256"
        },
        {
          "indexed": false,
          "internalType": "uint256",
          "name": "pricePerToken",
          "type": "uint256"
        },
        {
          "indexed": false,
          "internalType": "uint256",
          "name": "totalQuoteAmountReserved",
          "type": "uint256"
        },
        {
          "indexed": false,
          "internalType": "uint256",
          "name": "tokensBurnableForRound",
          "type": "uint256"
        }
      ],
      "name": "RoundEnded",
      "type": "event"
    },
    {
      "anonymous": false,
      "inputs": [
        {
          "indexed": true,
          "internalType": "uint256",
          "name": "lastMaxExpiryTimestamp",
          "type": "uint256"
        },
        {
          "indexed": true,
          "internalType": "uint256",
          "name": "newMaxExpiryTimestamp",
          "type": "uint256"
        },
        {
          "indexed": false,
          "internalType": "uint256",
          "name": "totalTokenSupply",
          "type": "uint256"
        },
        {
          "indexed": false,
          "internalType": "uint256",
          "name": "tokenValue",
          "type": "uint256"
        }
      ],
      "name": "RoundStarted",
      "type": "event"
    },
    {
      "anonymous": false,
      "inputs": [
        {
          "indexed": true,
          "internalType": "address",
          "name": "beneficiary",
          "type": "address"
        },
        {
          "indexed": true,
          "internalType": "uint256",
          "name": "certificateId",
          "type": "uint256"
        },
        {
          "indexed": false,
          "internalType": "uint256",
          "name": "value",
          "type": "uint256"
        },
        {
          "indexed": false,
          "internalType": "uint256",
          "name": "totalQuoteAmountReserved",
          "type": "uint256"
        }
      ],
      "name": "Withdraw",
      "type": "event"
    },
    {
      "anonymous": false,
      "inputs": [
        {
          "indexed": true,
          "internalType": "uint256",
          "name": "certificateId",
          "type": "uint256"
        },
        {
          "indexed": false,
          "internalType": "uint256",
          "name": "tokensBurnableForRound",
          "type": "uint256"
        }
      ],
      "name": "WithdrawSignaled",
      "type": "event"
    },
    {
      "anonymous": false,
      "inputs": [
        {
          "indexed": true,
          "internalType": "uint256",
          "name": "certificateId",
          "type": "uint256"
        },
        {
          "indexed": false,
          "internalType": "uint256",
          "name": "tokensBurnableForRound",
          "type": "uint256"
        }
      ],
      "name": "WithdrawUnSignaled",
      "type": "event"
    },
    {
      "inputs": [
        {
          "internalType": "uint256",
          "name": "amountQuoteFreed",
          "type": "uint256"
        },
        {
          "internalType": "uint256",
          "name": "amountQuoteReserved",
          "type": "uint256"
        },
        {
          "internalType": "uint256",
          "name": "amountBaseFreed",
          "type": "uint256"
        }
      ],
      "name": "boardLiquidation",
      "outputs": [],
      "stateMutability": "nonpayable",
      "type": "function"
    },
    {
      "inputs": [
        {
          "internalType": "address",
          "name": "beneficiary",
          "type": "address"
        },
        {
          "internalType": "uint256",
          "name": "amount",
          "type": "uint256"
        }
      ],
      "name": "deposit",
      "outputs": [
        {
          "internalType": "uint256",
          "name": "",
          "type": "uint256"
        }
      ],
      "stateMutability": "nonpayable",
      "type": "function"
    },
    {
      "inputs": [],
      "name": "endRound",
      "outputs": [],
      "stateMutability": "nonpayable",
      "type": "function"
    },
    {
      "inputs": [],
      "name": "exchangeBase",
      "outputs": [],
      "stateMutability": "nonpayable",
      "type": "function"
    },
    {
      "inputs": [
        {
          "internalType": "uint256",
          "name": "",
          "type": "uint256"
        }
      ],
      "name": "expiryToTokenValue",
      "outputs": [
        {
          "internalType": "uint256",
          "name": "",
          "type": "uint256"
        }
      ],
      "stateMutability": "view",
      "type": "function"
    },
    {
      "inputs": [
        {
          "internalType": "uint256",
          "name": "amountBase",
          "type": "uint256"
        }
      ],
      "name": "freeBase",
      "outputs": [],
      "stateMutability": "nonpayable",
      "type": "function"
    },
    {
      "inputs": [
        {
          "internalType": "uint256",
          "name": "amount",
          "type": "uint256"
        }
      ],
      "name": "freeQuoteCollateral",
      "outputs": [],
      "stateMutability": "nonpayable",
      "type": "function"
    },
    {
      "inputs": [
        {
          "internalType": "uint256",
          "name": "basePrice",
          "type": "uint256"
        },
        {
          "internalType": "contract ICollateralShort",
          "name": "short",
          "type": "address"
        }
      ],
      "name": "getLiquidity",
      "outputs": [
        {
          "components": [
            {
              "internalType": "uint256",
              "name": "freeCollatLiquidity",
              "type": "uint256"
            },
            {
              "internalType": "uint256",
              "name": "usedCollatLiquidity",
              "type": "uint256"
            },
            {
              "internalType": "uint256",
              "name": "freeDeltaLiquidity",
              "type": "uint256"
            },
            {
              "internalType": "uint256",
              "name": "usedDeltaLiquidity",
              "type": "uint256"
            }
          ],
          "internalType": "struct ILiquidityPool.Liquidity",
          "name": "",
          "type": "tuple"
        }
      ],
      "stateMutability": "view",
      "type": "function"
    },
    {
      "inputs": [
        {
          "internalType": "uint256",
          "name": "basePrice",
          "type": "uint256"
        },
        {
          "internalType": "uint256",
          "name": "usedDeltaLiquidity",
          "type": "uint256"
        }
      ],
      "name": "getTotalPoolValueQuote",
      "outputs": [
        {
          "internalType": "uint256",
          "name": "",
          "type": "uint256"
        }
      ],
      "stateMutability": "view",
      "type": "function"
    },
    {
      "inputs": [
        {
          "internalType": "contract ILyraGlobals",
          "name": "_globals",
          "type": "address"
        },
        {
          "internalType": "contract IOptionMarket",
          "name": "_optionMarket",
          "type": "address"
        },
        {
          "internalType": "contract ILiquidityCertificate",
          "name": "_liquidityCertificate",
          "type": "address"
        },
        {
          "internalType": "contract IPoolHedger",
          "name": "_poolHedger",
          "type": "address"
        },
        {
          "internalType": "contract IShortCollateral",
          "name": "_shortCollateral",
          "type": "address"
        },
        {
          "internalType": "contract IERC20",
          "name": "_quoteAsset",
          "type": "address"
        },
        {
          "internalType": "contract IERC20",
          "name": "_baseAsset",
          "type": "address"
        },
        {
          "internalType": "string[]",
          "name": "_errorMessages",
          "type": "string[]"
        }
      ],
      "name": "init",
      "outputs": [],
      "stateMutability": "nonpayable",
      "type": "function"
    },
    {
      "inputs": [
        {
          "internalType": "uint256",
          "name": "amount",
          "type": "uint256"
        },
        {
          "components": [
            {
              "internalType": "uint256",
              "name": "spotPrice",
              "type": "uint256"
            },
            {
              "internalType": "bytes32",
              "name": "quoteKey",
              "type": "bytes32"
            },
            {
              "internalType": "bytes32",
              "name": "baseKey",
              "type": "bytes32"
            },
            {
              "internalType": "contract ISynthetix",
              "name": "synthetix",
              "type": "address"
            },
            {
              "internalType": "contract ICollateralShort",
              "name": "short",
              "type": "address"
            },
            {
              "internalType": "uint256",
              "name": "quoteBaseFeeRate",
              "type": "uint256"
            },
            {
              "internalType": "uint256",
              "name": "baseQuoteFeeRate",
              "type": "uint256"
            }
          ],
          "internalType": "struct ILyraGlobals.ExchangeGlobals",
          "name": "exchangeGlobals",
          "type": "tuple"
        },
        {
          "components": [
            {
              "internalType": "uint256",
              "name": "freeCollatLiquidity",
              "type": "uint256"
            },
            {
              "internalType": "uint256",
              "name": "usedCollatLiquidity",
              "type": "uint256"
            },
            {
              "internalType": "uint256",
              "name": "freeDeltaLiquidity",
              "type": "uint256"
            },
            {
              "internalType": "uint256",
              "name": "usedDeltaLiquidity",
              "type": "uint256"
            }
          ],
          "internalType": "struct ILiquidityPool.Liquidity",
          "name": "liquidity",
          "type": "tuple"
        }
      ],
      "name": "lockBase",
      "outputs": [],
      "stateMutability": "nonpayable",
      "type": "function"
    },
    {
      "inputs": [
        {
          "internalType": "uint256",
          "name": "amount",
          "type": "uint256"
        },
        {
          "internalType": "uint256",
          "name": "freeCollatLiq",
          "type": "uint256"
        }
      ],
      "name": "lockQuote",
      "outputs": [],
      "stateMutability": "nonpayable",
      "type": "function"
    },
    {
      "inputs": [],
      "name": "lockedCollateral",
      "outputs": [
        {
          "internalType": "uint256",
          "name": "quote",
          "type": "uint256"
        },
        {
          "internalType": "uint256",
          "name": "base",
          "type": "uint256"
        }
      ],
      "stateMutability": "view",
      "type": "function"
    },
    {
      "inputs": [],
      "name": "queuedQuoteFunds",
      "outputs": [
        {
          "internalType": "uint256",
          "name": "",
          "type": "uint256"
        }
      ],
      "stateMutability": "view",
      "type": "function"
    },
    {
      "inputs": [
        {
          "internalType": "address",
          "name": "recipient",
          "type": "address"
        },
        {
          "internalType": "uint256",
          "name": "amount",
          "type": "uint256"
        },
        {
          "internalType": "uint256",
          "name": "freeCollatLiq",
          "type": "uint256"
        }
      ],
      "name": "sendPremium",
      "outputs": [],
      "stateMutability": "nonpayable",
      "type": "function"
    },
    {
      "inputs": [
        {
          "internalType": "address",
          "name": "user",
          "type": "address"
        },
        {
          "internalType": "uint256",
          "name": "amount",
          "type": "uint256"
        }
      ],
      "name": "sendReservedQuote",
      "outputs": [],
      "stateMutability": "nonpayable",
      "type": "function"
    },
    {
      "inputs": [
        {
          "internalType": "uint256",
          "name": "certificateId",
          "type": "uint256"
        }
      ],
      "name": "signalWithdrawal",
      "outputs": [],
      "stateMutability": "nonpayable",
      "type": "function"
    },
    {
      "inputs": [
        {
          "internalType": "uint256",
          "name": "lastMaxExpiryTimestamp",
          "type": "uint256"
        },
        {
          "internalType": "uint256",
          "name": "newMaxExpiryTimestamp",
          "type": "uint256"
        }
      ],
      "name": "startRound",
      "outputs": [],
      "stateMutability": "nonpayable",
      "type": "function"
    },
    {
      "inputs": [],
      "name": "tokenPriceQuote",
      "outputs": [
        {
          "internalType": "uint256",
          "name": "",
          "type": "uint256"
        }
      ],
      "stateMutability": "view",
      "type": "function"
    },
    {
      "inputs": [
        {
          "components": [
            {
              "internalType": "uint256",
              "name": "spotPrice",
              "type": "uint256"
            },
            {
              "internalType": "bytes32",
              "name": "quoteKey",
              "type": "bytes32"
            },
            {
              "internalType": "bytes32",
              "name": "baseKey",
              "type": "bytes32"
            },
            {
              "internalType": "contract ISynthetix",
              "name": "synthetix",
              "type": "address"
            },
            {
              "internalType": "contract ICollateralShort",
              "name": "short",
              "type": "address"
            },
            {
              "internalType": "uint256",
              "name": "quoteBaseFeeRate",
              "type": "uint256"
            },
            {
              "internalType": "uint256",
              "name": "baseQuoteFeeRate",
              "type": "uint256"
            }
          ],
          "internalType": "struct ILyraGlobals.ExchangeGlobals",
          "name": "exchangeGlobals",
          "type": "tuple"
        },
        {
          "internalType": "uint256",
          "name": "amount",
          "type": "uint256"
        }
      ],
      "name": "transferQuoteToHedge",
      "outputs": [
        {
          "internalType": "uint256",
          "name": "",
          "type": "uint256"
        }
      ],
      "stateMutability": "nonpayable",
      "type": "function"
    },
    {
      "inputs": [
        {
          "internalType": "uint256",
          "name": "certificateId",
          "type": "uint256"
        }
      ],
      "name": "unSignalWithdrawal",
      "outputs": [],
      "stateMutability": "nonpayable",
      "type": "function"
    },
    {
      "inputs": [
        {
          "internalType": "address",
          "name": "beneficiary",
          "type": "address"
        },
        {
          "internalType": "uint256",
          "name": "certificateId",
          "type": "uint256"
        }
      ],
      "name": "withdraw",
      "outputs": [
        {
          "internalType": "uint256",
          "name": "value",
          "type": "uint256"
        }
      ],
      "stateMutability": "nonpayable",
      "type": "function"
    }
  ],
  "bytecode": "0x60806040526000600860006101000a81548160ff0219169083151502179055506001600f5534801561003057600080fd5b5061494f806100406000396000f3fe608060405234801561001057600080fd5b50600436106101425760003560e01c8063a00dad22116100b8578063d1201e311161007c578063d1201e311461033a578063db32232f14610356578063dc62c58114610372578063f238ff5c1461038e578063f3fef3a3146103aa578063fc395668146103da57610142565b8063a00dad22146102a9578063b952cc4a146102c5578063c3964372146102e4578063c677c58a14610300578063c9061b581461031e57610142565b806347e7ef241161010a57806347e7ef24146101fd57806354d269af1461022d578063699ba87b14610249578063749aa2d9146102655780637e8b3f891461026f57806390a80ece1461027957610142565b8063159317d0146101475780631ebcfe801461016557806321af3525146101815780633f2f757d146101b15780633f6b5019146101e1575b600080fd5b61014f61040a565b60405161015c91906144d1565b60405180910390f35b61017f600480360381019061017a9190613f3c565b6105dc565b005b61019b60048036038101906101969190613eff565b6108bc565b6040516101a891906144d1565b60405180910390f35b6101cb60048036038101906101c69190613f8e565b610a94565b6040516101d891906144b6565b60405180910390f35b6101fb60048036038101906101f69190614057565b610c71565b005b61021760048036038101906102129190613cc5565b610d8f565b60405161022491906144d1565b60405180910390f35b61024760048036038101906102429190613dba565b611014565b005b610263600480360381019061025e9190613f3c565b6112f2565b005b61026d611523565b005b61027761190b565b005b610293600480360381019061028e9190613f3c565b611fce565b6040516102a091906144d1565b60405180910390f35b6102c360048036038101906102be9190613fca565b611fe6565b005b6102cd61224c565b6040516102db9291906144ec565b60405180910390f35b6102fe60048036038101906102f9919061401b565b61225e565b005b6103086123a7565b60405161031591906144d1565b60405180910390f35b61033860048036038101906103339190613d01565b6123ad565b005b610354600480360381019061034f9190613cc5565b612555565b005b610370600480360381019061036b9190613f3c565b61271d565b005b61038c60048036038101906103879190613f3c565b612784565b005b6103a860048036038101906103a3919061401b565b612854565b005b6103c460048036038101906103bf9190613cc5565b612920565b6040516103d191906144d1565b60405180910390f35b6103f460048036038101906103ef919061401b565b6130d1565b60405161040191906144d1565b60405180910390f35b60008060008054906101000a900473ffffffffffffffffffffffffffffffffffffffff1673ffffffffffffffffffffffffffffffffffffffff166305b7f2f6600160009054906101000a900473ffffffffffffffffffffffffffffffffffffffff1660026040518363ffffffff1660e01b815260040161048b92919061436b565b60e06040518083038186803b1580156104a357600080fd5b505afa1580156104b7573d6000803e3d6000fd5b505050506040513d601f19601f820116820180604052508101906104db9190613ed6565b90506000600e5414156104f957670de0b6b3a76400009150506105d9565b60006105bd8260000151600460009054906101000a900473ffffffffffffffffffffffffffffffffffffffff1673ffffffffffffffffffffffffffffffffffffffff1663cbb7429d856080015186600001516040518363ffffffff1660e01b815260040161056892919061442b565b60206040518083038186803b15801561058057600080fd5b505afa158015610594573d6000803e3d6000fd5b505050506040513d601f19601f820116820180604052508101906105b89190613f65565b6130d1565b90506105d4600e548261328e90919063ffffffff16565b925050505b90565b6000600260009054906101000a900473ffffffffffffffffffffffffffffffffffffffff1673ffffffffffffffffffffffffffffffffffffffff16638024818a836040518263ffffffff1660e01b815260040161063991906144d1565b60606040518083038186803b15801561065157600080fd5b505afa158015610665573d6000803e3d6000fd5b505050506040513d601f19601f820116820180604052508101906106899190613ead565b90506000600160009054906101000a900473ffffffffffffffffffffffffffffffffffffffff1673ffffffffffffffffffffffffffffffffffffffff16632eb6534f6040518163ffffffff1660e01b815260040160206040518083038186803b1580156106f557600080fd5b505afa158015610709573d6000803e3d6000fd5b505050506040513d601f19601f8201168201806040525081019061072d9190613f65565b9050610741600083604001511460016132c4565b6107728183602001511415801561076b575060006010600084815260200190815260200160002054145b60026132c4565b6000826020015114156107a3576107988260000151600c5461332990919063ffffffff16565b600c819055506107ec565b6107e56107d4601060008560200151815260200190815260200160002054846000015161328e90919063ffffffff16565b600c5461332990919063ffffffff16565b600c819055505b600260009054906101000a900473ffffffffffffffffffffffffffffffffffffffff1673ffffffffffffffffffffffffffffffffffffffff16638fbf3f4b3385846040518463ffffffff1660e01b815260040161084b93929190614334565b600060405180830381600087803b15801561086557600080fd5b505af1158015610879573d6000803e3d6000fd5b50505050827fa030de897a3fbcd98618ebb6d64981072317ade7083ad8702bbcd0b867a5063e600c546040516108af91906144d1565b60405180910390a2505050565b6000610919600460009054906101000a900473ffffffffffffffffffffffffffffffffffffffff1673ffffffffffffffffffffffffffffffffffffffff163373ffffffffffffffffffffffffffffffffffffffff161460116132c4565b61092f6001600f5461332990919063ffffffff16565b600f819055506000600f549050600061095085600001518660800151610a94565b905060008160400151905084811015610967578094505b610a42600560009054906101000a900473ffffffffffffffffffffffffffffffffffffffff1673ffffffffffffffffffffffffffffffffffffffff1663a9059cbb600460009054906101000a900473ffffffffffffffffffffffffffffffffffffffff16886040518363ffffffff1660e01b81526004016109e9929190614394565b602060405180830381600087803b158015610a0357600080fd5b505af1158015610a17573d6000803e3d6000fd5b505050506040513d601f19601f82011682018060405250810190610a3b9190613d91565b60006132c4565b7f78139c2f5eabfad75a88b7c1fe1d1e3851b441e2c5a7f792f95d8e1c6b9c636085604051610a7191906144d1565b60405180910390a18493505050610a8d600f54821460146132c4565b5092915050565b610a9c6136d4565b610aa46136d4565b600460009054906101000a900473ffffffffffffffffffffffffffffffffffffffff1673ffffffffffffffffffffffffffffffffffffffff1663cbb7429d84866040518363ffffffff1660e01b8152600401610b0192919061442b565b60206040518083038186803b158015610b1957600080fd5b505afa158015610b2d573d6000803e3d6000fd5b505050506040513d601f19601f82011682018060405250810190610b519190613f65565b816060018181525050610b89610b75856009600101546133b190919063ffffffff16565b60096000015461332990919063ffffffff16565b8160200181815250506000610ba28583606001516130d1565b9050600060036002830281610bb357fe5b0490506000610bcb82846133de90919063ffffffff16565b90508184602001511115610bfa5783602001519150610bf382846133de90919063ffffffff16565b9050610c24565b8084606001511115610c235783606001519050610c2081846133de90919063ffffffff16565b91505b5b610c3b8460600151826133de90919063ffffffff16565b846040018181525050610c5b8460200151836133de90919063ffffffff16565b8460000181815250508394505050505092915050565b610ccc600160009054906101000a900473ffffffffffffffffffffffffffffffffffffffff1673ffffffffffffffffffffffffffffffffffffffff163373ffffffffffffffffffffffffffffffffffffffff161460126132c4565b610cd583613461565b610cea82600b5461332990919063ffffffff16565b600b819055507f26fdd62e661c6437a27feaa8bcd05f1567dba4aa031bc1c15e5243d472969d9b82600b54604051610d239291906144ec565b60405180910390a1610d43816009600101546133de90919063ffffffff16565b6009600101819055507f5b5eb4c315d078b7384bec63e32d19bebdac730f44483dc358bd9085aa20ffb981600960010154604051610d829291906144ec565b60405180910390a1505050565b6000610da682600d5461332990919063ffffffff16565b600d819055506000600260009054906101000a900473ffffffffffffffffffffffffffffffffffffffff1673ffffffffffffffffffffffffffffffffffffffff1663156e29f68585600160009054906101000a900473ffffffffffffffffffffffffffffffffffffffff1673ffffffffffffffffffffffffffffffffffffffff16632eb6534f6040518163ffffffff1660e01b815260040160206040518083038186803b158015610e5657600080fd5b505afa158015610e6a573d6000803e3d6000fd5b505050506040513d601f19601f82011682018060405250810190610e8e9190613f65565b6040518463ffffffff1660e01b8152600401610eac939291906143bd565b602060405180830381600087803b158015610ec657600080fd5b505af1158015610eda573d6000803e3d6000fd5b505050506040513d601f19601f82011682018060405250810190610efe9190613f65565b9050808473ffffffffffffffffffffffffffffffffffffffff167f90890809c654f11d6e72a28fa60149770a0d11ec6c92319d6ceb2bb0a4ea1a1585604051610f4791906144d1565b60405180910390a361100a600560009054906101000a900473ffffffffffffffffffffffffffffffffffffffff1673ffffffffffffffffffffffffffffffffffffffff166323b872dd3330876040518463ffffffff1660e01b8152600401610fb19392919061429d565b602060405180830381600087803b158015610fcb57600080fd5b505af1158015610fdf573d6000803e3d6000fd5b505050506040513d601f19601f820116820180604052508101906110039190613d91565b60006132c4565b8091505092915050565b600860009054906101000a900460ff1615611064576040517f08c379a000000000000000000000000000000000000000000000000000000000815260040161105b90614476565b60405180910390fd5b876000806101000a81548173ffffffffffffffffffffffffffffffffffffffff021916908373ffffffffffffffffffffffffffffffffffffffff16021790555086600160006101000a81548173ffffffffffffffffffffffffffffffffffffffff021916908373ffffffffffffffffffffffffffffffffffffffff16021790555085600260006101000a81548173ffffffffffffffffffffffffffffffffffffffff021916908373ffffffffffffffffffffffffffffffffffffffff16021790555083600360006101000a81548173ffffffffffffffffffffffffffffffffffffffff021916908373ffffffffffffffffffffffffffffffffffffffff16021790555084600460006101000a81548173ffffffffffffffffffffffffffffffffffffffff021916908373ffffffffffffffffffffffffffffffffffffffff16021790555082600560006101000a81548173ffffffffffffffffffffffffffffffffffffffff021916908373ffffffffffffffffffffffffffffffffffffffff16021790555081600660006101000a81548173ffffffffffffffffffffffffffffffffffffffff021916908373ffffffffffffffffffffffffffffffffffffffff16021790555060158081111561123657fe5b815114611278576040517f08c379a000000000000000000000000000000000000000000000000000000000815260040161126f90614496565b60405180910390fd5b60005b81518110156112cc5781818151811061129057fe5b60200260200101516007600083815260200190815260200160002090805190602001906112be9291906136fc565b50808060010191505061127b565b506001600860006101000a81548160ff0219169083151502179055505050505050505050565b6000600260009054906101000a900473ffffffffffffffffffffffffffffffffffffffff1673ffffffffffffffffffffffffffffffffffffffff16638024818a836040518263ffffffff1660e01b815260040161134f91906144d1565b60606040518083038186803b15801561136757600080fd5b505afa15801561137b573d6000803e3d6000fd5b505050506040513d601f19601f8201168201806040525081019061139f9190613ead565b90506113b460008260400151141560036132c4565b6113d960006010600084604001518152602001908152602001600020541460046132c4565b600260009054906101000a900473ffffffffffffffffffffffffffffffffffffffff1673ffffffffffffffffffffffffffffffffffffffff16638fbf3f4b338460006040518463ffffffff1660e01b8152600401611439939291906142fd565b600060405180830381600087803b15801561145357600080fd5b505af1158015611467573d6000803e3d6000fd5b5050505060008160200151141561149c576114918160000151600c546133de90919063ffffffff16565b600c819055506114e5565b6114de6114cd601060008460200151815260200190815260200160002054836000015161328e90919063ffffffff16565b600c546133de90919063ffffffff16565b600c819055505b817f74e46e4569fdcca3333564a0997a08b4607c2af89cd8477813db852c9f364b61600c5460405161151791906144d1565b60405180910390a25050565b6000600160009054906101000a900473ffffffffffffffffffffffffffffffffffffffff1673ffffffffffffffffffffffffffffffffffffffff16632eb6534f6040518163ffffffff1660e01b815260040160206040518083038186803b15801561158d57600080fd5b505afa1580156115a1573d6000803e3d6000fd5b505050506040513d601f19601f820116820180604052508101906115c59190613f65565b905061167a6000600160009054906101000a900473ffffffffffffffffffffffffffffffffffffffff1673ffffffffffffffffffffffffffffffffffffffff16637e7088eb6040518163ffffffff1660e01b815260040160006040518083038186803b15801561163457600080fd5b505afa158015611648573d6000803e3d6000fd5b505050506040513d6000823e3d601f19601f820116820180604052508101906116719190613d50565b511460066132c4565b61169b600060106000848152602001908152602001600020541460076132c4565b6117536000600660009054906101000a900473ffffffffffffffffffffffffffffffffffffffff1673ffffffffffffffffffffffffffffffffffffffff166370a08231306040518263ffffffff1660e01b81526004016116fb9190614282565b60206040518083038186803b15801561171357600080fd5b505afa158015611727573d6000803e3d6000fd5b505050506040513d601f19601f8201168201806040525081019061174b9190613f65565b1460086132c4565b6118006000600460009054906101000a900473ffffffffffffffffffffffffffffffffffffffff1673ffffffffffffffffffffffffffffffffffffffff1663759d4d596040518163ffffffff1660e01b815260040160206040518083038186803b1580156117c057600080fd5b505afa1580156117d4573d6000803e3d6000fd5b505050506040513d601f19601f820116820180604052508101906117f89190613e84565b1460096132c4565b600061180a61040a565b905080601060008481526020019081526020016000208190555061184d61183c82600c546133b190919063ffffffff16565b600b5461332990919063ffffffff16565b600b819055507f26fdd62e661c6437a27feaa8bcd05f1567dba4aa031bc1c15e5243d472969d9b61188982600c546133b190919063ffffffff16565b600b5460405161189a9291906144ec565b60405180910390a16118b9600c54600e546133de90919063ffffffff16565b600e81905550817fff9d41e1547acb5eda1e3bac0c795f57760c96016cdd641af6bdd90270a768f382600b54600c546040516118f793929190614515565b60405180910390a26000600c819055505050565b6119216001600f5461332990919063ffffffff16565b600f819055506000600f5490506000600660009054906101000a900473ffffffffffffffffffffffffffffffffffffffff1673ffffffffffffffffffffffffffffffffffffffff166370a08231306040518263ffffffff1660e01b815260040161198b9190614282565b60206040518083038186803b1580156119a357600080fd5b505afa1580156119b7573d6000803e3d6000fd5b505050506040513d601f19601f820116820180604052508101906119db9190613f65565b90506000600160009054906101000a900473ffffffffffffffffffffffffffffffffffffffff1673ffffffffffffffffffffffffffffffffffffffff16637e7088eb6040518163ffffffff1660e01b815260040160006040518083038186803b158015611a4757600080fd5b505afa158015611a5b573d6000803e3d6000fd5b505050506040513d6000823e3d601f19601f82011682018060405250810190611a849190613d50565b511415611a975760006009600101819055505b600960010154811115611c885760008060009054906101000a900473ffffffffffffffffffffffffffffffffffffffff1673ffffffffffffffffffffffffffffffffffffffff166305b7f2f6600160009054906101000a900473ffffffffffffffffffffffffffffffffffffffff1660006040518363ffffffff1660e01b8152600401611b2592919061436b565b60e06040518083038186803b158015611b3d57600080fd5b505afa158015611b51573d6000803e3d6000fd5b505050506040513d601f19601f82011682018060405250810190611b759190613ed6565b90506000600960010154830390506000826060015173ffffffffffffffffffffffffffffffffffffffff1663ee52a2f384604001518486602001516040518463ffffffff1660e01b8152600401611bce939291906143f4565b602060405180830381600087803b158015611be857600080fd5b505af1158015611bfc573d6000803e3d6000fd5b505050506040513d601f19601f82011682018060405250810190611c209190613f65565b9050611c3060008211600b6132c4565b3373ffffffffffffffffffffffffffffffffffffffff167f0ba93b4b06f63170434e95713b6e4613651536fe0795f417db31ca847d25e0f28383604051611c789291906144ec565b60405180910390a2505050611fbb565b806009600101541115611fba5760008060009054906101000a900473ffffffffffffffffffffffffffffffffffffffff1673ffffffffffffffffffffffffffffffffffffffff166305b7f2f6600160009054906101000a900473ffffffffffffffffffffffffffffffffffffffff1660016040518363ffffffff1660e01b8152600401611d1692919061436b565b60e06040518083038186803b158015611d2e57600080fd5b505afa158015611d42573d6000803e3d6000fd5b505050506040513d601f19601f82011682018060405250810190611d669190613ed6565b90506000611db78260000151611da9611d938560a00151601260ff16600a0a6133de90919063ffffffff16565b86600960010154036134d990919063ffffffff16565b6134f590919063ffffffff16565b90506000611ea5600d54611e97600960000154611e89600b54600560009054906101000a900473ffffffffffffffffffffffffffffffffffffffff1673ffffffffffffffffffffffffffffffffffffffff166370a08231306040518263ffffffff1660e01b8152600401611e2b9190614282565b60206040518083038186803b158015611e4357600080fd5b505afa158015611e57573d6000803e3d6000fd5b505050506040513d601f19601f82011682018060405250810190611e7b9190613f65565b6133de90919063ffffffff16565b6133de90919063ffffffff16565b6133de90919063ffffffff16565b9050808211611eb45781611eb6565b805b91506000836060015173ffffffffffffffffffffffffffffffffffffffff1663ee52a2f385602001518587604001516040518463ffffffff1660e01b8152600401611f03939291906143f4565b602060405180830381600087803b158015611f1d57600080fd5b505af1158015611f31573d6000803e3d6000fd5b505050506040513d601f19601f82011682018060405250810190611f559190613f65565b9050611f6560008211600c6132c4565b3373ffffffffffffffffffffffffffffffffffffffff167ffe644b4d06ffe999b33590d87654491fea7d9ce296e8d305004cf50ca96e6be18483604051611fad9291906144ec565b60405180910390a2505050505b5b50611fcb600f54821460146132c4565b50565b60106020528060005260406000206000915090505481565b612041600160009054906101000a900473ffffffffffffffffffffffffffffffffffffffff1673ffffffffffffffffffffffffffffffffffffffff163373ffffffffffffffffffffffffffffffffffffffff161460126132c4565b6000600660009054906101000a900473ffffffffffffffffffffffffffffffffffffffff1673ffffffffffffffffffffffffffffffffffffffff166370a08231306040518263ffffffff1660e01b815260040161209e9190614282565b60206040518083038186803b1580156120b657600080fd5b505afa1580156120ca573d6000803e3d6000fd5b505050506040513d601f19601f820116820180604052508101906120ee9190613f65565b90506000808360000151905082600960010154106121585760008360096001015403905061213b61212c8760000151836133b190919063ffffffff16565b8361332990919063ffffffff16565b9150612150818861332990919063ffffffff16565b92505061218c565b600060096001015484039050868110612174576000925061218a565b61218781886133de90919063ffffffff16565b92505b505b60006121d486600001516121c66121b78960a00151601260ff16600a0a6133de90919063ffffffff16565b866134d990919063ffffffff16565b6134f590919063ffffffff16565b90506121e481831015600e6132c4565b6121fc8760096001015461332990919063ffffffff16565b6009600101819055507f88cdc2d9dafaa25ef0f861c37488527fa03d0d30cd7ed982e93c2fd8ed44eeaa8760096001015460405161223b9291906144ec565b60405180910390a150505050505050565b60098060000154908060010154905082565b6122b9600160009054906101000a900473ffffffffffffffffffffffffffffffffffffffff1673ffffffffffffffffffffffffffffffffffffffff163373ffffffffffffffffffffffffffffffffffffffff161460126132c4565b60008214156122d057600d54600e81905550612335565b6122f2600060106000858152602001908152602001600020541415600a6132c4565b61232e61231d6010600085815260200190815260200160002054600d5461328e90919063ffffffff16565b600e5461332990919063ffffffff16565b600e819055505b6000600d8190555080827ffd9d17e5565deea3d25918d95fc398673b9445ef0a96d12eaf3ab2b198756c65600e546000861461238457601060008781526020019081526020016000205461238d565b601260ff16600a0a5b60405161239b9291906144ec565b60405180910390a35050565b600d5481565b612408600160009054906101000a900473ffffffffffffffffffffffffffffffffffffffff1673ffffffffffffffffffffffffffffffffffffffff163373ffffffffffffffffffffffffffffffffffffffff161460126132c4565b61241e6001600f5461332990919063ffffffff16565b600f819055506000600f5490506124398383101560106132c4565b6124f2600560009054906101000a900473ffffffffffffffffffffffffffffffffffffffff1673ffffffffffffffffffffffffffffffffffffffff1663a9059cbb86866040518363ffffffff1660e01b8152600401612499929190614394565b602060405180830381600087803b1580156124b357600080fd5b505af11580156124c7573d6000803e3d6000fd5b505050506040513d601f19601f820116820180604052508101906124eb9190613d91565b60006132c4565b8373ffffffffffffffffffffffffffffffffffffffff167f72debe083e16f39475584adf69a588657185fbd31e7627daa95ed7dbd45b3cc18460405161253891906144d1565b60405180910390a261254f600f54821460146132c4565b50505050565b6125b0600360009054906101000a900473ffffffffffffffffffffffffffffffffffffffff1673ffffffffffffffffffffffffffffffffffffffff163373ffffffffffffffffffffffffffffffffffffffff161460136132c4565b6125c66001600f5461332990919063ffffffff16565b600f819055506000600f549050600b548211156125e357600b5491505b6125f882600b546133de90919063ffffffff16565b600b819055506126b7600560009054906101000a900473ffffffffffffffffffffffffffffffffffffffff1673ffffffffffffffffffffffffffffffffffffffff1663a9059cbb85856040518363ffffffff1660e01b815260040161265e929190614394565b602060405180830381600087803b15801561267857600080fd5b505af115801561268c573d6000803e3d6000fd5b505050506040513d601f19601f820116820180604052508101906126b09190613d91565b60006132c4565b8273ffffffffffffffffffffffffffffffffffffffff167f10913cbb30d5b8ffef79cb59f0875923e51b1a5a54fb330d0cb2022e6af8d13483600b546040516127019291906144ec565b60405180910390a2612718600f54821460146132c4565b505050565b612778600160009054906101000a900473ffffffffffffffffffffffffffffffffffffffff1673ffffffffffffffffffffffffffffffffffffffff163373ffffffffffffffffffffffffffffffffffffffff161460126132c4565b61278181613461565b50565b6127df600160009054906101000a900473ffffffffffffffffffffffffffffffffffffffff1673ffffffffffffffffffffffffffffffffffffffff163373ffffffffffffffffffffffffffffffffffffffff161460126132c4565b6127f2600960010154821115600f6132c4565b61280a816009600101546133de90919063ffffffff16565b6009600101819055507f5b5eb4c315d078b7384bec63e32d19bebdac730f44483dc358bd9085aa20ffb9816009600101546040516128499291906144ec565b60405180910390a150565b6128af600160009054906101000a900473ffffffffffffffffffffffffffffffffffffffff1673ffffffffffffffffffffffffffffffffffffffff163373ffffffffffffffffffffffffffffffffffffffff161460126132c4565b6128bd81831115600d6132c4565b6128d58260096000015461332990919063ffffffff16565b6009600001819055507fa926f60433937c9b276382ddb5204387c2c70104cbe627db98999c7d706c4196826009600001546040516129149291906144ec565b60405180910390a15050565b600080600260009054906101000a900473ffffffffffffffffffffffffffffffffffffffff1673ffffffffffffffffffffffffffffffffffffffff16638024818a846040518263ffffffff1660e01b815260040161297e91906144d1565b60606040518083038186803b15801561299657600080fd5b505afa1580156129aa573d6000803e3d6000fd5b505050506040513d601f19601f820116820180604052508101906129ce9190613ead565b90506000600160009054906101000a900473ffffffffffffffffffffffffffffffffffffffff1673ffffffffffffffffffffffffffffffffffffffff16632eb6534f6040518163ffffffff1660e01b815260040160206040518083038186803b158015612a3a57600080fd5b505afa158015612a4e573d6000803e3d6000fd5b505050506040513d601f19601f82011682018060405250810190612a729190613f65565b90508082602001511415612c5057612a998260000151600d546133de90919063ffffffff16565b600d81905550600260009054906101000a900473ffffffffffffffffffffffffffffffffffffffff1673ffffffffffffffffffffffffffffffffffffffff16639dc29fac33866040518363ffffffff1660e01b8152600401612afc9291906142d4565b600060405180830381600087803b158015612b1657600080fd5b505af1158015612b2a573d6000803e3d6000fd5b50505050838573ffffffffffffffffffffffffffffffffffffffff167f02f25270a4d87bea75db541cdfe559334a275b4a233520ed6c0a2429667cca948460000151600b54604051612b7d9291906144ec565b60405180910390a3612c42600560009054906101000a900473ffffffffffffffffffffffffffffffffffffffff1673ffffffffffffffffffffffffffffffffffffffff1663a9059cbb8785600001516040518363ffffffff1660e01b8152600401612be9929190614394565b602060405180830381600087803b158015612c0357600080fd5b505af1158015612c17573d6000803e3d6000fd5b505050506040513d601f19601f82011682018060405250810190612c3b9190613d91565b60006132c4565b8160000151925050506130cb565b600080836020015114612c7a57601060008460200151815260200190815260200160002054612c84565b670de0b6b3a76400005b905060006010600084815260200190815260200160002054905060008460400151148015612cb3575060008114155b15612ea8576000612cd183866000015161328e90919063ffffffff16565b9050612ce881600e546133de90919063ffffffff16565b600e81905550612d0182826133b190919063ffffffff16565b9550600260009054906101000a900473ffffffffffffffffffffffffffffffffffffffff1673ffffffffffffffffffffffffffffffffffffffff16639dc29fac33896040518363ffffffff1660e01b8152600401612d609291906142d4565b600060405180830381600087803b158015612d7a57600080fd5b505af1158015612d8e573d6000803e3d6000fd5b50505050868873ffffffffffffffffffffffffffffffffffffffff167f02f25270a4d87bea75db541cdfe559334a275b4a233520ed6c0a2429667cca9488600b54604051612ddd9291906144ec565b60405180910390a3612e9e600560009054906101000a900473ffffffffffffffffffffffffffffffffffffffff1673ffffffffffffffffffffffffffffffffffffffff1663a9059cbb8a896040518363ffffffff1660e01b8152600401612e45929190614394565b602060405180830381600087803b158015612e5f57600080fd5b505af1158015612e73573d6000803e3d6000fd5b505050506040513d601f19601f82011682018060405250810190612e979190613d91565b60006132c4565b50505050506130cb565b60006010600086604001518152602001908152602001600020549050612ee46000866040015114158015612edd575060008214155b60056132c4565b612f0d83612eff8388600001516133b190919063ffffffff16565b61328e90919063ffffffff16565b9550600260009054906101000a900473ffffffffffffffffffffffffffffffffffffffff1673ffffffffffffffffffffffffffffffffffffffff16639dc29fac33896040518363ffffffff1660e01b8152600401612f6c9291906142d4565b600060405180830381600087803b158015612f8657600080fd5b505af1158015612f9a573d6000803e3d6000fd5b50505050612fb386600b546133de90919063ffffffff16565b600b81905550868873ffffffffffffffffffffffffffffffffffffffff167f02f25270a4d87bea75db541cdfe559334a275b4a233520ed6c0a2429667cca9488600b546040516130049291906144ec565b60405180910390a36130c5600560009054906101000a900473ffffffffffffffffffffffffffffffffffffffff1673ffffffffffffffffffffffffffffffffffffffff1663a9059cbb8a896040518363ffffffff1660e01b815260040161306c929190614394565b602060405180830381600087803b15801561308657600080fd5b505af115801561309a573d6000803e3d6000fd5b505050506040513d601f19601f820116820180604052508101906130be9190613d91565b60006132c4565b50505050505b92915050565b6000613286600d54613278600b5461326a8661325c6131a38a600660009054906101000a900473ffffffffffffffffffffffffffffffffffffffff1673ffffffffffffffffffffffffffffffffffffffff166370a08231306040518263ffffffff1660e01b81526004016131459190614282565b60206040518083038186803b15801561315d57600080fd5b505afa158015613171573d6000803e3d6000fd5b505050506040513d601f19601f820116820180604052508101906131959190613f65565b6133b190919063ffffffff16565b600560009054906101000a900473ffffffffffffffffffffffffffffffffffffffff1673ffffffffffffffffffffffffffffffffffffffff166370a08231306040518263ffffffff1660e01b81526004016131fe9190614282565b60206040518083038186803b15801561321657600080fd5b505afa15801561322a573d6000803e3d6000fd5b505050506040513d601f19601f8201168201806040525081019061324e9190613f65565b61332990919063ffffffff16565b61332990919063ffffffff16565b6133de90919063ffffffff16565b6133de90919063ffffffff16565b905092915050565b60006132bc826132ae601260ff16600a0a8661351190919063ffffffff16565b61359790919063ffffffff16565b905092915050565b81600760008360158111156132d557fe5b815260200190815260200160002090613324576040517f08c379a000000000000000000000000000000000000000000000000000000000815260040161331b9190614454565b60405180910390fd5b505050565b6000808284019050838110156133a7576040517f08c379a000000000000000000000000000000000000000000000000000000000815260040180806020018281038252601b8152602001807f536166654d6174683a206164646974696f6e206f766572666c6f77000000000081525060200191505060405180910390fd5b8091505092915050565b6000601260ff16600a0a6133ce838561351190919063ffffffff16565b816133d557fe5b04905092915050565b600082821115613456576040517f08c379a000000000000000000000000000000000000000000000000000000000815260040180806020018281038252601e8152602001807f536166654d6174683a207375627472616374696f6e206f766572666c6f77000081525060200191505060405180910390fd5b818303905092915050565b6009600001548111156134775760096000015490505b61348f816009600001546133de90919063ffffffff16565b6009600001819055507f21035560539b4b4540708d4273620b634b00bda210e30692ec878ef00741cbc1816009600001546040516134ce9291906144ec565b60405180910390a150565b60006134ed8383601260ff16600a0a613620565b905092915050565b60006135098383601260ff16600a0a61367b565b905092915050565b6000808314156135245760009050613591565b600082840290508284828161353557fe5b041461358c576040517f08c379a00000000000000000000000000000000000000000000000000000000081526004018080602001828103825260218152602001806148f96021913960400191505060405180910390fd5b809150505b92915050565b600080821161360e576040517f08c379a000000000000000000000000000000000000000000000000000000000815260040180806020018281038252601a8152602001807f536166654d6174683a206469766973696f6e206279207a65726f00000000000081525060200191505060405180910390fd5b81838161361757fe5b04905092915050565b60008061364b8461363d600a86028861351190919063ffffffff16565b61359790919063ffffffff16565b90506005600a828161365957fe5b061061366657600a810190505b600a818161367057fe5b049150509392505050565b600080600a838161368857fe5b0461369c858761351190919063ffffffff16565b816136a357fe5b0490506005600a82816136b257fe5b06106136bf57600a810190505b600a81816136c957fe5b049150509392505050565b6040518060800160405280600081526020016000815260200160008152602001600081525090565b828054600181600116156101000203166002900490600052602060002090601f0160209004810192826137325760008555613779565b82601f1061374b57805160ff1916838001178555613779565b82800160010185558215613779579182015b8281111561377857825182559160200191906001019061375d565b5b509050613786919061378a565b5090565b5b808211156137a357600081600090555060010161378b565b5090565b60006137ba6137b58461457d565b61454c565b9050808382526020820190508260005b858110156137fa57813585016137e08882613a3d565b8452602084019350602083019250506001810190506137ca565b5050509392505050565b6000613817613812846145a9565b61454c565b9050808382526020820190508285602086028201111561383657600080fd5b60005b85811015613866578161384c8882613cb0565b845260208401935060208301925050600181019050613839565b5050509392505050565b600061388361387e846145d5565b61454c565b90508281526020810184848401111561389b57600080fd5b6138a68482856147a8565b509392505050565b6000813590506138bd816147cd565b92915050565b600082601f8301126138d457600080fd5b81356138e48482602086016137a7565b91505092915050565b600082601f8301126138fe57600080fd5b815161390e848260208601613804565b91505092915050565b600081519050613926816147e4565b92915050565b60008135905061393b816147fb565b92915050565b600081519050613950816147fb565b92915050565b60008135905061396581614812565b92915050565b60008151905061397a81614812565b92915050565b60008135905061398f81614829565b92915050565b6000813590506139a481614840565b92915050565b6000813590506139b981614857565b92915050565b6000813590506139ce8161486e565b92915050565b6000813590506139e381614885565b92915050565b6000813590506139f88161489c565b92915050565b600081359050613a0d816148b3565b92915050565b600081519050613a22816148b3565b92915050565b600081519050613a37816148ca565b92915050565b600082601f830112613a4e57600080fd5b8135613a5e848260208601613870565b91505092915050565b600060608284031215613a7957600080fd5b613a83606061454c565b90506000613a9384828501613cb0565b6000830152506020613aa784828501613cb0565b6020830152506040613abb84828501613cb0565b60408301525092915050565b600060e08284031215613ad957600080fd5b613ae360e061454c565b90506000613af384828501613c9b565b6000830152506020613b078482850161392c565b6020830152506040613b1b8482850161392c565b6040830152506060613b2f848285016139fe565b6060830152506080613b4384828501613956565b60808301525060a0613b5784828501613c9b565b60a08301525060c0613b6b84828501613c9b565b60c08301525092915050565b600060e08284031215613b8957600080fd5b613b9360e061454c565b90506000613ba384828501613cb0565b6000830152506020613bb784828501613941565b6020830152506040613bcb84828501613941565b6040830152506060613bdf84828501613a13565b6060830152506080613bf38482850161396b565b60808301525060a0613c0784828501613cb0565b60a08301525060c0613c1b84828501613cb0565b60c08301525092915050565b600060808284031215613c3957600080fd5b613c43608061454c565b90506000613c5384828501613c9b565b6000830152506020613c6784828501613c9b565b6020830152506040613c7b84828501613c9b565b6040830152506060613c8f84828501613c9b565b60608301525092915050565b600081359050613caa816148e1565b92915050565b600081519050613cbf816148e1565b92915050565b60008060408385031215613cd857600080fd5b6000613ce6858286016138ae565b9250506020613cf785828601613c9b565b9150509250929050565b600080600060608486031215613d1657600080fd5b6000613d24868287016138ae565b9350506020613d3586828701613c9b565b9250506040613d4686828701613c9b565b9150509250925092565b600060208284031215613d6257600080fd5b600082015167ffffffffffffffff811115613d7c57600080fd5b613d88848285016138ed565b91505092915050565b600060208284031215613da357600080fd5b6000613db184828501613917565b91505092915050565b600080600080600080600080610100898b031215613dd757600080fd5b6000613de58b828c016139aa565b9850506020613df68b828c016139bf565b9750506040613e078b828c01613995565b9650506060613e188b828c016139d4565b9550506080613e298b828c016139e9565b94505060a0613e3a8b828c01613980565b93505060c0613e4b8b828c01613980565b92505060e089013567ffffffffffffffff811115613e6857600080fd5b613e748b828c016138c3565b9150509295985092959890939650565b600060208284031215613e9657600080fd5b6000613ea484828501613a28565b91505092915050565b600060608284031215613ebf57600080fd5b6000613ecd84828501613a67565b91505092915050565b600060e08284031215613ee857600080fd5b6000613ef684828501613b77565b91505092915050565b6000806101008385031215613f1357600080fd5b6000613f2185828601613ac7565b92505060e0613f3285828601613c9b565b9150509250929050565b600060208284031215613f4e57600080fd5b6000613f5c84828501613c9b565b91505092915050565b600060208284031215613f7757600080fd5b6000613f8584828501613cb0565b91505092915050565b60008060408385031215613fa157600080fd5b6000613faf85828601613c9b565b9250506020613fc085828601613956565b9150509250929050565b60008060006101808486031215613fe057600080fd5b6000613fee86828701613c9b565b9350506020613fff86828701613ac7565b92505061010061401186828701613c27565b9150509250925092565b6000806040838503121561402e57600080fd5b600061403c85828601613c9b565b925050602061404d85828601613c9b565b9150509250929050565b60008060006060848603121561406c57600080fd5b600061407a86828701613c9b565b935050602061408b86828701613c9b565b925050604061409c86828701613c9b565b9150509250925092565b6140af8161472a565b82525050565b6140be8161462b565b82525050565b6140cd81614649565b82525050565b6140dc8161473c565b82525050565b6140eb81614760565b82525050565b6140fa81614772565b82525050565b60008154600181166000811461411d576001811461414357614187565b607f600283041661412e818761461a565b955060ff198316865260208601935050614187565b60028204614151818761461a565b955061415c85614605565b60005b8281101561417e5781548189015260018201915060208101905061415f565b80880195505050505b505092915050565b600061419c60138361461a565b91507f616c726561647920696e697469616c697a6564000000000000000000000000006000830152602082019050919050565b60006141dc600f8361461a565b91507f6572726f72206d736720636f756e7400000000000000000000000000000000006000830152602082019050919050565b6080820160008201516142256000850182614264565b5060208201516142386020850182614264565b50604082015161424b6040850182614264565b50606082015161425e6060850182614264565b50505050565b61426d81614720565b82525050565b61427c81614720565b82525050565b600060208201905061429760008301846140b5565b92915050565b60006060820190506142b260008301866140a6565b6142bf60208301856140b5565b6142cc6040830184614273565b949350505050565b60006040820190506142e960008301856140a6565b6142f66020830184614273565b9392505050565b600060608201905061431260008301866140a6565b61431f6020830185614273565b61432c60408301846140f1565b949350505050565b600060608201905061434960008301866140a6565b6143566020830185614273565b6143636040830184614273565b949350505050565b600060408201905061438060008301856140b5565b61438d60208301846140e2565b9392505050565b60006040820190506143a960008301856140b5565b6143b66020830184614273565b9392505050565b60006060820190506143d260008301866140b5565b6143df6020830185614273565b6143ec6040830184614273565b949350505050565b600060608201905061440960008301866140c4565b6144166020830185614273565b61442360408301846140c4565b949350505050565b600060408201905061444060008301856140d3565b61444d6020830184614273565b9392505050565b6000602082019050818103600083015261446e8184614100565b905092915050565b6000602082019050818103600083015261448f8161418f565b9050919050565b600060208201905081810360008301526144af816141cf565b9050919050565b60006080820190506144cb600083018461420f565b92915050565b60006020820190506144e66000830184614273565b92915050565b60006040820190506145016000830185614273565b61450e6020830184614273565b9392505050565b600060608201905061452a6000830186614273565b6145376020830185614273565b6145446040830184614273565b949350505050565b6000604051905081810181811067ffffffffffffffff82111715614573576145726147b7565b5b8060405250919050565b600067ffffffffffffffff821115614598576145976147b7565b5b602082029050602081019050919050565b600067ffffffffffffffff8211156145c4576145c36147b7565b5b602082029050602081019050919050565b600067ffffffffffffffff8211156145f0576145ef6147b7565b5b601f19601f8301169050602081019050919050565b60008190508160005260206000209050919050565b600082825260208201905092915050565b600061463682614700565b9050919050565b60008115159050919050565b6000819050919050565b600061465e8261462b565b9050919050565b60006146708261462b565b9050919050565b60006146828261462b565b9050919050565b60006146948261462b565b9050919050565b60006146a68261462b565b9050919050565b60006146b88261462b565b9050919050565b60006146ca8261462b565b9050919050565b60006146dc8261462b565b9050919050565b60008190506146f1826147b9565b919050565b6000819050919050565b600073ffffffffffffffffffffffffffffffffffffffff82169050919050565b6000819050919050565b600061473582614784565b9050919050565b60006147478261474e565b9050919050565b600061475982614700565b9050919050565b600061476b826146e3565b9050919050565b600061477d82614720565b9050919050565b600061478f82614796565b9050919050565b60006147a182614700565b9050919050565b82818337600083830152505050565bfe5b600381106147ca576147c96147b7565b5b50565b6147d68161462b565b81146147e157600080fd5b50565b6147ed8161463d565b81146147f857600080fd5b50565b61480481614649565b811461480f57600080fd5b50565b61481b81614653565b811461482657600080fd5b50565b61483281614665565b811461483d57600080fd5b50565b61484981614677565b811461485457600080fd5b50565b61486081614689565b811461486b57600080fd5b50565b6148778161469b565b811461488257600080fd5b50565b61488e816146ad565b811461489957600080fd5b50565b6148a5816146bf565b81146148b057600080fd5b50565b6148bc816146d1565b81146148c757600080fd5b50565b6148d3816146f6565b81146148de57600080fd5b50565b6148ea81614720565b81146148f557600080fd5b5056fe536166654d6174683a206d756c7469706c69636174696f6e206f766572666c6f77a2646970667358221220e301030e340c9f644c9049bacad162f446183648286340d7c3e31a1b8388646164736f6c63430007060033",
  "linkReferences": {},
  "deployedLinkReferences": {}
}