{
  "_format": "hh-sol-artifact-1",
  "contractName": "LyraGlobals",
  "sourceName": "contracts/LyraGlobals.sol",
  "abi": [
    {
      "inputs": [],
      "stateMutability": "nonpayable",
      "type": "constructor"
    },
    {
      "anonymous": false,
      "inputs": [
        {
          "indexed": true,
          "internalType": "address",
          "name": "_contractAddress",
          "type": "address"
        },
        {
          "indexed": false,
          "internalType": "bytes32",
          "name": "_baseKey",
          "type": "bytes32"
        }
      ],
      "name": "BaseKeySet",
      "type": "event"
    },
    {
      "anonymous": false,
      "inputs": [
        {
          "indexed": false,
          "internalType": "contract ISynthetix",
          "name": "_synthetix",
          "type": "address"
        },
        {
          "indexed": false,
          "internalType": "contract IExchanger",
          "name": "_exchanger",
          "type": "address"
        },
        {
          "indexed": false,
          "internalType": "contract IExchangeRates",
          "name": "_exchangeRates",
          "type": "address"
        },
        {
          "indexed": false,
          "internalType": "contract ICollateralShort",
          "name": "_collateralShort",
          "type": "address"
        }
      ],
      "name": "GlobalsSet",
      "type": "event"
    },
    {
      "anonymous": false,
      "inputs": [
        {
          "indexed": true,
          "internalType": "address",
          "name": "_contractAddress",
          "type": "address"
        },
        {
          "indexed": false,
          "internalType": "int256",
          "name": "_minDelta",
          "type": "int256"
        }
      ],
      "name": "MinDeltaSet",
      "type": "event"
    },
    {
      "anonymous": false,
      "inputs": [
        {
          "indexed": true,
          "internalType": "address",
          "name": "_contractAddress",
          "type": "address"
        },
        {
          "indexed": false,
          "internalType": "uint256",
          "name": "_optionPriceFeeCoefficient",
          "type": "uint256"
        }
      ],
      "name": "OptionPriceFeeCoefficientSet",
      "type": "event"
    },
    {
      "anonymous": false,
      "inputs": [
        {
          "indexed": true,
          "internalType": "address",
          "name": "previousOwner",
          "type": "address"
        },
        {
          "indexed": true,
          "internalType": "address",
          "name": "newOwner",
          "type": "address"
        }
      ],
      "name": "OwnershipTransferred",
      "type": "event"
    },
    {
      "anonymous": false,
      "inputs": [
        {
          "indexed": false,
          "internalType": "bool",
          "name": "isPaused",
          "type": "bool"
        }
      ],
      "name": "Paused",
      "type": "event"
    },
    {
      "anonymous": false,
      "inputs": [
        {
          "indexed": true,
          "internalType": "address",
          "name": "_contractAddress",
          "type": "address"
        },
        {
          "indexed": false,
          "internalType": "bytes32",
          "name": "_quoteKey",
          "type": "bytes32"
        }
      ],
      "name": "QuoteKeySet",
      "type": "event"
    },
    {
      "anonymous": false,
      "inputs": [
        {
          "indexed": true,
          "internalType": "address",
          "name": "_contractAddress",
          "type": "address"
        },
        {
          "indexed": false,
          "internalType": "int256",
          "name": "_rateAndCarry",
          "type": "int256"
        }
      ],
      "name": "RateAndCarrySet",
      "type": "event"
    },
    {
      "anonymous": false,
      "inputs": [
        {
          "indexed": true,
          "internalType": "address",
          "name": "_contractAddress",
          "type": "address"
        },
        {
          "indexed": false,
          "internalType": "uint256",
          "name": "_skewAdjustmentFactor",
          "type": "uint256"
        }
      ],
      "name": "SkewAdjustmentFactorSet",
      "type": "event"
    },
    {
      "anonymous": false,
      "inputs": [
        {
          "indexed": true,
          "internalType": "address",
          "name": "_contractAddress",
          "type": "address"
        },
        {
          "indexed": false,
          "internalType": "uint256",
          "name": "_spotPriceFeeCoefficient",
          "type": "uint256"
        }
      ],
      "name": "SpotPriceFeeCoefficientSet",
      "type": "event"
    },
    {
      "anonymous": false,
      "inputs": [
        {
          "indexed": true,
          "internalType": "address",
          "name": "_contractAddress",
          "type": "address"
        },
        {
          "indexed": false,
          "internalType": "uint256",
          "name": "_standardSize",
          "type": "uint256"
        }
      ],
      "name": "StandardSizeSet",
      "type": "event"
    },
    {
      "anonymous": false,
      "inputs": [
        {
          "indexed": true,
          "internalType": "address",
          "name": "_contractAddress",
          "type": "address"
        },
        {
          "indexed": false,
          "internalType": "uint256",
          "name": "_tradingCutoff",
          "type": "uint256"
        }
      ],
      "name": "TradingCutoffSet",
      "type": "event"
    },
    {
      "anonymous": false,
      "inputs": [
        {
          "indexed": true,
          "internalType": "address",
          "name": "_contractAddress",
          "type": "address"
        },
        {
          "indexed": false,
          "internalType": "uint256",
          "name": "_vegaFeeCoefficient",
          "type": "uint256"
        }
      ],
      "name": "VegaFeeCoefficientSet",
      "type": "event"
    },
    {
      "anonymous": false,
      "inputs": [
        {
          "indexed": true,
          "internalType": "address",
          "name": "_contractAddress",
          "type": "address"
        },
        {
          "indexed": false,
          "internalType": "uint256",
          "name": "_vegaNormFactor",
          "type": "uint256"
        }
      ],
      "name": "VegaNormFactorSet",
      "type": "event"
    },
    {
      "anonymous": false,
      "inputs": [
        {
          "indexed": true,
          "internalType": "address",
          "name": "_contractAddress",
          "type": "address"
        },
        {
          "indexed": false,
          "internalType": "uint256",
          "name": "_volatilityCutoff",
          "type": "uint256"
        }
      ],
      "name": "VolatilityCutoffSet",
      "type": "event"
    },
    {
      "inputs": [
        {
          "internalType": "address",
          "name": "",
          "type": "address"
        }
      ],
      "name": "baseKey",
      "outputs": [
        {
          "internalType": "bytes32",
          "name": "",
          "type": "bytes32"
        }
      ],
      "stateMutability": "view",
      "type": "function"
    },
    {
      "inputs": [],
      "name": "collateralShort",
      "outputs": [
        {
          "internalType": "contract ICollateralShort",
          "name": "",
          "type": "address"
        }
      ],
      "stateMutability": "view",
      "type": "function"
    },
    {
      "inputs": [],
      "name": "exchangeRates",
      "outputs": [
        {
          "internalType": "contract IExchangeRates",
          "name": "",
          "type": "address"
        }
      ],
      "stateMutability": "view",
      "type": "function"
    },
    {
      "inputs": [],
      "name": "exchanger",
      "outputs": [
        {
          "internalType": "contract IExchanger",
          "name": "",
          "type": "address"
        }
      ],
      "stateMutability": "view",
      "type": "function"
    },
    {
      "inputs": [
        {
          "internalType": "address",
          "name": "_contractAddress",
          "type": "address"
        },
        {
          "internalType": "enum ILyraGlobals.ExchangeType",
          "name": "exchangeType",
          "type": "uint8"
        }
      ],
      "name": "getExchangeGlobals",
      "outputs": [
        {
          "components": [
            {
              "internalType": "uint256",
              "name": "spotPrice",
              "type": "uint256"
            },
            {
              "internalType": "bytes32",
              "name": "quoteKey",
              "type": "bytes32"
            },
            {
              "internalType": "bytes32",
              "name": "baseKey",
              "type": "bytes32"
            },
            {
              "internalType": "contract ISynthetix",
              "name": "synthetix",
              "type": "address"
            },
            {
              "internalType": "contract ICollateralShort",
              "name": "short",
              "type": "address"
            },
            {
              "internalType": "uint256",
              "name": "quoteBaseFeeRate",
              "type": "uint256"
            },
            {
              "internalType": "uint256",
              "name": "baseQuoteFeeRate",
              "type": "uint256"
            }
          ],
          "internalType": "struct ILyraGlobals.ExchangeGlobals",
          "name": "exchangeGlobals",
          "type": "tuple"
        }
      ],
      "stateMutability": "view",
      "type": "function"
    },
    {
      "inputs": [
        {
          "internalType": "address",
          "name": "_contractAddress",
          "type": "address"
        },
        {
          "internalType": "bool",
          "name": "isBuy",
          "type": "bool"
        }
      ],
      "name": "getGlobalsForOptionTrade",
      "outputs": [
        {
          "components": [
            {
              "internalType": "uint256",
              "name": "optionPriceFeeCoefficient",
              "type": "uint256"
            },
            {
              "internalType": "uint256",
              "name": "spotPriceFeeCoefficient",
              "type": "uint256"
            },
            {
              "internalType": "uint256",
              "name": "vegaFeeCoefficient",
              "type": "uint256"
            },
            {
              "internalType": "uint256",
              "name": "vegaNormFactor",
              "type": "uint256"
            },
            {
              "internalType": "uint256",
              "name": "standardSize",
              "type": "uint256"
            },
            {
              "internalType": "uint256",
              "name": "skewAdjustmentFactor",
              "type": "uint256"
            },
            {
              "internalType": "int256",
              "name": "rateAndCarry",
              "type": "int256"
            },
            {
              "internalType": "int256",
              "name": "minDelta",
              "type": "int256"
            },
            {
              "internalType": "uint256",
              "name": "volatilityCutoff",
              "type": "uint256"
            },
            {
              "internalType": "uint256",
              "name": "spotPrice",
              "type": "uint256"
            }
          ],
          "internalType": "struct ILyraGlobals.PricingGlobals",
          "name": "pricingGlobals",
          "type": "tuple"
        },
        {
          "components": [
            {
              "internalType": "uint256",
              "name": "spotPrice",
              "type": "uint256"
            },
            {
              "internalType": "bytes32",
              "name": "quoteKey",
              "type": "bytes32"
            },
            {
              "internalType": "bytes32",
              "name": "baseKey",
              "type": "bytes32"
            },
            {
              "internalType": "contract ISynthetix",
              "name": "synthetix",
              "type": "address"
            },
            {
              "internalType": "contract ICollateralShort",
              "name": "short",
              "type": "address"
            },
            {
              "internalType": "uint256",
              "name": "quoteBaseFeeRate",
              "type": "uint256"
            },
            {
              "internalType": "uint256",
              "name": "baseQuoteFeeRate",
              "type": "uint256"
            }
          ],
          "internalType": "struct ILyraGlobals.ExchangeGlobals",
          "name": "exchangeGlobals",
          "type": "tuple"
        },
        {
          "internalType": "uint256",
          "name": "tradeCutoff",
          "type": "uint256"
        }
      ],
      "stateMutability": "view",
      "type": "function"
    },
    {
      "inputs": [
        {
          "internalType": "address",
          "name": "_contractAddress",
          "type": "address"
        }
      ],
      "name": "getGreekCacheGlobals",
      "outputs": [
        {
          "components": [
            {
              "internalType": "int256",
              "name": "rateAndCarry",
              "type": "int256"
            },
            {
              "internalType": "uint256",
              "name": "spotPrice",
              "type": "uint256"
            }
          ],
          "internalType": "struct ILyraGlobals.GreekCacheGlobals",
          "name": "",
          "type": "tuple"
        }
      ],
      "stateMutability": "view",
      "type": "function"
    },
    {
      "inputs": [
        {
          "internalType": "address",
          "name": "_contractAddress",
          "type": "address"
        }
      ],
      "name": "getPricingGlobals",
      "outputs": [
        {
          "components": [
            {
              "internalType": "uint256",
              "name": "optionPriceFeeCoefficient",
              "type": "uint256"
            },
            {
              "internalType": "uint256",
              "name": "spotPriceFeeCoefficient",
              "type": "uint256"
            },
            {
              "internalType": "uint256",
              "name": "vegaFeeCoefficient",
              "type": "uint256"
            },
            {
              "internalType": "uint256",
              "name": "vegaNormFactor",
              "type": "uint256"
            },
            {
              "internalType": "uint256",
              "name": "standardSize",
              "type": "uint256"
            },
            {
              "internalType": "uint256",
              "name": "skewAdjustmentFactor",
              "type": "uint256"
            },
            {
              "internalType": "int256",
              "name": "rateAndCarry",
              "type": "int256"
            },
            {
              "internalType": "int256",
              "name": "minDelta",
              "type": "int256"
            },
            {
              "internalType": "uint256",
              "name": "volatilityCutoff",
              "type": "uint256"
            },
            {
              "internalType": "uint256",
              "name": "spotPrice",
              "type": "uint256"
            }
          ],
          "internalType": "struct ILyraGlobals.PricingGlobals",
          "name": "",
          "type": "tuple"
        }
      ],
      "stateMutability": "view",
      "type": "function"
    },
    {
      "inputs": [
        {
          "internalType": "bytes32",
          "name": "to",
          "type": "bytes32"
        }
      ],
      "name": "getSpotPrice",
      "outputs": [
        {
          "internalType": "uint256",
          "name": "",
          "type": "uint256"
        }
      ],
      "stateMutability": "view",
      "type": "function"
    },
    {
      "inputs": [
        {
          "internalType": "address",
          "name": "_contractAddress",
          "type": "address"
        }
      ],
      "name": "getSpotPriceForMarket",
      "outputs": [
        {
          "internalType": "uint256",
          "name": "",
          "type": "uint256"
        }
      ],
      "stateMutability": "view",
      "type": "function"
    },
    {
      "inputs": [],
      "name": "isPaused",
      "outputs": [
        {
          "internalType": "bool",
          "name": "",
          "type": "bool"
        }
      ],
      "stateMutability": "view",
      "type": "function"
    },
    {
      "inputs": [
        {
          "internalType": "address",
          "name": "",
          "type": "address"
        }
      ],
      "name": "minDelta",
      "outputs": [
        {
          "internalType": "int256",
          "name": "",
          "type": "int256"
        }
      ],
      "stateMutability": "view",
      "type": "function"
    },
    {
      "inputs": [
        {
          "internalType": "address",
          "name": "",
          "type": "address"
        }
      ],
      "name": "optionPriceFeeCoefficient",
      "outputs": [
        {
          "internalType": "uint256",
          "name": "",
          "type": "uint256"
        }
      ],
      "stateMutability": "view",
      "type": "function"
    },
    {
      "inputs": [],
      "name": "owner",
      "outputs": [
        {
          "internalType": "address",
          "name": "",
          "type": "address"
        }
      ],
      "stateMutability": "view",
      "type": "function"
    },
    {
      "inputs": [
        {
          "internalType": "address",
          "name": "",
          "type": "address"
        }
      ],
      "name": "quoteKey",
      "outputs": [
        {
          "internalType": "bytes32",
          "name": "",
          "type": "bytes32"
        }
      ],
      "stateMutability": "view",
      "type": "function"
    },
    {
      "inputs": [
        {
          "internalType": "address",
          "name": "",
          "type": "address"
        }
      ],
      "name": "rateAndCarry",
      "outputs": [
        {
          "internalType": "int256",
          "name": "",
          "type": "int256"
        }
      ],
      "stateMutability": "view",
      "type": "function"
    },
    {
      "inputs": [],
      "name": "renounceOwnership",
      "outputs": [],
      "stateMutability": "nonpayable",
      "type": "function"
    },
    {
      "inputs": [
        {
          "internalType": "address",
          "name": "_contractAddress",
          "type": "address"
        },
        {
          "internalType": "bytes32",
          "name": "_baseKey",
          "type": "bytes32"
        }
      ],
      "name": "setBaseKey",
      "outputs": [],
      "stateMutability": "nonpayable",
      "type": "function"
    },
    {
      "inputs": [
        {
          "internalType": "contract ISynthetix",
          "name": "_synthetix",
          "type": "address"
        },
        {
          "internalType": "contract IExchanger",
          "name": "_exchanger",
          "type": "address"
        },
        {
          "internalType": "contract IExchangeRates",
          "name": "_exchangeRates",
          "type": "address"
        },
        {
          "internalType": "contract ICollateralShort",
          "name": "_collateralShort",
          "type": "address"
        }
      ],
      "name": "setGlobals",
      "outputs": [],
      "stateMutability": "nonpayable",
      "type": "function"
    },
    {
      "inputs": [
        {
          "internalType": "address",
          "name": "_contractAddress",
          "type": "address"
        },
        {
          "internalType": "uint256",
          "name": "_tradingCutoff",
          "type": "uint256"
        },
        {
          "components": [
            {
              "internalType": "uint256",
              "name": "optionPriceFeeCoefficient",
              "type": "uint256"
            },
            {
              "internalType": "uint256",
              "name": "spotPriceFeeCoefficient",
              "type": "uint256"
            },
            {
              "internalType": "uint256",
              "name": "vegaFeeCoefficient",
              "type": "uint256"
            },
            {
              "internalType": "uint256",
              "name": "vegaNormFactor",
              "type": "uint256"
            },
            {
              "internalType": "uint256",
              "name": "standardSize",
              "type": "uint256"
            },
            {
              "internalType": "uint256",
              "name": "skewAdjustmentFactor",
              "type": "uint256"
            },
            {
              "internalType": "int256",
              "name": "rateAndCarry",
              "type": "int256"
            },
            {
              "internalType": "int256",
              "name": "minDelta",
              "type": "int256"
            },
            {
              "internalType": "uint256",
              "name": "volatilityCutoff",
              "type": "uint256"
            },
            {
              "internalType": "uint256",
              "name": "spotPrice",
              "type": "uint256"
            }
          ],
          "internalType": "struct ILyraGlobals.PricingGlobals",
          "name": "pricingGlobals",
          "type": "tuple"
        },
        {
          "internalType": "bytes32",
          "name": "_quoteKey",
          "type": "bytes32"
        },
        {
          "internalType": "bytes32",
          "name": "_baseKey",
          "type": "bytes32"
        }
      ],
      "name": "setGlobalsForContract",
      "outputs": [],
      "stateMutability": "nonpayable",
      "type": "function"
    },
    {
      "inputs": [
        {
          "internalType": "address",
          "name": "_contractAddress",
          "type": "address"
        },
        {
          "internalType": "int256",
          "name": "_minDelta",
          "type": "int256"
        }
      ],
      "name": "setMinDelta",
      "outputs": [],
      "stateMutability": "nonpayable",
      "type": "function"
    },
    {
      "inputs": [
        {
          "internalType": "address",
          "name": "_contractAddress",
          "type": "address"
        },
        {
          "internalType": "uint256",
          "name": "_optionPriceFeeCoefficient",
          "type": "uint256"
        }
      ],
      "name": "setOptionPriceFeeCoefficient",
      "outputs": [],
      "stateMutability": "nonpayable",
      "type": "function"
    },
    {
      "inputs": [
        {
          "internalType": "bool",
          "name": "_isPaused",
          "type": "bool"
        }
      ],
      "name": "setPaused",
      "outputs": [],
      "stateMutability": "nonpayable",
      "type": "function"
    },
    {
      "inputs": [
        {
          "internalType": "address",
          "name": "_contractAddress",
          "type": "address"
        },
        {
          "internalType": "bytes32",
          "name": "_quoteKey",
          "type": "bytes32"
        }
      ],
      "name": "setQuoteKey",
      "outputs": [],
      "stateMutability": "nonpayable",
      "type": "function"
    },
    {
      "inputs": [
        {
          "internalType": "address",
          "name": "_contractAddress",
          "type": "address"
        },
        {
          "internalType": "int256",
          "name": "_rateAndCarry",
          "type": "int256"
        }
      ],
      "name": "setRateAndCarry",
      "outputs": [],
      "stateMutability": "nonpayable",
      "type": "function"
    },
    {
      "inputs": [
        {
          "internalType": "address",
          "name": "_contractAddress",
          "type": "address"
        },
        {
          "internalType": "uint256",
          "name": "_skewAdjustmentFactor",
          "type": "uint256"
        }
      ],
      "name": "setSkewAdjustmentFactor",
      "outputs": [],
      "stateMutability": "nonpayable",
      "type": "function"
    },
    {
      "inputs": [
        {
          "internalType": "address",
          "name": "_contractAddress",
          "type": "address"
        },
        {
          "internalType": "uint256",
          "name": "_spotPriceFeeCoefficient",
          "type": "uint256"
        }
      ],
      "name": "setSpotPriceFeeCoefficient",
      "outputs": [],
      "stateMutability": "nonpayable",
      "type": "function"
    },
    {
      "inputs": [
        {
          "internalType": "address",
          "name": "_contractAddress",
          "type": "address"
        },
        {
          "internalType": "uint256",
          "name": "_standardSize",
          "type": "uint256"
        }
      ],
      "name": "setStandardSize",
      "outputs": [],
      "stateMutability": "nonpayable",
      "type": "function"
    },
    {
      "inputs": [
        {
          "internalType": "address",
          "name": "_contractAddress",
          "type": "address"
        },
        {
          "internalType": "uint256",
          "name": "_tradingCutoff",
          "type": "uint256"
        }
      ],
      "name": "setTradingCutoff",
      "outputs": [],
      "stateMutability": "nonpayable",
      "type": "function"
    },
    {
      "inputs": [
        {
          "internalType": "address",
          "name": "_contractAddress",
          "type": "address"
        },
        {
          "internalType": "uint256",
          "name": "_vegaFeeCoefficient",
          "type": "uint256"
        }
      ],
      "name": "setVegaFeeCoefficient",
      "outputs": [],
      "stateMutability": "nonpayable",
      "type": "function"
    },
    {
      "inputs": [
        {
          "internalType": "address",
          "name": "_contractAddress",
          "type": "address"
        },
        {
          "internalType": "uint256",
          "name": "_vegaNormFactor",
          "type": "uint256"
        }
      ],
      "name": "setVegaNormFactor",
      "outputs": [],
      "stateMutability": "nonpayable",
      "type": "function"
    },
    {
      "inputs": [
        {
          "internalType": "address",
          "name": "_contractAddress",
          "type": "address"
        },
        {
          "internalType": "uint256",
          "name": "_volatilityCutoff",
          "type": "uint256"
        }
      ],
      "name": "setVolatilityCutoff",
      "outputs": [],
      "stateMutability": "nonpayable",
      "type": "function"
    },
    {
      "inputs": [
        {
          "internalType": "address",
          "name": "",
          "type": "address"
        }
      ],
      "name": "skewAdjustmentFactor",
      "outputs": [
        {
          "internalType": "uint256",
          "name": "",
          "type": "uint256"
        }
      ],
      "stateMutability": "view",
      "type": "function"
    },
    {
      "inputs": [
        {
          "internalType": "address",
          "name": "",
          "type": "address"
        }
      ],
      "name": "spotPriceFeeCoefficient",
      "outputs": [
        {
          "internalType": "uint256",
          "name": "",
          "type": "uint256"
        }
      ],
      "stateMutability": "view",
      "type": "function"
    },
    {
      "inputs": [
        {
          "internalType": "address",
          "name": "",
          "type": "address"
        }
      ],
      "name": "standardSize",
      "outputs": [
        {
          "internalType": "uint256",
          "name": "",
          "type": "uint256"
        }
      ],
      "stateMutability": "view",
      "type": "function"
    },
    {
      "inputs": [],
      "name": "synthetix",
      "outputs": [
        {
          "internalType": "contract ISynthetix",
          "name": "",
          "type": "address"
        }
      ],
      "stateMutability": "view",
      "type": "function"
    },
    {
      "inputs": [
        {
          "internalType": "address",
          "name": "",
          "type": "address"
        }
      ],
      "name": "tradingCutoff",
      "outputs": [
        {
          "internalType": "uint256",
          "name": "",
          "type": "uint256"
        }
      ],
      "stateMutability": "view",
      "type": "function"
    },
    {
      "inputs": [
        {
          "internalType": "address",
          "name": "newOwner",
          "type": "address"
        }
      ],
      "name": "transferOwnership",
      "outputs": [],
      "stateMutability": "nonpayable",
      "type": "function"
    },
    {
      "inputs": [
        {
          "internalType": "address",
          "name": "",
          "type": "address"
        }
      ],
      "name": "vegaFeeCoefficient",
      "outputs": [
        {
          "internalType": "uint256",
          "name": "",
          "type": "uint256"
        }
      ],
      "stateMutability": "view",
      "type": "function"
    },
    {
      "inputs": [
        {
          "internalType": "address",
          "name": "",
          "type": "address"
        }
      ],
      "name": "vegaNormFactor",
      "outputs": [
        {
          "internalType": "uint256",
          "name": "",
          "type": "uint256"
        }
      ],
      "stateMutability": "view",
      "type": "function"
    },
    {
      "inputs": [
        {
          "internalType": "address",
          "name": "",
          "type": "address"
        }
      ],
      "name": "volatilityCutoff",
      "outputs": [
        {
          "internalType": "uint256",
          "name": "",
          "type": "uint256"
        }
      ],
      "stateMutability": "view",
      "type": "function"
    }
  ],
  "bytecode": "0x60806040526000600460146101000a81548160ff0219169083151502179055503480156200002c57600080fd5b5060006200003f620000e360201b60201c565b9050806000806101000a81548173ffffffffffffffffffffffffffffffffffffffff021916908373ffffffffffffffffffffffffffffffffffffffff1602179055508073ffffffffffffffffffffffffffffffffffffffff16600073ffffffffffffffffffffffffffffffffffffffff167f8be0079c531659141344cd1fd0a4f28419497f9722a3daafe3b4186f6b6457e060405160405180910390a350620000eb565b600033905090565b61414880620000fb6000396000f3fe608060405234801561001057600080fd5b50600436106102535760003560e01c8063759b522511610146578063be4d92a6116100c3578063d25125e711610087578063d25125e714610740578063dec4b32f14610770578063df8c706b146107a0578063f0bda8af146107d0578063f2fde38b146107ec578063f61d2d4e1461080857610253565b8063be4d92a61461068c578063c2ac6479146106bc578063c2afede4146106d8578063cc8e05c2146106f4578063cd7955391461072457610253565b8063aeade0321161010a578063aeade032146105c0578063b187bd26146105f0578063b2ce78c91461060e578063bac95c391461062a578063be146b121461065a57610253565b8063759b52251461051c5780637dbae6481461053a578063813fb5581461056a57806385f99dfc146105865780638da5cb5b146105a257610253565b806327a008c1116101d45780634ffcd9df116101985780634ffcd9df146104785780635c6ba1571461049657806368841b0f146104b25780636f3dfefa146104e2578063715018a61461051257610253565b806327a008c1146103ae578063342689f6146103de5780633857b254146103fa5780634a51c0091461042a5780634d12fca41461045a57610253565b806312a0083d1161021b57806312a0083d1461032057806316c38b3c1461033e57806322ecf0ce1461035a57806323bef6961461037657806326da9cc91461039257610253565b806305b7f2f6146102585780630b262a1e146102885780630b967671146102a45780630bca2ab1146102d4578063118a214714610304575b600080fd5b610272600480360381019061026d9190613433565b610838565b60405161027f9190613dee565b60405180910390f35b6102a2600480360381019061029d91906134ab565b610bce565b005b6102be60048036038101906102b99190613392565b610d5e565b6040516102cb9190613e7a565b60405180910390f35b6102ee60048036038101906102e99190613392565b610d76565b6040516102fb9190613e7a565b60405180910390f35b61031e6004803603810190610319919061346f565b610d8e565b005b610328610f2b565b6040516103359190613c02565b60405180910390f35b61035860048036038101906103539190613561565b610f51565b005b610374600480360381019061036f91906133f7565b611063565b005b610390600480360381019061038b91906135b3565b6111a8565b005b6103ac60048036038101906103a791906134ab565b61139e565b005b6103c860048036038101906103c39190613392565b61152e565b6040516103d59190613bbe565b60405180910390f35b6103f860048036038101906103f3919061346f565b611546565b005b610414600480360381019061040f9190613392565b611702565b6040516104219190613cb3565b60405180910390f35b610444600480360381019061043f9190613392565b61171a565b6040516104519190613cb3565b60405180910390f35b610462611732565b60405161046f9190613c38565b60405180910390f35b610480611758565b60405161048d9190613c1d565b60405180910390f35b6104b060048036038101906104ab91906134e7565b61177e565b005b6104cc60048036038101906104c79190613392565b6118d1565b6040516104d99190613e24565b60405180910390f35b6104fc60048036038101906104f7919061358a565b611bf4565b6040516105099190613e7a565b60405180910390f35b61051a611cff565b005b610524611e6c565b6040516105319190613c53565b60405180910390f35b610554600480360381019061054f9190613392565b611e92565b6040516105619190613e7a565b60405180910390f35b610584600480360381019061057f91906134ab565b611ee3565b005b6105a0600480360381019061059b91906134ab565b612073565b005b6105aa612205565b6040516105b79190613b88565b60405180910390f35b6105da60048036038101906105d59190613392565b61222e565b6040516105e79190613e09565b60405180910390f35b6105f8612328565b6040516106059190613ba3565b60405180910390f35b610628600480360381019061062391906133f7565b61233b565b005b610644600480360381019061063f9190613392565b612480565b6040516106519190613e7a565b60405180910390f35b610674600480360381019061066f91906133bb565b612498565b60405161068393929190613e40565b60405180910390f35b6106a660048036038101906106a19190613392565b6127e0565b6040516106b39190613e7a565b60405180910390f35b6106d660048036038101906106d191906134ab565b6127f8565b005b6106f260048036038101906106ed91906134ab565b612988565b005b61070e60048036038101906107099190613392565b612b21565b60405161071b9190613bbe565b60405180910390f35b61073e600480360381019061073991906134ab565b612b39565b005b61075a60048036038101906107559190613392565b612cde565b6040516107679190613e7a565b60405180910390f35b61078a60048036038101906107859190613392565b612cf6565b6040516107979190613e7a565b60405180910390f35b6107ba60048036038101906107b59190613392565b612d0e565b6040516107c79190613e7a565b60405180910390f35b6107ea60048036038101906107e591906134ab565b612d26565b005b61080660048036038101906108019190613392565b612eb6565b005b610822600480360381019061081d9190613392565b6130a8565b60405161082f9190613e7a565b60405180910390f35b6108406130c8565b600460149054906101000a900460ff1615610890576040517f08c379a000000000000000000000000000000000000000000000000000000000815260040161088790613cee565b60405180910390fd5b6040518060e0016040528060008152602001600f60008673ffffffffffffffffffffffffffffffffffffffff1673ffffffffffffffffffffffffffffffffffffffff168152602001908152602001600020548152602001601060008673ffffffffffffffffffffffffffffffffffffffff1673ffffffffffffffffffffffffffffffffffffffff168152602001908152602001600020548152602001600160009054906101000a900473ffffffffffffffffffffffffffffffffffffffff1673ffffffffffffffffffffffffffffffffffffffff168152602001600460009054906101000a900473ffffffffffffffffffffffffffffffffffffffff1673ffffffffffffffffffffffffffffffffffffffff16815260200160008152602001600081525090506109c38160400151611bf4565b816000018181525050600060028111156109d957fe5b8260028111156109e557fe5b1480610a0657506002808111156109f857fe5b826002811115610a0457fe5b145b15610aca57600260009054906101000a900473ffffffffffffffffffffffffffffffffffffffff1673ffffffffffffffffffffffffffffffffffffffff16631a5c6095826040015183602001516040518363ffffffff1660e01b8152600401610a70929190613bd9565b60206040518083038186803b158015610a8857600080fd5b505afa158015610a9c573d6000803e3d6000fd5b505050506040513d601f19601f82011682018060405250810190610ac09190613616565b8160c00181815250505b60016002811115610ad757fe5b826002811115610ae357fe5b1480610b045750600280811115610af657fe5b826002811115610b0257fe5b145b15610bc857600260009054906101000a900473ffffffffffffffffffffffffffffffffffffffff1673ffffffffffffffffffffffffffffffffffffffff16631a5c6095826020015183604001516040518363ffffffff1660e01b8152600401610b6e929190613bd9565b60206040518083038186803b158015610b8657600080fd5b505afa158015610b9a573d6000803e3d6000fd5b505050506040513d601f19601f82011682018060405250810190610bbe9190613616565b8160a00181815250505b92915050565b610bd66130c0565b73ffffffffffffffffffffffffffffffffffffffff16610bf4612205565b73ffffffffffffffffffffffffffffffffffffffff1614610c7d576040517f08c379a00000000000000000000000000000000000000000000000000000000081526004018080602001828103825260208152602001807f4f776e61626c653a2063616c6c6572206973206e6f7420746865206f776e657281525060200191505060405180910390fd5b6706f05b59d3b20000811115610cc8576040517f08c379a0000000000000000000000000000000000000000000000000000000008152600401610cbf90613d4e565b60405180910390fd5b80600660008473ffffffffffffffffffffffffffffffffffffffff1673ffffffffffffffffffffffffffffffffffffffff168152602001908152602001600020819055508173ffffffffffffffffffffffffffffffffffffffff167fff485efab22c38dad142728a53dffcc27d9144610c8def46e7bf3c08006a017882604051610d529190613e7a565b60405180910390a25050565b60096020528060005260406000206000915090505481565b600a6020528060005260406000206000915090505481565b610d966130c0565b73ffffffffffffffffffffffffffffffffffffffff16610db4612205565b73ffffffffffffffffffffffffffffffffffffffff1614610e3d576040517f08c379a00000000000000000000000000000000000000000000000000000000081526004018080602001828103825260208152602001807f4f776e61626c653a2063616c6c6572206973206e6f7420746865206f776e657281525060200191505060405180910390fd5b60008112158015610e5657506702c68af0bb1400008113155b610e95576040517f08c379a0000000000000000000000000000000000000000000000000000000008152600401610e8c90613d2e565b60405180910390fd5b80600d60008473ffffffffffffffffffffffffffffffffffffffff1673ffffffffffffffffffffffffffffffffffffffff168152602001908152602001600020819055508173ffffffffffffffffffffffffffffffffffffffff167fdc5cbd81147452a32a92a2efe8b1818e9b9f360f4a84284fc6d95e576e5ecb4f82604051610f1f9190613cb3565b60405180910390a25050565b600460009054906101000a900473ffffffffffffffffffffffffffffffffffffffff1681565b610f596130c0565b73ffffffffffffffffffffffffffffffffffffffff16610f77612205565b73ffffffffffffffffffffffffffffffffffffffff1614611000576040517f08c379a00000000000000000000000000000000000000000000000000000000081526004018080602001828103825260208152602001807f4f776e61626c653a2063616c6c6572206973206e6f7420746865206f776e657281525060200191505060405180910390fd5b80600460146101000a81548160ff0219169083151502179055507f0e2fb031ee032dc02d8011dc50b816eb450cf856abd8261680dac74f72165bd2600460149054906101000a900460ff166040516110589190613ba3565b60405180910390a150565b61106b6130c0565b73ffffffffffffffffffffffffffffffffffffffff16611089612205565b73ffffffffffffffffffffffffffffffffffffffff1614611112576040517f08c379a00000000000000000000000000000000000000000000000000000000081526004018080602001828103825260208152602001807f4f776e61626c653a2063616c6c6572206973206e6f7420746865206f776e657281525060200191505060405180910390fd5b80601060008473ffffffffffffffffffffffffffffffffffffffff1673ffffffffffffffffffffffffffffffffffffffff168152602001908152602001600020819055508173ffffffffffffffffffffffffffffffffffffffff167f73f19c8370dce6824dd502d0f962b02477e07d650ecdb39f2fdadbe9a4350d7f8260405161119c9190613bbe565b60405180910390a25050565b6111b06130c0565b73ffffffffffffffffffffffffffffffffffffffff166111ce612205565b73ffffffffffffffffffffffffffffffffffffffff1614611257576040517f08c379a00000000000000000000000000000000000000000000000000000000081526004018080602001828103825260208152602001807f4f776e61626c653a2063616c6c6572206973206e6f7420746865206f776e657281525060200191505060405180910390fd5b83600160006101000a81548173ffffffffffffffffffffffffffffffffffffffff021916908373ffffffffffffffffffffffffffffffffffffffff16021790555082600260006101000a81548173ffffffffffffffffffffffffffffffffffffffff021916908373ffffffffffffffffffffffffffffffffffffffff16021790555081600360006101000a81548173ffffffffffffffffffffffffffffffffffffffff021916908373ffffffffffffffffffffffffffffffffffffffff16021790555080600460006101000a81548173ffffffffffffffffffffffffffffffffffffffff021916908373ffffffffffffffffffffffffffffffffffffffff1602179055507f0bc824c81dea4bebcdbf3798993258b207ee7dcfa3b3b7136199c5e513a21919848484846040516113909493929190613c6e565b60405180910390a150505050565b6113a66130c0565b73ffffffffffffffffffffffffffffffffffffffff166113c4612205565b73ffffffffffffffffffffffffffffffffffffffff161461144d576040517f08c379a00000000000000000000000000000000000000000000000000000000081526004018080602001828103825260208152602001807f4f776e61626c653a2063616c6c6572206973206e6f7420746865206f776e657281525060200191505060405180910390fd5b678ac7230489e80000811115611498576040517f08c379a000000000000000000000000000000000000000000000000000000000815260040161148f90613dae565b60405180910390fd5b80600b60008473ffffffffffffffffffffffffffffffffffffffff1673ffffffffffffffffffffffffffffffffffffffff168152602001908152602001600020819055508173ffffffffffffffffffffffffffffffffffffffff167f071a9db14c05c3549d163355ed75afa65e0757b7d2666e24f68f1ea45d1d3d6c826040516115229190613e7a565b60405180910390a25050565b600f6020528060005260406000206000915090505481565b61154e6130c0565b73ffffffffffffffffffffffffffffffffffffffff1661156c612205565b73ffffffffffffffffffffffffffffffffffffffff16146115f5576040517f08c379a00000000000000000000000000000000000000000000000000000000081526004018080602001828103825260208152602001807f4f776e61626c653a2063616c6c6572206973206e6f7420746865206f776e657281525060200191505060405180910390fd5b6729a2241af62c0000811315801561162d57507fffffffffffffffffffffffffffffffffffffffffffffffffd65ddbe509d400008112155b61166c576040517f08c379a000000000000000000000000000000000000000000000000000000000815260040161166390613dce565b60405180910390fd5b80600c60008473ffffffffffffffffffffffffffffffffffffffff1673ffffffffffffffffffffffffffffffffffffffff168152602001908152602001600020819055508173ffffffffffffffffffffffffffffffffffffffff167fe7caeabba32453d455d2865c7c4cc4518cf8a9ee0601fe7852d8f08ee5c5fba1826040516116f69190613cb3565b60405180910390a25050565b600d6020528060005260406000206000915090505481565b600c6020528060005260406000206000915090505481565b600260009054906101000a900473ffffffffffffffffffffffffffffffffffffffff1681565b600360009054906101000a900473ffffffffffffffffffffffffffffffffffffffff1681565b6117866130c0565b73ffffffffffffffffffffffffffffffffffffffff166117a4612205565b73ffffffffffffffffffffffffffffffffffffffff161461182d576040517f08c379a00000000000000000000000000000000000000000000000000000000081526004018080602001828103825260208152602001807f4f776e61626c653a2063616c6c6572206973206e6f7420746865206f776e657281525060200191505060405180910390fd5b6118378585612988565b611845858460000151610bce565b6118538584602001516127f8565b611861858460400151612073565b61186f858460600151611ee3565b61187d858460800151612b39565b61188b858460a0015161139e565b611899858460c00151611546565b6118a7858460e00151610d8e565b6118b685846101000151612d26565b6118c0858361233b565b6118ca8582611063565b5050505050565b6118d9613137565b600460149054906101000a900460ff1615611929576040517f08c379a000000000000000000000000000000000000000000000000000000000815260040161192090613cee565b60405180910390fd5b604051806101400160405280600660008573ffffffffffffffffffffffffffffffffffffffff1673ffffffffffffffffffffffffffffffffffffffff168152602001908152602001600020548152602001600760008573ffffffffffffffffffffffffffffffffffffffff1673ffffffffffffffffffffffffffffffffffffffff168152602001908152602001600020548152602001600860008573ffffffffffffffffffffffffffffffffffffffff1673ffffffffffffffffffffffffffffffffffffffff168152602001908152602001600020548152602001600960008573ffffffffffffffffffffffffffffffffffffffff1673ffffffffffffffffffffffffffffffffffffffff168152602001908152602001600020548152602001600a60008573ffffffffffffffffffffffffffffffffffffffff1673ffffffffffffffffffffffffffffffffffffffff168152602001908152602001600020548152602001600b60008573ffffffffffffffffffffffffffffffffffffffff1673ffffffffffffffffffffffffffffffffffffffff168152602001908152602001600020548152602001600c60008573ffffffffffffffffffffffffffffffffffffffff1673ffffffffffffffffffffffffffffffffffffffff168152602001908152602001600020548152602001600d60008573ffffffffffffffffffffffffffffffffffffffff1673ffffffffffffffffffffffffffffffffffffffff168152602001908152602001600020548152602001600e60008573ffffffffffffffffffffffffffffffffffffffff1673ffffffffffffffffffffffffffffffffffffffff168152602001908152602001600020548152602001611bea601060008673ffffffffffffffffffffffffffffffffffffffff1673ffffffffffffffffffffffffffffffffffffffff16815260200190815260200160002054611bf4565b8152509050919050565b6000806000600360009054906101000a900473ffffffffffffffffffffffffffffffffffffffff1673ffffffffffffffffffffffffffffffffffffffff16630c71cd23856040518263ffffffff1660e01b8152600401611c549190613bbe565b604080518083038186803b158015611c6b57600080fd5b505afa158015611c7f573d6000803e3d6000fd5b505050506040513d601f19601f82011682018060405250810190611ca3919061363f565b9150915080158015611cb6575060008214155b611cf5576040517f08c379a0000000000000000000000000000000000000000000000000000000008152600401611cec90613d0e565b60405180910390fd5b8192505050919050565b611d076130c0565b73ffffffffffffffffffffffffffffffffffffffff16611d25612205565b73ffffffffffffffffffffffffffffffffffffffff1614611dae576040517f08c379a00000000000000000000000000000000000000000000000000000000081526004018080602001828103825260208152602001807f4f776e61626c653a2063616c6c6572206973206e6f7420746865206f776e657281525060200191505060405180910390fd5b600073ffffffffffffffffffffffffffffffffffffffff1660008054906101000a900473ffffffffffffffffffffffffffffffffffffffff1673ffffffffffffffffffffffffffffffffffffffff167f8be0079c531659141344cd1fd0a4f28419497f9722a3daafe3b4186f6b6457e060405160405180910390a360008060006101000a81548173ffffffffffffffffffffffffffffffffffffffff021916908373ffffffffffffffffffffffffffffffffffffffff160217905550565b600160009054906101000a900473ffffffffffffffffffffffffffffffffffffffff1681565b6000611edc601060008473ffffffffffffffffffffffffffffffffffffffff1673ffffffffffffffffffffffffffffffffffffffff16815260200190815260200160002054611bf4565b9050919050565b611eeb6130c0565b73ffffffffffffffffffffffffffffffffffffffff16611f09612205565b73ffffffffffffffffffffffffffffffffffffffff1614611f92576040517f08c379a00000000000000000000000000000000000000000000000000000000081526004018080602001828103825260208152602001807f4f776e61626c653a2063616c6c6572206973206e6f7420746865206f776e657281525060200191505060405180910390fd5b678ac7230489e80000811115611fdd576040517f08c379a0000000000000000000000000000000000000000000000000000000008152600401611fd490613d4e565b60405180910390fd5b80600960008473ffffffffffffffffffffffffffffffffffffffff1673ffffffffffffffffffffffffffffffffffffffff168152602001908152602001600020819055508173ffffffffffffffffffffffffffffffffffffffff167faa6197c0d6426cc4a7d63a66ebb83bc7812ffb433b7ae404786e61fca79f297f826040516120679190613e7a565b60405180910390a25050565b61207b6130c0565b73ffffffffffffffffffffffffffffffffffffffff16612099612205565b73ffffffffffffffffffffffffffffffffffffffff1614612122576040517f08c379a00000000000000000000000000000000000000000000000000000000081526004018080602001828103825260208152602001807f4f776e61626c653a2063616c6c6572206973206e6f7420746865206f776e657281525060200191505060405180910390fd5b69152d02c7e14af680000081111561216f576040517f08c379a000000000000000000000000000000000000000000000000000000000815260040161216690613d4e565b60405180910390fd5b80600860008473ffffffffffffffffffffffffffffffffffffffff1673ffffffffffffffffffffffffffffffffffffffff168152602001908152602001600020819055508173ffffffffffffffffffffffffffffffffffffffff167fe1b48bf6d98ed2723316c35ae277e73f996fcf42180b305de13051996ae2e609826040516121f99190613e7a565b60405180910390a25050565b60008060009054906101000a900473ffffffffffffffffffffffffffffffffffffffff16905090565b61223661318a565b600460149054906101000a900460ff1615612286576040517f08c379a000000000000000000000000000000000000000000000000000000000815260040161227d90613cee565b60405180910390fd5b6040518060400160405280600c60008573ffffffffffffffffffffffffffffffffffffffff1673ffffffffffffffffffffffffffffffffffffffff16815260200190815260200160002054815260200161231e601060008673ffffffffffffffffffffffffffffffffffffffff1673ffffffffffffffffffffffffffffffffffffffff16815260200190815260200160002054611bf4565b8152509050919050565b600460149054906101000a900460ff1681565b6123436130c0565b73ffffffffffffffffffffffffffffffffffffffff16612361612205565b73ffffffffffffffffffffffffffffffffffffffff16146123ea576040517f08c379a00000000000000000000000000000000000000000000000000000000081526004018080602001828103825260208152602001807f4f776e61626c653a2063616c6c6572206973206e6f7420746865206f776e657281525060200191505060405180910390fd5b80600f60008473ffffffffffffffffffffffffffffffffffffffff1673ffffffffffffffffffffffffffffffffffffffff168152602001908152602001600020819055508173ffffffffffffffffffffffffffffffffffffffff167f978e18b4b9ba83495c9e556f38d285cd07f9f1c6315f520d1e09626d9481584b826040516124749190613bbe565b60405180910390a25050565b60056020528060005260406000206000915090505481565b6124a0613137565b6124a86130c8565b6000600460149054906101000a900460ff16156124fa576040517f08c379a00000000000000000000000000000000000000000000000000000000081526004016124f190613cee565b60405180910390fd5b612512858561250a57600061250d565b60015b610838565b9150604051806101400160405280600660008873ffffffffffffffffffffffffffffffffffffffff1673ffffffffffffffffffffffffffffffffffffffff168152602001908152602001600020548152602001600760008873ffffffffffffffffffffffffffffffffffffffff1673ffffffffffffffffffffffffffffffffffffffff168152602001908152602001600020548152602001600860008873ffffffffffffffffffffffffffffffffffffffff1673ffffffffffffffffffffffffffffffffffffffff168152602001908152602001600020548152602001600960008873ffffffffffffffffffffffffffffffffffffffff1673ffffffffffffffffffffffffffffffffffffffff168152602001908152602001600020548152602001600a60008873ffffffffffffffffffffffffffffffffffffffff1673ffffffffffffffffffffffffffffffffffffffff168152602001908152602001600020548152602001600b60008873ffffffffffffffffffffffffffffffffffffffff1673ffffffffffffffffffffffffffffffffffffffff168152602001908152602001600020548152602001600c60008873ffffffffffffffffffffffffffffffffffffffff1673ffffffffffffffffffffffffffffffffffffffff168152602001908152602001600020548152602001600d60008873ffffffffffffffffffffffffffffffffffffffff1673ffffffffffffffffffffffffffffffffffffffff168152602001908152602001600020548152602001600e60008873ffffffffffffffffffffffffffffffffffffffff1673ffffffffffffffffffffffffffffffffffffffff16815260200190815260200160002054815260200183600001518152509250600560008673ffffffffffffffffffffffffffffffffffffffff1673ffffffffffffffffffffffffffffffffffffffff1681526020019081526020016000205490509250925092565b60076020528060005260406000206000915090505481565b6128006130c0565b73ffffffffffffffffffffffffffffffffffffffff1661281e612205565b73ffffffffffffffffffffffffffffffffffffffff16146128a7576040517f08c379a00000000000000000000000000000000000000000000000000000000081526004018080602001828103825260208152602001807f4f776e61626c653a2063616c6c6572206973206e6f7420746865206f776e657281525060200191505060405180910390fd5b67016345785d8a00008111156128f2576040517f08c379a00000000000000000000000000000000000000000000000000000000081526004016128e990613d4e565b60405180910390fd5b80600760008473ffffffffffffffffffffffffffffffffffffffff1673ffffffffffffffffffffffffffffffffffffffff168152602001908152602001600020819055508173ffffffffffffffffffffffffffffffffffffffff167f7c1dd78d802892f023e6bccffee9325c493e7245dae53bcde8db393f636e12b68260405161297c9190613e7a565b60405180910390a25050565b6129906130c0565b73ffffffffffffffffffffffffffffffffffffffff166129ae612205565b73ffffffffffffffffffffffffffffffffffffffff1614612a37576040517f08c379a00000000000000000000000000000000000000000000000000000000081526004018080602001828103825260208152602001807f4f776e61626c653a2063616c6c6572206973206e6f7420746865206f776e657281525060200191505060405180910390fd5b6154608110158015612a4c5750621275008111155b612a8b576040517f08c379a0000000000000000000000000000000000000000000000000000000008152600401612a8290613d8e565b60405180910390fd5b80600560008473ffffffffffffffffffffffffffffffffffffffff1673ffffffffffffffffffffffffffffffffffffffff168152602001908152602001600020819055508173ffffffffffffffffffffffffffffffffffffffff167fa9bb96c13e3a7eeb9ce03b6190274b14b025fe41872e5bbd3f9ef83970b4092282604051612b159190613e7a565b60405180910390a25050565b60106020528060005260406000206000915090505481565b612b416130c0565b73ffffffffffffffffffffffffffffffffffffffff16612b5f612205565b73ffffffffffffffffffffffffffffffffffffffff1614612be8576040517f08c379a00000000000000000000000000000000000000000000000000000000081526004018080602001828103825260208152602001807f4f776e61626c653a2063616c6c6572206973206e6f7420746865206f776e657281525060200191505060405180910390fd5b66038d7ea4c680008110158015612c09575069152d02c7e14af68000008111155b612c48576040517f08c379a0000000000000000000000000000000000000000000000000000000008152600401612c3f90613d6e565b60405180910390fd5b80600a60008473ffffffffffffffffffffffffffffffffffffffff1673ffffffffffffffffffffffffffffffffffffffff168152602001908152602001600020819055508173ffffffffffffffffffffffffffffffffffffffff167f5da9378237bd540550faf8721f2e05638baa9016712f649b9241fa71b0e801ec82604051612cd29190613e7a565b60405180910390a25050565b60086020528060005260406000206000915090505481565b60066020528060005260406000206000915090505481565b600b6020528060005260406000206000915090505481565b612d2e6130c0565b73ffffffffffffffffffffffffffffffffffffffff16612d4c612205565b73ffffffffffffffffffffffffffffffffffffffff1614612dd5576040517f08c379a00000000000000000000000000000000000000000000000000000000081526004018080602001828103825260208152602001807f4f776e61626c653a2063616c6c6572206973206e6f7420746865206f776e657281525060200191505060405180910390fd5b671bc16d674ec80000811115612e20576040517f08c379a0000000000000000000000000000000000000000000000000000000008152600401612e1790613cce565b60405180910390fd5b80600e60008473ffffffffffffffffffffffffffffffffffffffff1673ffffffffffffffffffffffffffffffffffffffff168152602001908152602001600020819055508173ffffffffffffffffffffffffffffffffffffffff167f10202547d68c203a332db9e7b5ac61755d0390c4575289633c9c1426929002c582604051612eaa9190613e7a565b60405180910390a25050565b612ebe6130c0565b73ffffffffffffffffffffffffffffffffffffffff16612edc612205565b73ffffffffffffffffffffffffffffffffffffffff1614612f65576040517f08c379a00000000000000000000000000000000000000000000000000000000081526004018080602001828103825260208152602001807f4f776e61626c653a2063616c6c6572206973206e6f7420746865206f776e657281525060200191505060405180910390fd5b600073ffffffffffffffffffffffffffffffffffffffff168173ffffffffffffffffffffffffffffffffffffffff161415612feb576040517f08c379a00000000000000000000000000000000000000000000000000000000081526004018080602001828103825260268152602001806140ed6026913960400191505060405180910390fd5b8073ffffffffffffffffffffffffffffffffffffffff1660008054906101000a900473ffffffffffffffffffffffffffffffffffffffff1673ffffffffffffffffffffffffffffffffffffffff167f8be0079c531659141344cd1fd0a4f28419497f9722a3daafe3b4186f6b6457e060405160405180910390a3806000806101000a81548173ffffffffffffffffffffffffffffffffffffffff021916908373ffffffffffffffffffffffffffffffffffffffff16021790555050565b600e6020528060005260406000206000915090505481565b600033905090565b6040518060e00160405280600081526020016000801916815260200160008019168152602001600073ffffffffffffffffffffffffffffffffffffffff168152602001600073ffffffffffffffffffffffffffffffffffffffff16815260200160008152602001600081525090565b604051806101400160405280600081526020016000815260200160008152602001600081526020016000815260200160008152602001600081526020016000815260200160008152602001600081525090565b604051806040016040528060008152602001600081525090565b6000813590506131b38161400d565b92915050565b6000813590506131c881614024565b92915050565b6000815190506131dd81614024565b92915050565b6000813590506131f28161403b565b92915050565b60008135905061320781614052565b92915050565b60008135905061321c81614069565b92915050565b60008135905061323181614080565b92915050565b60008135905061324681614097565b92915050565b60008135905061325b816140ae565b92915050565b600081359050613270816140be565b92915050565b6000610140828403121561328957600080fd5b613294610140613e95565b905060006132a484828501613368565b60008301525060206132b884828501613368565b60208301525060406132cc84828501613368565b60408301525060606132e084828501613368565b60608301525060806132f484828501613368565b60808301525060a061330884828501613368565b60a08301525060c061331c84828501613261565b60c08301525060e061333084828501613261565b60e08301525061010061334584828501613368565b6101008301525061012061335b84828501613368565b6101208301525092915050565b600081359050613377816140d5565b92915050565b60008151905061338c816140d5565b92915050565b6000602082840312156133a457600080fd5b60006133b2848285016131a4565b91505092915050565b600080604083850312156133ce57600080fd5b60006133dc858286016131a4565b92505060206133ed858286016131b9565b9150509250929050565b6000806040838503121561340a57600080fd5b6000613418858286016131a4565b9250506020613429858286016131e3565b9150509250929050565b6000806040838503121561344657600080fd5b6000613454858286016131a4565b92505060206134658582860161324c565b9150509250929050565b6000806040838503121561348257600080fd5b6000613490858286016131a4565b92505060206134a185828601613261565b9150509250929050565b600080604083850312156134be57600080fd5b60006134cc858286016131a4565b92505060206134dd85828601613368565b9150509250929050565b60008060008060006101c0868803121561350057600080fd5b600061350e888289016131a4565b955050602061351f88828901613368565b945050604061353088828901613276565b935050610180613542888289016131e3565b9250506101a0613554888289016131e3565b9150509295509295909350565b60006020828403121561357357600080fd5b6000613581848285016131b9565b91505092915050565b60006020828403121561359c57600080fd5b60006135aa848285016131e3565b91505092915050565b600080600080608085870312156135c957600080fd5b60006135d787828801613237565b94505060206135e887828801613222565b93505060406135f98782880161320d565b925050606061360a878288016131f8565b91505092959194509250565b60006020828403121561362857600080fd5b60006136368482850161337d565b91505092915050565b6000806040838503121561365257600080fd5b60006136608582860161337d565b9250506020613671858286016131ce565b9150509250929050565b61368481613ed7565b82525050565b61369381613ee9565b82525050565b6136a281613ef5565b82525050565b6136b181613ef5565b82525050565b6136c081613f7b565b82525050565b6136cf81613f7b565b82525050565b6136de81613f9f565b82525050565b6136ed81613fc3565b82525050565b6136fc81613fe7565b82525050565b61370b81613fe7565b82525050565b61371a81613f47565b82525050565b61372981613f47565b82525050565b600061373c602383613ec6565b91507f766f6c6174696c6974794375746f66662076616c7565206f7574206f6620726160008301527f6e676500000000000000000000000000000000000000000000000000000000006020830152604082019050919050565b60006137a2601483613ec6565b91507f636f6e74726163747320617265207061757365640000000000000000000000006000830152602082019050919050565b60006137e2600f83613ec6565b91507f7261746520697320696e76616c696400000000000000000000000000000000006000830152602082019050919050565b6000613822601b83613ec6565b91507f6d696e44656c74612076616c7565206f7574206f662072616e676500000000006000830152602082019050919050565b6000613862602c83613ec6565b91507f6f7074696f6e5072696365466565436f656666696369656e742076616c75652060008301527f6f7574206f662072616e676500000000000000000000000000000000000000006020830152604082019050919050565b60006138c8601f83613ec6565b91507f7374616e6461726453697a652076616c7565206f7574206f662072616e6765006000830152602082019050919050565b6000613908602083613ec6565b91507f74726164696e674375746f66662076616c7565206f7574206f662072616e67656000830152602082019050919050565b6000613948602783613ec6565b91507f736b657741646a7573746d656e74466163746f722076616c7565206f7574206f60008301527f662072616e6765000000000000000000000000000000000000000000000000006020830152604082019050919050565b60006139ae601f83613ec6565b91507f72617465416e6443617272792076616c7565206f7574206f662072616e6765006000830152602082019050919050565b60e0820160008201516139f76000850182613b6a565b506020820151613a0a6020850182613699565b506040820151613a1d6040850182613699565b506060820151613a3060608501826136f3565b506080820151613a4360808501826136b7565b5060a0820151613a5660a0850182613b6a565b5060c0820151613a6960c0850182613b6a565b50505050565b604082016000820151613a856000850182613711565b506020820151613a986020850182613b6a565b50505050565b61014082016000820151613ab56000850182613b6a565b506020820151613ac86020850182613b6a565b506040820151613adb6040850182613b6a565b506060820151613aee6060850182613b6a565b506080820151613b016080850182613b6a565b5060a0820151613b1460a0850182613b6a565b5060c0820151613b2760c0850182613711565b5060e0820151613b3a60e0850182613711565b50610100820151613b4f610100850182613b6a565b50610120820151613b64610120850182613b6a565b50505050565b613b7381613f71565b82525050565b613b8281613f71565b82525050565b6000602082019050613b9d600083018461367b565b92915050565b6000602082019050613bb8600083018461368a565b92915050565b6000602082019050613bd360008301846136a8565b92915050565b6000604082019050613bee60008301856136a8565b613bfb60208301846136a8565b9392505050565b6000602082019050613c1760008301846136c6565b92915050565b6000602082019050613c3260008301846136d5565b92915050565b6000602082019050613c4d60008301846136e4565b92915050565b6000602082019050613c686000830184613702565b92915050565b6000608082019050613c836000830187613702565b613c9060208301866136e4565b613c9d60408301856136d5565b613caa60608301846136c6565b95945050505050565b6000602082019050613cc86000830184613720565b92915050565b60006020820190508181036000830152613ce78161372f565b9050919050565b60006020820190508181036000830152613d0781613795565b9050919050565b60006020820190508181036000830152613d27816137d5565b9050919050565b60006020820190508181036000830152613d4781613815565b9050919050565b60006020820190508181036000830152613d6781613855565b9050919050565b60006020820190508181036000830152613d87816138bb565b9050919050565b60006020820190508181036000830152613da7816138fb565b9050919050565b60006020820190508181036000830152613dc78161393b565b9050919050565b60006020820190508181036000830152613de7816139a1565b9050919050565b600060e082019050613e0360008301846139e1565b92915050565b6000604082019050613e1e6000830184613a6f565b92915050565b600061014082019050613e3a6000830184613a9e565b92915050565b600061024082019050613e566000830186613a9e565b613e646101408301856139e1565b613e72610220830184613b79565b949350505050565b6000602082019050613e8f6000830184613b79565b92915050565b6000604051905081810181811067ffffffffffffffff82111715613ebc57613ebb61400b565b5b8060405250919050565b600082825260208201905092915050565b6000613ee282613f51565b9050919050565b60008115159050919050565b6000819050919050565b6000613f0a82613ed7565b9050919050565b6000613f1c82613ed7565b9050919050565b6000613f2e82613ed7565b9050919050565b6000613f4082613ed7565b9050919050565b6000819050919050565b600073ffffffffffffffffffffffffffffffffffffffff82169050919050565b6000819050919050565b6000613f8682613f8d565b9050919050565b6000613f9882613f51565b9050919050565b6000613faa82613fb1565b9050919050565b6000613fbc82613f51565b9050919050565b6000613fce82613fd5565b9050919050565b6000613fe082613f51565b9050919050565b6000613ff282613ff9565b9050919050565b600061400482613f51565b9050919050565bfe5b61401681613ed7565b811461402157600080fd5b50565b61402d81613ee9565b811461403857600080fd5b50565b61404481613ef5565b811461404f57600080fd5b50565b61405b81613eff565b811461406657600080fd5b50565b61407281613f11565b811461407d57600080fd5b50565b61408981613f23565b811461409457600080fd5b50565b6140a081613f35565b81146140ab57600080fd5b50565b600381106140bb57600080fd5b50565b6140c781613f47565b81146140d257600080fd5b50565b6140de81613f71565b81146140e957600080fd5b5056fe4f776e61626c653a206e6577206f776e657220697320746865207a65726f2061646472657373a264697066735822122028d0fa39da2212264493577a4c60b99d4168ea481aec19d517e39f5e55a0212c64736f6c63430007060033",
  "linkReferences": {},
  "deployedLinkReferences": {}
}