{
  "_format": "hh-sol-artifact-1",
  "contractName": "OptionGreekCache",
  "sourceName": "contracts/OptionGreekCache.sol",
  "abi": [
    {
      "inputs": [],
      "stateMutability": "nonpayable",
      "type": "constructor"
    },
    {
      "anonymous": false,
      "inputs": [
        {
          "indexed": false,
          "internalType": "int256",
          "name": "netDelta",
          "type": "int256"
        },
        {
          "indexed": false,
          "internalType": "int256",
          "name": "netStdVega",
          "type": "int256"
        }
      ],
      "name": "GlobalCacheUpdated",
      "type": "event"
    },
    {
      "anonymous": false,
      "inputs": [
        {
          "indexed": true,
          "internalType": "uint256",
          "name": "listingId",
          "type": "uint256"
        },
        {
          "indexed": false,
          "internalType": "int256",
          "name": "newCallExposure",
          "type": "int256"
        },
        {
          "indexed": false,
          "internalType": "int256",
          "name": "newPutExposure",
          "type": "int256"
        }
      ],
      "name": "ListingExposureUpdated",
      "type": "event"
    },
    {
      "anonymous": false,
      "inputs": [
        {
          "indexed": true,
          "internalType": "uint256",
          "name": "listingId",
          "type": "uint256"
        },
        {
          "indexed": false,
          "internalType": "int256",
          "name": "callDelta",
          "type": "int256"
        },
        {
          "indexed": false,
          "internalType": "int256",
          "name": "putDelta",
          "type": "int256"
        },
        {
          "indexed": false,
          "internalType": "uint256",
          "name": "vega",
          "type": "uint256"
        },
        {
          "indexed": false,
          "internalType": "uint256",
          "name": "price",
          "type": "uint256"
        },
        {
          "indexed": false,
          "internalType": "uint256",
          "name": "baseIv",
          "type": "uint256"
        },
        {
          "indexed": false,
          "internalType": "uint256",
          "name": "skew",
          "type": "uint256"
        }
      ],
      "name": "ListingGreeksUpdated",
      "type": "event"
    },
    {
      "anonymous": false,
      "inputs": [
        {
          "indexed": true,
          "internalType": "address",
          "name": "previousOwner",
          "type": "address"
        },
        {
          "indexed": true,
          "internalType": "address",
          "name": "newOwner",
          "type": "address"
        }
      ],
      "name": "OwnershipTransferred",
      "type": "event"
    },
    {
      "anonymous": false,
      "inputs": [
        {
          "indexed": false,
          "internalType": "uint256",
          "name": "priceScalingPeriod",
          "type": "uint256"
        },
        {
          "indexed": false,
          "internalType": "uint256",
          "name": "minAcceptablePercent",
          "type": "uint256"
        },
        {
          "indexed": false,
          "internalType": "uint256",
          "name": "maxAcceptablePercent",
          "type": "uint256"
        },
        {
          "indexed": false,
          "internalType": "uint256",
          "name": "staleUpdateDuration",
          "type": "uint256"
        }
      ],
      "name": "StaleCacheParametersUpdated",
      "type": "event"
    },
    {
      "inputs": [],
      "name": "MAX_LISTINGS_PER_BOARD",
      "outputs": [
        {
          "internalType": "uint256",
          "name": "",
          "type": "uint256"
        }
      ],
      "stateMutability": "view",
      "type": "function"
    },
    {
      "inputs": [
        {
          "internalType": "uint256",
          "name": "boardId",
          "type": "uint256"
        }
      ],
      "name": "addBoard",
      "outputs": [],
      "stateMutability": "nonpayable",
      "type": "function"
    },
    {
      "inputs": [
        {
          "internalType": "uint256",
          "name": "boardId",
          "type": "uint256"
        },
        {
          "internalType": "uint256",
          "name": "listingId",
          "type": "uint256"
        }
      ],
      "name": "addListingToBoard",
      "outputs": [],
      "stateMutability": "nonpayable",
      "type": "function"
    },
    {
      "inputs": [
        {
          "internalType": "uint256",
          "name": "",
          "type": "uint256"
        }
      ],
      "name": "boardCaches",
      "outputs": [
        {
          "internalType": "uint256",
          "name": "id",
          "type": "uint256"
        },
        {
          "internalType": "uint256",
          "name": "expiry",
          "type": "uint256"
        },
        {
          "internalType": "uint256",
          "name": "iv",
          "type": "uint256"
        },
        {
          "internalType": "uint256",
          "name": "minUpdatedAt",
          "type": "uint256"
        },
        {
          "internalType": "uint256",
          "name": "minUpdatedAtPrice",
          "type": "uint256"
        },
        {
          "internalType": "uint256",
          "name": "maxUpdatedAtPrice",
          "type": "uint256"
        },
        {
          "internalType": "int256",
          "name": "netDelta",
          "type": "int256"
        },
        {
          "internalType": "int256",
          "name": "netStdVega",
          "type": "int256"
        }
      ],
      "stateMutability": "view",
      "type": "function"
    },
    {
      "inputs": [],
      "name": "getGlobalNetDelta",
      "outputs": [
        {
          "internalType": "int256",
          "name": "",
          "type": "int256"
        }
      ],
      "stateMutability": "view",
      "type": "function"
    },
    {
      "inputs": [],
      "name": "globalCache",
      "outputs": [
        {
          "internalType": "int256",
          "name": "netDelta",
          "type": "int256"
        },
        {
          "internalType": "int256",
          "name": "netStdVega",
          "type": "int256"
        },
        {
          "internalType": "uint256",
          "name": "minUpdatedAt",
          "type": "uint256"
        },
        {
          "internalType": "uint256",
          "name": "minUpdatedAtPrice",
          "type": "uint256"
        },
        {
          "internalType": "uint256",
          "name": "maxUpdatedAtPrice",
          "type": "uint256"
        },
        {
          "internalType": "uint256",
          "name": "minExpiryTimestamp",
          "type": "uint256"
        }
      ],
      "stateMutability": "view",
      "type": "function"
    },
    {
      "inputs": [
        {
          "internalType": "contract ILyraGlobals",
          "name": "_globals",
          "type": "address"
        },
        {
          "internalType": "contract IOptionMarket",
          "name": "_optionMarket",
          "type": "address"
        },
        {
          "internalType": "contract IOptionMarketPricer",
          "name": "_optionPricer",
          "type": "address"
        },
        {
          "internalType": "contract IBlackScholes",
          "name": "_blackScholes",
          "type": "address"
        }
      ],
      "name": "init",
      "outputs": [],
      "stateMutability": "nonpayable",
      "type": "function"
    },
    {
      "inputs": [
        {
          "internalType": "uint256",
          "name": "boardCacheId",
          "type": "uint256"
        }
      ],
      "name": "isBoardCacheStale",
      "outputs": [
        {
          "internalType": "bool",
          "name": "",
          "type": "bool"
        }
      ],
      "stateMutability": "view",
      "type": "function"
    },
    {
      "inputs": [],
      "name": "isGlobalCacheStale",
      "outputs": [
        {
          "internalType": "bool",
          "name": "",
          "type": "bool"
        }
      ],
      "stateMutability": "view",
      "type": "function"
    },
    {
      "inputs": [
        {
          "internalType": "uint256",
          "name": "",
          "type": "uint256"
        }
      ],
      "name": "listingCaches",
      "outputs": [
        {
          "internalType": "uint256",
          "name": "id",
          "type": "uint256"
        },
        {
          "internalType": "uint256",
          "name": "strike",
          "type": "uint256"
        },
        {
          "internalType": "uint256",
          "name": "skew",
          "type": "uint256"
        },
        {
          "internalType": "uint256",
          "name": "boardId",
          "type": "uint256"
        },
        {
          "internalType": "int256",
          "name": "callDelta",
          "type": "int256"
        },
        {
          "internalType": "int256",
          "name": "putDelta",
          "type": "int256"
        },
        {
          "internalType": "uint256",
          "name": "stdVega",
          "type": "uint256"
        },
        {
          "internalType": "int256",
          "name": "callExposure",
          "type": "int256"
        },
        {
          "internalType": "int256",
          "name": "putExposure",
          "type": "int256"
        },
        {
          "internalType": "uint256",
          "name": "updatedAt",
          "type": "uint256"
        },
        {
          "internalType": "uint256",
          "name": "updatedAtPrice",
          "type": "uint256"
        }
      ],
      "stateMutability": "view",
      "type": "function"
    },
    {
      "inputs": [
        {
          "internalType": "uint256",
          "name": "",
          "type": "uint256"
        }
      ],
      "name": "liveBoards",
      "outputs": [
        {
          "internalType": "uint256",
          "name": "",
          "type": "uint256"
        }
      ],
      "stateMutability": "view",
      "type": "function"
    },
    {
      "inputs": [],
      "name": "maxAcceptablePercent",
      "outputs": [
        {
          "internalType": "uint256",
          "name": "",
          "type": "uint256"
        }
      ],
      "stateMutability": "view",
      "type": "function"
    },
    {
      "inputs": [],
      "name": "minAcceptablePercent",
      "outputs": [
        {
          "internalType": "uint256",
          "name": "",
          "type": "uint256"
        }
      ],
      "stateMutability": "view",
      "type": "function"
    },
    {
      "inputs": [],
      "name": "owner",
      "outputs": [
        {
          "internalType": "address",
          "name": "",
          "type": "address"
        }
      ],
      "stateMutability": "view",
      "type": "function"
    },
    {
      "inputs": [],
      "name": "priceScalingPeriod",
      "outputs": [
        {
          "internalType": "uint256",
          "name": "",
          "type": "uint256"
        }
      ],
      "stateMutability": "view",
      "type": "function"
    },
    {
      "inputs": [
        {
          "internalType": "uint256",
          "name": "boardId",
          "type": "uint256"
        }
      ],
      "name": "removeBoard",
      "outputs": [],
      "stateMutability": "nonpayable",
      "type": "function"
    },
    {
      "inputs": [],
      "name": "renounceOwnership",
      "outputs": [],
      "stateMutability": "nonpayable",
      "type": "function"
    },
    {
      "inputs": [
        {
          "internalType": "uint256",
          "name": "boardId",
          "type": "uint256"
        },
        {
          "internalType": "uint256",
          "name": "newIv",
          "type": "uint256"
        }
      ],
      "name": "setBoardIv",
      "outputs": [],
      "stateMutability": "nonpayable",
      "type": "function"
    },
    {
      "inputs": [
        {
          "internalType": "uint256",
          "name": "listingId",
          "type": "uint256"
        },
        {
          "internalType": "uint256",
          "name": "newSkew",
          "type": "uint256"
        }
      ],
      "name": "setListingSkew",
      "outputs": [],
      "stateMutability": "nonpayable",
      "type": "function"
    },
    {
      "inputs": [
        {
          "internalType": "uint256",
          "name": "_staleUpdateDuration",
          "type": "uint256"
        },
        {
          "internalType": "uint256",
          "name": "_priceScalingPeriod",
          "type": "uint256"
        },
        {
          "internalType": "uint256",
          "name": "_maxAcceptablePercent",
          "type": "uint256"
        },
        {
          "internalType": "uint256",
          "name": "_minAcceptablePercent",
          "type": "uint256"
        }
      ],
      "name": "setStaleCacheParameters",
      "outputs": [],
      "stateMutability": "nonpayable",
      "type": "function"
    },
    {
      "inputs": [],
      "name": "staleUpdateDuration",
      "outputs": [
        {
          "internalType": "uint256",
          "name": "",
          "type": "uint256"
        }
      ],
      "stateMutability": "view",
      "type": "function"
    },
    {
      "inputs": [
        {
          "internalType": "address",
          "name": "newOwner",
          "type": "address"
        }
      ],
      "name": "transferOwnership",
      "outputs": [],
      "stateMutability": "nonpayable",
      "type": "function"
    },
    {
      "inputs": [],
      "name": "updateAllStaleBoards",
      "outputs": [
        {
          "internalType": "int256",
          "name": "",
          "type": "int256"
        }
      ],
      "stateMutability": "nonpayable",
      "type": "function"
    },
    {
      "inputs": [
        {
          "internalType": "uint256",
          "name": "boardCacheId",
          "type": "uint256"
        }
      ],
      "name": "updateBoardCachedGreeks",
      "outputs": [],
      "stateMutability": "nonpayable",
      "type": "function"
    },
    {
      "inputs": [
        {
          "components": [
            {
              "internalType": "int256",
              "name": "rateAndCarry",
              "type": "int256"
            },
            {
              "internalType": "uint256",
              "name": "spotPrice",
              "type": "uint256"
            }
          ],
          "internalType": "struct ILyraGlobals.GreekCacheGlobals",
          "name": "greekCacheGlobals",
          "type": "tuple"
        },
        {
          "internalType": "uint256",
          "name": "listingCacheId",
          "type": "uint256"
        },
        {
          "internalType": "int256",
          "name": "newCallExposure",
          "type": "int256"
        },
        {
          "internalType": "int256",
          "name": "newPutExposure",
          "type": "int256"
        },
        {
          "internalType": "uint256",
          "name": "iv",
          "type": "uint256"
        },
        {
          "internalType": "uint256",
          "name": "skew",
          "type": "uint256"
        }
      ],
      "name": "updateListingCacheAndGetPrice",
      "outputs": [
        {
          "components": [
            {
              "internalType": "uint256",
              "name": "optionPrice",
              "type": "uint256"
            },
            {
              "internalType": "int256",
              "name": "preTradeAmmNetStdVega",
              "type": "int256"
            },
            {
              "internalType": "int256",
              "name": "postTradeAmmNetStdVega",
              "type": "int256"
            },
            {
              "internalType": "int256",
              "name": "callDelta",
              "type": "int256"
            }
          ],
          "internalType": "struct IOptionMarketPricer.Pricing",
          "name": "",
          "type": "tuple"
        }
      ],
      "stateMutability": "nonpayable",
      "type": "function"
    }
  ],
  "bytecode": "0x60806040526202a30060055562093a806006556702c68af0bb14000060075567016345785d8a00006008553480156200003757600080fd5b5060006200004a620000ee60201b60201c565b9050806000806101000a81548173ffffffffffffffffffffffffffffffffffffffff021916908373ffffffffffffffffffffffffffffffffffffffff1602179055508073ffffffffffffffffffffffffffffffffffffffff16600073ffffffffffffffffffffffffffffffffffffffff167f8be0079c531659141344cd1fd0a4f28419497f9722a3daafe3b4186f6b6457e060405160405180910390a350620000f6565b600033905090565b613e5d80620001066000396000f3fe608060405234801561001057600080fd5b50600436106101735760003560e01c80639678ca39116100de578063ca1f8ef411610097578063d6d1c31b11610071578063d6d1c31b1461042c578063d6ef9be31461045c578063dba5082a14610478578063f2fde38b1461049457610173565b8063ca1f8ef4146103c2578063d05bf356146103e0578063d59f35931461041057610173565b80639678ca39146102e057806399670a9e14610303578063a457dce114610321578063a6eaf84414610358578063b6a08be414610388578063c63b8527146103a657610173565b806360e3ecc91161013057806360e3ecc914610226578063715018a614610242578063825df9b21461024c5780638724412f1461026a57806388b96de3146102885780638da5cb5b146102c257610173565b806306552ff3146101785780630d5766f71461019457806311fde46e146101b05780632f9aae50146101ce5780634fe3de17146101ec578063551c85551461020a575b600080fd5b610192600480360381019061018d91906130e1565b6104b0565b005b6101ae60048036038101906101a9919061321f565b610625565b005b6101b8610904565b6040516101c591906139d6565b60405180910390f35b6101d661090a565b6040516101e391906139d6565b60405180910390f35b6101f4610910565b60405161020191906139d6565b60405180910390f35b610224600480360381019061021f9190613271565b610916565b005b610240600480360381019061023b919061321f565b6109cb565b005b61024a610aa3565b005b610254610c10565b60405161026191906137d6565b60405180910390f35b610272610c1d565b60405161027f91906137bb565b60405180910390f35b6102a2600480360381019061029d919061321f565b610c39565b6040516102b99b9a99989796959493929190613a89565b60405180910390f35b6102ca610c93565b6040516102d791906137a0565b60405180910390f35b6102e8610cbc565b6040516102fa9695949392919061381a565b60405180910390f35b61030b610ce6565b60405161031891906139d6565b60405180910390f35b61033b6004803603810190610336919061321f565b610cec565b60405161034f989796959493929190613b34565b60405180910390f35b610372600480360381019061036d919061316d565b610d34565b60405161037f91906139bb565b60405180910390f35b610390610f2a565b60405161039d91906139d6565b60405180910390f35b6103c060048036038101906103bb9190613310565b610f2f565b005b6103ca611117565b6040516103d791906137d6565b60405180910390f35b6103fa60048036038101906103f5919061321f565b6111fd565b60405161040791906139d6565b60405180910390f35b61042a60048036038101906104259190613271565b611221565b005b6104466004803603810190610441919061321f565b611325565b60405161045391906137bb565b60405180910390f35b61047660048036038101906104719190613271565b611344565b005b610492600480360381019061048d919061321f565b6113f9565b005b6104ae60048036038101906104a99190613077565b61178d565b005b600960009054906101000a900460ff1615610500576040517f08c379a00000000000000000000000000000000000000000000000000000000081526004016104f79061397b565b60405180910390fd5b83600160006101000a81548173ffffffffffffffffffffffffffffffffffffffff021916908373ffffffffffffffffffffffffffffffffffffffff16021790555082600260006101000a81548173ffffffffffffffffffffffffffffffffffffffff021916908373ffffffffffffffffffffffffffffffffffffffff16021790555081600360006101000a81548173ffffffffffffffffffffffffffffffffffffffff021916908373ffffffffffffffffffffffffffffffffffffffff16021790555080600460006101000a81548173ffffffffffffffffffffffffffffffffffffffff021916908373ffffffffffffffffffffffffffffffffffffffff1602179055506001600960006101000a81548160ff02191690831515021790555050505050565b600260009054906101000a900473ffffffffffffffffffffffffffffffffffffffff1673ffffffffffffffffffffffffffffffffffffffff163373ffffffffffffffffffffffffffffffffffffffff16146106b5576040517f08c379a00000000000000000000000000000000000000000000000000000000081526004016106ac9061395b565b60405180910390fd5b600080600260009054906101000a900473ffffffffffffffffffffffffffffffffffffffff1673ffffffffffffffffffffffffffffffffffffffff166335359675846040518263ffffffff1660e01b815260040161071391906139d6565b60806040518083038186803b15801561072b57600080fd5b505afa15801561073f573d6000803e3d6000fd5b505050506040513d601f19601f8201168201806040525081019061076391906132ad565b5092509250506000600260009054906101000a900473ffffffffffffffffffffffffffffffffffffffff1673ffffffffffffffffffffffffffffffffffffffff1663c39eeefb856040518263ffffffff1660e01b81526004016107c691906139d6565b60006040518083038186803b1580156107de57600080fd5b505afa1580156107f2573d6000803e3d6000fd5b505050506040513d6000823e3d601f19601f8201168201806040525081019061081b91906130a0565b9050600a81511115610862576040517f08c379a00000000000000000000000000000000000000000000000000000000081526004016108599061391b565b60405180910390fd5b6000600c60008681526020019081526020016000209050848160000181905550838160010181905550828160020181905550600a85908060018154018082558091505060019003906000526020600020016000909190919091505560005b82518110156108f3576108e6828483815181106108d957fe5b602002602001015161197f565b80806001019150506108c0565b506108fd81611a0c565b5050505050565b60085481565b60075481565b60065481565b600260009054906101000a900473ffffffffffffffffffffffffffffffffffffffff1673ffffffffffffffffffffffffffffffffffffffff163373ffffffffffffffffffffffffffffffffffffffff16146109a6576040517f08c379a000000000000000000000000000000000000000000000000000000000815260040161099d9061395b565b60405180910390fd5b6000600c60008481526020019081526020016000209050818160020181905550505050565b610aa0600160009054906101000a900473ffffffffffffffffffffffffffffffffffffffff1673ffffffffffffffffffffffffffffffffffffffff1663aeade032600260009054906101000a900473ffffffffffffffffffffffffffffffffffffffff166040518263ffffffff1660e01b8152600401610a4b91906137a0565b604080518083038186803b158015610a6257600080fd5b505afa158015610a76573d6000803e3d6000fd5b505050506040513d601f19601f82011682018060405250810190610a9a9190613144565b82611c12565b50565b610aab611cc2565b73ffffffffffffffffffffffffffffffffffffffff16610ac9610c93565b73ffffffffffffffffffffffffffffffffffffffff1614610b52576040517f08c379a00000000000000000000000000000000000000000000000000000000081526004018080602001828103825260208152602001807f4f776e61626c653a2063616c6c6572206973206e6f7420746865206f776e657281525060200191505060405180910390fd5b600073ffffffffffffffffffffffffffffffffffffffff1660008054906101000a900473ffffffffffffffffffffffffffffffffffffffff1673ffffffffffffffffffffffffffffffffffffffff167f8be0079c531659141344cd1fd0a4f28419497f9722a3daafe3b4186f6b6457e060405160405180910390a360008060006101000a81548173ffffffffffffffffffffffffffffffffffffffff021916908373ffffffffffffffffffffffffffffffffffffffff160217905550565b6000600d60000154905090565b600080610c28611cca565b9050610c3381611d9e565b91505090565b600b60205280600052604060002060009150905080600001549080600101549080600201549080600301549080600401549080600501549080600601549080600701549080600801549080600901549080600a015490508b565b60008060009054906101000a900473ffffffffffffffffffffffffffffffffffffffff16905090565b600d8060000154908060010154908060020154908060030154908060040154908060050154905086565b60055481565b600c6020528060005260406000206000915090508060000154908060010154908060020154908060040154908060050154908060060154908060070154908060080154905088565b610d3c612d44565b600360009054906101000a900473ffffffffffffffffffffffffffffffffffffffff1673ffffffffffffffffffffffffffffffffffffffff163373ffffffffffffffffffffffffffffffffffffffff1614610dcc576040517f08c379a0000000000000000000000000000000000000000000000000000000008152600401610dc39061393b565b60405180910390fd5b610dd98760200151611d9e565b15610e19576040517f08c379a0000000000000000000000000000000000000000000000000000000008152600401610e109061387b565b60405180910390fd5b6000600b600088815260200190815260200160002090506000600c60008360030154815260200190815260200160002090506000610e64836007015489611dff90919063ffffffff16565b90506000610e7f846008015489611dff90919063ffffffff16565b90506000821480610e905750600081145b610ecf576040517f08c379a0000000000000000000000000000000000000000000000000000000008152600401610ec69061399b565b60405180910390fd5b8683600201819055508584600201819055506000600d6001015460000390506000610f028d878760008814158f8f611e8d565b905081816020018181525050610f1785611a0c565b8096505050505050509695505050505050565b600a81565b610f37611cc2565b73ffffffffffffffffffffffffffffffffffffffff16610f55610c93565b73ffffffffffffffffffffffffffffffffffffffff1614610fde576040517f08c379a00000000000000000000000000000000000000000000000000000000081526004018080602001828103825260208152602001807f4f776e61626c653a2063616c6c6572206973206e6f7420746865206f776e657281525060200191505060405180910390fd5b611c20841015611023576040517f08c379a000000000000000000000000000000000000000000000000000000000815260040161101a9061389b565b60405180910390fd5b80821015611066576040517f08c379a000000000000000000000000000000000000000000000000000000000815260040161105d906138fb565b60405180910390fd5b662386f26fc100008110156110b0576040517f08c379a00000000000000000000000000000000000000000000000000000000081526004016110a7906138bb565b60405180910390fd5b826006819055508060088190555081600781905550836005819055507ffa665e2d4dfe146cf382200cb2739037b755cd88d38205ea742f0c24cfc54e3360065460085460075460055460405161110994939291906139f1565b60405180910390a150505050565b600080600160009054906101000a900473ffffffffffffffffffffffffffffffffffffffff1673ffffffffffffffffffffffffffffffffffffffff1663aeade032600260009054906101000a900473ffffffffffffffffffffffffffffffffffffffff166040518263ffffffff1660e01b815260040161119791906137a0565b604080518083038186803b1580156111ae57600080fd5b505afa1580156111c2573d6000803e3d6000fd5b505050506040513d601f19601f820116820180604052508101906111e69190613144565b90506111f18161229e565b600d6000015491505090565b600a818154811061120d57600080fd5b906000526020600020016000915090505481565b600260009054906101000a900473ffffffffffffffffffffffffffffffffffffffff1673ffffffffffffffffffffffffffffffffffffffff163373ffffffffffffffffffffffffffffffffffffffff16146112b1576040517f08c379a00000000000000000000000000000000000000000000000000000000081526004016112a89061395b565b60405180910390fd5b6000600c60008481526020019081526020016000209050600a60018260030180549050011115611316576040517f08c379a000000000000000000000000000000000000000000000000000000000815260040161130d9061391b565b60405180910390fd5b611320818361197f565b505050565b600080611330611cca565b905061133c83826122fa565b915050919050565b600260009054906101000a900473ffffffffffffffffffffffffffffffffffffffff1673ffffffffffffffffffffffffffffffffffffffff163373ffffffffffffffffffffffffffffffffffffffff16146113d4576040517f08c379a00000000000000000000000000000000000000000000000000000000081526004016113cb9061395b565b60405180910390fd5b6000600b60008481526020019081526020016000209050818160020181905550505050565b600260009054906101000a900473ffffffffffffffffffffffffffffffffffffffff1673ffffffffffffffffffffffffffffffffffffffff163373ffffffffffffffffffffffffffffffffffffffff1614611489576040517f08c379a00000000000000000000000000000000000000000000000000000000081526004016114809061395b565b60405180910390fd5b6000600c6000838152602001908152602001600020604051806101200160405290816000820154815260200160018201548152602001600282015481526020016003820180548060200260200160405190810160405280929190818152602001828054801561151757602002820191906000526020600020905b815481526020019060010190808311611503575b505050505081526020016004820154815260200160058201548152602001600682015481526020016007820154815260200160088201548152505090506115708160e00151600d60000154611dff90919063ffffffff16565b600d60000181905550611596816101000151600d60010154611dff90919063ffffffff16565b600d6001018190555060005b81606001515181101561164157600b6000836060015183815181106115c357fe5b60200260200101518152602001908152602001600020600080820160009055600182016000905560028201600090556003820160009055600482016000905560058201600090556006820160009055600782016000905560088201600090556009820160009055600a820160009055505080806001019150506115a2565b5060005b600a805490508110156116df5782600a828154811061166057fe5b906000526020600020015414156116d257600a6001600a80549050038154811061168657fe5b9060005260206000200154600a828154811061169e57fe5b9060005260206000200181905550600a8054806116b757fe5b600190038181906000526020600020016000905590556116df565b8080600101915050611645565b50600c60008381526020019081526020016000206000808201600090556001820160009055600282016000905560038201600061171c9190612d6c565b6004820160009055600582016000905560068201600090556007820160009055600882016000905550507f7cd3f350af608b00880eeda3ac97109679d13e034857264053c9d38ab309a7da600d60000154600d600101546040516117819291906137f1565b60405180910390a15050565b611795611cc2565b73ffffffffffffffffffffffffffffffffffffffff166117b3610c93565b73ffffffffffffffffffffffffffffffffffffffff161461183c576040517f08c379a00000000000000000000000000000000000000000000000000000000081526004018080602001828103825260208152602001807f4f776e61626c653a2063616c6c6572206973206e6f7420746865206f776e657281525060200191505060405180910390fd5b600073ffffffffffffffffffffffffffffffffffffffff168173ffffffffffffffffffffffffffffffffffffffff1614156118c2576040517f08c379a0000000000000000000000000000000000000000000000000000000008152600401808060200182810382526026815260200180613d756026913960400191505060405180910390fd5b8073ffffffffffffffffffffffffffffffffffffffff1660008054906101000a900473ffffffffffffffffffffffffffffffffffffffff1673ffffffffffffffffffffffffffffffffffffffff167f8be0079c531659141344cd1fd0a4f28419497f9722a3daafe3b4186f6b6457e060405160405180910390a3806000806101000a81548173ffffffffffffffffffffffffffffffffffffffff021916908373ffffffffffffffffffffffffffffffffffffffff16021790555050565b600061198a8261246a565b90506000600b600083600001518152602001908152602001600020905081600001518160000181905550816020015181600101819055508160e001518160030181905550816040015181600201819055508360030183908060018154018082558091505060019003906000526020600020016000909190919091505550505050565b6000600b600083600301600081548110611a2257fe5b906000526020600020015481526020019081526020016000206040518061016001604052908160008201548152602001600182015481526020016002820154815260200160038201548152602001600482015481526020016005820154815260200160068201548152602001600782015481526020016008820154815260200160098201548152602001600a8201548152505090506000816101200151905060008261014001519050600083610140015190506000600190505b8560030180549050811015611be757600b6000876003018381548110611afe57fe5b906000526020600020015481526020019081526020016000206040518061016001604052908160008201548152602001600182015481526020016002820154815260200160038201548152602001600482015481526020016005820154815260200160068201548152602001600782015481526020016008820154815260200160098201548152602001600a820154815250509450838561012001511015611ba95784610120015193505b828561014001511015611bc3578461014001519250611bda565b818561014001511115611bd95784610140015191505b5b8080600101915050611adc565b50828560040181905550818560050181905550808560060181905550611c0b612583565b5050505050565b6000600c6000838152602001908152602001600020905060005b8160030180549050811015611c91576000600b6000846003018481548110611c5057fe5b906000526020600020015481526020019081526020016000209050611c82858285600185600701548660080154611e8d565b50508080600101915050611c2c565b504281600401819055508260200151816005018190555082602001518160060181905550611cbd612583565b505050565b600033905090565b6000600160009054906101000a900473ffffffffffffffffffffffffffffffffffffffff1673ffffffffffffffffffffffffffffffffffffffff16637dbae648600260009054906101000a900473ffffffffffffffffffffffffffffffffffffffff166040518263ffffffff1660e01b8152600401611d4991906137a0565b60206040518083038186803b158015611d6157600080fd5b505afa158015611d75573d6000803e3d6000fd5b505050506040513d601f19601f82011682018060405250810190611d999190613248565b905090565b6000611dae600d6002015461280b565b80611dd35750611dd1600d6003015483611dcc600d60050154612822565b612835565b155b80611df85750611df6600d6004015483611df1600d60050154612822565b612835565b155b9050919050565b600080828403905060008312158015611e185750838113155b80611e2e5750600083128015611e2d57508381135b5b611e83576040517f08c379a0000000000000000000000000000000000000000000000000000000008152600401808060200182810382526024815260200180613e046024913960400191505060405180910390fd5b8091505092915050565b611e95612d44565b6000600460009054906101000a900473ffffffffffffffffffffffffffffffffffffffff1673ffffffffffffffffffffffffffffffffffffffff1663ab65e8b9611ee28860010154612822565b611efd8a600201548a600201546128f990919063ffffffff16565b8b602001518b600101548d600001516040518663ffffffff1660e01b8152600401611f2c959493929190613a36565b60a06040518083038186803b158015611f4457600080fd5b505afa158015611f58573d6000803e3d6000fd5b505050506040513d601f19601f82011682018060405250810190611f7c91906131f6565b90506000612017611fc6611fa18a600501548b6008015461292690919063ffffffff16565b611fb885606001518861292690919063ffffffff16565b611dff90919063ffffffff16565b612009611fe48b600401548c6007015461292690919063ffffffff16565b611ffb86604001518a61292690919063ffffffff16565b611dff90919063ffffffff16565b61295390919063ffffffff16565b9050600061208661204f8a600601546120418c600801548d6007015461295390919063ffffffff16565b61292690919063ffffffff16565b612078856080015161206a898b61295390919063ffffffff16565b61292690919063ffffffff16565b611dff90919063ffffffff16565b905085896007015414158061209f575084896008015414155b156120e35788600001547fd36b111c902bb874f1138b457938a1d360b78d0c158a8c3113c6c4da0fa0f42187876040516120da9291906137f1565b60405180910390a25b858960070181905550848960080181905550826040015189600401819055508260600151896005018190555082608001518960060181905550428960090181905550896020015189600a018190555061214982896007015461295390919063ffffffff16565b886007018190555061216881896008015461295390919063ffffffff16565b886008018190555061218882600d6000015461295390919063ffffffff16565b600d600001819055506121a981600d6001015461295390919063ffffffff16565b600d60010181905550866121c15782602001516121c7565b82600001515b846000018181525050600d60010154600003846040018181525050826040015184606001818152505088600001547f9fc3e36c4cd60d7cd01831990ac5e0fdc067e6d6c8ba36d340743fa044ff17e98460400151856060015186608001518e602001518d600201548f600201546040516122469695949392919061381a565b60405180910390a27f7cd3f350af608b00880eeda3ac97109679d13e034857264053c9d38ab309a7da600d60000154600d600101546040516122899291906137f1565b60405180910390a15050509695505050505050565b60005b600a805490508110156122f6576000600a82815481106122bd57fe5b906000526020600020015490506122d88184602001516122fa565b156122e8576122e78382611c12565b5b5080806001019150506122a1565b5050565b600080600c6000858152602001908152602001600020604051806101200160405290816000820154815260200160018201548152602001600282015481526020016003820180548060200260200160405190810160405280929190818152602001828054801561238957602002820191906000526020600020905b815481526020019060010190808311612375575b5050505050815260200160048201548152602001600582015481526020016006820154815260200160078201548152602001600882015481525050905060008160000151141561240e576040517f08c379a0000000000000000000000000000000000000000000000000000000008152600401612405906138db565b60405180910390fd5b61241b816080015161280b565b8061243e575061243c8160a00151846124378460200151612822565b612835565b155b80612461575061245f8160c001518461245a8460200151612822565b612835565b155b91505092915050565b612472612d8d565b600080600080600080600080600260009054906101000a900473ffffffffffffffffffffffffffffffffffffffff1673ffffffffffffffffffffffffffffffffffffffff16633289cf8f8b6040518263ffffffff1660e01b81526004016124d991906139d6565b6101006040518083038186803b1580156124f257600080fd5b505afa158015612506573d6000803e3d6000fd5b505050506040513d601f19601f8201168201806040525081019061252a9190613373565b975097509750975097509750975097506040518061010001604052808981526020018881526020018781526020018681526020018581526020018481526020018381526020018281525098505050505050505050919050565b6000600c6000600a60008154811061259757fe5b90600052602060002001548152602001908152602001600020604051806101200160405290816000820154815260200160018201548152602001600282015481526020016003820180548060200260200160405190810160405280929190818152602001828054801561262957602002820191906000526020600020905b815481526020019060010190808311612615575b5050505050815260200160048201548152602001600582015481526020016006820154815260200160078201548152602001600882015481525050905060008160800151905060008260a00151905060008360200151905060008460c0015190506000600190505b600a805490508110156127db57600c6000600a83815481106126af57fe5b90600052602060002001548152602001908152602001600020604051806101200160405290816000820154815260200160018201548152602001600282015481526020016003820180548060200260200160405190810160405280929190818152602001828054801561274157602002820191906000526020600020905b81548152602001906001019080831161272d575b50505050508152602001600482015481526020016005820154815260200160068201548152602001600782015481526020016008820154815250509550848660800151101561279257856080015194505b838660a0015110156127a6578560a0015193505b818660c0015111156127ba578560c0015191505b82866020015110156127ce57856020015192505b8080600101915050612691565b5083600d6002018190555082600d6003018190555080600d6004018190555081600d600501819055505050505050565b600060055461281a83426129e1565b119050919050565b600061282e42836129e1565b9050919050565b600080600754905060065483101561289b5761289860085461288a60065461287c8761286e600854600754612a0090919063ffffffff16565b612a8390919063ffffffff16565b612b0990919063ffffffff16565b612b9290919063ffffffff16565b90505b60006128b082876128f990919063ffffffff16565b9050858511156128d857806128ce8787612a0090919063ffffffff16565b10925050506128f2565b806128ec8688612a0090919063ffffffff16565b10925050505b9392505050565b6000601260ff16600a0a6129168385612a8390919063ffffffff16565b8161291d57fe5b04905092915050565b6000601260ff16600a0a6129438385612c1a90919063ffffffff16565b8161294a57fe5b05905092915050565b60008082840190506000831215801561296c5750838112155b80612982575060008312801561298157508381125b5b6129d7576040517f08c379a0000000000000000000000000000000000000000000000000000000008152600401808060200182810382526021815260200180613d9b6021913960400191505060405180910390fd5b8091505092915050565b6000828211156129f55782820390506129fa565b600090505b92915050565b600082821115612a78576040517f08c379a000000000000000000000000000000000000000000000000000000000815260040180806020018281038252601e8152602001807f536166654d6174683a207375627472616374696f6e206f766572666c6f77000081525060200191505060405180910390fd5b818303905092915050565b600080831415612a965760009050612b03565b6000828402905082848281612aa757fe5b0414612afe576040517f08c379a0000000000000000000000000000000000000000000000000000000008152600401808060200182810382526021815260200180613dbc6021913960400191505060405180910390fd5b809150505b92915050565b6000808211612b80576040517f08c379a000000000000000000000000000000000000000000000000000000000815260040180806020018281038252601a8152602001807f536166654d6174683a206469766973696f6e206279207a65726f00000000000081525060200191505060405180910390fd5b818381612b8957fe5b04905092915050565b600080828401905083811015612c10576040517f08c379a000000000000000000000000000000000000000000000000000000000815260040180806020018281038252601b8152602001807f536166654d6174683a206164646974696f6e206f766572666c6f77000000000081525060200191505060405180910390fd5b8091505092915050565b600080831415612c2d5760009050612d3e565b7fffffffffffffffffffffffffffffffffffffffffffffffffffffffffffffffff83148015612c7b57507f800000000000000000000000000000000000000000000000000000000000000082145b15612cd1576040517f08c379a0000000000000000000000000000000000000000000000000000000008152600401808060200182810382526027815260200180613ddd6027913960400191505060405180910390fd5b6000828402905082848281612ce257fe5b0514612d39576040517f08c379a0000000000000000000000000000000000000000000000000000000008152600401808060200182810382526027815260200180613ddd6027913960400191505060405180910390fd5b809150505b92915050565b6040518060800160405280600081526020016000815260200160008152602001600081525090565b5080546000825590600052602060002090810190612d8a9190612dd2565b50565b60405180610100016040528060008152602001600081526020016000815260200160008152602001600081526020016000815260200160008152602001600081525090565b5b80821115612deb576000816000905550600101612dd3565b5090565b6000612e02612dfd84613be3565b613bb2565b90508083825260208201905082856020860282011115612e2157600080fd5b60005b85811015612e515781612e378882613062565b845260208401935060208301925050600181019050612e24565b5050509392505050565b600081359050612e6a81613cbc565b92915050565b600082601f830112612e8157600080fd5b8151612e91848260208601612def565b91505092915050565b600081519050612ea981613cd3565b92915050565b600081359050612ebe81613cea565b92915050565b600081359050612ed381613d01565b92915050565b600081359050612ee881613d18565b92915050565b600081359050612efd81613d2f565b92915050565b600081359050612f1281613d46565b92915050565b600081519050612f2781613d46565b92915050565b600060408284031215612f3f57600080fd5b612f496040613bb2565b90506000612f5984828501612f03565b6000830152506020612f6d8482850161304d565b60208301525092915050565b600060408284031215612f8b57600080fd5b612f956040613bb2565b90506000612fa584828501612f18565b6000830152506020612fb984828501613062565b60208301525092915050565b600060a08284031215612fd757600080fd5b612fe160a0613bb2565b90506000612ff184828501613062565b600083015250602061300584828501613062565b602083015250604061301984828501612f18565b604083015250606061302d84828501612f18565b606083015250608061304184828501613062565b60808301525092915050565b60008135905061305c81613d5d565b92915050565b60008151905061307181613d5d565b92915050565b60006020828403121561308957600080fd5b600061309784828501612e5b565b91505092915050565b6000602082840312156130b257600080fd5b600082015167ffffffffffffffff8111156130cc57600080fd5b6130d884828501612e70565b91505092915050565b600080600080608085870312156130f757600080fd5b600061310587828801612ec4565b945050602061311687828801612eee565b935050604061312787828801612ed9565b925050606061313887828801612eaf565b91505092959194509250565b60006040828403121561315657600080fd5b600061316484828501612f79565b91505092915050565b60008060008060008060e0878903121561318657600080fd5b600061319489828a01612f2d565b96505060406131a589828a0161304d565b95505060606131b689828a01612f03565b94505060806131c789828a01612f03565b93505060a06131d889828a0161304d565b92505060c06131e989828a0161304d565b9150509295509295509295565b600060a0828403121561320857600080fd5b600061321684828501612fc5565b91505092915050565b60006020828403121561323157600080fd5b600061323f8482850161304d565b91505092915050565b60006020828403121561325a57600080fd5b600061326884828501613062565b91505092915050565b6000806040838503121561328457600080fd5b60006132928582860161304d565b92505060206132a38582860161304d565b9150509250929050565b600080600080608085870312156132c357600080fd5b60006132d187828801613062565b94505060206132e287828801613062565b93505060406132f387828801613062565b925050606061330487828801612e9a565b91505092959194509250565b6000806000806080858703121561332657600080fd5b60006133348782880161304d565b94505060206133458782880161304d565b93505060406133568782880161304d565b92505060606133678782880161304d565b91505092959194509250565b600080600080600080600080610100898b03121561339057600080fd5b600061339e8b828c01613062565b98505060206133af8b828c01613062565b97505060406133c08b828c01613062565b96505060606133d18b828c01613062565b95505060806133e28b828c01613062565b94505060a06133f38b828c01613062565b93505060c06134048b828c01613062565b92505060e06134158b828c01613062565b9150509295985092959890939650565b61342e81613c20565b82525050565b61343d81613c32565b82525050565b61344c81613c86565b82525050565b61345b81613c86565b82525050565b600061346e601583613c0f565b91507f476c6f62616c206361636865206973207374616c6500000000000000000000006000830152602082019050919050565b60006134ae601b83613c0f565b91507f7374616c655570646174654475726174696f6e20746f6f206c6f7700000000006000830152602082019050919050565b60006134ee601c83613c0f565b91507f6d696e41636365707461626c6550657263656e7420746f6f206c6f77000000006000830152602082019050919050565b600061352e601483613c0f565b91507f426f61726420646f6573206e6f742065786973740000000000000000000000006000830152602082019050919050565b600061356e602383613c0f565b91507f6d617841636365707461626c6550657263656e74206d757374206265203e3d2060008301527f6d696e00000000000000000000000000000000000000000000000000000000006020830152604082019050919050565b60006135d4601b83613c0f565b91507f746f6f206d616e79206c697374696e677320666f7220626f61726400000000006000830152602082019050919050565b6000613614601b83613c0f565b91507f4f6e6c79206f7074696f6e507269636572207065726d697474656400000000006000830152602082019050919050565b6000613654601b83613c0f565b91507f4f6e6c79206f7074696f6e4d61726b6574207065726d697474656400000000006000830152602082019050919050565b6000613694601c83613c0f565b91507f436f6e747261637420616c726561647920696e697469616c697a6564000000006000830152602082019050919050565b60006136d4602283613c0f565b91507f626f74682063616c6c20616e6420707574206578706f7375726520757064617460008301527f65640000000000000000000000000000000000000000000000000000000000006020830152604082019050919050565b6080820160008201516137436000850182613782565b5060208201516137566020850182613443565b5060408201516137696040850182613443565b50606082015161377c6060850182613443565b50505050565b61378b81613cb0565b82525050565b61379a81613cb0565b82525050565b60006020820190506137b56000830184613425565b92915050565b60006020820190506137d06000830184613434565b92915050565b60006020820190506137eb6000830184613452565b92915050565b60006040820190506138066000830185613452565b6138136020830184613452565b9392505050565b600060c08201905061382f6000830189613452565b61383c6020830188613452565b6138496040830187613791565b6138566060830186613791565b6138636080830185613791565b61387060a0830184613791565b979650505050505050565b6000602082019050818103600083015261389481613461565b9050919050565b600060208201905081810360008301526138b4816134a1565b9050919050565b600060208201905081810360008301526138d4816134e1565b9050919050565b600060208201905081810360008301526138f481613521565b9050919050565b6000602082019050818103600083015261391481613561565b9050919050565b60006020820190508181036000830152613934816135c7565b9050919050565b6000602082019050818103600083015261395481613607565b9050919050565b6000602082019050818103600083015261397481613647565b9050919050565b6000602082019050818103600083015261399481613687565b9050919050565b600060208201905081810360008301526139b4816136c7565b9050919050565b60006080820190506139d0600083018461372d565b92915050565b60006020820190506139eb6000830184613791565b92915050565b6000608082019050613a066000830187613791565b613a136020830186613791565b613a206040830185613791565b613a2d6060830184613791565b95945050505050565b600060a082019050613a4b6000830188613791565b613a586020830187613791565b613a656040830186613791565b613a726060830185613791565b613a7f6080830184613452565b9695505050505050565b600061016082019050613a9f600083018e613791565b613aac602083018d613791565b613ab9604083018c613791565b613ac6606083018b613791565b613ad3608083018a613452565b613ae060a0830189613452565b613aed60c0830188613791565b613afa60e0830187613452565b613b08610100830186613452565b613b16610120830185613791565b613b24610140830184613791565b9c9b505050505050505050505050565b600061010082019050613b4a600083018b613791565b613b57602083018a613791565b613b646040830189613791565b613b716060830188613791565b613b7e6080830187613791565b613b8b60a0830186613791565b613b9860c0830185613452565b613ba560e0830184613452565b9998505050505050505050565b6000604051905081810181811067ffffffffffffffff82111715613bd957613bd8613cba565b5b8060405250919050565b600067ffffffffffffffff821115613bfe57613bfd613cba565b5b602082029050602081019050919050565b600082825260208201905092915050565b6000613c2b82613c90565b9050919050565b60008115159050919050565b6000613c4982613c20565b9050919050565b6000613c5b82613c20565b9050919050565b6000613c6d82613c20565b9050919050565b6000613c7f82613c20565b9050919050565b6000819050919050565b600073ffffffffffffffffffffffffffffffffffffffff82169050919050565b6000819050919050565bfe5b613cc581613c20565b8114613cd057600080fd5b50565b613cdc81613c32565b8114613ce757600080fd5b50565b613cf381613c3e565b8114613cfe57600080fd5b50565b613d0a81613c50565b8114613d1557600080fd5b50565b613d2181613c62565b8114613d2c57600080fd5b50565b613d3881613c74565b8114613d4357600080fd5b50565b613d4f81613c86565b8114613d5a57600080fd5b50565b613d6681613cb0565b8114613d7157600080fd5b5056fe4f776e61626c653a206e6577206f776e657220697320746865207a65726f20616464726573735369676e6564536166654d6174683a206164646974696f6e206f766572666c6f77536166654d6174683a206d756c7469706c69636174696f6e206f766572666c6f775369676e6564536166654d6174683a206d756c7469706c69636174696f6e206f766572666c6f775369676e6564536166654d6174683a207375627472616374696f6e206f766572666c6f77a26469706673582212208efd38d00b5d68a7cf60b5a59bb353f532f9908ea5242534a3a777f1e9548c4364736f6c63430007060033",
  "linkReferences": {},
  "deployedLinkReferences": {}
}