{
  "_format": "hh-sol-artifact-1",
  "contractName": "OptionMarket",
  "sourceName": "contracts/OptionMarket.sol",
  "abi": [
    {
      "inputs": [],
      "stateMutability": "nonpayable",
      "type": "constructor"
    },
    {
      "anonymous": false,
      "inputs": [
        {
          "indexed": true,
          "internalType": "uint256",
          "name": "boardId",
          "type": "uint256"
        },
        {
          "indexed": false,
          "internalType": "uint256",
          "name": "baseIv",
          "type": "uint256"
        }
      ],
      "name": "BoardBaseIvSet",
      "type": "event"
    },
    {
      "anonymous": false,
      "inputs": [
        {
          "indexed": true,
          "internalType": "uint256",
          "name": "boardId",
          "type": "uint256"
        },
        {
          "indexed": false,
          "internalType": "uint256",
          "name": "expiry",
          "type": "uint256"
        },
        {
          "indexed": false,
          "internalType": "uint256",
          "name": "baseIv",
          "type": "uint256"
        }
      ],
      "name": "BoardCreated",
      "type": "event"
    },
    {
      "anonymous": false,
      "inputs": [
        {
          "indexed": true,
          "internalType": "uint256",
          "name": "boardId",
          "type": "uint256"
        },
        {
          "indexed": false,
          "internalType": "bool",
          "name": "frozen",
          "type": "bool"
        }
      ],
      "name": "BoardFrozen",
      "type": "event"
    },
    {
      "anonymous": false,
      "inputs": [
        {
          "indexed": true,
          "internalType": "uint256",
          "name": "boardId",
          "type": "uint256"
        },
        {
          "indexed": false,
          "internalType": "uint256",
          "name": "totalUserLongProfitQuote",
          "type": "uint256"
        },
        {
          "indexed": false,
          "internalType": "uint256",
          "name": "totalBoardLongCallCollateral",
          "type": "uint256"
        },
        {
          "indexed": false,
          "internalType": "uint256",
          "name": "totalBoardLongPutCollateral",
          "type": "uint256"
        },
        {
          "indexed": false,
          "internalType": "uint256",
          "name": "totalAMMShortCallProfitBase",
          "type": "uint256"
        },
        {
          "indexed": false,
          "internalType": "uint256",
          "name": "totalAMMShortPutProfitQuote",
          "type": "uint256"
        }
      ],
      "name": "BoardLiquidated",
      "type": "event"
    },
    {
      "anonymous": false,
      "inputs": [
        {
          "indexed": true,
          "internalType": "uint256",
          "name": "boardId",
          "type": "uint256"
        },
        {
          "indexed": true,
          "internalType": "uint256",
          "name": "listingId",
          "type": "uint256"
        },
        {
          "indexed": false,
          "internalType": "uint256",
          "name": "strike",
          "type": "uint256"
        },
        {
          "indexed": false,
          "internalType": "uint256",
          "name": "skew",
          "type": "uint256"
        }
      ],
      "name": "ListingAdded",
      "type": "event"
    },
    {
      "anonymous": false,
      "inputs": [
        {
          "indexed": true,
          "internalType": "uint256",
          "name": "listingId",
          "type": "uint256"
        },
        {
          "indexed": false,
          "internalType": "uint256",
          "name": "skew",
          "type": "uint256"
        }
      ],
      "name": "ListingSkewSet",
      "type": "event"
    },
    {
      "anonymous": false,
      "inputs": [
        {
          "indexed": true,
          "internalType": "address",
          "name": "previousOwner",
          "type": "address"
        },
        {
          "indexed": true,
          "internalType": "address",
          "name": "newOwner",
          "type": "address"
        }
      ],
      "name": "OwnershipTransferred",
      "type": "event"
    },
    {
      "anonymous": false,
      "inputs": [
        {
          "indexed": true,
          "internalType": "address",
          "name": "trader",
          "type": "address"
        },
        {
          "indexed": true,
          "internalType": "uint256",
          "name": "listingId",
          "type": "uint256"
        },
        {
          "indexed": true,
          "internalType": "enum IOptionMarket.TradeType",
          "name": "tradeType",
          "type": "uint8"
        },
        {
          "indexed": false,
          "internalType": "uint256",
          "name": "amount",
          "type": "uint256"
        },
        {
          "indexed": false,
          "internalType": "uint256",
          "name": "totalCost",
          "type": "uint256"
        }
      ],
      "name": "PositionClosed",
      "type": "event"
    },
    {
      "anonymous": false,
      "inputs": [
        {
          "indexed": true,
          "internalType": "address",
          "name": "trader",
          "type": "address"
        },
        {
          "indexed": true,
          "internalType": "uint256",
          "name": "listingId",
          "type": "uint256"
        },
        {
          "indexed": true,
          "internalType": "enum IOptionMarket.TradeType",
          "name": "tradeType",
          "type": "uint8"
        },
        {
          "indexed": false,
          "internalType": "uint256",
          "name": "amount",
          "type": "uint256"
        },
        {
          "indexed": false,
          "internalType": "uint256",
          "name": "totalCost",
          "type": "uint256"
        }
      ],
      "name": "PositionOpened",
      "type": "event"
    },
    {
      "inputs": [
        {
          "internalType": "uint256",
          "name": "boardId",
          "type": "uint256"
        },
        {
          "internalType": "uint256",
          "name": "strike",
          "type": "uint256"
        },
        {
          "internalType": "uint256",
          "name": "skew",
          "type": "uint256"
        }
      ],
      "name": "addListingToBoard",
      "outputs": [],
      "stateMutability": "nonpayable",
      "type": "function"
    },
    {
      "inputs": [
        {
          "internalType": "uint256",
          "name": "",
          "type": "uint256"
        }
      ],
      "name": "boardToPriceAtExpiry",
      "outputs": [
        {
          "internalType": "uint256",
          "name": "",
          "type": "uint256"
        }
      ],
      "stateMutability": "view",
      "type": "function"
    },
    {
      "inputs": [
        {
          "internalType": "uint256",
          "name": "_listingId",
          "type": "uint256"
        },
        {
          "internalType": "enum IOptionMarket.TradeType",
          "name": "tradeType",
          "type": "uint8"
        },
        {
          "internalType": "uint256",
          "name": "amount",
          "type": "uint256"
        }
      ],
      "name": "closePosition",
      "outputs": [
        {
          "internalType": "uint256",
          "name": "totalCost",
          "type": "uint256"
        }
      ],
      "stateMutability": "nonpayable",
      "type": "function"
    },
    {
      "inputs": [
        {
          "internalType": "uint256",
          "name": "expiry",
          "type": "uint256"
        },
        {
          "internalType": "uint256",
          "name": "baseIV",
          "type": "uint256"
        },
        {
          "internalType": "uint256[]",
          "name": "strikes",
          "type": "uint256[]"
        },
        {
          "internalType": "uint256[]",
          "name": "skews",
          "type": "uint256[]"
        }
      ],
      "name": "createOptionBoard",
      "outputs": [
        {
          "internalType": "uint256",
          "name": "",
          "type": "uint256"
        }
      ],
      "stateMutability": "nonpayable",
      "type": "function"
    },
    {
      "inputs": [
        {
          "internalType": "uint256",
          "name": "boardId",
          "type": "uint256"
        }
      ],
      "name": "getBoardListings",
      "outputs": [
        {
          "internalType": "uint256[]",
          "name": "",
          "type": "uint256[]"
        }
      ],
      "stateMutability": "view",
      "type": "function"
    },
    {
      "inputs": [],
      "name": "getLiveBoards",
      "outputs": [
        {
          "internalType": "uint256[]",
          "name": "_liveBoards",
          "type": "uint256[]"
        }
      ],
      "stateMutability": "view",
      "type": "function"
    },
    {
      "inputs": [
        {
          "internalType": "contract ILyraGlobals",
          "name": "_globals",
          "type": "address"
        },
        {
          "internalType": "contract ILiquidityPool",
          "name": "_liquidityPool",
          "type": "address"
        },
        {
          "internalType": "contract IOptionMarketPricer",
          "name": "_optionPricer",
          "type": "address"
        },
        {
          "internalType": "contract IOptionGreekCache",
          "name": "_greekCache",
          "type": "address"
        },
        {
          "internalType": "contract IShortCollateral",
          "name": "_shortCollateral",
          "type": "address"
        },
        {
          "internalType": "contract IOptionToken",
          "name": "_optionToken",
          "type": "address"
        },
        {
          "internalType": "contract IERC20",
          "name": "_quoteAsset",
          "type": "address"
        },
        {
          "internalType": "contract IERC20",
          "name": "_baseAsset",
          "type": "address"
        },
        {
          "internalType": "string[]",
          "name": "_errorMessages",
          "type": "string[]"
        }
      ],
      "name": "init",
      "outputs": [],
      "stateMutability": "nonpayable",
      "type": "function"
    },
    {
      "inputs": [
        {
          "internalType": "uint256",
          "name": "boardId",
          "type": "uint256"
        }
      ],
      "name": "liquidateExpiredBoard",
      "outputs": [],
      "stateMutability": "nonpayable",
      "type": "function"
    },
    {
      "inputs": [
        {
          "internalType": "uint256",
          "name": "",
          "type": "uint256"
        }
      ],
      "name": "listingToBaseReturnedRatio",
      "outputs": [
        {
          "internalType": "uint256",
          "name": "",
          "type": "uint256"
        }
      ],
      "stateMutability": "view",
      "type": "function"
    },
    {
      "inputs": [],
      "name": "maxExpiryTimestamp",
      "outputs": [
        {
          "internalType": "uint256",
          "name": "",
          "type": "uint256"
        }
      ],
      "stateMutability": "view",
      "type": "function"
    },
    {
      "inputs": [
        {
          "internalType": "uint256",
          "name": "_listingId",
          "type": "uint256"
        },
        {
          "internalType": "enum IOptionMarket.TradeType",
          "name": "tradeType",
          "type": "uint8"
        },
        {
          "internalType": "uint256",
          "name": "amount",
          "type": "uint256"
        }
      ],
      "name": "openPosition",
      "outputs": [
        {
          "internalType": "uint256",
          "name": "totalCost",
          "type": "uint256"
        }
      ],
      "stateMutability": "nonpayable",
      "type": "function"
    },
    {
      "inputs": [
        {
          "internalType": "uint256",
          "name": "",
          "type": "uint256"
        }
      ],
      "name": "optionBoards",
      "outputs": [
        {
          "internalType": "uint256",
          "name": "id",
          "type": "uint256"
        },
        {
          "internalType": "uint256",
          "name": "expiry",
          "type": "uint256"
        },
        {
          "internalType": "uint256",
          "name": "iv",
          "type": "uint256"
        },
        {
          "internalType": "bool",
          "name": "frozen",
          "type": "bool"
        }
      ],
      "stateMutability": "view",
      "type": "function"
    },
    {
      "inputs": [
        {
          "internalType": "uint256",
          "name": "",
          "type": "uint256"
        }
      ],
      "name": "optionListings",
      "outputs": [
        {
          "internalType": "uint256",
          "name": "id",
          "type": "uint256"
        },
        {
          "internalType": "uint256",
          "name": "strike",
          "type": "uint256"
        },
        {
          "internalType": "uint256",
          "name": "skew",
          "type": "uint256"
        },
        {
          "internalType": "uint256",
          "name": "longCall",
          "type": "uint256"
        },
        {
          "internalType": "uint256",
          "name": "shortCall",
          "type": "uint256"
        },
        {
          "internalType": "uint256",
          "name": "longPut",
          "type": "uint256"
        },
        {
          "internalType": "uint256",
          "name": "shortPut",
          "type": "uint256"
        },
        {
          "internalType": "uint256",
          "name": "boardId",
          "type": "uint256"
        }
      ],
      "stateMutability": "view",
      "type": "function"
    },
    {
      "inputs": [
        {
          "internalType": "uint256",
          "name": "boardId",
          "type": "uint256"
        },
        {
          "internalType": "uint256",
          "name": "baseIv",
          "type": "uint256"
        }
      ],
      "name": "setBoardBaseIv",
      "outputs": [],
      "stateMutability": "nonpayable",
      "type": "function"
    },
    {
      "inputs": [
        {
          "internalType": "uint256",
          "name": "boardId",
          "type": "uint256"
        },
        {
          "internalType": "bool",
          "name": "frozen",
          "type": "bool"
        }
      ],
      "name": "setBoardFrozen",
      "outputs": [],
      "stateMutability": "nonpayable",
      "type": "function"
    },
    {
      "inputs": [
        {
          "internalType": "uint256",
          "name": "listingId",
          "type": "uint256"
        },
        {
          "internalType": "uint256",
          "name": "skew",
          "type": "uint256"
        }
      ],
      "name": "setListingSkew",
      "outputs": [],
      "stateMutability": "nonpayable",
      "type": "function"
    },
    {
      "inputs": [
        {
          "internalType": "uint256",
          "name": "listingId",
          "type": "uint256"
        },
        {
          "internalType": "enum IOptionMarket.TradeType",
          "name": "tradeType",
          "type": "uint8"
        }
      ],
      "name": "settleOptions",
      "outputs": [],
      "stateMutability": "nonpayable",
      "type": "function"
    },
    {
      "inputs": [
        {
          "internalType": "address",
          "name": "newOwner",
          "type": "address"
        }
      ],
      "name": "transferOwnership",
      "outputs": [],
      "stateMutability": "nonpayable",
      "type": "function"
    }
  ],
  "bytecode": "0x60806040526000600960146101000a81548160ff0219169083151502179055506001600a556001600b5534801561003557600080fd5b5033600960006101000a81548173ffffffffffffffffffffffffffffffffffffffff021916908373ffffffffffffffffffffffffffffffffffffffff16021790555061507a806100866000396000f3fe608060405234801561001057600080fd5b50600436106101165760003560e01c80639b805da8116100a2578063d1e9e81111610071578063d1e9e8111461030d578063d6ef9be31461033d578063dd2f0d3614610359578063f2333a5814610389578063f2fde38b146103a557610116565b80639b805da814610275578063a92e61eb146102a5578063a9c9d125146102c1578063c39eeefb146102dd57610116565b806335359675116100e957806335359675146101a857806342a47e13146101db5780637e7088eb146101f7578063862a33941461021557806397dd25241461024557610116565b806318cc7e861461011b5780632eb6534f146101375780632f4aff0e146101555780633289cf8f14610171575b600080fd5b6101356004803603810190610130919061400f565b6103c1565b005b61013f610533565b60405161014c9190614927565b60405180910390f35b61016f600480360381019061016a91906140de565b610539565b005b61018b60048036038101906101869190613ef6565b610661565b60405161019f989796959493929190614b0b565b60405180910390f35b6101c260048036038101906101bd9190613ef6565b6106a9565b6040516101d29493929190614a73565b60405180910390f35b6101f560048036038101906101f09190613ef6565b6106e6565b005b6101ff6108f4565b60405161020c919061483f565b60405180910390f35b61022f600480360381019061022a9190613fc0565b610995565b60405161023c9190614927565b60405180910390f35b61025f600480360381019061025a9190613fc0565b61148b565b60405161026c9190614927565b60405180910390f35b61028f600480360381019061028a9190613ef6565b611ebb565b60405161029c9190614927565b60405180910390f35b6102bf60048036038101906102ba9190613f84565b611ed3565b005b6102db60048036038101906102d69190613f48565b61211e565b005b6102f760048036038101906102f29190613ef6565b61220c565b604051610304919061483f565b60405180910390f35b61032760048036038101906103229190613ef6565b6122f1565b6040516103349190614927565b60405180910390f35b6103576004803603810190610352919061400f565b612309565b005b610373600480360381019061036e919061404b565b612526565b6040516103809190614927565b60405180910390f35b6103a3600480360381019061039e9190613d74565b612825565b005b6103bf60048036038101906103ba9190613d22565b612b45565b005b61041c3373ffffffffffffffffffffffffffffffffffffffff16600960009054906101000a900473ffffffffffffffffffffffffffffffffffffffff1673ffffffffffffffffffffffffffffffffffffffff1614600d612c9b565b6000600e6000848152602001908152602001600020905061045e83826000015414801561045757508160030160009054906101000a900460ff165b6002612c9b565b818160020181905550600360009054906101000a900473ffffffffffffffffffffffffffffffffffffffff1673ffffffffffffffffffffffffffffffffffffffff1663551c855584846040518363ffffffff1660e01b81526004016104c4929190614a13565b600060405180830381600087803b1580156104de57600080fd5b505af11580156104f2573d6000803e3d6000fd5b50505050827f27dc10bc12529bac536af6dbf5d4b270673ac7aeb848c334e4038ef55ecce881836040516105269190614927565b60405180910390a2505050565b600d5481565b6105943373ffffffffffffffffffffffffffffffffffffffff16600960009054906101000a900473ffffffffffffffffffffffffffffffffffffffff1673ffffffffffffffffffffffffffffffffffffffff1614600d612c9b565b6000600e600085815260200190815260200160002090506105bc848260000154146001612c9b565b60006105c9858585612d00565b9050600360009054906101000a900473ffffffffffffffffffffffffffffffffffffffff1673ffffffffffffffffffffffffffffffffffffffff1663d59f359386836040518363ffffffff1660e01b8152600401610628929190614a13565b600060405180830381600087803b15801561064257600080fd5b505af1158015610656573d6000803e3d6000fd5b505050505050505050565b600f6020528060005260406000206000915090508060000154908060010154908060020154908060030154908060040154908060050154908060060154908060070154905088565b600e6020528060005260406000206000915090508060000154908060010154908060020154908060030160009054906101000a900460ff16905084565b6000600e60008381526020019081526020016000206040518060a00160405290816000820154815260200160018201548152602001600282015481526020016003820160009054906101000a900460ff161515151581526020016004820180548060200260200160405190810160405280929190818152602001828054801561078e57602002820191906000526020600020905b81548152602001906001019080831161077a575b50505050508152505090506107ab4282602001511115600b612c9b565b6000805b600c8054905081101561084d5783600c82815481106107ca57fe5b9060005260206000200154141561084057600c6001600c8054905003815481106107f057fe5b9060005260206000200154600c828154811061080857fe5b9060005260206000200181905550600c80548061082157fe5b600190038181906000526020600020016000905590556001915061084d565b80806001019150506107af565b5061085981600c612c9b565b61086282612e3b565b600360009054906101000a900473ffffffffffffffffffffffffffffffffffffffff1673ffffffffffffffffffffffffffffffffffffffff1663dba5082a846040518263ffffffff1660e01b81526004016108bd9190614927565b600060405180830381600087803b1580156108d757600080fd5b505af11580156108eb573d6000803e3d6000fd5b50505050505050565b6060600c8054905067ffffffffffffffff8111801561091257600080fd5b506040519080825280602002602001820160405280156109415781602001602082028036833780820191505090505b50905060005b600c8054905081101561099157600c818154811061096157fe5b906000526020600020015482828151811061097857fe5b6020026020010181815250508080600101915050610947565b5090565b60006109c76000831380156109c057508360038111156109b157fe5b6003808111156109bd57fe5b10155b6007612c9b565b60008060038111156109d557fe5b8460038111156109e157fe5b1480610a035750600260038111156109f557fe5b846003811115610a0157fe5b145b90506000600f600087815260200190815260200160002090506000600e600083600701548152602001908152602001600020905060008060008060009054906101000a900473ffffffffffffffffffffffffffffffffffffffff1673ffffffffffffffffffffffffffffffffffffffff1663be146b1230886040518363ffffffff1660e01b8152600401610a989291906147c4565b6102406040518083038186803b158015610ab157600080fd5b505afa158015610ac5573d6000803e3d6000fd5b505050506040513d601f19601f82011682018060405250810190610ae99190613ea4565b925092509250610b1d8460030160009054906101000a900460ff16158015610b1657508460010154824201105b6008612c9b565b60006040518060a0016040528088151581526020018a8152602001610b538860020154886002015461332a90919063ffffffff16565b815260200186600101548152602001600160009054906101000a900473ffffffffffffffffffffffffffffffffffffffff1673ffffffffffffffffffffffffffffffffffffffff16633f2f757d866000015187608001516040518363ffffffff1660e01b8152600401610bc79291906149b1565b60806040518083038186803b158015610bdf57600080fd5b505afa158015610bf3573d6000803e3d6000fd5b505050506040513d601f19601f82011682018060405250810190610c179190613e7b565b8152509050600560009054906101000a900473ffffffffffffffffffffffffffffffffffffffff1673ffffffffffffffffffffffffffffffffffffffff1663156e29f6338c6003811115610c6757fe5b8e018c6040518463ffffffff1660e01b8152600401610c889392919061478d565b600060405180830381600087803b158015610ca257600080fd5b505af1158015610cb6573d6000803e3d6000fd5b5050505060006003811115610cc757fe5b8a6003811115610cd357fe5b1415610cfd57610cf089876003015461334690919063ffffffff16565b8660030181905550610da5565b60016003811115610d0a57fe5b8a6003811115610d1657fe5b1415610d4057610d3389876004015461334690919063ffffffff16565b8660040181905550610da4565b60026003811115610d4d57fe5b8a6003811115610d5957fe5b1415610d8357610d7689876005015461334690919063ffffffff16565b8660050181905550610da3565b610d9a89876006015461334690919063ffffffff16565b86600601819055505b5b5b610db1868683876133ce565b975060006003811115610dc057fe5b8a6003811115610dcc57fe5b1415610f4957600160009054906101000a900473ffffffffffffffffffffffffffffffffffffffff1673ffffffffffffffffffffffffffffffffffffffff1663a00dad228a8584608001516040518463ffffffff1660e01b8152600401610e35939291906149da565b600060405180830381600087803b158015610e4f57600080fd5b505af1158015610e63573d6000803e3d6000fd5b50505050610f44600660009054906101000a900473ffffffffffffffffffffffffffffffffffffffff1673ffffffffffffffffffffffffffffffffffffffff166323b872dd33600160009054906101000a900473ffffffffffffffffffffffffffffffffffffffff168c6040518463ffffffff1660e01b8152600401610eeb9392919061472d565b602060405180830381600087803b158015610f0557600080fd5b505af1158015610f19573d6000803e3d6000fd5b505050506040513d601f19601f82011682018060405250810190610f3d9190613d4b565b6009612c9b565b611420565b60026003811115610f5657fe5b8a6003811115610f6257fe5b14156110f757600160009054906101000a900473ffffffffffffffffffffffffffffffffffffffff1673ffffffffffffffffffffffffffffffffffffffff1663f238ff5c610fbd88600101548c61352990919063ffffffff16565b8360800151600001516040518363ffffffff1660e01b8152600401610fe3929190614a13565b600060405180830381600087803b158015610ffd57600080fd5b505af1158015611011573d6000803e3d6000fd5b505050506110f2600660009054906101000a900473ffffffffffffffffffffffffffffffffffffffff1673ffffffffffffffffffffffffffffffffffffffff166323b872dd33600160009054906101000a900473ffffffffffffffffffffffffffffffffffffffff168c6040518463ffffffff1660e01b81526004016110999392919061472d565b602060405180830381600087803b1580156110b357600080fd5b505af11580156110c7573d6000803e3d6000fd5b505050506040513d601f19601f820116820180604052508101906110eb9190613d4b565b6009612c9b565b61141f565b6001600381111561110457fe5b8a600381111561111057fe5b1415611291576111f3600760009054906101000a900473ffffffffffffffffffffffffffffffffffffffff1673ffffffffffffffffffffffffffffffffffffffff166323b872dd33600460009054906101000a900473ffffffffffffffffffffffffffffffffffffffff168d6040518463ffffffff1660e01b815260040161119a9392919061472d565b602060405180830381600087803b1580156111b457600080fd5b505af11580156111c8573d6000803e3d6000fd5b505050506040513d601f19601f820116820180604052508101906111ec9190613d4b565b600a612c9b565b600160009054906101000a900473ffffffffffffffffffffffffffffffffffffffff1673ffffffffffffffffffffffffffffffffffffffff1663c9061b58338a8460800151600001516040518463ffffffff1660e01b815260040161125a9392919061478d565b600060405180830381600087803b15801561127457600080fd5b505af1158015611288573d6000803e3d6000fd5b5050505061141e565b611384600660009054906101000a900473ffffffffffffffffffffffffffffffffffffffff1673ffffffffffffffffffffffffffffffffffffffff166323b872dd33600460009054906101000a900473ffffffffffffffffffffffffffffffffffffffff1661130d8b600101548f61352990919063ffffffff16565b6040518463ffffffff1660e01b815260040161132b9392919061472d565b602060405180830381600087803b15801561134557600080fd5b505af1158015611359573d6000803e3d6000fd5b505050506040513d601f19601f8201168201806040525081019061137d9190613d4b565b6009612c9b565b600160009054906101000a900473ffffffffffffffffffffffffffffffffffffffff1673ffffffffffffffffffffffffffffffffffffffff1663c9061b58338a8460800151600001516040518463ffffffff1660e01b81526004016113eb9392919061478d565b600060405180830381600087803b15801561140557600080fd5b505af1158015611419573d6000803e3d6000fd5b505050505b5b5b89600381111561142c57fe5b8b3373ffffffffffffffffffffffffffffffffffffffff167f9a99f0d83ea15216987ecd4ed332a7338eafafe12db86adf283528ec63c02d3f8c8c604051611475929190614a13565b60405180910390a4505050505050509392505050565b60006114bd6000831380156114b657508360038111156114a757fe5b6003808111156114b357fe5b10155b6007612c9b565b60008060038111156114cb57fe5b8460038111156114d757fe5b14806114f95750600260038111156114eb57fe5b8460038111156114f757fe5b145b90506000600f600087815260200190815260200160002090506000600e600083600701548152602001908152602001600020905060008060008060009054906101000a900473ffffffffffffffffffffffffffffffffffffffff1673ffffffffffffffffffffffffffffffffffffffff1663be146b123088156040518363ffffffff1660e01b815260040161158f9291906147c4565b6102406040518083038186803b1580156115a857600080fd5b505afa1580156115bc573d6000803e3d6000fd5b505050506040513d601f19601f820116820180604052508101906115e09190613ea4565b9250925092506116148460030160009054906101000a900460ff1615801561160d57508460010154824201105b6008612c9b565b60006040518060a001604052808815151581526020018a815260200161164b8860020154886002015461332a90919063ffffffff16565b815260200186600101548152602001600160009054906101000a900473ffffffffffffffffffffffffffffffffffffffff1673ffffffffffffffffffffffffffffffffffffffff16633f2f757d866000015187608001516040518363ffffffff1660e01b81526004016116bf9291906149b1565b60806040518083038186803b1580156116d757600080fd5b505afa1580156116eb573d6000803e3d6000fd5b505050506040513d601f19601f8201168201806040525081019061170f9190613e7b565b8152509050600560009054906101000a900473ffffffffffffffffffffffffffffffffffffffff1673ffffffffffffffffffffffffffffffffffffffff1663f5298aca338c600381111561175f57fe5b8e018c6040518463ffffffff1660e01b81526004016117809392919061478d565b600060405180830381600087803b15801561179a57600080fd5b505af11580156117ae573d6000803e3d6000fd5b50505050600060038111156117bf57fe5b8a60038111156117cb57fe5b14156117f5576117e889876003015461355690919063ffffffff16565b866003018190555061189d565b6001600381111561180257fe5b8a600381111561180e57fe5b14156118385761182b89876004015461355690919063ffffffff16565b866004018190555061189c565b6002600381111561184557fe5b8a600381111561185157fe5b141561187b5761186e89876005015461355690919063ffffffff16565b866005018190555061189b565b61189289876006015461355690919063ffffffff16565b86600601819055505b5b5b6118a9868683876133ce565b9750600060038111156118b857fe5b8a60038111156118c457fe5b14156119f557600160009054906101000a900473ffffffffffffffffffffffffffffffffffffffff1673ffffffffffffffffffffffffffffffffffffffff1663dc62c5818a6040518263ffffffff1660e01b81526004016119259190614927565b600060405180830381600087803b15801561193f57600080fd5b505af1158015611953573d6000803e3d6000fd5b50505050600160009054906101000a900473ffffffffffffffffffffffffffffffffffffffff1673ffffffffffffffffffffffffffffffffffffffff1663c9061b58338a8460800151600001516040518463ffffffff1660e01b81526004016119be9392919061478d565b600060405180830381600087803b1580156119d857600080fd5b505af11580156119ec573d6000803e3d6000fd5b50505050611e50565b60026003811115611a0257fe5b8a6003811115611a0e57fe5b1415611b5557600160009054906101000a900473ffffffffffffffffffffffffffffffffffffffff1673ffffffffffffffffffffffffffffffffffffffff1663db32232f611a6988600101548c61352990919063ffffffff16565b6040518263ffffffff1660e01b8152600401611a859190614927565b600060405180830381600087803b158015611a9f57600080fd5b505af1158015611ab3573d6000803e3d6000fd5b50505050600160009054906101000a900473ffffffffffffffffffffffffffffffffffffffff1673ffffffffffffffffffffffffffffffffffffffff1663c9061b58338a8460800151600001516040518463ffffffff1660e01b8152600401611b1e9392919061478d565b600060405180830381600087803b158015611b3857600080fd5b505af1158015611b4c573d6000803e3d6000fd5b50505050611e4f565b60016003811115611b6257fe5b8a6003811115611b6e57fe5b1415611ce557600460009054906101000a900473ffffffffffffffffffffffffffffffffffffffff1673ffffffffffffffffffffffffffffffffffffffff16638b89a242338b6040518363ffffffff1660e01b8152600401611bd1929190614764565b600060405180830381600087803b158015611beb57600080fd5b505af1158015611bff573d6000803e3d6000fd5b50505050611ce0600660009054906101000a900473ffffffffffffffffffffffffffffffffffffffff1673ffffffffffffffffffffffffffffffffffffffff166323b872dd33600160009054906101000a900473ffffffffffffffffffffffffffffffffffffffff168c6040518463ffffffff1660e01b8152600401611c879392919061472d565b602060405180830381600087803b158015611ca157600080fd5b505af1158015611cb5573d6000803e3d6000fd5b505050506040513d601f19601f82011682018060405250810190611cd99190613d4b565b6009612c9b565b611e4e565b600460009054906101000a900473ffffffffffffffffffffffffffffffffffffffff1673ffffffffffffffffffffffffffffffffffffffff16635318b30733611d4d8b611d3f8b600101548f61352990919063ffffffff16565b61355690919063ffffffff16565b6040518363ffffffff1660e01b8152600401611d6a929190614764565b600060405180830381600087803b158015611d8457600080fd5b505af1158015611d98573d6000803e3d6000fd5b50505050600460009054906101000a900473ffffffffffffffffffffffffffffffffffffffff1673ffffffffffffffffffffffffffffffffffffffff16635318b307600160009054906101000a900473ffffffffffffffffffffffffffffffffffffffff168a6040518363ffffffff1660e01b8152600401611e1b929190614816565b600060405180830381600087803b158015611e3557600080fd5b505af1158015611e49573d6000803e3d6000fd5b505050505b5b5b896003811115611e5c57fe5b8b3373ffffffffffffffffffffffffffffffffffffffff167f5a0cd91f269c536b8167c8fc4e2b859e3db49a3fb022e5db3e380a58975405848c8c604051611ea5929190614a13565b60405180910390a4505050505050509392505050565b60116020528060005260406000206000915090505481565b6000600560009054906101000a900473ffffffffffffffffffffffffffffffffffffffff1673ffffffffffffffffffffffffffffffffffffffff1662fdd58e33846003811115611f1f57fe5b86016040518363ffffffff1660e01b8152600401611f3e929190614764565b60206040518083038186803b158015611f5657600080fd5b505afa158015611f6a573d6000803e3d6000fd5b505050506040513d601f19601f82011682018060405250810190611f8e9190613f1f565b9050600460009054906101000a900473ffffffffffffffffffffffffffffffffffffffff1673ffffffffffffffffffffffffffffffffffffffff166337af0a2884338585600f60008a81526020019081526020016000206001015460106000600f60008d815260200190815260200160002060070154815260200190815260200160002054601160008c8152602001908152602001600020546040518863ffffffff1660e01b81526004016120499796959493929190614942565b600060405180830381600087803b15801561206357600080fd5b505af1158015612077573d6000803e3d6000fd5b50505050600560009054906101000a900473ffffffffffffffffffffffffffffffffffffffff1673ffffffffffffffffffffffffffffffffffffffff1663f5298aca338460038111156120c657fe5b8601846040518463ffffffff1660e01b81526004016120e79392919061478d565b600060405180830381600087803b15801561210157600080fd5b505af1158015612115573d6000803e3d6000fd5b50505050505050565b6121793373ffffffffffffffffffffffffffffffffffffffff16600960009054906101000a900473ffffffffffffffffffffffffffffffffffffffff1673ffffffffffffffffffffffffffffffffffffffff1614600d612c9b565b6000600e600084815260200190815260200160002090506121a1838260000154146001612c9b565b81600e600085815260200190815260200160002060030160006101000a81548160ff021916908315150217905550827fab7e756517bb425436c10403644a884802e0b2d5105f9f5386823b7c42ca5d5f836040516121ff9190614861565b60405180910390a2505050565b60606000600e60008481526020019081526020016000206004018054905067ffffffffffffffff8111801561224057600080fd5b5060405190808252806020026020018201604052801561226f5781602001602082028036833780820191505090505b50905060005b600e6000858152602001908152602001600020600401805490508110156122e757600e600085815260200190815260200160002060040181815481106122b757fe5b90600052602060002001548282815181106122ce57fe5b6020026020010181815250508080600101915050612275565b5080915050919050565b60106020528060005260406000206000915090505481565b6123643373ffffffffffffffffffffffffffffffffffffffff16600960009054906101000a900473ffffffffffffffffffffffffffffffffffffffff1673ffffffffffffffffffffffffffffffffffffffff1614600d612c9b565b6000600f600084815260200190815260200160002090506000600e6000836007015481526020019081526020016000206040518060a00160405290816000820154815260200160018201548152602001600282015481526020016003820160009054906101000a900460ff161515151581526020016004820180548060200260200160405190810160405280929190818152602001828054801561242757602002820191906000526020600020905b815481526020019060010190808311612413575b5050505050815250509050612450848360000154148015612449575081606001515b6003612c9b565b828260020181905550600360009054906101000a900473ffffffffffffffffffffffffffffffffffffffff1673ffffffffffffffffffffffffffffffffffffffff1663d6ef9be385856040518363ffffffff1660e01b81526004016124b6929190614a13565b600060405180830381600087803b1580156124d057600080fd5b505af11580156124e4573d6000803e3d6000fd5b50505050837f807f7e992c23befc534fdba4f8206693b5b6c4dd10b67620b355911654d0a957846040516125189190614927565b60405180910390a250505050565b60006125833373ffffffffffffffffffffffffffffffffffffffff16600960009054906101000a900473ffffffffffffffffffffffffffffffffffffffff1673ffffffffffffffffffffffffffffffffffffffff1614600d612c9b565b61259f82518451148015612598575060008451115b6004612c9b565b6125c1625c49006125b9428861355690919063ffffffff16565b106005612c9b565b600d54851115612677576125de6000600c80549050146006612c9b565b600160009054906101000a900473ffffffffffffffffffffffffffffffffffffffff1673ffffffffffffffffffffffffffffffffffffffff1663c3964372600d54876040518363ffffffff1660e01b815260040161263d929190614a13565b600060405180830381600087803b15801561265757600080fd5b505af115801561266b573d6000803e3d6000fd5b5050505084600d819055505b6000600b600081548092919060010191905055905080600e60008381526020019081526020016000206000018190555085600e60008381526020019081526020016000206001018190555084600e600083815260200190815260200160002060020181905550600c819080600181540180825580915050600190039060005260206000200160009091909190915055807f2eb8cef7f145b51f7d30c1ffc842e46161a2b1624415ce69192c99ec2106ad878787604051612738929190614a13565b60405180910390a260005b845181101561278b5761277d8286838151811061275c57fe5b602002602001015186848151811061277057fe5b6020026020010151612d00565b508080600101915050612743565b50600360009054906101000a900473ffffffffffffffffffffffffffffffffffffffff1673ffffffffffffffffffffffffffffffffffffffff16630d5766f7826040518263ffffffff1660e01b81526004016127e79190614927565b600060405180830381600087803b15801561280157600080fd5b505af1158015612815573d6000803e3d6000fd5b5050505080915050949350505050565b600960149054906101000a900460ff1615612875576040517f08c379a000000000000000000000000000000000000000000000000000000000815260040161286c9061489e565b60405180910390fd5b886000806101000a81548173ffffffffffffffffffffffffffffffffffffffff021916908373ffffffffffffffffffffffffffffffffffffffff16021790555087600160006101000a81548173ffffffffffffffffffffffffffffffffffffffff021916908373ffffffffffffffffffffffffffffffffffffffff16021790555086600260006101000a81548173ffffffffffffffffffffffffffffffffffffffff021916908373ffffffffffffffffffffffffffffffffffffffff16021790555085600360006101000a81548173ffffffffffffffffffffffffffffffffffffffff021916908373ffffffffffffffffffffffffffffffffffffffff16021790555084600460006101000a81548173ffffffffffffffffffffffffffffffffffffffff021916908373ffffffffffffffffffffffffffffffffffffffff16021790555083600560006101000a81548173ffffffffffffffffffffffffffffffffffffffff021916908373ffffffffffffffffffffffffffffffffffffffff16021790555082600660006101000a81548173ffffffffffffffffffffffffffffffffffffffff021916908373ffffffffffffffffffffffffffffffffffffffff16021790555081600760006101000a81548173ffffffffffffffffffffffffffffffffffffffff021916908373ffffffffffffffffffffffffffffffffffffffff160217905550600e80811115612a8857fe5b815114612aca576040517f08c379a0000000000000000000000000000000000000000000000000000000008152600401612ac1906148be565b60405180910390fd5b60005b8151811015612b1e57818181518110612ae257fe5b6020026020010151600860008381526020019081526020016000209080519060200190612b10929190613777565b508080600101915050612acd565b506001600960146101000a81548160ff021916908315150217905550505050505050505050565b612ba03373ffffffffffffffffffffffffffffffffffffffff16600960009054906101000a900473ffffffffffffffffffffffffffffffffffffffff1673ffffffffffffffffffffffffffffffffffffffff1614600d612c9b565b612bdb600073ffffffffffffffffffffffffffffffffffffffff168273ffffffffffffffffffffffffffffffffffffffff1614156000612c9b565b8073ffffffffffffffffffffffffffffffffffffffff16600960009054906101000a900473ffffffffffffffffffffffffffffffffffffffff1673ffffffffffffffffffffffffffffffffffffffff167f8be0079c531659141344cd1fd0a4f28419497f9722a3daafe3b4186f6b6457e060405160405180910390a380600960006101000a81548173ffffffffffffffffffffffffffffffffffffffff021916908373ffffffffffffffffffffffffffffffffffffffff16021790555050565b816008600083600e811115612cac57fe5b815260200190815260200160002090612cfb576040517f08c379a0000000000000000000000000000000000000000000000000000000008152600401612cf2919061487c565b60405180910390fd5b505050565b6000600a5490506004600a600082825401925050819055506040518061010001604052808281526020018481526020018381526020016000815260200160008152602001600081526020016000815260200185815250600f6000838152602001908152602001600020600082015181600001556020820151816001015560408201518160020155606082015181600301556080820151816004015560a0820151816005015560c0820151816006015560e08201518160070155905050600e600085815260200190815260200160002060040181908060018154018082558091505060019003906000526020600020016000909190919091505580847fb022fbd99a76d7d6d20bd5b22c69b0e8bd1b756764c76b117306d29bbc16e09d8585604051612e2c929190614a13565b60405180910390a39392505050565b60008060009054906101000a900473ffffffffffffffffffffffffffffffffffffffff1673ffffffffffffffffffffffffffffffffffffffff166305b7f2f63060026040518363ffffffff1660e01b8152600401612e9a9291906147ed565b60e06040518083038186803b158015612eb257600080fd5b505afa158015612ec6573d6000803e3d6000fd5b505050506040513d601f19601f82011682018060405250810190612eea9190613e52565b90506000806000806000856000015160106000896000015181526020019081526020016000208190555060005b8760800151518110156131bc576000600f60008a608001518481518110612f3a57fe5b6020026020010151815260200190815260200160002060405180610100016040529081600082015481526020016001820154815260200160028201548152602001600382015481526020016004820154815260200160058201548152602001600682015481526020016007820154815250509050612fc581606001518761334690919063ffffffff16565b9550612ff4612fe582602001518360a0015161352990919063ffffffff16565b8661334690919063ffffffff16565b945080602001518860000151111561310f5761303961302a82602001518a6000015103836060015161352990919063ffffffff16565b8861334690919063ffffffff16565b9650600061308d896000015161307f6130668c60c00151601260ff16600a0a61355690919063ffffffff16565b85602001518d60000151036135d990919063ffffffff16565b6135d990919063ffffffff16565b9050601260ff16600a0a8111156130a957601260ff16600a0a90505b6130d26130c383608001518361352990919063ffffffff16565b8661334690919063ffffffff16565b94506130ee81601260ff16600a0a61355690919063ffffffff16565b60116000846000015181526020019081526020016000208190555050613133565b601260ff16600a0a6011600083600001518152602001908152602001600020819055505b8060200151886000015110156131ae5761317661316789600001518360200151038360a0015161352990919063ffffffff16565b8861334690919063ffffffff16565b96506131ab61319c8260c001518a6000015184602001510361352990919063ffffffff16565b8461334690919063ffffffff16565b92505b508080600101915050612f17565b50600460009054906101000a900473ffffffffffffffffffffffffffffffffffffffff1673ffffffffffffffffffffffffffffffffffffffff1663226ec41583836040518363ffffffff1660e01b815260040161321a929190614a13565b600060405180830381600087803b15801561323457600080fd5b505af1158015613248573d6000803e3d6000fd5b50505050600160009054906101000a900473ffffffffffffffffffffffffffffffffffffffff1673ffffffffffffffffffffffffffffffffffffffff16633f6b50198487876040518463ffffffff1660e01b81526004016132ab93929190614a3c565b600060405180830381600087803b1580156132c557600080fd5b505af11580156132d9573d6000803e3d6000fd5b5050505086600001517f3f24fabf249b0bbc2acff84ed6a1b001961a11a3d32fc78ec28407708d3c238b8686868686604051613319959493929190614ab8565b60405180910390a250505050505050565b600061333e8383601260ff16600a0a61360f565b905092915050565b6000808284019050838110156133c4576040517f08c379a000000000000000000000000000000000000000000000000000000000815260040180806020018281038252601b8152602001807f536166654d6174683a206164646974696f6e206f766572666c6f77000000000081525060200191505060405180910390fd5b8091505092915050565b600080600080600260009054906101000a900473ffffffffffffffffffffffffffffffffffffffff1673ffffffffffffffffffffffffffffffffffffffff1663af579a118988888b600201546040518563ffffffff1660e01b815260040161343994939291906148de565b606060405180830381600087803b15801561345357600080fd5b505af1158015613467573d6000803e3d6000fd5b505050506040513d601f19601f8201168201806040525081019061348b919061412d565b92509250925080886002018190555081876002018190555086600001547f27dc10bc12529bac536af6dbf5d4b270673ac7aeb848c334e4038ef55ecce881836040516134d79190614927565b60405180910390a287600001547f807f7e992c23befc534fdba4f8206693b5b6c4dd10b67620b355911654d0a957826040516135139190614927565b60405180910390a2829350505050949350505050565b6000601260ff16600a0a613546838561366890919063ffffffff16565b8161354d57fe5b04905092915050565b6000828211156135ce576040517f08c379a000000000000000000000000000000000000000000000000000000000815260040180806020018281038252601e8152602001807f536166654d6174683a207375627472616374696f6e206f766572666c6f77000081525060200191505060405180910390fd5b818303905092915050565b6000613607826135f9601260ff16600a0a8661366890919063ffffffff16565b6136ee90919063ffffffff16565b905092915050565b600080600a838161361c57fe5b04613630858761366890919063ffffffff16565b8161363757fe5b0490506005600a828161364657fe5b061061365357600a810190505b600a818161365d57fe5b049150509392505050565b60008083141561367b57600090506136e8565b600082840290508284828161368c57fe5b04146136e3576040517f08c379a00000000000000000000000000000000000000000000000000000000081526004018080602001828103825260218152602001806150246021913960400191505060405180910390fd5b809150505b92915050565b6000808211613765576040517f08c379a000000000000000000000000000000000000000000000000000000000815260040180806020018281038252601a8152602001807f536166654d6174683a206469766973696f6e206279207a65726f00000000000081525060200191505060405180910390fd5b81838161376e57fe5b04905092915050565b828054600181600116156101000203166002900490600052602060002090601f0160209004810192826137ad57600085556137f4565b82601f106137c657805160ff19168380011785556137f4565b828001600101855582156137f4579182015b828111156137f35782518255916020019190600101906137d8565b5b5090506138019190613805565b5090565b5b8082111561381e576000816000905550600101613806565b5090565b600061383561383084614bba565b614b89565b9050808382526020820190508260005b85811015613875578135850161385b8882613ab8565b845260208401935060208301925050600181019050613845565b5050509392505050565b600061389261388d84614be6565b614b89565b905080838252602082019050828560208602820111156138b157600080fd5b60005b858110156138e157816138c78882613cf8565b8452602084019350602083019250506001810190506138b4565b5050509392505050565b60006138fe6138f984614c12565b614b89565b90508281526020810184848401111561391657600080fd5b613921848285614e71565b509392505050565b60008135905061393881614ed1565b92915050565b600082601f83011261394f57600080fd5b813561395f848260208601613822565b91505092915050565b600082601f83011261397957600080fd5b813561398984826020860161387f565b91505092915050565b6000813590506139a181614ee8565b92915050565b6000815190506139b681614ee8565b92915050565b6000815190506139cb81614eff565b92915050565b6000815190506139e081614f16565b92915050565b6000813590506139f581614f2d565b92915050565b600081359050613a0a81614f44565b92915050565b600081359050613a1f81614f5b565b92915050565b600081359050613a3481614f72565b92915050565b600081359050613a4981614f89565b92915050565b600081359050613a5e81614fa0565b92915050565b600081359050613a7381614fb7565b92915050565b600081519050613a8881614fce565b92915050565b600081359050613a9d81614fe5565b92915050565b600081519050613ab281614ff5565b92915050565b600082601f830112613ac957600080fd5b8135613ad98482602086016138eb565b91505092915050565b600060e08284031215613af457600080fd5b613afe60e0614b89565b90506000613b0e84828501613d0d565b6000830152506020613b22848285016139bc565b6020830152506040613b36848285016139bc565b6040830152506060613b4a84828501613a79565b6060830152506080613b5e848285016139d1565b60808301525060a0613b7284828501613d0d565b60a08301525060c0613b8684828501613d0d565b60c08301525092915050565b600060808284031215613ba457600080fd5b613bae6080614b89565b90506000613bbe84828501613d0d565b6000830152506020613bd284828501613d0d565b6020830152506040613be684828501613d0d565b6040830152506060613bfa84828501613d0d565b60608301525092915050565b60006101408284031215613c1957600080fd5b613c24610140614b89565b90506000613c3484828501613d0d565b6000830152506020613c4884828501613d0d565b6020830152506040613c5c84828501613d0d565b6040830152506060613c7084828501613d0d565b6060830152506080613c8484828501613d0d565b60808301525060a0613c9884828501613d0d565b60a08301525060c0613cac84828501613aa3565b60c08301525060e0613cc084828501613aa3565b60e083015250610100613cd584828501613d0d565b61010083015250610120613ceb84828501613d0d565b6101208301525092915050565b600081359050613d078161500c565b92915050565b600081519050613d1c8161500c565b92915050565b600060208284031215613d3457600080fd5b6000613d4284828501613929565b91505092915050565b600060208284031215613d5d57600080fd5b6000613d6b848285016139a7565b91505092915050565b60008060008060008060008060006101208a8c031215613d9357600080fd5b6000613da18c828d01613a10565b9950506020613db28c828d016139fb565b9850506040613dc38c828d01613a3a565b9750506060613dd48c828d01613a25565b9650506080613de58c828d01613a64565b95505060a0613df68c828d01613a4f565b94505060c0613e078c828d016139e6565b93505060e0613e188c828d016139e6565b9250506101008a013567ffffffffffffffff811115613e3657600080fd5b613e428c828d0161393e565b9150509295985092959850929598565b600060e08284031215613e6457600080fd5b6000613e7284828501613ae2565b91505092915050565b600060808284031215613e8d57600080fd5b6000613e9b84828501613b92565b91505092915050565b60008060006102408486031215613eba57600080fd5b6000613ec886828701613c06565b935050610140613eda86828701613ae2565b925050610220613eec86828701613d0d565b9150509250925092565b600060208284031215613f0857600080fd5b6000613f1684828501613cf8565b91505092915050565b600060208284031215613f3157600080fd5b6000613f3f84828501613d0d565b91505092915050565b60008060408385031215613f5b57600080fd5b6000613f6985828601613cf8565b9250506020613f7a85828601613992565b9150509250929050565b60008060408385031215613f9757600080fd5b6000613fa585828601613cf8565b9250506020613fb685828601613a8e565b9150509250929050565b600080600060608486031215613fd557600080fd5b6000613fe386828701613cf8565b9350506020613ff486828701613a8e565b925050604061400586828701613cf8565b9150509250925092565b6000806040838503121561402257600080fd5b600061403085828601613cf8565b925050602061404185828601613cf8565b9150509250929050565b6000806000806080858703121561406157600080fd5b600061406f87828801613cf8565b945050602061408087828801613cf8565b935050604085013567ffffffffffffffff81111561409d57600080fd5b6140a987828801613968565b925050606085013567ffffffffffffffff8111156140c657600080fd5b6140d287828801613968565b91505092959194509250565b6000806000606084860312156140f357600080fd5b600061410186828701613cf8565b935050602061411286828701613cf8565b925050604061412386828701613cf8565b9150509250925092565b60008060006060848603121561414257600080fd5b600061415086828701613d0d565b935050602061416186828701613d0d565b925050604061417286828701613d0d565b9150509250925092565b6000614188838361470f565b60208301905092915050565b61419d81614dcf565b82525050565b6141ac81614cab565b82525050565b60006141bd82614c67565b6141c78185614c7f565b93506141d283614c42565b8060005b838110156142035781516141ea888261417c565b97506141f583614c72565b9250506001810190506141d6565b5085935050505092915050565b61421981614cbd565b82525050565b61422881614cbd565b82525050565b61423781614cc9565b82525050565b61424681614de1565b82525050565b61425581614de1565b82525050565b61426481614e05565b82525050565b61427381614e29565b82525050565b61428281614e3b565b82525050565b61429181614d9b565b82525050565b6000815460018116600081146142b457600181146142da5761431e565b607f60028304166142c58187614c90565b955060ff19831686526020860193505061431e565b600282046142e88187614c90565b95506142f385614c52565b60005b82811015614315578154818901526001820191506020810190506142f6565b80880195505050505b505092915050565b6000614333601383614c90565b91507f616c726561647920696e697469616c697a6564000000000000000000000000006000830152602082019050919050565b6000614373600f83614c90565b91507f6572726f72206d736720636f756e7400000000000000000000000000000000006000830152602082019050919050565b60e0820160008201516143bc600085018261470f565b5060208201516143cf602085018261422e565b5060408201516143e2604085018261422e565b5060608201516143f5606085018261425b565b506080820151614408608085018261423d565b5060a082015161441b60a085018261470f565b5060c082015161442e60c085018261470f565b50505050565b60808201600082015161444a600085018261470f565b50602082015161445d602085018261470f565b506040820151614470604085018261470f565b506060820151614483606085018261470f565b50505050565b60808201600082015161449f600085018261470f565b5060208201516144b2602085018261470f565b5060408201516144c5604085018261470f565b5060608201516144d8606085018261470f565b50505050565b610100820160008083015490506144f481614e80565b614501600086018261470f565b506001830154905061451281614e80565b61451f602086018261470f565b506002830154905061453081614e80565b61453d604086018261470f565b506003830154905061454e81614e80565b61455b606086018261470f565b506004830154905061456c81614e80565b614579608086018261470f565b506005830154905061458a81614e80565b61459760a086018261470f565b50600683015490506145a881614e80565b6145b560c086018261470f565b50600783015490506145c681614e80565b6145d360e086018261470f565b5050505050565b610140820160008201516145f1600085018261470f565b506020820151614604602085018261470f565b506040820151614617604085018261470f565b50606082015161462a606085018261470f565b50608082015161463d608085018261470f565b5060a082015161465060a085018261470f565b5060c082015161466360c0850182614288565b5060e082015161467660e0850182614288565b5061010082015161468b61010085018261470f565b506101208201516146a061012085018261470f565b50505050565b610100820160008201516146bd6000850182614210565b5060208201516146d0602085018261470f565b5060408201516146e3604085018261470f565b5060608201516146f6606085018261470f565b5060808201516147096080850182614434565b50505050565b61471881614dc5565b82525050565b61472781614dc5565b82525050565b60006060820190506147426000830186614194565b61474f60208301856141a3565b61475c604083018461471e565b949350505050565b60006040820190506147796000830185614194565b614786602083018461471e565b9392505050565b60006060820190506147a26000830186614194565b6147af602083018561471e565b6147bc604083018461471e565b949350505050565b60006040820190506147d960008301856141a3565b6147e6602083018461421f565b9392505050565b600060408201905061480260008301856141a3565b61480f602083018461426a565b9392505050565b600060408201905061482b60008301856141a3565b614838602083018461471e565b9392505050565b6000602082019050818103600083015261485981846141b2565b905092915050565b6000602082019050614876600083018461421f565b92915050565b600060208201905081810360008301526148968184614297565b905092915050565b600060208201905081810360008301526148b781614326565b9050919050565b600060208201905081810360008301526148d781614366565b9050919050565b6000610360820190506148f460008301876144de565b6149026101008301866146a6565b6149106102008301856145da565b61491e61034083018461471e565b95945050505050565b600060208201905061493c600083018461471e565b92915050565b600060e082019050614957600083018a61471e565b6149646020830189614194565b6149716040830188614279565b61497e606083018761471e565b61498b608083018661471e565b61499860a083018561471e565b6149a560c083018461471e565b98975050505050505050565b60006040820190506149c6600083018561471e565b6149d3602083018461424c565b9392505050565b6000610180820190506149f0600083018661471e565b6149fd60208301856143a6565b614a0b610100830184614489565b949350505050565b6000604082019050614a28600083018561471e565b614a35602083018461471e565b9392505050565b6000606082019050614a51600083018661471e565b614a5e602083018561471e565b614a6b604083018461471e565b949350505050565b6000608082019050614a88600083018761471e565b614a95602083018661471e565b614aa2604083018561471e565b614aaf606083018461421f565b95945050505050565b600060a082019050614acd600083018861471e565b614ada602083018761471e565b614ae7604083018661471e565b614af4606083018561471e565b614b01608083018461471e565b9695505050505050565b600061010082019050614b21600083018b61471e565b614b2e602083018a61471e565b614b3b604083018961471e565b614b48606083018861471e565b614b55608083018761471e565b614b6260a083018661471e565b614b6f60c083018561471e565b614b7c60e083018461471e565b9998505050505050505050565b6000604051905081810181811067ffffffffffffffff82111715614bb057614baf614e9a565b5b8060405250919050565b600067ffffffffffffffff821115614bd557614bd4614e9a565b5b602082029050602081019050919050565b600067ffffffffffffffff821115614c0157614c00614e9a565b5b602082029050602081019050919050565b600067ffffffffffffffff821115614c2d57614c2c614e9a565b5b601f19601f8301169050602081019050919050565b6000819050602082019050919050565b60008190508160005260206000209050919050565b600081519050919050565b6000602082019050919050565b600082825260208201905092915050565b600082825260208201905092915050565b6000819050919050565b6000614cb682614da5565b9050919050565b60008115159050919050565b6000819050919050565b6000614cde82614cab565b9050919050565b6000614cf082614cab565b9050919050565b6000614d0282614cab565b9050919050565b6000614d1482614cab565b9050919050565b6000614d2682614cab565b9050919050565b6000614d3882614cab565b9050919050565b6000614d4a82614cab565b9050919050565b6000614d5c82614cab565b9050919050565b6000614d6e82614cab565b9050919050565b6000819050614d8382614ea9565b919050565b6000819050614d9682614ebd565b919050565b6000819050919050565b600073ffffffffffffffffffffffffffffffffffffffff82169050919050565b6000819050919050565b6000614dda82614e4d565b9050919050565b6000614dec82614df3565b9050919050565b6000614dfe82614da5565b9050919050565b6000614e1082614e17565b9050919050565b6000614e2282614da5565b9050919050565b6000614e3482614d75565b9050919050565b6000614e4682614d88565b9050919050565b6000614e5882614e5f565b9050919050565b6000614e6a82614da5565b9050919050565b82818337600083830152505050565b6000614e93614e8e83614e9c565b614ca1565b9050919050565bfe5b60008160001c9050919050565b60038110614eba57614eb9614e9a565b5b50565b60048110614ece57614ecd614e9a565b5b50565b614eda81614cab565b8114614ee557600080fd5b50565b614ef181614cbd565b8114614efc57600080fd5b50565b614f0881614cc9565b8114614f1357600080fd5b50565b614f1f81614cd3565b8114614f2a57600080fd5b50565b614f3681614ce5565b8114614f4157600080fd5b50565b614f4d81614cf7565b8114614f5857600080fd5b50565b614f6481614d09565b8114614f6f57600080fd5b50565b614f7b81614d1b565b8114614f8657600080fd5b50565b614f9281614d2d565b8114614f9d57600080fd5b50565b614fa981614d3f565b8114614fb457600080fd5b50565b614fc081614d51565b8114614fcb57600080fd5b50565b614fd781614d63565b8114614fe257600080fd5b50565b60048110614ff257600080fd5b50565b614ffe81614d9b565b811461500957600080fd5b50565b61501581614dc5565b811461502057600080fd5b5056fe536166654d6174683a206d756c7469706c69636174696f6e206f766572666c6f77a264697066735822122025cb595d612b5cbe13cf48f8a36c92b410f3ba316734ab31b5332ff4aa39086464736f6c63430007060033",
  "linkReferences": {},
  "deployedLinkReferences": {}
}