{
  "_format": "hh-sol-artifact-1",
  "contractName": "OptionMarketPricer",
  "sourceName": "contracts/OptionMarketPricer.sol",
  "abi": [
    {
      "inputs": [],
      "stateMutability": "nonpayable",
      "type": "constructor"
    },
    {
      "inputs": [
        {
          "components": [
            {
              "internalType": "uint256",
              "name": "optionPriceFeeCoefficient",
              "type": "uint256"
            },
            {
              "internalType": "uint256",
              "name": "spotPriceFeeCoefficient",
              "type": "uint256"
            },
            {
              "internalType": "uint256",
              "name": "vegaFeeCoefficient",
              "type": "uint256"
            },
            {
              "internalType": "uint256",
              "name": "vegaNormFactor",
              "type": "uint256"
            },
            {
              "internalType": "uint256",
              "name": "standardSize",
              "type": "uint256"
            },
            {
              "internalType": "uint256",
              "name": "skewAdjustmentFactor",
              "type": "uint256"
            },
            {
              "internalType": "int256",
              "name": "rateAndCarry",
              "type": "int256"
            },
            {
              "internalType": "int256",
              "name": "minDelta",
              "type": "int256"
            },
            {
              "internalType": "uint256",
              "name": "volatilityCutoff",
              "type": "uint256"
            },
            {
              "internalType": "uint256",
              "name": "spotPrice",
              "type": "uint256"
            }
          ],
          "internalType": "struct ILyraGlobals.PricingGlobals",
          "name": "pricingGlobals",
          "type": "tuple"
        },
        {
          "internalType": "uint256",
          "name": "amount",
          "type": "uint256"
        },
        {
          "internalType": "uint256",
          "name": "optionPrice",
          "type": "uint256"
        },
        {
          "internalType": "uint256",
          "name": "vegaUtil",
          "type": "uint256"
        }
      ],
      "name": "getFee",
      "outputs": [
        {
          "internalType": "uint256",
          "name": "fee",
          "type": "uint256"
        }
      ],
      "stateMutability": "pure",
      "type": "function"
    },
    {
      "inputs": [
        {
          "components": [
            {
              "internalType": "bool",
              "name": "isBuy",
              "type": "bool"
            },
            {
              "internalType": "uint256",
              "name": "amount",
              "type": "uint256"
            },
            {
              "internalType": "uint256",
              "name": "vol",
              "type": "uint256"
            },
            {
              "internalType": "uint256",
              "name": "expiry",
              "type": "uint256"
            },
            {
              "components": [
                {
                  "internalType": "uint256",
                  "name": "freeCollatLiquidity",
                  "type": "uint256"
                },
                {
                  "internalType": "uint256",
                  "name": "usedCollatLiquidity",
                  "type": "uint256"
                },
                {
                  "internalType": "uint256",
                  "name": "freeDeltaLiquidity",
                  "type": "uint256"
                },
                {
                  "internalType": "uint256",
                  "name": "usedDeltaLiquidity",
                  "type": "uint256"
                }
              ],
              "internalType": "struct ILiquidityPool.Liquidity",
              "name": "liquidity",
              "type": "tuple"
            }
          ],
          "internalType": "struct IOptionMarket.Trade",
          "name": "trade",
          "type": "tuple"
        },
        {
          "components": [
            {
              "internalType": "uint256",
              "name": "optionPrice",
              "type": "uint256"
            },
            {
              "internalType": "int256",
              "name": "preTradeAmmNetStdVega",
              "type": "int256"
            },
            {
              "internalType": "int256",
              "name": "postTradeAmmNetStdVega",
              "type": "int256"
            },
            {
              "internalType": "int256",
              "name": "callDelta",
              "type": "int256"
            }
          ],
          "internalType": "struct IOptionMarketPricer.Pricing",
          "name": "pricing",
          "type": "tuple"
        },
        {
          "components": [
            {
              "internalType": "uint256",
              "name": "optionPriceFeeCoefficient",
              "type": "uint256"
            },
            {
              "internalType": "uint256",
              "name": "spotPriceFeeCoefficient",
              "type": "uint256"
            },
            {
              "internalType": "uint256",
              "name": "vegaFeeCoefficient",
              "type": "uint256"
            },
            {
              "internalType": "uint256",
              "name": "vegaNormFactor",
              "type": "uint256"
            },
            {
              "internalType": "uint256",
              "name": "standardSize",
              "type": "uint256"
            },
            {
              "internalType": "uint256",
              "name": "skewAdjustmentFactor",
              "type": "uint256"
            },
            {
              "internalType": "int256",
              "name": "rateAndCarry",
              "type": "int256"
            },
            {
              "internalType": "int256",
              "name": "minDelta",
              "type": "int256"
            },
            {
              "internalType": "uint256",
              "name": "volatilityCutoff",
              "type": "uint256"
            },
            {
              "internalType": "uint256",
              "name": "spotPrice",
              "type": "uint256"
            }
          ],
          "internalType": "struct ILyraGlobals.PricingGlobals",
          "name": "pricingGlobals",
          "type": "tuple"
        }
      ],
      "name": "getPremium",
      "outputs": [
        {
          "internalType": "uint256",
          "name": "premium",
          "type": "uint256"
        }
      ],
      "stateMutability": "pure",
      "type": "function"
    },
    {
      "inputs": [
        {
          "components": [
            {
              "internalType": "bool",
              "name": "isBuy",
              "type": "bool"
            },
            {
              "internalType": "uint256",
              "name": "amount",
              "type": "uint256"
            },
            {
              "internalType": "uint256",
              "name": "vol",
              "type": "uint256"
            },
            {
              "internalType": "uint256",
              "name": "expiry",
              "type": "uint256"
            },
            {
              "components": [
                {
                  "internalType": "uint256",
                  "name": "freeCollatLiquidity",
                  "type": "uint256"
                },
                {
                  "internalType": "uint256",
                  "name": "usedCollatLiquidity",
                  "type": "uint256"
                },
                {
                  "internalType": "uint256",
                  "name": "freeDeltaLiquidity",
                  "type": "uint256"
                },
                {
                  "internalType": "uint256",
                  "name": "usedDeltaLiquidity",
                  "type": "uint256"
                }
              ],
              "internalType": "struct ILiquidityPool.Liquidity",
              "name": "liquidity",
              "type": "tuple"
            }
          ],
          "internalType": "struct IOptionMarket.Trade",
          "name": "trade",
          "type": "tuple"
        },
        {
          "components": [
            {
              "internalType": "uint256",
              "name": "optionPrice",
              "type": "uint256"
            },
            {
              "internalType": "int256",
              "name": "preTradeAmmNetStdVega",
              "type": "int256"
            },
            {
              "internalType": "int256",
              "name": "postTradeAmmNetStdVega",
              "type": "int256"
            },
            {
              "internalType": "int256",
              "name": "callDelta",
              "type": "int256"
            }
          ],
          "internalType": "struct IOptionMarketPricer.Pricing",
          "name": "pricing",
          "type": "tuple"
        },
        {
          "components": [
            {
              "internalType": "uint256",
              "name": "optionPriceFeeCoefficient",
              "type": "uint256"
            },
            {
              "internalType": "uint256",
              "name": "spotPriceFeeCoefficient",
              "type": "uint256"
            },
            {
              "internalType": "uint256",
              "name": "vegaFeeCoefficient",
              "type": "uint256"
            },
            {
              "internalType": "uint256",
              "name": "vegaNormFactor",
              "type": "uint256"
            },
            {
              "internalType": "uint256",
              "name": "standardSize",
              "type": "uint256"
            },
            {
              "internalType": "uint256",
              "name": "skewAdjustmentFactor",
              "type": "uint256"
            },
            {
              "internalType": "int256",
              "name": "rateAndCarry",
              "type": "int256"
            },
            {
              "internalType": "int256",
              "name": "minDelta",
              "type": "int256"
            },
            {
              "internalType": "uint256",
              "name": "volatilityCutoff",
              "type": "uint256"
            },
            {
              "internalType": "uint256",
              "name": "spotPrice",
              "type": "uint256"
            }
          ],
          "internalType": "struct ILyraGlobals.PricingGlobals",
          "name": "pricingGlobals",
          "type": "tuple"
        }
      ],
      "name": "getVegaUtil",
      "outputs": [
        {
          "internalType": "uint256",
          "name": "vegaUtil",
          "type": "uint256"
        }
      ],
      "stateMutability": "pure",
      "type": "function"
    },
    {
      "inputs": [
        {
          "internalType": "address",
          "name": "_optionMarket",
          "type": "address"
        },
        {
          "internalType": "contract IOptionGreekCache",
          "name": "_greekCache",
          "type": "address"
        }
      ],
      "name": "init",
      "outputs": [],
      "stateMutability": "nonpayable",
      "type": "function"
    },
    {
      "inputs": [
        {
          "components": [
            {
              "internalType": "uint256",
              "name": "id",
              "type": "uint256"
            },
            {
              "internalType": "uint256",
              "name": "strike",
              "type": "uint256"
            },
            {
              "internalType": "uint256",
              "name": "skew",
              "type": "uint256"
            },
            {
              "internalType": "uint256",
              "name": "longCall",
              "type": "uint256"
            },
            {
              "internalType": "uint256",
              "name": "shortCall",
              "type": "uint256"
            },
            {
              "internalType": "uint256",
              "name": "longPut",
              "type": "uint256"
            },
            {
              "internalType": "uint256",
              "name": "shortPut",
              "type": "uint256"
            },
            {
              "internalType": "uint256",
              "name": "boardId",
              "type": "uint256"
            }
          ],
          "internalType": "struct IOptionMarket.OptionListing",
          "name": "listing",
          "type": "tuple"
        },
        {
          "components": [
            {
              "internalType": "bool",
              "name": "isBuy",
              "type": "bool"
            },
            {
              "internalType": "uint256",
              "name": "amount",
              "type": "uint256"
            },
            {
              "internalType": "uint256",
              "name": "vol",
              "type": "uint256"
            },
            {
              "internalType": "uint256",
              "name": "expiry",
              "type": "uint256"
            },
            {
              "components": [
                {
                  "internalType": "uint256",
                  "name": "freeCollatLiquidity",
                  "type": "uint256"
                },
                {
                  "internalType": "uint256",
                  "name": "usedCollatLiquidity",
                  "type": "uint256"
                },
                {
                  "internalType": "uint256",
                  "name": "freeDeltaLiquidity",
                  "type": "uint256"
                },
                {
                  "internalType": "uint256",
                  "name": "usedDeltaLiquidity",
                  "type": "uint256"
                }
              ],
              "internalType": "struct ILiquidityPool.Liquidity",
              "name": "liquidity",
              "type": "tuple"
            }
          ],
          "internalType": "struct IOptionMarket.Trade",
          "name": "trade",
          "type": "tuple"
        },
        {
          "components": [
            {
              "internalType": "uint256",
              "name": "optionPriceFeeCoefficient",
              "type": "uint256"
            },
            {
              "internalType": "uint256",
              "name": "spotPriceFeeCoefficient",
              "type": "uint256"
            },
            {
              "internalType": "uint256",
              "name": "vegaFeeCoefficient",
              "type": "uint256"
            },
            {
              "internalType": "uint256",
              "name": "vegaNormFactor",
              "type": "uint256"
            },
            {
              "internalType": "uint256",
              "name": "standardSize",
              "type": "uint256"
            },
            {
              "internalType": "uint256",
              "name": "skewAdjustmentFactor",
              "type": "uint256"
            },
            {
              "internalType": "int256",
              "name": "rateAndCarry",
              "type": "int256"
            },
            {
              "internalType": "int256",
              "name": "minDelta",
              "type": "int256"
            },
            {
              "internalType": "uint256",
              "name": "volatilityCutoff",
              "type": "uint256"
            },
            {
              "internalType": "uint256",
              "name": "spotPrice",
              "type": "uint256"
            }
          ],
          "internalType": "struct ILyraGlobals.PricingGlobals",
          "name": "pricingGlobals",
          "type": "tuple"
        },
        {
          "internalType": "uint256",
          "name": "boardBaseIv",
          "type": "uint256"
        }
      ],
      "name": "ivImpactForTrade",
      "outputs": [
        {
          "internalType": "uint256",
          "name": "",
          "type": "uint256"
        },
        {
          "internalType": "uint256",
          "name": "",
          "type": "uint256"
        }
      ],
      "stateMutability": "pure",
      "type": "function"
    },
    {
      "inputs": [
        {
          "components": [
            {
              "internalType": "uint256",
              "name": "id",
              "type": "uint256"
            },
            {
              "internalType": "uint256",
              "name": "strike",
              "type": "uint256"
            },
            {
              "internalType": "uint256",
              "name": "skew",
              "type": "uint256"
            },
            {
              "internalType": "uint256",
              "name": "longCall",
              "type": "uint256"
            },
            {
              "internalType": "uint256",
              "name": "shortCall",
              "type": "uint256"
            },
            {
              "internalType": "uint256",
              "name": "longPut",
              "type": "uint256"
            },
            {
              "internalType": "uint256",
              "name": "shortPut",
              "type": "uint256"
            },
            {
              "internalType": "uint256",
              "name": "boardId",
              "type": "uint256"
            }
          ],
          "internalType": "struct IOptionMarket.OptionListing",
          "name": "listing",
          "type": "tuple"
        },
        {
          "components": [
            {
              "internalType": "bool",
              "name": "isBuy",
              "type": "bool"
            },
            {
              "internalType": "uint256",
              "name": "amount",
              "type": "uint256"
            },
            {
              "internalType": "uint256",
              "name": "vol",
              "type": "uint256"
            },
            {
              "internalType": "uint256",
              "name": "expiry",
              "type": "uint256"
            },
            {
              "components": [
                {
                  "internalType": "uint256",
                  "name": "freeCollatLiquidity",
                  "type": "uint256"
                },
                {
                  "internalType": "uint256",
                  "name": "usedCollatLiquidity",
                  "type": "uint256"
                },
                {
                  "internalType": "uint256",
                  "name": "freeDeltaLiquidity",
                  "type": "uint256"
                },
                {
                  "internalType": "uint256",
                  "name": "usedDeltaLiquidity",
                  "type": "uint256"
                }
              ],
              "internalType": "struct ILiquidityPool.Liquidity",
              "name": "liquidity",
              "type": "tuple"
            }
          ],
          "internalType": "struct IOptionMarket.Trade",
          "name": "trade",
          "type": "tuple"
        },
        {
          "components": [
            {
              "internalType": "uint256",
              "name": "optionPriceFeeCoefficient",
              "type": "uint256"
            },
            {
              "internalType": "uint256",
              "name": "spotPriceFeeCoefficient",
              "type": "uint256"
            },
            {
              "internalType": "uint256",
              "name": "vegaFeeCoefficient",
              "type": "uint256"
            },
            {
              "internalType": "uint256",
              "name": "vegaNormFactor",
              "type": "uint256"
            },
            {
              "internalType": "uint256",
              "name": "standardSize",
              "type": "uint256"
            },
            {
              "internalType": "uint256",
              "name": "skewAdjustmentFactor",
              "type": "uint256"
            },
            {
              "internalType": "int256",
              "name": "rateAndCarry",
              "type": "int256"
            },
            {
              "internalType": "int256",
              "name": "minDelta",
              "type": "int256"
            },
            {
              "internalType": "uint256",
              "name": "volatilityCutoff",
              "type": "uint256"
            },
            {
              "internalType": "uint256",
              "name": "spotPrice",
              "type": "uint256"
            }
          ],
          "internalType": "struct ILyraGlobals.PricingGlobals",
          "name": "pricingGlobals",
          "type": "tuple"
        },
        {
          "internalType": "uint256",
          "name": "boardBaseIv",
          "type": "uint256"
        }
      ],
      "name": "updateCacheAndGetTotalCost",
      "outputs": [
        {
          "internalType": "uint256",
          "name": "totalCost",
          "type": "uint256"
        },
        {
          "internalType": "uint256",
          "name": "newBaseIv",
          "type": "uint256"
        },
        {
          "internalType": "uint256",
          "name": "newSkew",
          "type": "uint256"
        }
      ],
      "stateMutability": "nonpayable",
      "type": "function"
    }
  ],
  "bytecode": "0x60806040526000600160146101000a81548160ff02191690831515021790555034801561002b57600080fd5b506115468061003b6000396000f3fe608060405234801561001057600080fd5b50600436106100625760003560e01c80633209721014610067578063af579a1114610097578063c29f78ff146100c9578063ce11df41146100fa578063e52ef65b1461012a578063f09a40161461015a575b600080fd5b610081600480360381019061007c9190611007565b610176565b60405161008e9190611335565b60405180910390f35b6100b160048036038101906100ac9190610fa0565b610200565b6040516100c093929190611379565b60405180910390f35b6100e360048036038101906100de9190610fa0565b6104b0565b6040516100f1929190611350565b60405180910390f35b610114600480360381019061010f9190611097565b610577565b6040516101219190611335565b60405180910390f35b610144600480360381019061013f9190611097565b610601565b6040516101519190611335565b60405180910390f35b610174600480360381019061016f9190610f64565b61071f565b005b60006101f6846101e861019685896040015161080e90919063ffffffff16565b6101da6101b58a61012001518b6020015161080e90919063ffffffff16565b6101cc898c6000015161080e90919063ffffffff16565b61083b90919063ffffffff16565b61083b90919063ffffffff16565b61080e90919063ffffffff16565b9050949350505050565b60008060008060009054906101000a900473ffffffffffffffffffffffffffffffffffffffff1673ffffffffffffffffffffffffffffffffffffffff163373ffffffffffffffffffffffffffffffffffffffff1614610294576040517f08c379a000000000000000000000000000000000000000000000000000000000815260040161028b90611274565b60405180910390fd5b6102a0878787876104b0565b80925081935050506102bb818361080e90919063ffffffff16565b86604001818152505084610100015186604001511015610310576040517f08c379a000000000000000000000000000000000000000000000000000000000815260040161030790611294565b60405180910390fd5b6000600160009054906101000a900473ffffffffffffffffffffffffffffffffffffffff1673ffffffffffffffffffffffffffffffffffffffff1663a6eaf84460405180604001604052808960c0015181526020018961012001518152508a6000015161038e8c608001518d606001516108c390919063ffffffff16565b6103a98d60c001518e60a001516108c390919063ffffffff16565b88886040518763ffffffff1660e01b81526004016103cc969594939291906112d4565b608060405180830381600087803b1580156103e657600080fd5b505af11580156103fa573d6000803e3d6000fd5b505050506040513d601f19601f8201168201806040525081019061041e919061106e565b90508560e0015181606001511215801561045957506104518660e00151601260ff16600a0a6108c390919063ffffffff16565b816060015113155b610498576040517f08c379a000000000000000000000000000000000000000000000000000000000815260040161048f906112b4565b60405180910390fd5b6104a3878288610577565b9350509450945094915050565b60008060006104d08560800151876020015161095190919063ffffffff16565b90506000606482816104de57fe5b04905060006104fa8760a001518361080e90919063ffffffff16565b905087600001511561053c57610519828761083b90919063ffffffff16565b610530828b6040015161083b90919063ffffffff16565b9450945050505061056e565b61054f828761098790919063ffffffff16565b610566828b6040015161098790919063ffffffff16565b945094505050505b94509492505050565b600080610585858585610601565b9050600061059d848760200151876000015185610176565b90506105ba8660200151866000015161080e90919063ffffffff16565b92508560000151156105e0576105d9818461083b90919063ffffffff16565b92506105f8565b828111156105f157600092506105f7565b80830392505b5b50509392505050565b60006106108360400151610a0a565b61061d8460200151610a0a565b1061062b5760009050610718565b6000610669836060015161065b6106458760400151610a0a565b886040015160640261080e90919063ffffffff16565b61080e90919063ffffffff16565b9050600061069086608001516000015187608001516020015161083b90919063ffffffff16565b9050600086600001516106cf576106ca6106bb8760000151896020015161080e90919063ffffffff16565b8361098790919063ffffffff16565b6106fd565b6106fc6106ed8760000151896020015161080e90919063ffffffff16565b8361083b90919063ffffffff16565b5b9050610712818461095190919063ffffffff16565b93505050505b9392505050565b600160149054906101000a900460ff161561076f576040517f08c379a000000000000000000000000000000000000000000000000000000000815260040161076690611254565b60405180910390fd5b816000806101000a81548173ffffffffffffffffffffffffffffffffffffffff021916908373ffffffffffffffffffffffffffffffffffffffff16021790555080600160006101000a81548173ffffffffffffffffffffffffffffffffffffffff021916908373ffffffffffffffffffffffffffffffffffffffff16021790555060018060146101000a81548160ff0219169083151502179055505050565b6000601260ff16600a0a61082b8385610a2590919063ffffffff16565b8161083257fe5b04905092915050565b6000808284019050838110156108b9576040517f08c379a000000000000000000000000000000000000000000000000000000000815260040180806020018281038252601b8152602001807f536166654d6174683a206164646974696f6e206f766572666c6f77000000000081525060200191505060405180910390fd5b8091505092915050565b6000808284039050600083121580156108dc5750838113155b806108f257506000831280156108f157508381135b5b610947576040517f08c379a00000000000000000000000000000000000000000000000000000000081526004018080602001828103825260248152602001806114ed6024913960400191505060405180910390fd5b8091505092915050565b600061097f82610971601260ff16600a0a86610a2590919063ffffffff16565b610aab90919063ffffffff16565b905092915050565b6000828211156109ff576040517f08c379a000000000000000000000000000000000000000000000000000000000815260040180806020018281038252601e8152602001807f536166654d6174683a207375627472616374696f6e206f766572666c6f77000081525060200191505060405180910390fd5b818303905092915050565b6000808213610a1c5781600003610a1e565b815b9050919050565b600080831415610a385760009050610aa5565b6000828402905082848281610a4957fe5b0414610aa0576040517f08c379a00000000000000000000000000000000000000000000000000000000081526004018080602001828103825260218152602001806114cc6021913960400191505060405180910390fd5b809150505b92915050565b6000808211610b22576040517f08c379a000000000000000000000000000000000000000000000000000000000815260040180806020018281038252601a8152602001807f536166654d6174683a206469766973696f6e206279207a65726f00000000000081525060200191505060405180910390fd5b818381610b2b57fe5b04905092915050565b600081359050610b4381611458565b92915050565b600081359050610b588161146f565b92915050565b600081359050610b6d81611486565b92915050565b600081359050610b828161149d565b92915050565b600081519050610b978161149d565b92915050565b600060808284031215610baf57600080fd5b610bb960806113b0565b90506000610bc984828501610f3a565b6000830152506020610bdd84828501610f3a565b6020830152506040610bf184828501610f3a565b6040830152506060610c0584828501610f3a565b60608301525092915050565b60006101008284031215610c2457600080fd5b610c2f6101006113b0565b90506000610c3f84828501610f3a565b6000830152506020610c5384828501610f3a565b6020830152506040610c6784828501610f3a565b6040830152506060610c7b84828501610f3a565b6060830152506080610c8f84828501610f3a565b60808301525060a0610ca384828501610f3a565b60a08301525060c0610cb784828501610f3a565b60c08301525060e0610ccb84828501610f3a565b60e08301525092915050565b60006101408284031215610cea57600080fd5b610cf56101406113b0565b90506000610d0584828501610f3a565b6000830152506020610d1984828501610f3a565b6020830152506040610d2d84828501610f3a565b6040830152506060610d4184828501610f3a565b6060830152506080610d5584828501610f3a565b60808301525060a0610d6984828501610f3a565b60a08301525060c0610d7d84828501610b73565b60c08301525060e0610d9184828501610b73565b60e083015250610100610da684828501610f3a565b61010083015250610120610dbc84828501610f3a565b6101208301525092915050565b600060808284031215610ddb57600080fd5b610de560806113b0565b90506000610df584828501610f3a565b6000830152506020610e0984828501610b73565b6020830152506040610e1d84828501610b73565b6040830152506060610e3184828501610b73565b60608301525092915050565b600060808284031215610e4f57600080fd5b610e5960806113b0565b90506000610e6984828501610f4f565b6000830152506020610e7d84828501610b88565b6020830152506040610e9184828501610b88565b6040830152506060610ea584828501610b88565b60608301525092915050565b60006101008284031215610ec457600080fd5b610ece60a06113b0565b90506000610ede84828501610b49565b6000830152506020610ef284828501610f3a565b6020830152506040610f0684828501610f3a565b6040830152506060610f1a84828501610f3a565b6060830152506080610f2e84828501610b9d565b60808301525092915050565b600081359050610f49816114b4565b92915050565b600081519050610f5e816114b4565b92915050565b60008060408385031215610f7757600080fd5b6000610f8585828601610b34565b9250506020610f9685828601610b5e565b9150509250929050565b6000806000806103608587031215610fb757600080fd5b6000610fc587828801610c11565b945050610100610fd787828801610eb1565b935050610200610fe987828801610cd7565b925050610340610ffb87828801610f3a565b91505092959194509250565b6000806000806101a0858703121561101e57600080fd5b600061102c87828801610cd7565b94505061014061103e87828801610f3a565b93505061016061105087828801610f3a565b92505061018061106287828801610f3a565b91505092959194509250565b60006080828403121561108057600080fd5b600061108e84828501610e3d565b91505092915050565b60008060006102c084860312156110ad57600080fd5b60006110bb86828701610eb1565b9350506101006110cd86828701610dc9565b9250506101806110df86828701610cd7565b9150509250925092565b6110f281611422565b82525050565b61110181611422565b82525050565b6000611114601c836113e1565b91507f636f6e747261637420616c726561647920696e697469616c697a6564000000006000830152602082019050919050565b60006111546011836113e1565b91507f6f6e6c79206f7074696f6e4d61726b65740000000000000000000000000000006000830152602082019050919050565b60006111946018836113e1565b91507f766f6c206f7574206f662074726164696e672072616e676500000000000000006000830152602082019050919050565b60006111d4601a836113e1565b91507f64656c7461206f7574206f662074726164696e672072616e67650000000000006000830152602082019050919050565b60408201600082015161121d60008501826110e9565b5060208201516112306020850182611236565b50505050565b61123f8161144c565b82525050565b61124e8161144c565b82525050565b6000602082019050818103600083015261126d81611107565b9050919050565b6000602082019050818103600083015261128d81611147565b9050919050565b600060208201905081810360008301526112ad81611187565b9050919050565b600060208201905081810360008301526112cd816111c7565b9050919050565b600060e0820190506112e96000830189611207565b6112f66040830188611245565b61130360608301876110f8565b61131060808301866110f8565b61131d60a0830185611245565b61132a60c0830184611245565b979650505050505050565b600060208201905061134a6000830184611245565b92915050565b60006040820190506113656000830185611245565b6113726020830184611245565b9392505050565b600060608201905061138e6000830186611245565b61139b6020830185611245565b6113a86040830184611245565b949350505050565b6000604051905081810181811067ffffffffffffffff821117156113d7576113d6611456565b5b8060405250919050565b600082825260208201905092915050565b60006113fd8261142c565b9050919050565b60008115159050919050565b600061141b826113f2565b9050919050565b6000819050919050565b600073ffffffffffffffffffffffffffffffffffffffff82169050919050565b6000819050919050565bfe5b611461816113f2565b811461146c57600080fd5b50565b61147881611404565b811461148357600080fd5b50565b61148f81611410565b811461149a57600080fd5b50565b6114a681611422565b81146114b157600080fd5b50565b6114bd8161144c565b81146114c857600080fd5b5056fe536166654d6174683a206d756c7469706c69636174696f6e206f766572666c6f775369676e6564536166654d6174683a207375627472616374696f6e206f766572666c6f77a264697066735822122027a564f356b205982459300b4409e120f90ddea5fa497e372c7b07338d13855364736f6c63430007060033",
  "linkReferences": {},
  "deployedLinkReferences": {}
}