{
  "_format": "hh-sol-artifact-1",
  "contractName": "ShortCollateral",
  "sourceName": "contracts/ShortCollateral.sol",
  "abi": [
    {
      "inputs": [],
      "stateMutability": "nonpayable",
      "type": "constructor"
    },
    {
      "anonymous": false,
      "inputs": [
        {
          "indexed": true,
          "internalType": "address",
          "name": "receiver",
          "type": "address"
        },
        {
          "indexed": false,
          "internalType": "uint256",
          "name": "amount",
          "type": "uint256"
        }
      ],
      "name": "BaseSent",
      "type": "event"
    },
    {
      "anonymous": false,
      "inputs": [
        {
          "indexed": true,
          "internalType": "uint256",
          "name": "listingId",
          "type": "uint256"
        },
        {
          "indexed": true,
          "internalType": "address",
          "name": "optionOwner",
          "type": "address"
        },
        {
          "indexed": false,
          "internalType": "uint256",
          "name": "strike",
          "type": "uint256"
        },
        {
          "indexed": false,
          "internalType": "uint256",
          "name": "priceAtExpiry",
          "type": "uint256"
        },
        {
          "indexed": false,
          "internalType": "enum IOptionMarket.TradeType",
          "name": "tradeType",
          "type": "uint8"
        },
        {
          "indexed": false,
          "internalType": "uint256",
          "name": "amount",
          "type": "uint256"
        }
      ],
      "name": "OptionsSettled",
      "type": "event"
    },
    {
      "anonymous": false,
      "inputs": [
        {
          "indexed": true,
          "internalType": "address",
          "name": "receiver",
          "type": "address"
        },
        {
          "indexed": false,
          "internalType": "uint256",
          "name": "amount",
          "type": "uint256"
        }
      ],
      "name": "QuoteSent",
      "type": "event"
    },
    {
      "inputs": [
        {
          "internalType": "contract IOptionMarket",
          "name": "_optionMarket",
          "type": "address"
        },
        {
          "internalType": "contract ILiquidityPool",
          "name": "_liquidityPool",
          "type": "address"
        },
        {
          "internalType": "contract IERC20",
          "name": "_quoteAsset",
          "type": "address"
        },
        {
          "internalType": "contract IERC20",
          "name": "_baseAsset",
          "type": "address"
        }
      ],
      "name": "init",
      "outputs": [],
      "stateMutability": "nonpayable",
      "type": "function"
    },
    {
      "inputs": [
        {
          "internalType": "uint256",
          "name": "listingId",
          "type": "uint256"
        },
        {
          "internalType": "address",
          "name": "receiver",
          "type": "address"
        },
        {
          "internalType": "enum IOptionMarket.TradeType",
          "name": "tradeType",
          "type": "uint8"
        },
        {
          "internalType": "uint256",
          "name": "amount",
          "type": "uint256"
        },
        {
          "internalType": "uint256",
          "name": "strike",
          "type": "uint256"
        },
        {
          "internalType": "uint256",
          "name": "priceAtExpiry",
          "type": "uint256"
        },
        {
          "internalType": "uint256",
          "name": "listingToShortCallBaseReturned",
          "type": "uint256"
        }
      ],
      "name": "processSettle",
      "outputs": [],
      "stateMutability": "nonpayable",
      "type": "function"
    },
    {
      "inputs": [
        {
          "internalType": "address",
          "name": "recipient",
          "type": "address"
        },
        {
          "internalType": "uint256",
          "name": "amount",
          "type": "uint256"
        }
      ],
      "name": "sendBaseCollateral",
      "outputs": [],
      "stateMutability": "nonpayable",
      "type": "function"
    },
    {
      "inputs": [
        {
          "internalType": "address",
          "name": "recipient",
          "type": "address"
        },
        {
          "internalType": "uint256",
          "name": "amount",
          "type": "uint256"
        }
      ],
      "name": "sendQuoteCollateral",
      "outputs": [],
      "stateMutability": "nonpayable",
      "type": "function"
    },
    {
      "inputs": [
        {
          "internalType": "uint256",
          "name": "amountBase",
          "type": "uint256"
        },
        {
          "internalType": "uint256",
          "name": "amountQuote",
          "type": "uint256"
        }
      ],
      "name": "sendToLP",
      "outputs": [],
      "stateMutability": "nonpayable",
      "type": "function"
    }
  ],
  "bytecode": "0x608060405260008060006101000a81548160ff02191690831515021790555034801561002a57600080fd5b50611b158061003a6000396000f3fe608060405234801561001057600080fd5b50600436106100575760003560e01c806306552ff31461005c578063226ec4151461007857806337af0a28146100945780635318b307146100b05780638b89a242146100cc575b600080fd5b61007660048036038101906100719190611483565b6100e8565b005b610092600480360381019061008d91906115ad565b61025a565b005b6100ae60048036038101906100a9919061150f565b61077a565b005b6100ca60048036038101906100c5919061141e565b610dab565b005b6100e660048036038101906100e1919061141e565b611037565b005b60008054906101000a900460ff1615610136576040517f08c379a000000000000000000000000000000000000000000000000000000000815260040161012d9061181a565b60405180910390fd5b83600060016101000a81548173ffffffffffffffffffffffffffffffffffffffff021916908373ffffffffffffffffffffffffffffffffffffffff16021790555082600160006101000a81548173ffffffffffffffffffffffffffffffffffffffff021916908373ffffffffffffffffffffffffffffffffffffffff16021790555081600260006101000a81548173ffffffffffffffffffffffffffffffffffffffff021916908373ffffffffffffffffffffffffffffffffffffffff16021790555080600360006101000a81548173ffffffffffffffffffffffffffffffffffffffff021916908373ffffffffffffffffffffffffffffffffffffffff16021790555060016000806101000a81548160ff02191690831515021790555050505050565b600060019054906101000a900473ffffffffffffffffffffffffffffffffffffffff1673ffffffffffffffffffffffffffffffffffffffff163373ffffffffffffffffffffffffffffffffffffffff16146102ea576040517f08c379a00000000000000000000000000000000000000000000000000000000081526004016102e19061187a565b60405180910390fd5b6000600360009054906101000a900473ffffffffffffffffffffffffffffffffffffffff1673ffffffffffffffffffffffffffffffffffffffff166370a08231306040518263ffffffff1660e01b815260040161034791906117d6565b60206040518083038186803b15801561035f57600080fd5b505afa158015610373573d6000803e3d6000fd5b505050506040513d601f19601f8201168201806040525081019061039791906114e6565b9050808311156103a5578092505b600083111561052f57600360009054906101000a900473ffffffffffffffffffffffffffffffffffffffff1673ffffffffffffffffffffffffffffffffffffffff1663a9059cbb600160009054906101000a900473ffffffffffffffffffffffffffffffffffffffff16856040518363ffffffff1660e01b815260040161042d9291906117f1565b602060405180830381600087803b15801561044757600080fd5b505af115801561045b573d6000803e3d6000fd5b505050506040513d601f19601f8201168201806040525081019061047f919061145a565b6104be576040517f08c379a00000000000000000000000000000000000000000000000000000000081526004016104b59061183a565b60405180910390fd5b600160009054906101000a900473ffffffffffffffffffffffffffffffffffffffff1673ffffffffffffffffffffffffffffffffffffffff167ff550f34e62852b05668aa98576dd6146219a078e572e105ac8781d1fb44c535b8460405161052691906118fa565b60405180910390a25b6000600260009054906101000a900473ffffffffffffffffffffffffffffffffffffffff1673ffffffffffffffffffffffffffffffffffffffff166370a08231306040518263ffffffff1660e01b815260040161058c91906117d6565b60206040518083038186803b1580156105a457600080fd5b505afa1580156105b8573d6000803e3d6000fd5b505050506040513d601f19601f820116820180604052508101906105dc91906114e6565b9050808311156105ea578092505b600083111561077457600260009054906101000a900473ffffffffffffffffffffffffffffffffffffffff1673ffffffffffffffffffffffffffffffffffffffff1663a9059cbb600160009054906101000a900473ffffffffffffffffffffffffffffffffffffffff16856040518363ffffffff1660e01b81526004016106729291906117f1565b602060405180830381600087803b15801561068c57600080fd5b505af11580156106a0573d6000803e3d6000fd5b505050506040513d601f19601f820116820180604052508101906106c4919061145a565b610703576040517f08c379a00000000000000000000000000000000000000000000000000000000081526004016106fa9061185a565b60405180910390fd5b600160009054906101000a900473ffffffffffffffffffffffffffffffffffffffff1673ffffffffffffffffffffffffffffffffffffffff167f5a96aaaf4e37f0bd89cc3cf078bc8ca73ef742c192195de5784325b99cd345828460405161076b91906118fa565b60405180910390a25b50505050565b600060019054906101000a900473ffffffffffffffffffffffffffffffffffffffff1673ffffffffffffffffffffffffffffffffffffffff163373ffffffffffffffffffffffffffffffffffffffff161461080a576040517f08c379a00000000000000000000000000000000000000000000000000000000081526004016108019061187a565b60405180910390fd5b600082141561084e576040517f08c379a0000000000000000000000000000000000000000000000000000000008152600401610845906118ba565b60405180910390fd5b60008411610891576040517f08c379a00000000000000000000000000000000000000000000000000000000081526004016108889061189a565b60405180910390fd5b6001600381111561089e57fe5b8560038111156108aa57fe5b14156109b557600360009054906101000a900473ffffffffffffffffffffffffffffffffffffffff1673ffffffffffffffffffffffffffffffffffffffff1663a9059cbb8761090287856112c390919063ffffffff16565b6040518363ffffffff1660e01b815260040161091f9291906117f1565b602060405180830381600087803b15801561093957600080fd5b505af115801561094d573d6000803e3d6000fd5b505050506040513d601f19601f82011682018060405250810190610971919061145a565b6109b0576040517f08c379a00000000000000000000000000000000000000000000000000000000081526004016109a79061183a565b60405180910390fd5b610d4d565b600060038111156109c257fe5b8560038111156109ce57fe5b1480156109da57508183105b15610a8757600160009054906101000a900473ffffffffffffffffffffffffffffffffffffffff1673ffffffffffffffffffffffffffffffffffffffff1663d1201e3187610a33878787036112c390919063ffffffff16565b6040518363ffffffff1660e01b8152600401610a509291906117f1565b600060405180830381600087803b158015610a6a57600080fd5b505af1158015610a7e573d6000803e3d6000fd5b50505050610d4c565b600380811115610a9357fe5b856003811115610a9f57fe5b1415610c7c576000600260009054906101000a900473ffffffffffffffffffffffffffffffffffffffff1673ffffffffffffffffffffffffffffffffffffffff166370a08231306040518263ffffffff1660e01b8152600401610b0291906117d6565b60206040518083038186803b158015610b1a57600080fd5b505afa158015610b2e573d6000803e3d6000fd5b505050506040513d601f19601f82011682018060405250810190610b5291906114e6565b90506000610b77848611610b665785610b68565b845b876112c390919063ffffffff16565b9050600260009054906101000a900473ffffffffffffffffffffffffffffffffffffffff1673ffffffffffffffffffffffffffffffffffffffff1663a9059cbb89848411610bc55783610bc7565b845b6040518363ffffffff1660e01b8152600401610be49291906117f1565b602060405180830381600087803b158015610bfe57600080fd5b505af1158015610c12573d6000803e3d6000fd5b505050506040513d601f19601f82011682018060405250810190610c36919061145a565b610c75576040517f08c379a0000000000000000000000000000000000000000000000000000000008152600401610c6c9061185a565b60405180910390fd5b5050610d4b565b60026003811115610c8957fe5b856003811115610c9557fe5b148015610ca157508183115b15610d4a57600160009054906101000a900473ffffffffffffffffffffffffffffffffffffffff1673ffffffffffffffffffffffffffffffffffffffff1663d1201e3187610cfa878688036112c390919063ffffffff16565b6040518363ffffffff1660e01b8152600401610d179291906117f1565b600060405180830381600087803b158015610d3157600080fd5b505af1158015610d45573d6000803e3d6000fd5b505050505b5b5b5b8573ffffffffffffffffffffffffffffffffffffffff16877f5fc2bba25b462170d14214382e1e8ff4164d64df82876fcf10e11249e77745e985858989604051610d9a9493929190611915565b60405180910390a350505050505050565b600060019054906101000a900473ffffffffffffffffffffffffffffffffffffffff1673ffffffffffffffffffffffffffffffffffffffff163373ffffffffffffffffffffffffffffffffffffffff1614610e3b576040517f08c379a0000000000000000000000000000000000000000000000000000000008152600401610e329061187a565b60405180910390fd5b6000600260009054906101000a900473ffffffffffffffffffffffffffffffffffffffff1673ffffffffffffffffffffffffffffffffffffffff166370a08231306040518263ffffffff1660e01b8152600401610e9891906117d6565b60206040518083038186803b158015610eb057600080fd5b505afa158015610ec4573d6000803e3d6000fd5b505050506040513d601f19601f82011682018060405250810190610ee891906114e6565b905080821115610ef6578091505b600260009054906101000a900473ffffffffffffffffffffffffffffffffffffffff1673ffffffffffffffffffffffffffffffffffffffff1663a9059cbb84846040518363ffffffff1660e01b8152600401610f539291906117f1565b602060405180830381600087803b158015610f6d57600080fd5b505af1158015610f81573d6000803e3d6000fd5b505050506040513d601f19601f82011682018060405250810190610fa5919061145a565b610fe4576040517f08c379a0000000000000000000000000000000000000000000000000000000008152600401610fdb906118da565b60405180910390fd5b8273ffffffffffffffffffffffffffffffffffffffff167f5a96aaaf4e37f0bd89cc3cf078bc8ca73ef742c192195de5784325b99cd345828360405161102a91906118fa565b60405180910390a2505050565b600060019054906101000a900473ffffffffffffffffffffffffffffffffffffffff1673ffffffffffffffffffffffffffffffffffffffff163373ffffffffffffffffffffffffffffffffffffffff16146110c7576040517f08c379a00000000000000000000000000000000000000000000000000000000081526004016110be9061187a565b60405180910390fd5b6000600360009054906101000a900473ffffffffffffffffffffffffffffffffffffffff1673ffffffffffffffffffffffffffffffffffffffff166370a08231306040518263ffffffff1660e01b815260040161112491906117d6565b60206040518083038186803b15801561113c57600080fd5b505afa158015611150573d6000803e3d6000fd5b505050506040513d601f19601f8201168201806040525081019061117491906114e6565b905080821115611182578091505b600360009054906101000a900473ffffffffffffffffffffffffffffffffffffffff1673ffffffffffffffffffffffffffffffffffffffff1663a9059cbb84846040518363ffffffff1660e01b81526004016111df9291906117f1565b602060405180830381600087803b1580156111f957600080fd5b505af115801561120d573d6000803e3d6000fd5b505050506040513d601f19601f82011682018060405250810190611231919061145a565b611270576040517f08c379a0000000000000000000000000000000000000000000000000000000008152600401611267906118da565b60405180910390fd5b8273ffffffffffffffffffffffffffffffffffffffff167ff550f34e62852b05668aa98576dd6146219a078e572e105ac8781d1fb44c535b836040516112b691906118fa565b60405180910390a2505050565b6000601260ff16600a0a6112e083856112f090919063ffffffff16565b816112e757fe5b04905092915050565b6000808314156113035760009050611370565b600082840290508284828161131457fe5b041461136b576040517f08c379a0000000000000000000000000000000000000000000000000000000008152600401808060200182810382526021815260200180611abf6021913960400191505060405180910390fd5b809150505b92915050565b60008135905061138581611a24565b92915050565b60008151905061139a81611a3b565b92915050565b6000813590506113af81611a52565b92915050565b6000813590506113c481611a69565b92915050565b6000813590506113d981611a80565b92915050565b6000813590506113ee81611a97565b92915050565b60008135905061140381611aa7565b92915050565b60008151905061141881611aa7565b92915050565b6000806040838503121561143157600080fd5b600061143f85828601611376565b9250506020611450858286016113f4565b9150509250929050565b60006020828403121561146c57600080fd5b600061147a8482850161138b565b91505092915050565b6000806000806080858703121561149957600080fd5b60006114a7878288016113ca565b94505060206114b8878288016113b5565b93505060406114c9878288016113a0565b92505060606114da878288016113a0565b91505092959194509250565b6000602082840312156114f857600080fd5b600061150684828501611409565b91505092915050565b600080600080600080600060e0888a03121561152a57600080fd5b60006115388a828b016113f4565b97505060206115498a828b01611376565b965050604061155a8a828b016113df565b955050606061156b8a828b016113f4565b945050608061157c8a828b016113f4565b93505060a061158d8a828b016113f4565b92505060c061159e8a828b016113f4565b91505092959891949750929550565b600080604083850312156115c057600080fd5b60006115ce858286016113f4565b92505060206115df858286016113f4565b9150509250929050565b6115f28161196b565b82525050565b611601816119fc565b82525050565b6000611614601c8361195a565b91507f636f6e747261637420616c726561647920696e697469616c697a6564000000006000830152602082019050919050565b600061165460148361195a565b91507f62617365207472616e73666572206661696c65640000000000000000000000006000830152602082019050919050565b600061169460158361195a565b91507f71756f7465207472616e73666572206661696c656400000000000000000000006000830152602082019050919050565b60006116d460118361195a565b91507f6f6e6c79204f7074696f6e4d61726b65740000000000000000000000000000006000830152602082019050919050565b600061171460148361195a565b91507f6f7074696f6e20706f736974696f6e20697320300000000000000000000000006000830152602082019050919050565b600061175460188361195a565b91507f626f617264206d757374206265206c69717569646174656400000000000000006000830152602082019050919050565b6000611794600f8361195a565b91507f7472616e73666572206661696c656400000000000000000000000000000000006000830152602082019050919050565b6117d0816119f2565b82525050565b60006020820190506117eb60008301846115e9565b92915050565b600060408201905061180660008301856115e9565b61181360208301846117c7565b9392505050565b6000602082019050818103600083015261183381611607565b9050919050565b6000602082019050818103600083015261185381611647565b9050919050565b6000602082019050818103600083015261187381611687565b9050919050565b60006020820190508181036000830152611893816116c7565b9050919050565b600060208201905081810360008301526118b381611707565b9050919050565b600060208201905081810360008301526118d381611747565b9050919050565b600060208201905081810360008301526118f381611787565b9050919050565b600060208201905061190f60008301846117c7565b92915050565b600060808201905061192a60008301876117c7565b61193760208301866117c7565b61194460408301856115f8565b61195160608301846117c7565b95945050505050565b600082825260208201905092915050565b6000611976826119d2565b9050919050565b60008115159050919050565b60006119948261196b565b9050919050565b60006119a68261196b565b9050919050565b60006119b88261196b565b9050919050565b60008190506119cd82611a10565b919050565b600073ffffffffffffffffffffffffffffffffffffffff82169050919050565b6000819050919050565b6000611a07826119bf565b9050919050565bfe5b60048110611a2157611a20611a0e565b5b50565b611a2d8161196b565b8114611a3857600080fd5b50565b611a448161197d565b8114611a4f57600080fd5b50565b611a5b81611989565b8114611a6657600080fd5b50565b611a728161199b565b8114611a7d57600080fd5b50565b611a89816119ad565b8114611a9457600080fd5b50565b60048110611aa457600080fd5b50565b611ab0816119f2565b8114611abb57600080fd5b5056fe536166654d6174683a206d756c7469706c69636174696f6e206f766572666c6f77a2646970667358221220cf263cbd8228988013dbc2c73731032bda5f552ccc38b2d6f2a62b30b5eb355b64736f6c63430007060033",
  "linkReferences": {},
  "deployedLinkReferences": {}
}