{
  "address": "0x763a570A50B4cE44B5897B2134010CFC4f770b2F",
  "abi": [
    {
      "inputs": [
        {
          "internalType": "address",
          "name": "_optionMarket",
          "type": "address"
        },
        {
          "internalType": "address",
          "name": "_susd",
          "type": "address"
        },
        {
          "internalType": "address",
          "name": "_feeRecipient",
          "type": "address"
        },
        {
          "internalType": "address",
          "name": "_synthetix",
          "type": "address"
        },
        {
          "internalType": "uint256",
          "name": "_roundDuration",
          "type": "uint256"
        },
        {
          "internalType": "string",
          "name": "_tokenName",
          "type": "string"
        },
        {
          "internalType": "string",
          "name": "_tokenSymbol",
          "type": "string"
        },
        {
          "components": [
            {
              "internalType": "uint8",
              "name": "decimals",
              "type": "uint8"
            },
            {
              "internalType": "uint104",
              "name": "cap",
              "type": "uint104"
            },
            {
              "internalType": "address",
              "name": "asset",
              "type": "address"
            }
          ],
          "internalType": "struct Vault.VaultParams",
          "name": "_vaultParams",
          "type": "tuple"
        },
        {
          "internalType": "bytes32",
          "name": "_premiumCurrencyKey",
          "type": "bytes32"
        },
        {
          "internalType": "bytes32",
          "name": "_sETHCurrencyKey",
          "type": "bytes32"
        }
      ],
      "stateMutability": "nonpayable",
      "type": "constructor"
    },
    {
      "anonymous": false,
      "inputs": [
        {
          "indexed": true,
          "internalType": "address",
          "name": "owner",
          "type": "address"
        },
        {
          "indexed": true,
          "internalType": "address",
          "name": "spender",
          "type": "address"
        },
        {
          "indexed": false,
          "internalType": "uint256",
          "name": "value",
          "type": "uint256"
        }
      ],
      "name": "Approval",
      "type": "event"
    },
    {
      "anonymous": false,
      "inputs": [
        {
          "indexed": false,
          "internalType": "uint256",
          "name": "oldCap",
          "type": "uint256"
        },
        {
          "indexed": false,
          "internalType": "uint256",
          "name": "newCap",
          "type": "uint256"
        },
        {
          "indexed": false,
          "internalType": "address",
          "name": "manager",
          "type": "address"
        }
      ],
      "name": "CapSet",
      "type": "event"
    },
    {
      "anonymous": false,
      "inputs": [
        {
          "indexed": false,
          "internalType": "uint256",
          "name": "performanceFee",
          "type": "uint256"
        },
        {
          "indexed": false,
          "internalType": "uint256",
          "name": "vaultFee",
          "type": "uint256"
        },
        {
          "indexed": false,
          "internalType": "uint256",
          "name": "round",
          "type": "uint256"
        },
        {
          "indexed": true,
          "internalType": "address",
          "name": "feeRecipient",
          "type": "address"
        }
      ],
      "name": "CollectVaultFees",
      "type": "event"
    },
    {
      "anonymous": false,
      "inputs": [
        {
          "indexed": true,
          "internalType": "address",
          "name": "account",
          "type": "address"
        },
        {
          "indexed": false,
          "internalType": "uint256",
          "name": "amount",
          "type": "uint256"
        },
        {
          "indexed": false,
          "internalType": "uint256",
          "name": "round",
          "type": "uint256"
        }
      ],
      "name": "Deposit",
      "type": "event"
    },
    {
      "anonymous": false,
      "inputs": [
        {
          "indexed": true,
          "internalType": "address",
          "name": "account",
          "type": "address"
        },
        {
          "indexed": false,
          "internalType": "uint256",
          "name": "shares",
          "type": "uint256"
        },
        {
          "indexed": false,
          "internalType": "uint256",
          "name": "round",
          "type": "uint256"
        }
      ],
      "name": "InitiateWithdraw",
      "type": "event"
    },
    {
      "anonymous": false,
      "inputs": [
        {
          "indexed": false,
          "internalType": "uint256",
          "name": "managementFee",
          "type": "uint256"
        },
        {
          "indexed": false,
          "internalType": "uint256",
          "name": "newManagementFee",
          "type": "uint256"
        }
      ],
      "name": "ManagementFeeSet",
      "type": "event"
    },
    {
      "anonymous": false,
      "inputs": [
        {
          "indexed": true,
          "internalType": "address",
          "name": "previousOwner",
          "type": "address"
        },
        {
          "indexed": true,
          "internalType": "address",
          "name": "newOwner",
          "type": "address"
        }
      ],
      "name": "OwnershipTransferred",
      "type": "event"
    },
    {
      "anonymous": false,
      "inputs": [
        {
          "indexed": false,
          "internalType": "uint256",
          "name": "performanceFee",
          "type": "uint256"
        },
        {
          "indexed": false,
          "internalType": "uint256",
          "name": "newPerformanceFee",
          "type": "uint256"
        }
      ],
      "name": "PerformanceFeeSet",
      "type": "event"
    },
    {
      "anonymous": false,
      "inputs": [
        {
          "indexed": true,
          "internalType": "address",
          "name": "account",
          "type": "address"
        },
        {
          "indexed": false,
          "internalType": "uint256",
          "name": "share",
          "type": "uint256"
        },
        {
          "indexed": false,
          "internalType": "uint256",
          "name": "round",
          "type": "uint256"
        }
      ],
      "name": "Redeem",
      "type": "event"
    },
    {
      "anonymous": false,
      "inputs": [
        {
          "indexed": false,
          "internalType": "address",
          "name": "strategy",
          "type": "address"
        }
      ],
      "name": "StrategyUpdated",
      "type": "event"
    },
    {
      "anonymous": false,
      "inputs": [
        {
          "indexed": true,
          "internalType": "address",
          "name": "from",
          "type": "address"
        },
        {
          "indexed": true,
          "internalType": "address",
          "name": "to",
          "type": "address"
        },
        {
          "indexed": false,
          "internalType": "uint256",
          "name": "value",
          "type": "uint256"
        }
      ],
      "name": "Transfer",
      "type": "event"
    },
    {
      "anonymous": false,
      "inputs": [
        {
          "indexed": true,
          "internalType": "address",
          "name": "account",
          "type": "address"
        },
        {
          "indexed": false,
          "internalType": "uint256",
          "name": "amount",
          "type": "uint256"
        },
        {
          "indexed": false,
          "internalType": "uint256",
          "name": "shares",
          "type": "uint256"
        }
      ],
      "name": "Withdraw",
      "type": "event"
    },
    {
      "inputs": [
        {
          "internalType": "address",
          "name": "account",
          "type": "address"
        }
      ],
      "name": "accountVaultBalance",
      "outputs": [
        {
          "internalType": "uint256",
          "name": "",
          "type": "uint256"
        }
      ],
      "stateMutability": "view",
      "type": "function"
    },
    {
      "inputs": [
        {
          "internalType": "address",
          "name": "owner",
          "type": "address"
        },
        {
          "internalType": "address",
          "name": "spender",
          "type": "address"
        }
      ],
      "name": "allowance",
      "outputs": [
        {
          "internalType": "uint256",
          "name": "",
          "type": "uint256"
        }
      ],
      "stateMutability": "view",
      "type": "function"
    },
    {
      "inputs": [
        {
          "internalType": "address",
          "name": "spender",
          "type": "address"
        },
        {
          "internalType": "uint256",
          "name": "amount",
          "type": "uint256"
        }
      ],
      "name": "approve",
      "outputs": [
        {
          "internalType": "bool",
          "name": "",
          "type": "bool"
        }
      ],
      "stateMutability": "nonpayable",
      "type": "function"
    },
    {
      "inputs": [
        {
          "internalType": "address",
          "name": "account",
          "type": "address"
        }
      ],
      "name": "balanceOf",
      "outputs": [
        {
          "internalType": "uint256",
          "name": "",
          "type": "uint256"
        }
      ],
      "stateMutability": "view",
      "type": "function"
    },
    {
      "inputs": [],
      "name": "closeRound",
      "outputs": [],
      "stateMutability": "nonpayable",
      "type": "function"
    },
    {
      "inputs": [],
      "name": "completeWithdraw",
      "outputs": [],
      "stateMutability": "nonpayable",
      "type": "function"
    },
    {
      "inputs": [],
      "name": "decimals",
      "outputs": [
        {
          "internalType": "uint8",
          "name": "",
          "type": "uint8"
        }
      ],
      "stateMutability": "view",
      "type": "function"
    },
    {
      "inputs": [
        {
          "internalType": "address",
          "name": "spender",
          "type": "address"
        },
        {
          "internalType": "uint256",
          "name": "subtractedValue",
          "type": "uint256"
        }
      ],
      "name": "decreaseAllowance",
      "outputs": [
        {
          "internalType": "bool",
          "name": "",
          "type": "bool"
        }
      ],
      "stateMutability": "nonpayable",
      "type": "function"
    },
    {
      "inputs": [
        {
          "internalType": "uint256",
          "name": "amount",
          "type": "uint256"
        }
      ],
      "name": "deposit",
      "outputs": [],
      "stateMutability": "nonpayable",
      "type": "function"
    },
    {
      "inputs": [
        {
          "internalType": "uint256",
          "name": "amount",
          "type": "uint256"
        },
        {
          "internalType": "address",
          "name": "creditor",
          "type": "address"
        }
      ],
      "name": "depositFor",
      "outputs": [],
      "stateMutability": "nonpayable",
      "type": "function"
    },
    {
      "inputs": [
        {
          "internalType": "address",
          "name": "",
          "type": "address"
        }
      ],
      "name": "depositReceipts",
      "outputs": [
        {
          "internalType": "uint16",
          "name": "round",
          "type": "uint16"
        },
        {
          "internalType": "uint104",
          "name": "amount",
          "type": "uint104"
        },
        {
          "internalType": "uint128",
          "name": "unredeemedShares",
          "type": "uint128"
        }
      ],
      "stateMutability": "view",
      "type": "function"
    },
    {
      "inputs": [],
      "name": "feeRecipient",
      "outputs": [
        {
          "internalType": "address",
          "name": "",
          "type": "address"
        }
      ],
      "stateMutability": "view",
      "type": "function"
    },
    {
      "inputs": [
        {
          "internalType": "address",
          "name": "spender",
          "type": "address"
        },
        {
          "internalType": "uint256",
          "name": "addedValue",
          "type": "uint256"
        }
      ],
      "name": "increaseAllowance",
      "outputs": [
        {
          "internalType": "bool",
          "name": "",
          "type": "bool"
        }
      ],
      "stateMutability": "nonpayable",
      "type": "function"
    },
    {
      "inputs": [
        {
          "internalType": "uint256",
          "name": "numShares",
          "type": "uint256"
        }
      ],
      "name": "initiateWithdraw",
      "outputs": [],
      "stateMutability": "nonpayable",
      "type": "function"
    },
    {
      "inputs": [],
      "name": "lastQueuedWithdrawAmount",
      "outputs": [
        {
          "internalType": "uint128",
          "name": "",
          "type": "uint128"
        }
      ],
      "stateMutability": "view",
      "type": "function"
    },
    {
      "inputs": [],
      "name": "managementFee",
      "outputs": [
        {
          "internalType": "uint256",
          "name": "",
          "type": "uint256"
        }
      ],
      "stateMutability": "view",
      "type": "function"
    },
    {
      "inputs": [],
      "name": "maxRedeem",
      "outputs": [],
      "stateMutability": "nonpayable",
      "type": "function"
    },
    {
      "inputs": [],
      "name": "name",
      "outputs": [
        {
          "internalType": "string",
          "name": "",
          "type": "string"
        }
      ],
      "stateMutability": "view",
      "type": "function"
    },
    {
      "inputs": [],
      "name": "optionAllocation",
      "outputs": [
        {
          "internalType": "uint256",
          "name": "",
          "type": "uint256"
        }
      ],
      "stateMutability": "view",
      "type": "function"
    },
    {
      "inputs": [],
      "name": "optionMarket",
      "outputs": [
        {
          "internalType": "contract IOptionMarket",
          "name": "",
          "type": "address"
        }
      ],
      "stateMutability": "view",
      "type": "function"
    },
    {
      "inputs": [],
      "name": "owner",
      "outputs": [
        {
          "internalType": "address",
          "name": "",
          "type": "address"
        }
      ],
      "stateMutability": "view",
      "type": "function"
    },
    {
      "inputs": [],
      "name": "performanceFee",
      "outputs": [
        {
          "internalType": "uint256",
          "name": "",
          "type": "uint256"
        }
      ],
      "stateMutability": "view",
      "type": "function"
    },
    {
      "inputs": [],
      "name": "pricePerShare",
      "outputs": [
        {
          "internalType": "uint256",
          "name": "",
          "type": "uint256"
        }
      ],
      "stateMutability": "view",
      "type": "function"
    },
    {
      "inputs": [
        {
          "internalType": "uint256",
          "name": "numShares",
          "type": "uint256"
        }
      ],
      "name": "redeem",
      "outputs": [],
      "stateMutability": "nonpayable",
      "type": "function"
    },
    {
      "inputs": [],
      "name": "renounceOwnership",
      "outputs": [],
      "stateMutability": "nonpayable",
      "type": "function"
    },
    {
      "inputs": [
        {
          "internalType": "uint256",
          "name": "",
          "type": "uint256"
        }
      ],
      "name": "roundPricePerShare",
      "outputs": [
        {
          "internalType": "uint256",
          "name": "",
          "type": "uint256"
        }
      ],
      "stateMutability": "view",
      "type": "function"
    },
    {
      "inputs": [
        {
          "internalType": "uint256",
          "name": "newCap",
          "type": "uint256"
        }
      ],
      "name": "setCap",
      "outputs": [],
      "stateMutability": "nonpayable",
      "type": "function"
    },
    {
      "inputs": [
        {
          "internalType": "address",
          "name": "newFeeRecipient",
          "type": "address"
        }
      ],
      "name": "setFeeRecipient",
      "outputs": [],
      "stateMutability": "nonpayable",
      "type": "function"
    },
    {
      "inputs": [
        {
          "internalType": "uint256",
          "name": "newManagementFee",
          "type": "uint256"
        }
      ],
      "name": "setManagementFee",
      "outputs": [],
      "stateMutability": "nonpayable",
      "type": "function"
    },
    {
      "inputs": [
        {
          "internalType": "uint256",
          "name": "newPerformanceFee",
          "type": "uint256"
        }
      ],
      "name": "setPerformanceFee",
      "outputs": [],
      "stateMutability": "nonpayable",
      "type": "function"
    },
    {
      "inputs": [
        {
          "internalType": "address",
          "name": "_strategy",
          "type": "address"
        }
      ],
      "name": "setStrategy",
      "outputs": [],
      "stateMutability": "nonpayable",
      "type": "function"
    },
    {
      "inputs": [
        {
          "internalType": "uint256[]",
          "name": "listingIds",
          "type": "uint256[]"
        }
      ],
      "name": "settle",
      "outputs": [],
      "stateMutability": "nonpayable",
      "type": "function"
    },
    {
      "inputs": [
        {
          "internalType": "address",
          "name": "account",
          "type": "address"
        }
      ],
      "name": "shareBalances",
      "outputs": [
        {
          "internalType": "uint256",
          "name": "heldByAccount",
          "type": "uint256"
        },
        {
          "internalType": "uint256",
          "name": "heldByVault",
          "type": "uint256"
        }
      ],
      "stateMutability": "view",
      "type": "function"
    },
    {
      "inputs": [
        {
          "internalType": "address",
          "name": "account",
          "type": "address"
        }
      ],
      "name": "shares",
      "outputs": [
        {
          "internalType": "uint256",
          "name": "",
          "type": "uint256"
        }
      ],
      "stateMutability": "view",
      "type": "function"
    },
    {
      "inputs": [],
      "name": "startNextRound",
      "outputs": [],
      "stateMutability": "nonpayable",
      "type": "function"
    },
    {
      "inputs": [],
      "name": "strategy",
      "outputs": [
        {
          "internalType": "contract IVaultStrategy",
          "name": "",
          "type": "address"
        }
      ],
      "stateMutability": "view",
      "type": "function"
    },
    {
      "inputs": [],
      "name": "symbol",
      "outputs": [
        {
          "internalType": "string",
          "name": "",
          "type": "string"
        }
      ],
      "stateMutability": "view",
      "type": "function"
    },
    {
      "inputs": [],
      "name": "synthetix",
      "outputs": [
        {
          "internalType": "contract ISynthetix",
          "name": "",
          "type": "address"
        }
      ],
      "stateMutability": "view",
      "type": "function"
    },
    {
      "inputs": [],
      "name": "totalBalance",
      "outputs": [
        {
          "internalType": "uint256",
          "name": "",
          "type": "uint256"
        }
      ],
      "stateMutability": "view",
      "type": "function"
    },
    {
      "inputs": [],
      "name": "totalSupply",
      "outputs": [
        {
          "internalType": "uint256",
          "name": "",
          "type": "uint256"
        }
      ],
      "stateMutability": "view",
      "type": "function"
    },
    {
      "inputs": [],
      "name": "trade",
      "outputs": [],
      "stateMutability": "nonpayable",
      "type": "function"
    },
    {
      "inputs": [
        {
          "internalType": "address",
          "name": "recipient",
          "type": "address"
        },
        {
          "internalType": "uint256",
          "name": "amount",
          "type": "uint256"
        }
      ],
      "name": "transfer",
      "outputs": [
        {
          "internalType": "bool",
          "name": "",
          "type": "bool"
        }
      ],
      "stateMutability": "nonpayable",
      "type": "function"
    },
    {
      "inputs": [
        {
          "internalType": "address",
          "name": "sender",
          "type": "address"
        },
        {
          "internalType": "address",
          "name": "recipient",
          "type": "address"
        },
        {
          "internalType": "uint256",
          "name": "amount",
          "type": "uint256"
        }
      ],
      "name": "transferFrom",
      "outputs": [
        {
          "internalType": "bool",
          "name": "",
          "type": "bool"
        }
      ],
      "stateMutability": "nonpayable",
      "type": "function"
    },
    {
      "inputs": [
        {
          "internalType": "address",
          "name": "newOwner",
          "type": "address"
        }
      ],
      "name": "transferOwnership",
      "outputs": [],
      "stateMutability": "nonpayable",
      "type": "function"
    },
    {
      "inputs": [],
      "name": "vaultParams",
      "outputs": [
        {
          "internalType": "uint8",
          "name": "decimals",
          "type": "uint8"
        },
        {
          "internalType": "uint104",
          "name": "cap",
          "type": "uint104"
        },
        {
          "internalType": "address",
          "name": "asset",
          "type": "address"
        }
      ],
      "stateMutability": "view",
      "type": "function"
    },
    {
      "inputs": [],
      "name": "vaultState",
      "outputs": [
        {
          "internalType": "uint16",
          "name": "round",
          "type": "uint16"
        },
        {
          "internalType": "uint104",
          "name": "lockedAmount",
          "type": "uint104"
        },
        {
          "internalType": "uint104",
          "name": "lastLockedAmount",
          "type": "uint104"
        },
        {
          "internalType": "uint256",
          "name": "lockedAmountLeft",
          "type": "uint256"
        },
        {
          "internalType": "uint128",
          "name": "totalPending",
          "type": "uint128"
        },
        {
          "internalType": "uint128",
          "name": "queuedWithdrawShares",
          "type": "uint128"
        },
        {
          "internalType": "uint256",
          "name": "nextRoundReadyTimestamp",
          "type": "uint256"
        },
        {
          "internalType": "bool",
          "name": "roundInProgress",
          "type": "bool"
        }
      ],
      "stateMutability": "view",
      "type": "function"
    },
    {
      "inputs": [
        {
          "internalType": "address",
          "name": "",
          "type": "address"
        }
      ],
      "name": "withdrawals",
      "outputs": [
        {
          "internalType": "uint16",
          "name": "round",
          "type": "uint16"
        },
        {
          "internalType": "uint128",
          "name": "shares",
          "type": "uint128"
        }
      ],
      "stateMutability": "view",
      "type": "function"
    }
  ],
  "transactionHash": "0x96cd30aca04cd09be4b72e180ac2cf5a95a40bcbd5be3d44451a4b3e230e7259",
  "args": [
    "0xB2e699aEb5c0204276C834f25b51E97776d06920",
    "0x4DA634E55c21fE2Da9c8F5DA49F9CfeB3F436dEb",
    "0x005e447ece1bd8Ecb114B9b8095276692445D466",
    "0x21859659ffDfb57eA82E38D804a031D02046A95e",
    604800,
    "Lyra Delta Vault",
    "VOLT",
    {
      "decimals": 18,
      "cap": "100000000000000000000",
      "asset": "0x1E5d64B650388A727E5dc68c0C70c2d3c7983c5e"
    },
    "0x7355534400000000000000000000000000000000000000000000000000000000",
    "0x7345544800000000000000000000000000000000000000000000000000000000"
  ],
  "solcInputHash": "8718df598bfe1503fbffbe0482621e64",
  "bytecode": "0x6101206040523480156200001257600080fd5b5060405162004114380380620041148339810160408190526200003591620006b7565b878686868682826001600081905550600062000056620003b960201b60201c565b600180546001600160a01b0319166001600160a01b038316908117909155604051919250906000907f8be0079c531659141344cd1fd0a4f28419497f9722a3daafe3b4186f6b6457e0908290a3508151620000b9906005906020850190620004e0565b508051620000cf906006906020840190620004e0565b505060078054601260ff19909116811790915580546001600160a01b0319166001600160a01b0388161790555060006200013685620001226301e13380620f4240620003bd602090811b62001da517901c565b6200042460201b62001dfe1790919060201c565b60808190528251600b805460208601516001600160681b031661010002610100600160701b031960ff90941660ff199092169190911792909216919091179055604080840151600c80546001600160a01b039283166001600160a01b0319909116179081905591516370a0823160e01b81529293506000929116906370a0823190620001c7903090600401620007d7565b60206040518083038186803b158015620001e057600080fd5b505afa158015620001f5573d6000803e3d6000fd5b505050506040513d601f19601f820116820180604052508101906200021b9190620007be565b905062000233816200048d60201b62001e621760201c565b600d805461ffff196001600160681b03909316600160781b02600160781b600160e01b0319909116179190911660011790555050506001600160601b031960608e811b821660a0528b901b1660c052505050604080840151905163095ea7b360e01b81526001600160a01b03919091169063095ea7b390620002be908d9060001990600401620007eb565b602060405180830381600087803b158015620002d957600080fd5b505af1158015620002ee573d6000803e3d6000fd5b505050506040513d601f19601f820116820180604052508101906200031491906200079c565b5060e082905261010081905260405163095ea7b360e01b81526001600160a01b038a169063095ea7b39062000352908a9060001990600401620007eb565b602060405180830381600087803b1580156200036d57600080fd5b505af115801562000382573d6000803e3d6000fd5b505050506040513d601f19601f82011682018060405250810190620003a891906200079c565b505050505050505050505062000828565b3390565b600082620003ce575060006200041e565b82820282848281620003dc57fe5b04146200041b5760405162461bcd60e51b8152600401808060200182810382526021815260200180620040f36021913960400191505060405180910390fd5b90505b92915050565b60008082116200047b576040805162461bcd60e51b815260206004820152601a60248201527f536166654d6174683a206469766973696f6e206279207a65726f000000000000604482015290519081900360640190fd5b8183816200048557fe5b049392505050565b6001600160681b03811115620004dd576040805162461bcd60e51b815260206004820152601060248201526f13dd995c999b1bddc81d5a5b9d0c4c0d60821b604482015290519081900360640190fd5b50565b828054600181600116156101000203166002900490600052602060002090601f01602090048101928262000518576000855562000563565b82601f106200053357805160ff191683800117855562000563565b8280016001018555821562000563579182015b828111156200056357825182559160200191906001019062000546565b506200057192915062000575565b5090565b5b8082111562000571576000815560010162000576565b80516001600160a01b0381168114620005a457600080fd5b919050565b600082601f830112620005ba578081fd5b81516001600160401b03811115620005ce57fe5b6020620005e4601f8301601f1916820162000804565b8281528582848701011115620005f8578384fd5b835b8381101562000617578581018301518282018401528201620005fa565b838111156200062857848385840101525b5095945050505050565b60006060828403121562000644578081fd5b604051606081016001600160401b03811182821017156200066157fe5b8060405250809150825160ff811681146200067b57600080fd5b815260208301516001600160681b03811681146200069857600080fd5b6020820152620006ab604084016200058c565b60408201525092915050565b6000806000806000806000806000806101808b8d031215620006d7578586fd5b620006e28b6200058c565b9950620006f260208c016200058c565b98506200070260408c016200058c565b97506200071260608c016200058c565b60808c015160a08d015191985096506001600160401b038082111562000736578687fd5b620007448e838f01620005a9565b965060c08d01519150808211156200075a578586fd5b50620007698d828e01620005a9565b9450506200077b8c60e08d0162000632565b92506101408b015191506101608b015190509295989b9194979a5092959850565b600060208284031215620007ae578081fd5b815180151581146200041b578182fd5b600060208284031215620007d0578081fd5b5051919050565b6001600160a01b0391909116815260200190565b6001600160a01b03929092168252602082015260400190565b6040518181016001600160401b03811182821017156200082057fe5b604052919050565b60805160a05160601c60c05160601c60e051610100516138766200087d600039806109c45250806109a0525080610973528061111b525080610752528061144c52806116d8525080611d6d52506138766000f3fe608060405234801561001057600080fd5b50600436106102255760003560e01c806306fdde031461022a578063095ea7b31461024857806318160ddd146102685780631f0ba6c91461027d57806323b872dd146102875780632728f3331461029a578063313ce567146102b657806333a100ca146102cb57806336efd16f146102de57806339509351146102f15780633c3ccc44146103045780633f23bb731461030c578063469048401461031f57806347786d3714610334578063503c70aa146103475780636719b2ee1461035c5780636f31ab341461037e57806370897b231461038657806370a0823114610399578063715018a6146103ac578063759b5225146103b45780637a9262a2146103bc5780637e108d52146103dd57806387153eb1146103f057806387788782146104035780638da5cb5b1461040b57806395d89b411461041357806399530b061461041b5780639b2db373146104235780639fcc2d7514610436578063a457c2d71461044d578063a6f7f5d614610460578063a8c62e7614610468578063a9059cbb14610470578063ad7a672f14610483578063b6b55f251461048b578063bb4a9f881461049e578063c9f369c2146104a6578063ce7c2ac2146104ae578063db006a75146104c1578063dd62ed3e146104d4578063e278fe6f146104e7578063e74b981b146104ef578063f2fde38b14610502578063f656ba5114610515578063f756fa2114610536578063fe56e2321461053e575b600080fd5b610232610551565b60405161023f91906131e7565b60405180910390f35b61025b61025636600461302f565b6105e7565b60405161023f91906131c6565b610270610605565b60405161023f9190613557565b61028561060b565b005b61025b610295366004612ff4565b610a48565b6102a2610ad0565b60405161023f9897969594939291906134b6565b6102be610b1e565b60405161023f91906135d0565b6102856102d9366004612fa8565b610b27565b6102856102ec366004613155565b610bdf565b61025b6102ff36600461302f565b610c98565b610285610ce6565b61027061031a366004612fa8565b610d9c565b610327610dea565b60405161023f91906131b2565b610285610342366004613125565b610df9565b61034f610ef9565b60405161023f91906134a2565b61036f61036a366004612fa8565b610f08565b60405161023f9392919061350c565b610285610f40565b610285610394366004613125565b610f9f565b6102706103a7366004612fa8565b611064565b61028561107f565b610327611119565b6103cf6103ca366004612fa8565b61113d565b60405161023f92919061353a565b6102856103eb366004613125565b611164565b6102706103fe366004613125565b611382565b610270611394565b61032761139a565b6102326113a9565b61027061140a565b610285610431366004613058565b61143e565b61043e6114ee565b60405161023f939291906135de565b61025b61045b36600461302f565b611514565b61027061157c565b610327611582565b61025b61047e36600461302f565b611591565b6102706115a5565b610285610499366004613125565b611644565b6103276116d6565b6102706116fa565b6102706104bc366004612fa8565b611700565b6102856104cf366004613125565b61171d565b6102706104e2366004612fc2565b611790565b6102856117bb565b6102856104fd366004612fa8565b611875565b610285610510366004612fa8565b61194d565b610528610523366004612fa8565b611a3e565b60405161023f9291906135a8565b610285611afa565b61028561054c366004613125565b611ca8565b60058054604080516020601f60026000196101006001881615020190951694909404938401819004810282018101909252828152606093909290918301828280156105dd5780601f106105b2576101008083540402835291602001916105dd565b820191906000526020600020905b8154815290600101906020018083116105c057829003601f168201915b5050505050905090565b60006105fb6105f4611eb4565b8484611eb8565b5060015b92915050565b60045490565b60115460ff166106365760405162461bcd60e51b815260040161062d906132ab565b60405180910390fd5b6000806000603360009054906101000a90046001600160a01b03166001600160a01b031663591bbc736040518163ffffffff1660e01b815260040160606040518083038186803b15801561068957600080fd5b505afa15801561069d573d6000803e3d6000fd5b505050506040513d601f19601f820116820180604052508101906106c19190613177565b600c546040516370a0823160e01b815293965091945092506000916001600160a01b03909116906370a08231906106fc9030906004016131b2565b60206040518083038186803b15801561071457600080fd5b505afa158015610728573d6000803e3d6000fd5b505050506040513d601f19601f8201168201806040525081019061074c919061313d565b905060007f00000000000000000000000000000000000000000000000000000000000000006001600160a01b031663862a3394866001876040518463ffffffff1660e01b81526004016107a193929190613574565b602060405180830381600087803b1580156107bb57600080fd5b505af11580156107cf573d6000803e3d6000fd5b505050506040513d601f19601f820116820180604052508101906107f3919061313d565b600c546040516370a0823160e01b81529192506000916001600160a01b03909116906370a08231906108299030906004016131b2565b60206040518083038186803b15801561084157600080fd5b505afa158015610855573d6000803e3d6000fd5b505050506040513d601f19601f82011682018060405250810190610879919061313d565b905060006108878483611fa4565b600e549091506108979082611fa4565b600e55848310156108ba5760405162461bcd60e51b815260040161062d906132ed565b603360009054906101000a90046001600160a01b03166001600160a01b031663ab30ef4d6040518163ffffffff1660e01b815260040160206040518083038186803b15801561090857600080fd5b505afa15801561091c573d6000803e3d6000fd5b505050506040513d601f19601f820116820180604052508101906109409190613105565b61095c5760405162461bcd60e51b815260040161062d90613316565b60405163ee52a2f360e01b81526001600160a01b037f0000000000000000000000000000000000000000000000000000000000000000169063ee52a2f3906109ec907f00000000000000000000000000000000000000000000000000000000000000009087907f0000000000000000000000000000000000000000000000000000000000000000906004016131d1565b602060405180830381600087803b158015610a0657600080fd5b505af1158015610a1a573d6000803e3d6000fd5b505050506040513d601f19601f82011682018060405250810190610a3e919061313d565b5050505050505050565b6000610a55848484612001565b610ac584610a61611eb4565b610ac085604051806060016040528060288152602001613700602891396001600160a01b038a16600090815260036020526040812090610a9f611eb4565b6001600160a01b03168152602081019190915260400160002054919061214c565b611eb8565b5060015b9392505050565b600d54600e54600f5460105460115461ffff8516946001600160681b03620100008204811695600160781b909204169390926001600160801b0380831693600160801b909304169160ff1688565b600b5460ff1690565b610b2f611eb4565b6001600160a01b0316610b4061139a565b6001600160a01b031614610b89576040805162461bcd60e51b81526020600482018190526024820152600080516020613728833981519152604482015290519081900360640190fd5b603380546001600160a01b0319166001600160a01b0383161790556040517f4da9c22c924692646a21cf1f423781ae3285198dc22e8a6912835d3272b90b3c90610bd49083906131b2565b60405180910390a150565b60026000541415610c25576040805162461bcd60e51b815260206004820152601f602482015260008051602061362f833981519152604482015290519081900360640190fd5b600260005581610c475760405162461bcd60e51b815260040161062d90613257565b6001600160a01b038116610c6d5760405162461bcd60e51b815260040161062d90613356565b610c7782826121e3565b600c54610c8f906001600160a01b0316333085612401565b50506001600055565b60006105fb610ca5611eb4565b84610ac08560036000610cb6611eb4565b6001600160a01b03908116825260208083019390935260409182016000908120918c168152925290205490612461565b60115460ff1615610d095760405162461bcd60e51b815260040161062d906133fe565b6010544211610d2a5760405162461bcd60e51b815260040161062d9061338e565b6034546000908190610d44906001600160801b03166124b9565b600d805462010000600160781b031916620100006001600160681b03851602179055600e919091556011805460ff19166001179055603480546001600160801b0319166001600160801b039092169190911790555050565b600b5460009060ff1681610dcb610db1610605565b610db96115a5565b600f546001600160801b03168561259a565b9050610de0610dd985611700565b82846125d0565b925050505b919050565b6012546001600160a01b031681565b610e01611eb4565b6001600160a01b0316610e1261139a565b6001600160a01b031614610e5b576040805162461bcd60e51b81526020600482018190526024820152600080516020613728833981519152604482015290519081900360640190fd5b60008111610e7b5760405162461bcd60e51b815260040161062d90613273565b600b546040517f0e45875b8819e52adac9df2787285bc765235018d84ab492668edfcf944628c491610ec0916101009091046001600160681b03169084903390613478565b60405180910390a1610ed181611e62565b600b80546001600160681b0390921661010002610100600160701b0319909216919091179055565b6034546001600160801b031681565b60086020526000908152604090205461ffff8116906201000081046001600160681b031690600160781b90046001600160801b031683565b60026000541415610f86576040805162461bcd60e51b815260206004820152601f602482015260008051602061362f833981519152604482015290519081900360640190fd5b60026000908155610f98906001612630565b6001600055565b610fa7611eb4565b6001600160a01b0316610fb861139a565b6001600160a01b031614611001576040805162461bcd60e51b81526020600482018190526024820152600080516020613728833981519152604482015290519081900360640190fd5b6305f5e10081106110245760405162461bcd60e51b815260040161062d90613440565b7f24867dfb6fcb9970a07be21024956524abe7a1837faa903ff0e99aaa40cf893e601354826040516110579291906135a8565b60405180910390a1601355565b6001600160a01b031660009081526002602052604090205490565b611087611eb4565b6001600160a01b031661109861139a565b6001600160a01b0316146110e1576040805162461bcd60e51b81526020600482018190526024820152600080516020613728833981519152604482015290519081900360640190fd5b6001546040516000916001600160a01b031690600080516020613748833981519152908390a3600180546001600160a01b0319169055565b7f000000000000000000000000000000000000000000000000000000000000000081565b600a6020526000908152604090205461ffff8116906201000090046001600160801b031682565b600260005414156111aa576040805162461bcd60e51b815260206004820152601f602482015260008051602061362f833981519152604482015290519081900360640190fd5b6002600055806111cc5760405162461bcd60e51b815260040161062d9061323a565b336000908152600860205260409020546201000090046001600160681b0316151580611216575033600090815260086020526040902054600160781b90046001600160801b031615155b156112275761122760006001612630565b600d54336000818152600a6020526040908190208054915161ffff948516949193919092168414917f0c53c82ad07e2d592d88ece3b066777dd60f1118e2a081b380efc4358f0d9e2a9061127e90879087906135a8565b60405180910390a281546201000090046001600160801b0316600082156112b0576112a98287612461565b90506112ef565b81156112ce5760405162461bcd60e51b815260040161062d906133c6565b50336000908152600a60205260409020805461ffff191661ffff8616179055845b6112f8816127ce565b336000908152600a6020526040812080546001600160801b03808516620100000262010000600160901b031990921691909117909155600f5461134491600160801b9091041688612461565b905061134f816127ce565b600f80546001600160801b03808416600160801b029116179055611374333089612001565b505060016000555050505050565b60096020526000908152604090205481565b60135481565b6001546001600160a01b031690565b60068054604080516020601f60026000196101006001881615020190951694909404938401819004810282018101909252828152606093909290918301828280156105dd5780601f106105b2576101008083540402835291602001916105dd565b6000611439611417610605565b61141f6115a5565b600f54600b546001600160801b039091169060ff1661259a565b905090565b60005b81518110156114ea577f00000000000000000000000000000000000000000000000000000000000000006001600160a01b031663a92e61eb83838151811061148557fe5b602002602001015160016040518363ffffffff1660e01b81526004016114ac929190613560565b600060405180830381600087803b1580156114c657600080fd5b505af11580156114da573d6000803e3d6000fd5b5050600190920191506114419050565b5050565b600b54600c5460ff82169161010090046001600160681b0316906001600160a01b031683565b60006105fb611521611eb4565b84610ac08560405180606001604052806025815260200161381c602591396003600061154b611eb4565b6001600160a01b03908116825260208083019390935260409182016000908120918d1681529252902054919061214c565b60145481565b6033546001600160a01b031681565b60006105fb61159e611eb4565b8484612001565b600c546040516370a0823160e01b8152600091611439916001600160a01b03909116906370a08231906115dc9030906004016131b2565b60206040518083038186803b1580156115f457600080fd5b505afa158015611608573d6000803e3d6000fd5b505050506040513d601f19601f8201168201806040525081019061162c919061313d565b600d546201000090046001600160681b031690612461565b6002600054141561168a576040805162461bcd60e51b815260206004820152601f602482015260008051602061362f833981519152604482015290519081900360640190fd5b6002600055806116ac5760405162461bcd60e51b815260040161062d90613257565b6116b681336121e3565b600c546116ce906001600160a01b0316333084612401565b506001600055565b7f000000000000000000000000000000000000000000000000000000000000000081565b60355481565b600080600061170e84611a3e565b9092509050610de08282612461565b60026000541415611763576040805162461bcd60e51b815260206004820152601f602482015260008051602061362f833981519152604482015290519081900360640190fd5b6002600055806117855760405162461bcd60e51b815260040161062d9061323a565b6116ce816000612630565b6001600160a01b03918216600090815260036020908152604080832093909416825291909152205490565b6117c3611eb4565b6001600160a01b03166117d461139a565b6001600160a01b03161461181d576040805162461bcd60e51b81526020600482018190526024820152600080516020613728833981519152604482015290519081900360640190fd5b600d80546000600e55600160781b600160e01b03198116620100009091046001600160681b0316600160781b021762010000600160781b03191690556118664262015180612461565b6010556011805460ff19169055565b61187d611eb4565b6001600160a01b031661188e61139a565b6001600160a01b0316146118d7576040805162461bcd60e51b81526020600482018190526024820152600080516020613728833981519152604482015290519081900360640190fd5b6001600160a01b0381166118fd5760405162461bcd60e51b815260040161062d90613372565b6012546001600160a01b038281169116141561192b5760405162461bcd60e51b815260040161062d9061328f565b601280546001600160a01b0319166001600160a01b0392909216919091179055565b611955611eb4565b6001600160a01b031661196661139a565b6001600160a01b0316146119af576040805162461bcd60e51b81526020600482018190526024820152600080516020613728833981519152604482015290519081900360640190fd5b6001600160a01b0381166119f45760405162461bcd60e51b81526004018080602001828103825260268152602001806136716026913960400191505060405180910390fd5b6001546040516001600160a01b0380841692169060008051602061374883398151915290600090a3600180546001600160a01b0319166001600160a01b0392909216919091179055565b6001600160a01b03811660009081526008602090815260408083208151606081018352905461ffff81168083526201000082046001600160681b031694830194909452600160781b90046001600160801b0316918101919091528291611ab357611aa784611064565b60009250925050611af5565b600d54815161ffff908116600090815260096020526040812054600b549193611ae49386939116919060ff1661281d565b9050611aef85611064565b93509150505b915091565b60026000541415611b40576040805162461bcd60e51b815260206004820152601f602482015260008051602061362f833981519152604482015290519081900360640190fd5b60026000908155338152600a6020526040902080546001600160801b03620100008204169061ffff1681611b865760405162461bcd60e51b815260040161062d90613424565b600d5461ffff168110611bab5760405162461bcd60e51b815260040161062d906133aa565b336000908152600a60205260409020805462010000600160901b0319169055600f54611be790600160801b90046001600160801b031683611fa4565b600f80546001600160801b03928316600160801b029216919091179055600081815260096020526040812054600b54611c2491859160ff166125d0565b9050336001600160a01b03167ff279e6a1f5e320cca91135676d9cb6e44ca8a08c0b88342bcdb1144f6511b5688285604051611c619291906135a8565b60405180910390a2611c73308461288e565b60008111611c935760405162461bcd60e51b815260040161062d90613339565b611c9d3382612978565b505060016000555050565b611cb0611eb4565b6001600160a01b0316611cc161139a565b6001600160a01b031614611d0a576040805162461bcd60e51b81526020600482018190526024820152600080516020613728833981519152604482015290519081900360640190fd5b6305f5e1008110611d2d5760405162461bcd60e51b815260040161062d906132d1565b7f4e874b007ab14f7e263baefd44951834c8266f4f224d1092e49e9c254354cc5460145482604051611d609291906135a8565b60405180910390a1611d9f7f0000000000000000000000000000000000000000000000000000000000000000611d9983620f4240611da5565b90611dfe565b60145550565b600082611db4575060006105ff565b82820282848281611dc157fe5b0414610ac95760405162461bcd60e51b81526004018080602001828103825260218152602001806136df6021913960400191505060405180910390fd5b6000808211611e51576040805162461bcd60e51b815260206004820152601a602482015279536166654d6174683a206469766973696f6e206279207a65726f60301b604482015290519081900360640190fd5b818381611e5a57fe5b049392505050565b6001600160681b03811115611eb1576040805162461bcd60e51b815260206004820152601060248201526f13dd995c999b1bddc81d5a5b9d0c4c0d60821b604482015290519081900360640190fd5b50565b3390565b6001600160a01b038316611efd5760405162461bcd60e51b81526004018080602001828103825260248152602001806137ce6024913960400191505060405180910390fd5b6001600160a01b038216611f425760405162461bcd60e51b81526004018080602001828103825260228152602001806136976022913960400191505060405180910390fd5b6001600160a01b03808416600081815260036020908152604080832094871680845294825291829020859055815185815291517f8c5be1e5ebec7d5bd14f71427d1e84f3dd0314c0f7b2291e5b200ac8c7c3b9259281900390910190a3505050565b600082821115611ffb576040805162461bcd60e51b815260206004820152601e60248201527f536166654d6174683a207375627472616374696f6e206f766572666c6f770000604482015290519081900360640190fd5b50900390565b6001600160a01b0383166120465760405162461bcd60e51b81526004018080602001828103825260258152602001806137a96025913960400191505060405180910390fd5b6001600160a01b03821661208b5760405162461bcd60e51b815260040180806020018281038252602381526020018061360c6023913960400191505060405180910390fd5b61209683838361298f565b6120d3816040518060600160405280602681526020016136b9602691396001600160a01b038616600090815260026020526040902054919061214c565b6001600160a01b0380851660009081526002602052604080822093909355908416815220546121029082612461565b6001600160a01b03808416600081815260026020908152604091829020949094558051858152905191939287169260008051602061376883398151915292918290030190a3505050565b600081848411156121db5760405162461bcd60e51b81526004018080602001828103825283818151815260200191508051906020019080838360005b838110156121a0578181015183820152602001612188565b50505050905090810190601f1680156121cd5780820380516001836020036101000a031916815260200191505b509250505060405180910390fd5b505050900390565b600d5461ffff1660006121fe846121f86115a5565b90612461565b600b5490915061010090046001600160681b03168111156122315760405162461bcd60e51b815260040161062d906133e2565b826001600160a01b03167f90890809c654f11d6e72a28fa60149770a0d11ec6c92319d6ceb2bb0a4ea1a15858460405161226c9291906135a8565b60405180910390a26001600160a01b03831660009081526008602090815260408083208151606081018352905461ffff81168083526201000082046001600160681b031683860152600160781b9091046001600160801b03168284015284526009909252822054600b549192916122ea91849187919060ff1661281d565b8251909150869061ffff1685141561231b576020830151600090612317906001600160681b031689612461565b9150505b61232481611e62565b6040805160608101825261ffff87811682526001600160681b0384811660208085019182526001600160801b038881168688019081526001600160a01b038e1660009081526008909352968220955186549351975161ffff1990941695169490941762010000600160781b03191662010000969093169590950291909117600160781b600160f81b031916600160781b9183169190910217909155600f546123cd911689612461565b90506123d8816127ce565b600f80546001600160801b0319166001600160801b039290921691909117905550505050505050565b604080516001600160a01b0380861660248301528416604482015260648082018490528251808303909101815260849091019091526020810180516001600160e01b03166323b872dd60e01b17905261245b908590612994565b50505050565b600082820183811015610ac9576040805162461bcd60e51b815260206004820152601b60248201527a536166654d6174683a206164646974696f6e206f766572666c6f7760281b604482015290519081900360640190fd5b6000806000806000806125016124cd610605565b600c54600b54600f546001600160a01b039092169160ff909116906001600160801b0380821691600160801b900416612a45565b600d5461ffff16600081815260096020526040812084905594985092965090945092509088851161253357600061253d565b61253d858a611fa4565b905061255b61255461254f8884612461565b612b32565b8790611fa4565b600f80546001600160801b0319169055600d805461ffff19166001850161ffff16179055955061258b3084612bc6565b50939550919350505050915091565b6000600a82900a856125ac57806125c4565b6125c486611d996125bd8888611fa4565b8490611da5565b9150505b949350505050565b600080831161261e576040805162461bcd60e51b8152602060048201526015602482015274496e76616c6964206173736574506572536861726560581b604482015290519081900360640190fd5b6125c8600a83900a611d998686611da5565b3360009081526008602090815260408083208151606081018352905461ffff8082168084526201000083046001600160681b031684870152600160781b9092046001600160801b031683850152600d54918652600990945291842054600b54919492909316926126a6918591859160ff1661281d565b9050836126b357846126b5565b805b9450846126c4575050506114ea565b808511156126e45760405162461bcd60e51b815260040161062d9061345c565b825161ffff1682116126fa5782602001516126fd565b60005b33600090815260086020526040902080546001600160681b0392909216620100000262010000600160781b031990921691909117905561273c856127ce565b6127468186611fa4565b336000818152600860205260409081902080546001600160801b0394909416600160781b02600160781b600160f81b0319909416939093179092558451915190917fe5b754fb1abb7f01b499791d0b820ae3b6af3424ac1c59768edb53f4ec31a929916127b4918991613596565b60405180910390a26127c7303387612001565b5050505050565b6001600160801b03811115611eb1576040805162461bcd60e51b815260206004820152601060248201526f09eeccae4ccd8deee40ead2dce86264760831b604482015290519081900360640190fd5b835160009061ffff16158015906128385750845161ffff1684115b1561287a57600061285786602001516001600160681b03168585612ca6565b6040870151909150612872906001600160801b031682612461565b9150506125c8565b50505050604001516001600160801b031690565b6001600160a01b0382166128d35760405162461bcd60e51b81526004018080602001828103825260218152602001806137886021913960400191505060405180910390fd5b6128df8260008361298f565b61291c8160405180606001604052806022815260200161364f602291396001600160a01b038516600090815260026020526040902054919061214c565b6001600160a01b0383166000908152600260205260409020556004546129429082611fa4565b6004556040805182815290516000916001600160a01b038516916000805160206137688339815191529181900360200190a35050565b600c546001600160a01b031661298f818484612d06565b505050565b60006129e9826040518060400160405280602081526020017f5361666545524332303a206c6f772d6c6576656c2063616c6c206661696c6564815250856001600160a01b0316612d589092919063ffffffff16565b80519091501561298f57808060200190516020811015612a0857600080fd5b505161298f5760405162461bcd60e51b815260040180806020018281038252602a8152602001806137f2602a913960400191505060405180910390fd5b6000806000806000886001600160a01b03166370a08231306040518263ffffffff1660e01b8152600401612a7991906131b2565b60206040518083038186803b158015612a9157600080fd5b505afa158015612aa5573d6000803e3d6000fd5b505050506040513d601f19601f82011682018060405250810190612ac9919061313d565b9050612ad78a82898b61259a565b92506000612ae688858b612ca6565b90506000612af48c83612461565b90506000808211612b06576000612b11565b612b1189878d6125d0565b9050612b1d8482611fa4565b97509550909250505095509550955095915050565b6000806000612b48600d85601354601454612e72565b92505091506000811115610ac957601254612b6c906001600160a01b031682612978565b601254600d546040516001600160a01b03909216917f0a242f7ecaf711036ca770774ceffae28e60ef042ac113ddd187f2631db0c00691612bb7918691869161ffff909116906135b6565b60405180910390a29392505050565b6001600160a01b038216612c21576040805162461bcd60e51b815260206004820152601f60248201527f45524332303a206d696e7420746f20746865207a65726f206164647265737300604482015290519081900360640190fd5b612c2d6000838361298f565b600454612c3a9082612461565b6004556001600160a01b038216600090815260026020526040902054612c609082612461565b6001600160a01b03831660008181526002602090815260408083209490945583518581529351929391926000805160206137688339815191529281900390910190a35050565b6000808311612cf4576040805162461bcd60e51b8152602060048201526015602482015274496e76616c6964206173736574506572536861726560581b604482015290519081900360640190fd5b6125c883611d9986600a86900a611da5565b604080516001600160a01b038416602482015260448082018490528251808303909101815260649091019091526020810180516001600160e01b031663a9059cbb60e01b17905261298f908490612994565b6060612d6384612f25565b612db4576040805162461bcd60e51b815260206004820152601d60248201527f416464726573733a2063616c6c20746f206e6f6e2d636f6e7472616374000000604482015290519081900360640190fd5b600080856001600160a01b0316856040518082805190602001908083835b60208310612df15780518252601f199092019160209182019101612dd2565b6001836020036101000a0380198251168184511680821785525050505050509050019150506000604051808303816000865af19150503d8060008114612e53576040519150601f19603f3d011682016040523d82523d6000602084013e612e58565b606091505b5091509150612e68828286612f2b565b9695505050505050565b8354600285015460009182918291600160781b90046001600160681b0316908290612ea79089906001600160801b0316611fa4565b9050600080600084841115612f135760008a11612ec5576000612ee1565b612ee16305f5e100611d998c612edb888a611fa4565b90611da5565b925060008911612ef2576000612f04565b612f046305f5e100611d99868c611da5565b9150612f108383612461565b90505b919b909a509098509650505050505050565b3b151590565b60608315612f3a575081610ac9565b825115612f4a5782518084602001fd5b60405162461bcd60e51b81526020600482018181528451602484015284518593919283926044019190850190808383600083156121a0578181015183820152602001612188565b80356001600160a01b0381168114610de557600080fd5b600060208284031215612fb9578081fd5b610ac982612f91565b60008060408385031215612fd4578081fd5b612fdd83612f91565b9150612feb60208401612f91565b90509250929050565b600080600060608486031215613008578081fd5b61301184612f91565b925061301f60208501612f91565b9150604084013590509250925092565b60008060408385031215613041578182fd5b61304a83612f91565b946020939093013593505050565b6000602080838503121561306a578182fd5b82356001600160401b0380821115613080578384fd5b818501915085601f830112613093578384fd5b81358181111561309f57fe5b838102604051858282010181811085821117156130b857fe5b604052828152858101935084860182860187018a10156130d6578788fd5b8795505b838610156130f85780358552600195909501949386019386016130da565b5098975050505050505050565b600060208284031215613116578081fd5b81518015158114610ac9578182fd5b600060208284031215613136578081fd5b5035919050565b60006020828403121561314e578081fd5b5051919050565b60008060408385031215613167578182fd5b82359150612feb60208401612f91565b60008060006060848603121561318b578283fd5b8351925060208401519150604084015190509250925092565b600481106131ae57fe5b9052565b6001600160a01b0391909116815260200190565b901515815260200190565b9283526020830191909152604082015260600190565b6000602080835283518082850152825b81811015613213578581018301518582016040015282016131f7565b818111156132245783604083870101525b50601f01601f1916929092016040019392505050565b602080825260039082015262214e5360e81b604082015260600190565b602080825260029082015261214160f01b604082015260600190565b602080825260029082015261494360f01b604082015260600190565b60208082526002908201526129a360f11b604082015260600190565b6020808252600c908201526b1c9bdd5b990818db1bdcd95960a21b604082015260600190565b602080825260029082015261494d60f01b604082015260600190565b6020808252600f908201526e7072656d69756d20746f6f206c6f7760881b604082015260600190565b60208082526009908201526862616420747261646560b81b604082015260600190565b60208082526003908201526221574160e81b604082015260600190565b602080825260029082015261214360f01b604082015260600190565b602080825260029082015261494160f01b604082015260600190565b60208082526002908201526110d160f21b604082015260600190565b602080825260029082015261052560f41b604082015260600190565b602080825260029082015261455760f01b604082015260600190565b602080825260029082015261454360f01b604082015260600190565b6020808252600c908201526b1c9bdd5b99081bdc195b995960a21b604082015260600190565b6020808252600290820152614e4960f01b604082015260600190565b602080825260029082015261049560f41b604082015260600190565b602080825260029082015261454160f01b604082015260600190565b6001600160681b0393909316835260208301919091526001600160a01b0316604082015260600190565b6001600160801b0391909116815260200190565b61ffff9890981688526001600160681b03968716602089015294909516604087015260608601929092526001600160801b0390811660808601521660a084015260c0830191909152151560e08201526101000190565b61ffff9390931683526001600160681b039190911660208301526001600160801b0316604082015260600190565b61ffff9290921682526001600160801b0316602082015260400190565b90815260200190565b82815260408101610ac960208301846131a4565b8381526060810161358860208301856131a4565b826040830152949350505050565b91825261ffff16602082015260400190565b918252602082015260400190565b928352602083019190915261ffff16604082015260600190565b60ff91909116815260200190565b60ff9390931683526001600160681b039190911660208301526001600160a01b031660408201526060019056fe45524332303a207472616e7366657220746f20746865207a65726f20616464726573735265656e7472616e637947756172643a207265656e7472616e742063616c6c0045524332303a206275726e20616d6f756e7420657863656564732062616c616e63654f776e61626c653a206e6577206f776e657220697320746865207a65726f206164647265737345524332303a20617070726f766520746f20746865207a65726f206164647265737345524332303a207472616e7366657220616d6f756e7420657863656564732062616c616e6365536166654d6174683a206d756c7469706c69636174696f6e206f766572666c6f7745524332303a207472616e7366657220616d6f756e74206578636565647320616c6c6f77616e63654f776e61626c653a2063616c6c6572206973206e6f7420746865206f776e65728be0079c531659141344cd1fd0a4f28419497f9722a3daafe3b4186f6b6457e0ddf252ad1be2c89b69c2b068fc378daa952ba7f163c4a11628f55a4df523b3ef45524332303a206275726e2066726f6d20746865207a65726f206164647265737345524332303a207472616e736665722066726f6d20746865207a65726f206164647265737345524332303a20617070726f76652066726f6d20746865207a65726f20616464726573735361666545524332303a204552433230206f7065726174696f6e20646964206e6f74207375636365656445524332303a2064656372656173656420616c6c6f77616e63652062656c6f77207a65726fa264697066735822122004aa5906302d4214aca6f3493c8a58bc878da7c07864f7a7695b5bf9015cf95b64736f6c63430007060033536166654d6174683a206d756c7469706c69636174696f6e206f766572666c6f77",
  "devdoc": {
    "kind": "dev",
    "methods": {
      "accountVaultBalance(address)": {
        "params": {
          "account": "is the address to lookup balance for"
        },
        "returns": {
          "_0": "the amount of `asset` custodied by the vault for the user"
        }
      },
      "allowance(address,address)": {
        "details": "See {IERC20-allowance}."
      },
      "approve(address,uint256)": {
        "details": "See {IERC20-approve}. Requirements: - `spender` cannot be the zero address."
      },
      "balanceOf(address)": {
        "details": "See {IERC20-balanceOf}."
      },
      "closeRound()": {
        "details": "close the current round, enable user to deposit for the next round"
      },
      "decreaseAllowance(address,uint256)": {
        "details": "Atomically decreases the allowance granted to `spender` by the caller. This is an alternative to {approve} that can be used as a mitigation for problems described in {IERC20-approve}. Emits an {Approval} event indicating the updated allowance. Requirements: - `spender` cannot be the zero address. - `spender` must have allowance for the caller of at least `subtractedValue`."
      },
      "deposit(uint256)": {
        "params": {
          "amount": "is the amount of `asset` to deposit"
        }
      },
      "depositFor(uint256,address)": {
        "params": {
          "amount": "is the amount of `asset` to deposit",
          "creditor": "is the address that can claim/withdraw deposited amount"
        }
      },
      "increaseAllowance(address,uint256)": {
        "details": "Atomically increases the allowance granted to `spender` by the caller. This is an alternative to {approve} that can be used as a mitigation for problems described in {IERC20-approve}. Emits an {Approval} event indicating the updated allowance. Requirements: - `spender` cannot be the zero address."
      },
      "initiateWithdraw(uint256)": {
        "params": {
          "numShares": "is the number of shares to withdraw"
        }
      },
      "name()": {
        "details": "Returns the name of the token."
      },
      "owner()": {
        "details": "Returns the address of the current owner."
      },
      "redeem(uint256)": {
        "params": {
          "numShares": "is the number of shares to redeem"
        }
      },
      "renounceOwnership()": {
        "details": "Leaves the contract without owner. It will not be possible to call `onlyOwner` functions anymore. Can only be called by the current owner. NOTE: Renouncing ownership will leave the contract without an owner, thereby removing any functionality that is only available to the owner."
      },
      "setCap(uint256)": {
        "params": {
          "newCap": "is the new cap for deposits"
        }
      },
      "setFeeRecipient(address)": {
        "params": {
          "newFeeRecipient": "is the address of the new fee recipient"
        }
      },
      "setManagementFee(uint256)": {
        "params": {
          "newManagementFee": "is the management fee (6 decimals). ex: 2 * 10 ** 6 = 2%"
        }
      },
      "setPerformanceFee(uint256)": {
        "params": {
          "newPerformanceFee": "is the performance fee (6 decimals). ex: 20 * 10 ** 6 = 20%"
        }
      },
      "setStrategy(address)": {
        "details": "set strategy contract. This function can only be called by owner."
      },
      "settle(uint256[])": {
        "details": "anyone can call the function to settle outstanding expired positions",
        "params": {
          "listingIds": "an array of listingId that the vault traded with in the last round."
        }
      },
      "shareBalances(address)": {
        "params": {
          "account": "is the account to lookup share balance for"
        },
        "returns": {
          "heldByAccount": "is the shares held by account",
          "heldByVault": "is the shares held on the vault (unredeemedShares)"
        }
      },
      "shares(address)": {
        "params": {
          "account": "is the account to lookup share balance for"
        },
        "returns": {
          "_0": "the share balance"
        }
      },
      "symbol()": {
        "details": "Returns the symbol of the token, usually a shorter version of the name."
      },
      "totalBalance()": {
        "returns": {
          "_0": "total balance of the vault, including the amounts locked in third party protocols"
        }
      },
      "totalSupply()": {
        "details": "See {IERC20-totalSupply}."
      },
      "trade()": {
        "details": "anyone can trigger a trade"
      },
      "transfer(address,uint256)": {
        "details": "See {IERC20-transfer}. Requirements: - `recipient` cannot be the zero address. - the caller must have a balance of at least `amount`."
      },
      "transferFrom(address,address,uint256)": {
        "details": "See {IERC20-transferFrom}. Emits an {Approval} event indicating the updated allowance. This is not required by the EIP. See the note at the beginning of {ERC20}. Requirements: - `sender` and `recipient` cannot be the zero address. - `sender` must have a balance of at least `amount`. - the caller must have allowance for ``sender``'s tokens of at least `amount`."
      },
      "transferOwnership(address)": {
        "details": "Transfers ownership of the contract to a new account (`newOwner`). Can only be called by the current owner."
      }
    },
    "stateVariables": {
      "premiumCurrencyKey": {
        "details": "Synthetix currency key for sUSD"
      },
      "sETHCurrencyKey": {
        "details": "Synthetix currency key for sETH"
      }
    },
    "version": 1
  },
  "userdoc": {
    "kind": "user",
    "methods": {
      "accountVaultBalance(address)": {
        "notice": "Returns the asset balance held on the vault for the account"
      },
      "completeWithdraw()": {
        "notice": "Completes a scheduled withdrawal from a past round. Uses finalized pps for the round"
      },
      "decimals()": {
        "notice": "Returns the token decimals"
      },
      "deposit(uint256)": {
        "notice": "Deposits the `asset` from msg.sender."
      },
      "depositFor(uint256,address)": {
        "notice": "Deposits the `asset` from msg.sender added to `creditor`'s deposit.Used for vault -> vault deposits on the user's behalf"
      },
      "depositReceipts(address)": {
        "notice": "Stores the user's pending deposit for the round"
      },
      "feeRecipient()": {
        "notice": "Fee recipient for the performance and management fees"
      },
      "initiateWithdraw(uint256)": {
        "notice": "Initiates a withdrawal that can be processed once the round completes"
      },
      "managementFee()": {
        "notice": "Management fee charged on entire AUM in rollToNextOption. Only charged when there is no loss."
      },
      "maxRedeem()": {
        "notice": "Redeems the entire unredeemedShares balance that is owed to the account"
      },
      "performanceFee()": {
        "notice": "Performance fee charged on premiums earned in rollToNextOption. Only charged when there is no loss."
      },
      "pricePerShare()": {
        "notice": "The price of a unit of share denominated in the `asset`"
      },
      "redeem(uint256)": {
        "notice": "Redeems shares that are owed to the account"
      },
      "roundPricePerShare(uint256)": {
        "notice": "On every round's close, the pricePerShare value of an rTHETA token is stored This is used to determine the number of shares to be returned to a user with their DepositReceipt.depositAmount"
      },
      "setCap(uint256)": {
        "notice": "Sets a new cap for deposits"
      },
      "setFeeRecipient(address)": {
        "notice": "Sets the new fee recipient"
      },
      "setManagementFee(uint256)": {
        "notice": "Sets the management fee for the vault"
      },
      "setPerformanceFee(uint256)": {
        "notice": "Sets the performance fee for the vault"
      },
      "settle(uint256[])": {
        "notice": "settle outstanding short positions."
      },
      "shareBalances(address)": {
        "notice": "Getter for returning the account's share balance split between account and vault holdings"
      },
      "shares(address)": {
        "notice": "Getter for returning the account's share balance including unredeemed shares"
      },
      "startNextRound()": {
        "notice": "start the next round"
      },
      "totalBalance()": {
        "notice": "Returns the vault's total balance, including the amounts locked into a short position"
      },
      "vaultParams()": {
        "notice": "Vault's parameters like cap, decimals"
      },
      "vaultState()": {
        "notice": "Vault's lifecycle state like round and locked amounts"
      },
      "withdrawals(address)": {
        "notice": "Stores pending user withdrawals"
      }
    },
    "notice": "LyraVault help users run option-selling strategies on Lyra AMM.",
    "version": 1
  },
  "storageLayout": {
    "storage": [
      {
        "astId": 1441,
        "contract": "contracts/core/LyraVault.sol:LyraVault",
        "label": "_status",
        "offset": 0,
        "slot": "0",
        "type": "t_uint256"
      },
      {
        "astId": 7,
        "contract": "contracts/core/LyraVault.sol:LyraVault",
        "label": "_owner",
        "offset": 0,
        "slot": "1",
        "type": "t_address"
      },
      {
        "astId": 547,
        "contract": "contracts/core/LyraVault.sol:LyraVault",
        "label": "_balances",
        "offset": 0,
        "slot": "2",
        "type": "t_mapping(t_address,t_uint256)"
      },
      {
        "astId": 553,
        "contract": "contracts/core/LyraVault.sol:LyraVault",
        "label": "_allowances",
        "offset": 0,
        "slot": "3",
        "type": "t_mapping(t_address,t_mapping(t_address,t_uint256))"
      },
      {
        "astId": 555,
        "contract": "contracts/core/LyraVault.sol:LyraVault",
        "label": "_totalSupply",
        "offset": 0,
        "slot": "4",
        "type": "t_uint256"
      },
      {
        "astId": 557,
        "contract": "contracts/core/LyraVault.sol:LyraVault",
        "label": "_name",
        "offset": 0,
        "slot": "5",
        "type": "t_string_storage"
      },
      {
        "astId": 559,
        "contract": "contracts/core/LyraVault.sol:LyraVault",
        "label": "_symbol",
        "offset": 0,
        "slot": "6",
        "type": "t_string_storage"
      },
      {
        "astId": 561,
        "contract": "contracts/core/LyraVault.sol:LyraVault",
        "label": "_decimals",
        "offset": 0,
        "slot": "7",
        "type": "t_uint8"
      },
      {
        "astId": 471,
        "contract": "contracts/core/LyraVault.sol:LyraVault",
        "label": "_initialized",
        "offset": 1,
        "slot": "7",
        "type": "t_bool"
      },
      {
        "astId": 474,
        "contract": "contracts/core/LyraVault.sol:LyraVault",
        "label": "_initializing",
        "offset": 2,
        "slot": "7",
        "type": "t_bool"
      },
      {
        "astId": 1516,
        "contract": "contracts/core/LyraVault.sol:LyraVault",
        "label": "depositReceipts",
        "offset": 0,
        "slot": "8",
        "type": "t_mapping(t_address,t_struct(DepositReceipt)4333_storage)"
      },
      {
        "astId": 1521,
        "contract": "contracts/core/LyraVault.sol:LyraVault",
        "label": "roundPricePerShare",
        "offset": 0,
        "slot": "9",
        "type": "t_mapping(t_uint256,t_uint256)"
      },
      {
        "astId": 1526,
        "contract": "contracts/core/LyraVault.sol:LyraVault",
        "label": "withdrawals",
        "offset": 0,
        "slot": "10",
        "type": "t_mapping(t_address,t_struct(Withdrawal)4338_storage)"
      },
      {
        "astId": 1529,
        "contract": "contracts/core/LyraVault.sol:LyraVault",
        "label": "vaultParams",
        "offset": 0,
        "slot": "11",
        "type": "t_struct(VaultParams)4309_storage"
      },
      {
        "astId": 1532,
        "contract": "contracts/core/LyraVault.sol:LyraVault",
        "label": "vaultState",
        "offset": 0,
        "slot": "13",
        "type": "t_struct(VaultState)4326_storage"
      },
      {
        "astId": 1535,
        "contract": "contracts/core/LyraVault.sol:LyraVault",
        "label": "feeRecipient",
        "offset": 0,
        "slot": "18",
        "type": "t_address"
      },
      {
        "astId": 1538,
        "contract": "contracts/core/LyraVault.sol:LyraVault",
        "label": "performanceFee",
        "offset": 0,
        "slot": "19",
        "type": "t_uint256"
      },
      {
        "astId": 1541,
        "contract": "contracts/core/LyraVault.sol:LyraVault",
        "label": "managementFee",
        "offset": 0,
        "slot": "20",
        "type": "t_uint256"
      },
      {
        "astId": 1545,
        "contract": "contracts/core/LyraVault.sol:LyraVault",
        "label": "____gap",
        "offset": 0,
        "slot": "21",
        "type": "t_array(t_uint256)30_storage"
      },
      {
        "astId": 2810,
        "contract": "contracts/core/LyraVault.sol:LyraVault",
        "label": "strategy",
        "offset": 0,
        "slot": "51",
        "type": "t_contract(IVaultStrategy)4107"
      },
      {
        "astId": 2812,
        "contract": "contracts/core/LyraVault.sol:LyraVault",
        "label": "lastQueuedWithdrawAmount",
        "offset": 0,
        "slot": "52",
        "type": "t_uint128"
      },
      {
        "astId": 2814,
        "contract": "contracts/core/LyraVault.sol:LyraVault",
        "label": "optionAllocation",
        "offset": 0,
        "slot": "53",
        "type": "t_uint256"
      }
    ],
    "types": {
      "t_address": {
        "encoding": "inplace",
        "label": "address",
        "numberOfBytes": "20"
      },
      "t_array(t_uint256)30_storage": {
        "base": "t_uint256",
        "encoding": "inplace",
        "label": "uint256[30]",
        "numberOfBytes": "960"
      },
      "t_bool": {
        "encoding": "inplace",
        "label": "bool",
        "numberOfBytes": "1"
      },
      "t_contract(IVaultStrategy)4107": {
        "encoding": "inplace",
        "label": "contract IVaultStrategy",
        "numberOfBytes": "20"
      },
      "t_mapping(t_address,t_mapping(t_address,t_uint256))": {
        "encoding": "mapping",
        "key": "t_address",
        "label": "mapping(address => mapping(address => uint256))",
        "numberOfBytes": "32",
        "value": "t_mapping(t_address,t_uint256)"
      },
      "t_mapping(t_address,t_struct(DepositReceipt)4333_storage)": {
        "encoding": "mapping",
        "key": "t_address",
        "label": "mapping(address => struct Vault.DepositReceipt)",
        "numberOfBytes": "32",
        "value": "t_struct(DepositReceipt)4333_storage"
      },
      "t_mapping(t_address,t_struct(Withdrawal)4338_storage)": {
        "encoding": "mapping",
        "key": "t_address",
        "label": "mapping(address => struct Vault.Withdrawal)",
        "numberOfBytes": "32",
        "value": "t_struct(Withdrawal)4338_storage"
      },
      "t_mapping(t_address,t_uint256)": {
        "encoding": "mapping",
        "key": "t_address",
        "label": "mapping(address => uint256)",
        "numberOfBytes": "32",
        "value": "t_uint256"
      },
      "t_mapping(t_uint256,t_uint256)": {
        "encoding": "mapping",
        "key": "t_uint256",
        "label": "mapping(uint256 => uint256)",
        "numberOfBytes": "32",
        "value": "t_uint256"
      },
      "t_string_storage": {
        "encoding": "bytes",
        "label": "string",
        "numberOfBytes": "32"
      },
      "t_struct(DepositReceipt)4333_storage": {
        "encoding": "inplace",
        "label": "struct Vault.DepositReceipt",
        "members": [
          {
            "astId": 4328,
            "contract": "contracts/core/LyraVault.sol:LyraVault",
            "label": "round",
            "offset": 0,
            "slot": "0",
            "type": "t_uint16"
          },
          {
            "astId": 4330,
            "contract": "contracts/core/LyraVault.sol:LyraVault",
            "label": "amount",
            "offset": 2,
            "slot": "0",
            "type": "t_uint104"
          },
          {
            "astId": 4332,
            "contract": "contracts/core/LyraVault.sol:LyraVault",
            "label": "unredeemedShares",
            "offset": 15,
            "slot": "0",
            "type": "t_uint128"
          }
        ],
        "numberOfBytes": "32"
      },
      "t_struct(VaultParams)4309_storage": {
        "encoding": "inplace",
        "label": "struct Vault.VaultParams",
        "members": [
          {
            "astId": 4304,
            "contract": "contracts/core/LyraVault.sol:LyraVault",
            "label": "decimals",
            "offset": 0,
            "slot": "0",
            "type": "t_uint8"
          },
          {
            "astId": 4306,
            "contract": "contracts/core/LyraVault.sol:LyraVault",
            "label": "cap",
            "offset": 1,
            "slot": "0",
            "type": "t_uint104"
          },
          {
            "astId": 4308,
            "contract": "contracts/core/LyraVault.sol:LyraVault",
            "label": "asset",
            "offset": 0,
            "slot": "1",
            "type": "t_address"
          }
        ],
        "numberOfBytes": "64"
      },
      "t_struct(VaultState)4326_storage": {
        "encoding": "inplace",
        "label": "struct Vault.VaultState",
        "members": [
          {
            "astId": 4311,
            "contract": "contracts/core/LyraVault.sol:LyraVault",
            "label": "round",
            "offset": 0,
            "slot": "0",
            "type": "t_uint16"
          },
          {
            "astId": 4313,
            "contract": "contracts/core/LyraVault.sol:LyraVault",
            "label": "lockedAmount",
            "offset": 2,
            "slot": "0",
            "type": "t_uint104"
          },
          {
            "astId": 4315,
            "contract": "contracts/core/LyraVault.sol:LyraVault",
            "label": "lastLockedAmount",
            "offset": 15,
            "slot": "0",
            "type": "t_uint104"
          },
          {
            "astId": 4317,
            "contract": "contracts/core/LyraVault.sol:LyraVault",
            "label": "lockedAmountLeft",
            "offset": 0,
            "slot": "1",
            "type": "t_uint256"
          },
          {
            "astId": 4319,
            "contract": "contracts/core/LyraVault.sol:LyraVault",
            "label": "totalPending",
            "offset": 0,
            "slot": "2",
            "type": "t_uint128"
          },
          {
            "astId": 4321,
            "contract": "contracts/core/LyraVault.sol:LyraVault",
            "label": "queuedWithdrawShares",
            "offset": 16,
            "slot": "2",
            "type": "t_uint128"
          },
          {
            "astId": 4323,
            "contract": "contracts/core/LyraVault.sol:LyraVault",
            "label": "nextRoundReadyTimestamp",
            "offset": 0,
            "slot": "3",
            "type": "t_uint256"
          },
          {
            "astId": 4325,
            "contract": "contracts/core/LyraVault.sol:LyraVault",
            "label": "roundInProgress",
            "offset": 0,
            "slot": "4",
            "type": "t_bool"
          }
        ],
        "numberOfBytes": "160"
      },
      "t_struct(Withdrawal)4338_storage": {
        "encoding": "inplace",
        "label": "struct Vault.Withdrawal",
        "members": [
          {
            "astId": 4335,
            "contract": "contracts/core/LyraVault.sol:LyraVault",
            "label": "round",
            "offset": 0,
            "slot": "0",
            "type": "t_uint16"
          },
          {
            "astId": 4337,
            "contract": "contracts/core/LyraVault.sol:LyraVault",
            "label": "shares",
            "offset": 2,
            "slot": "0",
            "type": "t_uint128"
          }
        ],
        "numberOfBytes": "32"
      },
      "t_uint104": {
        "encoding": "inplace",
        "label": "uint104",
        "numberOfBytes": "13"
      },
      "t_uint128": {
        "encoding": "inplace",
        "label": "uint128",
        "numberOfBytes": "16"
      },
      "t_uint16": {
        "encoding": "inplace",
        "label": "uint16",
        "numberOfBytes": "2"
      },
      "t_uint256": {
        "encoding": "inplace",
        "label": "uint256",
        "numberOfBytes": "32"
      },
      "t_uint8": {
        "encoding": "inplace",
        "label": "uint8",
        "numberOfBytes": "1"
      }
    }
  }
}