{
  "address": "0xB2e699aEb5c0204276C834f25b51E97776d06920",
  "abi": [
    {
      "inputs": [],
      "name": "collateral",
      "outputs": [
        {
          "internalType": "uint256",
          "name": "",
          "type": "uint256"
        }
      ],
      "stateMutability": "view",
      "type": "function"
    },
    {
      "inputs": [],
      "name": "collateralToken",
      "outputs": [
        {
          "internalType": "address",
          "name": "",
          "type": "address"
        }
      ],
      "stateMutability": "view",
      "type": "function"
    },
    {
      "inputs": [
        {
          "internalType": "uint256",
          "name": "",
          "type": "uint256"
        },
        {
          "internalType": "enum IOptionMarket.TradeType",
          "name": "",
          "type": "uint8"
        },
        {
          "internalType": "uint256",
          "name": "",
          "type": "uint256"
        }
      ],
      "name": "openPosition",
      "outputs": [
        {
          "internalType": "uint256",
          "name": "totalCost",
          "type": "uint256"
        }
      ],
      "stateMutability": "nonpayable",
      "type": "function"
    },
    {
      "inputs": [],
      "name": "premium",
      "outputs": [
        {
          "internalType": "uint256",
          "name": "",
          "type": "uint256"
        }
      ],
      "stateMutability": "view",
      "type": "function"
    },
    {
      "inputs": [],
      "name": "premiumToken",
      "outputs": [
        {
          "internalType": "address",
          "name": "",
          "type": "address"
        }
      ],
      "stateMutability": "view",
      "type": "function"
    },
    {
      "inputs": [
        {
          "internalType": "address",
          "name": "_token",
          "type": "address"
        },
        {
          "internalType": "uint256",
          "name": "_collateralAmount",
          "type": "uint256"
        }
      ],
      "name": "setMockCollateral",
      "outputs": [],
      "stateMutability": "nonpayable",
      "type": "function"
    },
    {
      "inputs": [
        {
          "internalType": "address",
          "name": "_token",
          "type": "address"
        },
        {
          "internalType": "uint256",
          "name": "_premium",
          "type": "uint256"
        }
      ],
      "name": "setMockPremium",
      "outputs": [],
      "stateMutability": "nonpayable",
      "type": "function"
    },
    {
      "inputs": [
        {
          "internalType": "uint256",
          "name": "_collateral",
          "type": "uint256"
        }
      ],
      "name": "setMockSettlement",
      "outputs": [],
      "stateMutability": "nonpayable",
      "type": "function"
    },
    {
      "inputs": [
        {
          "internalType": "uint256",
          "name": "",
          "type": "uint256"
        },
        {
          "internalType": "enum IOptionMarket.TradeType",
          "name": "",
          "type": "uint8"
        }
      ],
      "name": "settleOptions",
      "outputs": [],
      "stateMutability": "nonpayable",
      "type": "function"
    },
    {
      "inputs": [],
      "name": "settlementPayout",
      "outputs": [
        {
          "internalType": "uint256",
          "name": "",
          "type": "uint256"
        }
      ],
      "stateMutability": "view",
      "type": "function"
    }
  ],
  "transactionHash": "0x0164483c0bc372d1d4004b2d239cd195a7a076f777f54c198bf5c225529abad1",
  "args": [],
  "solcInputHash": "bda36917ba62abeac6bd6cf50082533a",
  "bytecode": "0x608060405234801561001057600080fd5b5061041c806100206000396000f3fe608060405234801561001057600080fd5b506004361061008e5760003560e01c806307c980ca146100935780631f19169f146100ad5780635afff0ff146100cc5780637fbc345c146100f8578063862a339414610124578063a92e61eb14610150578063b180783d14610176578063b2016bd41461019a578063d8dfeb45146101a2578063e0a73a93146101aa575b600080fd5b61009b6101b2565b60408051918252519081900360200190f35b6100ca600480360360208110156100c357600080fd5b50356101b8565b005b6100ca600480360360408110156100e257600080fd5b506001600160a01b0381351690602001356101bd565b6100ca6004803603604081101561010e57600080fd5b506001600160a01b0381351690602001356101e3565b61009b6004803603606081101561013a57600080fd5b5080359060ff6020820135169060400135610209565b6100ca6004803603604081101561016657600080fd5b508035906020013560ff16610320565b61017e6103bc565b604080516001600160a01b039092168252519081900360200190f35b61017e6103cb565b61009b6103da565b61009b6103e0565b60045481565b600455565b600180546001600160a01b0319166001600160a01b039390931692909217909155600255565b600080546001600160a01b0319166001600160a01b039390931692909217909155600355565b60008054600354604080516323b872dd60e01b81523360048201523060248201526044810192909252516001600160a01b03909216916323b872dd9160648082019260209290919082900301818787803b15801561026657600080fd5b505af115801561027a573d6000803e3d6000fd5b505050506040513d602081101561029057600080fd5b50506001546002546040805163a9059cbb60e01b81523360048201526024810192909252516001600160a01b039092169163a9059cbb916044808201926020929091908290030181600087803b1580156102e957600080fd5b505af11580156102fd573d6000803e3d6000fd5b505050506040513d602081101561031357600080fd5b5050600254949350505050565b60008054906101000a90046001600160a01b03166001600160a01b031663a9059cbb336004546040518363ffffffff1660e01b815260040180836001600160a01b0316815260200182815260200192505050602060405180830381600087803b15801561038c57600080fd5b505af11580156103a0573d6000803e3d6000fd5b505050506040513d60208110156103b657600080fd5b50505050565b6001546001600160a01b031681565b6000546001600160a01b031681565b60035481565b6002548156fea2646970667358221220e652a8168190f71302f84601d706688072b36c6b93c315869cb9c17a669102b864736f6c63430007060033",
  "devdoc": {
    "kind": "dev",
    "methods": {},
    "version": 1
  },
  "userdoc": {
    "kind": "user",
    "methods": {},
    "version": 1
  },
  "storageLayout": {
    "storage": [
      {
        "astId": 4590,
        "contract": "contracts/mocks/MockOptionMarket.sol:MockOptionMarket",
        "label": "collateralToken",
        "offset": 0,
        "slot": "0",
        "type": "t_address"
      },
      {
        "astId": 4592,
        "contract": "contracts/mocks/MockOptionMarket.sol:MockOptionMarket",
        "label": "premiumToken",
        "offset": 0,
        "slot": "1",
        "type": "t_address"
      },
      {
        "astId": 4594,
        "contract": "contracts/mocks/MockOptionMarket.sol:MockOptionMarket",
        "label": "premium",
        "offset": 0,
        "slot": "2",
        "type": "t_uint256"
      },
      {
        "astId": 4596,
        "contract": "contracts/mocks/MockOptionMarket.sol:MockOptionMarket",
        "label": "collateral",
        "offset": 0,
        "slot": "3",
        "type": "t_uint256"
      },
      {
        "astId": 4598,
        "contract": "contracts/mocks/MockOptionMarket.sol:MockOptionMarket",
        "label": "settlementPayout",
        "offset": 0,
        "slot": "4",
        "type": "t_uint256"
      }
    ],
    "types": {
      "t_address": {
        "encoding": "inplace",
        "label": "address",
        "numberOfBytes": "20"
      },
      "t_uint256": {
        "encoding": "inplace",
        "label": "uint256",
        "numberOfBytes": "32"
      }
    }
  }
}