{
  "address": "0x519c30A315b0E59FCecac65a626cA46016B5D413",
  "abi": [
    {
      "inputs": [],
      "name": "checkPostTrade",
      "outputs": [
        {
          "internalType": "bool",
          "name": "",
          "type": "bool"
        }
      ],
      "stateMutability": "view",
      "type": "function"
    },
    {
      "inputs": [],
      "name": "isValid",
      "outputs": [
        {
          "internalType": "bool",
          "name": "",
          "type": "bool"
        }
      ],
      "stateMutability": "view",
      "type": "function"
    },
    {
      "inputs": [],
      "name": "mockedListingId",
      "outputs": [
        {
          "internalType": "uint256",
          "name": "",
          "type": "uint256"
        }
      ],
      "stateMutability": "view",
      "type": "function"
    },
    {
      "inputs": [],
      "name": "mockedMinPremium",
      "outputs": [
        {
          "internalType": "uint256",
          "name": "",
          "type": "uint256"
        }
      ],
      "stateMutability": "view",
      "type": "function"
    },
    {
      "inputs": [],
      "name": "mockedSize",
      "outputs": [
        {
          "internalType": "uint256",
          "name": "",
          "type": "uint256"
        }
      ],
      "stateMutability": "view",
      "type": "function"
    },
    {
      "inputs": [],
      "name": "mockedStrategyBytes",
      "outputs": [
        {
          "internalType": "bytes",
          "name": "",
          "type": "bytes"
        }
      ],
      "stateMutability": "view",
      "type": "function"
    },
    {
      "inputs": [],
      "name": "requestTrade",
      "outputs": [
        {
          "internalType": "uint256",
          "name": "listingId",
          "type": "uint256"
        },
        {
          "internalType": "uint256",
          "name": "size",
          "type": "uint256"
        },
        {
          "internalType": "uint256",
          "name": "minPremium",
          "type": "uint256"
        }
      ],
      "stateMutability": "view",
      "type": "function"
    },
    {
      "inputs": [
        {
          "internalType": "bool",
          "name": "_isValid",
          "type": "bool"
        }
      ],
      "name": "setMockedPostCheck",
      "outputs": [],
      "stateMutability": "nonpayable",
      "type": "function"
    },
    {
      "inputs": [
        {
          "internalType": "uint256",
          "name": "_listingId",
          "type": "uint256"
        },
        {
          "internalType": "uint256",
          "name": "_size",
          "type": "uint256"
        },
        {
          "internalType": "uint256",
          "name": "_minPremium",
          "type": "uint256"
        }
      ],
      "name": "setMockedTradeRequest",
      "outputs": [],
      "stateMutability": "nonpayable",
      "type": "function"
    },
    {
      "inputs": [
        {
          "internalType": "bytes",
          "name": "_strategyBytes",
          "type": "bytes"
        }
      ],
      "name": "setStrategy",
      "outputs": [],
      "stateMutability": "nonpayable",
      "type": "function"
    }
  ],
  "transactionHash": "0x3d135b02202fb66e59d3df7912060651cf35d2ff20120bef7d81a8f495fda81d",
  "args": [],
  "solcInputHash": "8718df598bfe1503fbffbe0482621e64",
  "bytecode": "0x608060405234801561001057600080fd5b50610441806100206000396000f3fe608060405234801561001057600080fd5b506004361061008e5760003560e01c8063166c39841461009357806327ef5632146100ad5780634f668421146100b5578063591bbc73146100d657806375bd3167146100fc578063969fdf6a14610125578063a72bd3bf146101c9578063ab30ef4d14610246578063bb5d40eb14610262578063f994a7f71461026a575b600080fd5b61009b610272565b60408051918252519081900360200190f35b61009b610278565b6100d4600480360360208110156100cb57600080fd5b5035151561027e565b005b6100de610291565b60408051938452602084019290925282820152519081900360600190f35b6100d46004803603606081101561011257600080fd5b508035906020810135906040013561029f565b6100d46004803603602081101561013b57600080fd5b810190602081018135600160201b81111561015557600080fd5b82018360208201111561016757600080fd5b803590602001918460018302840111600160201b8311171561018857600080fd5b91908080601f0160208091040260200160405190810160405280939291908181526020018383808284376000920191909152509295506102ad945050505050565b6101d16102c4565b6040805160208082528351818301528351919283929083019185019080838360005b8381101561020b5781810151838201526020016101f3565b50505050905090810190601f1680156102385780820380516001836020036101000a031916815260200191505b509250505060405180910390f35b61024e610352565b604080519115158252519081900360200190f35b61024e61035b565b61009b610364565b60005481565b60015481565b6004805460ff1916911515919091179055565b600054600154600254909192565b600092909255600155600255565b80516102c090600390602084019061036a565b5050565b6003805460408051602060026001851615610100026000190190941693909304601f8101849004840282018401909252818152929183018282801561034a5780601f1061031f5761010080835404028352916020019161034a565b820191906000526020600020905b81548152906001019060200180831161032d57829003601f168201915b505050505081565b60045460ff1690565b60045460ff1681565b60025481565b828054600181600116156101000203166002900490600052602060002090601f0160209004810192826103a057600085556103e6565b82601f106103b957805160ff19168380011785556103e6565b828001600101855582156103e6579182015b828111156103e65782518255916020019190600101906103cb565b506103f29291506103f6565b5090565b5b808211156103f257600081556001016103f756fea264697066735822122037ca31cc2919de1f45a36323c3ca8f8307b6430e2abe4bc960f65ffd2ac4524964736f6c63430007060033",
  "devdoc": {
    "kind": "dev",
    "methods": {
      "checkPostTrade()": {
        "details": "this should be executed after the vault execute trade on OptionMarket"
      }
    },
    "version": 1
  },
  "userdoc": {
    "kind": "user",
    "methods": {
      "requestTrade()": {
        "notice": "request trade detail according to the strategy."
      }
    },
    "version": 1
  },
  "storageLayout": {
    "storage": [
      {
        "astId": 4702,
        "contract": "contracts/mocks/MockStrategy.sol:MockStrategy",
        "label": "mockedListingId",
        "offset": 0,
        "slot": "0",
        "type": "t_uint256"
      },
      {
        "astId": 4704,
        "contract": "contracts/mocks/MockStrategy.sol:MockStrategy",
        "label": "mockedSize",
        "offset": 0,
        "slot": "1",
        "type": "t_uint256"
      },
      {
        "astId": 4706,
        "contract": "contracts/mocks/MockStrategy.sol:MockStrategy",
        "label": "mockedMinPremium",
        "offset": 0,
        "slot": "2",
        "type": "t_uint256"
      },
      {
        "astId": 4708,
        "contract": "contracts/mocks/MockStrategy.sol:MockStrategy",
        "label": "mockedStrategyBytes",
        "offset": 0,
        "slot": "3",
        "type": "t_bytes_storage"
      },
      {
        "astId": 4710,
        "contract": "contracts/mocks/MockStrategy.sol:MockStrategy",
        "label": "isValid",
        "offset": 0,
        "slot": "4",
        "type": "t_bool"
      }
    ],
    "types": {
      "t_bool": {
        "encoding": "inplace",
        "label": "bool",
        "numberOfBytes": "1"
      },
      "t_bytes_storage": {
        "encoding": "bytes",
        "label": "bytes",
        "numberOfBytes": "32"
      },
      "t_uint256": {
        "encoding": "inplace",
        "label": "uint256",
        "numberOfBytes": "32"
      }
    }
  }
}